{
  "_format": "hh-sol-artifact-1",
  "contractName": "Auction",
  "sourceName": "contracts/Auction.sol",
  "abi": [
    {
      "inputs": [],
      "stateMutability": "nonpayable",
      "type": "constructor"
    },
    {
      "inputs": [
        {
          "internalType": "address",
          "name": "sender",
          "type": "address"
        },
        {
          "internalType": "uint256",
          "name": "tokenId",
          "type": "uint256"
        },
        {
          "internalType": "address",
          "name": "owner",
          "type": "address"
        }
      ],
      "name": "ERC721IncorrectOwner",
      "type": "error"
    },
    {
      "inputs": [
        {
          "internalType": "address",
          "name": "operator",
          "type": "address"
        },
        {
          "internalType": "uint256",
          "name": "tokenId",
          "type": "uint256"
        }
      ],
      "name": "ERC721InsufficientApproval",
      "type": "error"
    },
    {
      "inputs": [
        {
          "internalType": "address",
          "name": "approver",
          "type": "address"
        }
      ],
      "name": "ERC721InvalidApprover",
      "type": "error"
    },
    {
      "inputs": [
        {
          "internalType": "address",
          "name": "operator",
          "type": "address"
        }
      ],
      "name": "ERC721InvalidOperator",
      "type": "error"
    },
    {
      "inputs": [
        {
          "internalType": "address",
          "name": "owner",
          "type": "address"
        }
      ],
      "name": "ERC721InvalidOwner",
      "type": "error"
    },
    {
      "inputs": [
        {
          "internalType": "address",
          "name": "receiver",
          "type": "address"
        }
      ],
      "name": "ERC721InvalidReceiver",
      "type": "error"
    },
    {
      "inputs": [
        {
          "internalType": "address",
          "name": "sender",
          "type": "address"
        }
      ],
      "name": "ERC721InvalidSender",
      "type": "error"
    },
    {
      "inputs": [
        {
          "internalType": "uint256",
          "name": "tokenId",
          "type": "uint256"
        }
      ],
      "name": "ERC721NonexistentToken",
      "type": "error"
    },
    {
      "anonymous": false,
      "inputs": [
        {
          "indexed": true,
          "internalType": "address",
          "name": "owner",
          "type": "address"
        },
        {
          "indexed": true,
          "internalType": "address",
          "name": "approved",
          "type": "address"
        },
        {
          "indexed": true,
          "internalType": "uint256",
          "name": "tokenId",
          "type": "uint256"
        }
      ],
      "name": "Approval",
      "type": "event"
    },
    {
      "anonymous": false,
      "inputs": [
        {
          "indexed": true,
          "internalType": "address",
          "name": "owner",
          "type": "address"
        },
        {
          "indexed": true,
          "internalType": "address",
          "name": "operator",
          "type": "address"
        },
        {
          "indexed": false,
          "internalType": "bool",
          "name": "approved",
          "type": "bool"
        }
      ],
      "name": "ApprovalForAll",
      "type": "event"
    },
    {
      "anonymous": false,
      "inputs": [
        {
          "indexed": false,
          "internalType": "address",
          "name": "auctioneer",
          "type": "address"
        },
        {
          "indexed": false,
          "internalType": "uint256",
          "name": "tokenId",
          "type": "uint256"
        },
        {
          "indexed": false,
          "internalType": "uint256",
          "name": "initialPrice",
          "type": "uint256"
        },
        {
          "indexed": false,
          "internalType": "address",
          "name": "previousBidder",
          "type": "address"
        },
        {
          "indexed": false,
          "internalType": "uint256",
          "name": "lastBid",
          "type": "uint256"
        },
        {
          "indexed": false,
          "internalType": "address",
          "name": "lastBidder",
          "type": "address"
        },
        {
          "indexed": false,
          "internalType": "uint256",
          "name": "startTime",
          "type": "uint256"
        },
        {
          "indexed": false,
          "internalType": "uint256",
          "name": "endTime",
          "type": "uint256"
        },
        {
          "indexed": false,
          "internalType": "bool",
          "name": "completed",
          "type": "bool"
        },
        {
          "indexed": false,
          "internalType": "bool",
          "name": "active",
          "type": "bool"
        },
        {
          "indexed": false,
          "internalType": "uint256",
          "name": "auctionId",
          "type": "uint256"
        }
      ],
      "name": "AuctionItemCreated",
      "type": "event"
    },
    {
      "anonymous": false,
      "inputs": [
        {
          "indexed": false,
          "internalType": "uint256",
          "name": "_fromTokenId",
          "type": "uint256"
        },
        {
          "indexed": false,
          "internalType": "uint256",
          "name": "_toTokenId",
          "type": "uint256"
        }
      ],
      "name": "BatchMetadataUpdate",
      "type": "event"
    },
    {
      "anonymous": false,
      "inputs": [
        {
          "indexed": false,
          "internalType": "uint256",
          "name": "_tokenId",
          "type": "uint256"
        }
      ],
      "name": "MetadataUpdate",
      "type": "event"
    },
    {
      "anonymous": false,
      "inputs": [
        {
          "indexed": true,
          "internalType": "address",
          "name": "from",
          "type": "address"
        },
        {
          "indexed": true,
          "internalType": "address",
          "name": "to",
          "type": "address"
        },
        {
          "indexed": true,
          "internalType": "uint256",
          "name": "tokenId",
          "type": "uint256"
        }
      ],
      "name": "Transfer",
      "type": "event"
    },
    {
      "inputs": [],
      "name": "AUCTION_SERVICE_FEE_RATE",
      "outputs": [
        {
          "internalType": "uint256",
          "name": "",
          "type": "uint256"
        }
      ],
      "stateMutability": "view",
      "type": "function"
    },
    {
      "inputs": [],
      "name": "MINIMUM_BID_RATE",
      "outputs": [
        {
          "internalType": "uint256",
          "name": "",
          "type": "uint256"
        }
      ],
      "stateMutability": "view",
      "type": "function"
    },
    {
      "inputs": [
        {
          "internalType": "address",
          "name": "to",
          "type": "address"
        },
        {
          "internalType": "uint256",
          "name": "tokenId",
          "type": "uint256"
        }
      ],
      "name": "approve",
      "outputs": [],
      "stateMutability": "nonpayable",
      "type": "function"
    },
    {
      "inputs": [
        {
          "internalType": "uint256",
          "name": "",
          "type": "uint256"
        }
      ],
      "name": "auctions",
      "outputs": [
        {
          "internalType": "address",
          "name": "auctioneer",
          "type": "address"
        },
        {
          "internalType": "uint256",
          "name": "tokenId",
          "type": "uint256"
        },
        {
          "internalType": "uint256",
          "name": "initialPrice",
          "type": "uint256"
        },
        {
          "internalType": "address",
          "name": "previousBidder",
          "type": "address"
        },
        {
          "internalType": "uint256",
          "name": "lastBid",
          "type": "uint256"
        },
        {
          "internalType": "address",
          "name": "lastBidder",
          "type": "address"
        },
        {
          "internalType": "uint256",
          "name": "startTime",
          "type": "uint256"
        },
        {
          "internalType": "uint256",
          "name": "endTime",
          "type": "uint256"
        },
        {
          "internalType": "bool",
          "name": "completed",
          "type": "bool"
        },
        {
          "internalType": "bool",
          "name": "active",
          "type": "bool"
        },
        {
          "internalType": "uint256",
          "name": "auctionId",
          "type": "uint256"
        }
      ],
      "stateMutability": "view",
      "type": "function"
    },
    {
      "inputs": [
        {
          "internalType": "address",
          "name": "owner",
          "type": "address"
        }
      ],
      "name": "balanceOf",
      "outputs": [
        {
          "internalType": "uint256",
          "name": "",
          "type": "uint256"
        }
      ],
      "stateMutability": "view",
      "type": "function"
    },
    {
      "inputs": [
        {
          "internalType": "uint256",
          "name": "_auctionId",
          "type": "uint256"
        }
      ],
      "name": "cancelAuction",
      "outputs": [],
      "stateMutability": "nonpayable",
      "type": "function"
    },
    {
      "inputs": [
        {
          "internalType": "uint256",
          "name": "_tokenId",
          "type": "uint256"
        },
        {
          "internalType": "uint256",
          "name": "_initialPrice",
          "type": "uint256"
        },
        {
          "internalType": "uint256",
          "name": "_startTime",
          "type": "uint256"
        },
        {
          "internalType": "uint256",
          "name": "_endTime",
          "type": "uint256"
        }
      ],
      "name": "createAuction",
      "outputs": [],
      "stateMutability": "nonpayable",
      "type": "function"
    },
    {
      "inputs": [
        {
          "internalType": "uint256",
          "name": "_auctionId",
          "type": "uint256"
        }
      ],
      "name": "finishAuction",
      "outputs": [],
      "stateMutability": "nonpayable",
      "type": "function"
    },
    {
      "inputs": [
        {
          "internalType": "uint256",
          "name": "tokenId",
          "type": "uint256"
        }
      ],
      "name": "getApproved",
      "outputs": [
        {
          "internalType": "address",
          "name": "",
          "type": "address"
        }
      ],
      "stateMutability": "view",
      "type": "function"
    },
    {
      "inputs": [
        {
          "internalType": "uint256",
          "name": "_auctionId",
          "type": "uint256"
        }
      ],
      "name": "getAuction",
      "outputs": [
        {
          "components": [
            {
              "internalType": "address",
              "name": "auctioneer",
              "type": "address"
            },
            {
              "internalType": "uint256",
              "name": "tokenId",
              "type": "uint256"
            },
            {
              "internalType": "uint256",
              "name": "initialPrice",
              "type": "uint256"
            },
            {
              "internalType": "address",
              "name": "previousBidder",
              "type": "address"
            },
            {
              "internalType": "uint256",
              "name": "lastBid",
              "type": "uint256"
            },
            {
              "internalType": "address",
              "name": "lastBidder",
              "type": "address"
            },
            {
              "internalType": "uint256",
              "name": "startTime",
              "type": "uint256"
            },
            {
              "internalType": "uint256",
              "name": "endTime",
              "type": "uint256"
            },
            {
              "internalType": "bool",
              "name": "completed",
              "type": "bool"
            },
            {
              "internalType": "bool",
              "name": "active",
              "type": "bool"
            },
            {
              "internalType": "uint256",
              "name": "auctionId",
              "type": "uint256"
            }
          ],
          "internalType": "struct Auction.AuctionInfo",
          "name": "",
          "type": "tuple"
        }
      ],
      "stateMutability": "view",
      "type": "function"
    },
    {
      "inputs": [
        {
          "internalType": "bool",
          "name": "_active",
          "type": "bool"
        }
      ],
      "name": "getAuctionsByStatus",
      "outputs": [
        {
          "components": [
            {
              "internalType": "address",
              "name": "auctioneer",
              "type": "address"
            },
            {
              "internalType": "uint256",
              "name": "tokenId",
              "type": "uint256"
            },
            {
              "internalType": "uint256",
              "name": "initialPrice",
              "type": "uint256"
            },
            {
              "internalType": "address",
              "name": "previousBidder",
              "type": "address"
            },
            {
              "internalType": "uint256",
              "name": "lastBid",
              "type": "uint256"
            },
            {
              "internalType": "address",
              "name": "lastBidder",
              "type": "address"
            },
            {
              "internalType": "uint256",
              "name": "startTime",
              "type": "uint256"
            },
            {
              "internalType": "uint256",
              "name": "endTime",
              "type": "uint256"
            },
            {
              "internalType": "bool",
              "name": "completed",
              "type": "bool"
            },
            {
              "internalType": "bool",
              "name": "active",
              "type": "bool"
            },
            {
              "internalType": "uint256",
              "name": "auctionId",
              "type": "uint256"
            }
          ],
          "internalType": "struct Auction.AuctionInfo[]",
          "name": "",
          "type": "tuple[]"
        }
      ],
      "stateMutability": "view",
      "type": "function"
    },
    {
      "inputs": [
        {
          "internalType": "address",
          "name": "owner",
          "type": "address"
        },
        {
          "internalType": "address",
          "name": "operator",
          "type": "address"
        }
      ],
      "name": "isApprovedForAll",
      "outputs": [
        {
          "internalType": "bool",
          "name": "",
          "type": "bool"
        }
      ],
      "stateMutability": "view",
      "type": "function"
    },
    {
      "inputs": [
        {
          "internalType": "uint256",
          "name": "_auctionId",
          "type": "uint256"
        },
        {
          "internalType": "uint256",
          "name": "_bid",
          "type": "uint256"
        }
      ],
      "name": "joinAuction",
      "outputs": [],
      "stateMutability": "nonpayable",
      "type": "function"
    },
    {
      "inputs": [],
      "name": "name",
      "outputs": [
        {
          "internalType": "string",
          "name": "",
          "type": "string"
        }
      ],
      "stateMutability": "view",
      "type": "function"
    },
    {
      "inputs": [],
      "name": "owner",
      "outputs": [
        {
          "internalType": "address payable",
          "name": "",
          "type": "address"
        }
      ],
      "stateMutability": "view",
      "type": "function"
    },
    {
      "inputs": [
        {
          "internalType": "uint256",
          "name": "tokenId",
          "type": "uint256"
        }
      ],
      "name": "ownerOf",
      "outputs": [
        {
          "internalType": "address",
          "name": "",
          "type": "address"
        }
      ],
      "stateMutability": "view",
      "type": "function"
    },
    {
      "inputs": [
        {
          "internalType": "address",
          "name": "from",
          "type": "address"
        },
        {
          "internalType": "address",
          "name": "to",
          "type": "address"
        },
        {
          "internalType": "uint256",
          "name": "tokenId",
          "type": "uint256"
        }
      ],
      "name": "safeTransferFrom",
      "outputs": [],
      "stateMutability": "nonpayable",
      "type": "function"
    },
    {
      "inputs": [
        {
          "internalType": "address",
          "name": "from",
          "type": "address"
        },
        {
          "internalType": "address",
          "name": "to",
          "type": "address"
        },
        {
          "internalType": "uint256",
          "name": "tokenId",
          "type": "uint256"
        },
        {
          "internalType": "bytes",
          "name": "data",
          "type": "bytes"
        }
      ],
      "name": "safeTransferFrom",
      "outputs": [],
      "stateMutability": "nonpayable",
      "type": "function"
    },
    {
      "inputs": [
        {
          "internalType": "address",
          "name": "operator",
          "type": "address"
        },
        {
          "internalType": "bool",
          "name": "approved",
          "type": "bool"
        }
      ],
      "name": "setApprovalForAll",
      "outputs": [],
      "stateMutability": "nonpayable",
      "type": "function"
    },
    {
      "inputs": [
        {
          "internalType": "bytes4",
          "name": "interfaceId",
          "type": "bytes4"
        }
      ],
      "name": "supportsInterface",
      "outputs": [
        {
          "internalType": "bool",
          "name": "",
          "type": "bool"
        }
      ],
      "stateMutability": "view",
      "type": "function"
    },
    {
      "inputs": [],
      "name": "symbol",
      "outputs": [
        {
          "internalType": "string",
          "name": "",
          "type": "string"
        }
      ],
      "stateMutability": "view",
      "type": "function"
    },
    {
      "inputs": [
        {
          "internalType": "uint256",
          "name": "tokenId",
          "type": "uint256"
        }
      ],
      "name": "tokenURI",
      "outputs": [
        {
          "internalType": "string",
          "name": "",
          "type": "string"
        }
      ],
      "stateMutability": "view",
      "type": "function"
    },
    {
      "inputs": [
        {
          "internalType": "address",
          "name": "from",
          "type": "address"
        },
        {
          "internalType": "address",
          "name": "to",
          "type": "address"
        },
        {
          "internalType": "uint256",
          "name": "tokenId",
          "type": "uint256"
        }
      ],
      "name": "transferFrom",
      "outputs": [],
      "stateMutability": "nonpayable",
      "type": "function"
    }
  ],
  "bytecode": "0x60806040523480156200001157600080fd5b506040518060400160405280601881526020017f4d65746176657273652041756374696f6e20546f6b656e7300000000000000008152506040518060400160405280600581526020017f4d4554415400000000000000000000000000000000000000000000000000000081525081600090816200008f919062000365565b508060019081620000a1919062000365565b50505033600760006101000a81548173ffffffffffffffffffffffffffffffffffffffff021916908373ffffffffffffffffffffffffffffffffffffffff1602179055506200044c565b600081519050919050565b7f4e487b7100000000000000000000000000000000000000000000000000000000600052604160045260246000fd5b7f4e487b7100000000000000000000000000000000000000000000000000000000600052602260045260246000fd5b600060028204905060018216806200016d57607f821691505b60208210810362000183576200018262000125565b5b50919050565b60008190508160005260206000209050919050565b60006020601f8301049050919050565b600082821b905092915050565b600060088302620001ed7fffffffffffffffffffffffffffffffffffffffffffffffffffffffffffffffff82620001ae565b620001f98683620001ae565b95508019841693508086168417925050509392505050565b6000819050919050565b6000819050919050565b600062000246620002406200023a8462000211565b6200021b565b62000211565b9050919050565b6000819050919050565b620002628362000225565b6200027a62000271826200024d565b848454620001bb565b825550505050565b600090565b6200029162000282565b6200029e81848462000257565b505050565b5b81811015620002c657620002ba60008262000287565b600181019050620002a4565b5050565b601f8211156200031557620002df8162000189565b620002ea846200019e565b81016020851015620002fa578190505b6200031262000309856200019e565b830182620002a3565b50505b505050565b600082821c905092915050565b60006200033a600019846008026200031a565b1980831691505092915050565b600062000355838362000327565b9150826002028217905092915050565b6200037082620000eb565b67ffffffffffffffff8111156200038c576200038b620000f6565b5b62000398825462000154565b620003a5828285620002ca565b600060209050601f831160018114620003dd5760008415620003c8578287015190505b620003d4858262000347565b86555062000444565b601f198416620003ed8662000189565b60005b828110156200041757848901518255600182019150602085019450602081019050620003f0565b8683101562000437578489015162000433601f89168262000327565b8355505b6001600288020188555050505b505050505050565b614174806200045c6000396000f3fe608060405234801561001057600080fd5b506004361061014d5760003560e01c806378bd7935116100c3578063bd0a079d1161007c578063bd0a079d146103b8578063c504a382146103d6578063c87b56dd14610406578063cf266ed014610436578063e985e9c514610452578063f08e6e76146104825761014d565b806378bd7935146102f85780638da5cb5b1461032857806395d89b411461034657806396b5a75514610364578063a22cb46514610380578063b88d4fde1461039c5761014d565b806342842e0e1161011557806342842e0e14610208578063431f21da14610224578063571a26a0146102405780636352211e1461027a5780636aadfdd0146102aa57806370a08231146102c85761014d565b806301ffc9a71461015257806306fdde0314610182578063081812fc146101a0578063095ea7b3146101d057806323b872dd146101ec575b600080fd5b61016c60048036038101906101679190612e37565b61049e565b6040516101799190612e7f565b60405180910390f35b61018a6104ff565b6040516101979190612f2a565b60405180910390f35b6101ba60048036038101906101b59190612f82565b610591565b6040516101c79190612ff0565b60405180910390f35b6101ea60048036038101906101e59190613037565b6105ad565b005b61020660048036038101906102019190613077565b6105c3565b005b610222600480360381019061021d9190613077565b6106c5565b005b61023e600480360381019061023991906130ca565b6106e5565b005b61025a60048036038101906102559190612f82565b610afb565b6040516102719b9a99989796959493929190613140565b60405180910390f35b610294600480360381019061028f9190612f82565b610bdf565b6040516102a19190612ff0565b60405180910390f35b6102b2610bf1565b6040516102bf91906131eb565b60405180910390f35b6102e260048036038101906102dd9190613206565b610bf6565b6040516102ef91906131eb565b60405180910390f35b610312600480360381019061030d9190612f82565b610cb0565b60405161031f9190613341565b60405180910390f35b610330610e61565b60405161033d919061337e565b60405180910390f35b61034e610e87565b60405161035b9190612f2a565b60405180910390f35b61037e60048036038101906103799190612f82565b610f19565b005b61039a600480360381019061039591906133c5565b611205565b005b6103b660048036038101906103b1919061353a565b61121b565b005b6103c0611238565b6040516103cd91906131eb565b60405180910390f35b6103f060048036038101906103eb91906135bd565b61123d565b6040516103fd919061377b565b60405180910390f35b610420600480360381019061041b9190612f82565b611544565b60405161042d9190612f2a565b60405180910390f35b610450600480360381019061044b9190612f82565b611657565b005b61046c6004803603810190610467919061379d565b611932565b6040516104799190612e7f565b60405180910390f35b61049c600480360381019061049791906137dd565b6119c6565b005b6000634906490660e01b7bffffffffffffffffffffffffffffffffffffffffffffffffffffffff1916827bffffffffffffffffffffffffffffffffffffffffffffffffffffffff191614806104f857506104f782611e2b565b5b9050919050565b60606000805461050e9061384c565b80601f016020809104026020016040519081016040528092919081815260200182805461053a9061384c565b80156105875780601f1061055c57610100808354040283529160200191610587565b820191906000526020600020905b81548152906001019060200180831161056a57829003601f168201915b5050505050905090565b600061059c82611f0d565b506105a682611f95565b9050919050565b6105bf82826105ba611fd2565b611fda565b5050565b600073ffffffffffffffffffffffffffffffffffffffff168273ffffffffffffffffffffffffffffffffffffffff16036106355760006040517f64a0ae9200000000000000000000000000000000000000000000000000000000815260040161062c9190612ff0565b60405180910390fd5b60006106498383610644611fd2565b611fec565b90508373ffffffffffffffffffffffffffffffffffffffff168173ffffffffffffffffffffffffffffffffffffffff16146106bf578382826040517f64283d7b0000000000000000000000000000000000000000000000000000000081526004016106b69392919061387d565b60405180910390fd5b50505050565b6106e08383836040518060200160405280600081525061121b565b505050565b81421115610728576040517f08c379a000000000000000000000000000000000000000000000000000000000815260040161071f90613900565b60405180910390fd5b80821061076a576040517f08c379a00000000000000000000000000000000000000000000000000000000081526004016107619061396c565b60405180910390fd5b600083116107ad576040517f08c379a00000000000000000000000000000000000000000000000000000000081526004016107a4906139fe565b60405180910390fd5b3373ffffffffffffffffffffffffffffffffffffffff166107cd85610bdf565b73ffffffffffffffffffffffffffffffffffffffff1614610823576040517f08c379a000000000000000000000000000000000000000000000000000000000815260040161081a90613a6a565b60405180910390fd5b61083561082f85610bdf565b30611932565b610874576040517f08c379a000000000000000000000000000000000000000000000000000000000815260040161086b90613ad6565b60405180910390fd5b61087f333086612206565b60006040518061016001604052803373ffffffffffffffffffffffffffffffffffffffff168152602001868152602001858152602001600073ffffffffffffffffffffffffffffffffffffffff168152602001858152602001600073ffffffffffffffffffffffffffffffffffffffff168152602001848152602001838152602001600015158152602001600115158152602001600880549050815250905060088190806001815401808255809150506001900390600052602060002090600a020160009091909190915060008201518160000160006101000a81548173ffffffffffffffffffffffffffffffffffffffff021916908373ffffffffffffffffffffffffffffffffffffffff160217905550602082015181600101556040820151816002015560608201518160030160006101000a81548173ffffffffffffffffffffffffffffffffffffffff021916908373ffffffffffffffffffffffffffffffffffffffff1602179055506080820151816004015560a08201518160050160006101000a81548173ffffffffffffffffffffffffffffffffffffffff021916908373ffffffffffffffffffffffffffffffffffffffff16021790555060c0820151816006015560e082015181600701556101008201518160080160006101000a81548160ff0219169083151502179055506101208201518160080160016101000a81548160ff021916908315150217905550610140820151816009015550507f15ab4907e20bffcfc2e4889d03c054eaface20de902bdcf03aba0b6991a845453386866000886000898960006001600880549050604051610aec9b9a99989796959493929190613140565b60405180910390a15050505050565b60088181548110610b0b57600080fd5b90600052602060002090600a02016000915090508060000160009054906101000a900473ffffffffffffffffffffffffffffffffffffffff16908060010154908060020154908060030160009054906101000a900473ffffffffffffffffffffffffffffffffffffffff16908060040154908060050160009054906101000a900473ffffffffffffffffffffffffffffffffffffffff16908060060154908060070154908060080160009054906101000a900460ff16908060080160019054906101000a900460ff1690806009015490508b565b6000610bea82611f0d565b9050919050565b606e81565b60008073ffffffffffffffffffffffffffffffffffffffff168273ffffffffffffffffffffffffffffffffffffffff1603610c695760006040517f89c62b64000000000000000000000000000000000000000000000000000000008152600401610c609190612ff0565b60405180910390fd5b600360008373ffffffffffffffffffffffffffffffffffffffff1673ffffffffffffffffffffffffffffffffffffffff168152602001908152602001600020549050919050565b610cb8612d2b565b60088281548110610ccc57610ccb613af6565b5b90600052602060002090600a0201604051806101600160405290816000820160009054906101000a900473ffffffffffffffffffffffffffffffffffffffff1673ffffffffffffffffffffffffffffffffffffffff1673ffffffffffffffffffffffffffffffffffffffff16815260200160018201548152602001600282015481526020016003820160009054906101000a900473ffffffffffffffffffffffffffffffffffffffff1673ffffffffffffffffffffffffffffffffffffffff1673ffffffffffffffffffffffffffffffffffffffff168152602001600482015481526020016005820160009054906101000a900473ffffffffffffffffffffffffffffffffffffffff1673ffffffffffffffffffffffffffffffffffffffff1673ffffffffffffffffffffffffffffffffffffffff16815260200160068201548152602001600782015481526020016008820160009054906101000a900460ff161515151581526020016008820160019054906101000a900460ff161515151581526020016009820154815250509050919050565b600760009054906101000a900473ffffffffffffffffffffffffffffffffffffffff1681565b606060018054610e969061384c565b80601f0160208091040260200160405190810160405280929190818152602001828054610ec29061384c565b8015610f0f5780601f10610ee457610100808354040283529160200191610f0f565b820191906000526020600020905b815481529060010190602001808311610ef257829003601f168201915b5050505050905090565b600060088281548110610f2f57610f2e613af6565b5b90600052602060002090600a020190508060000160009054906101000a900473ffffffffffffffffffffffffffffffffffffffff1673ffffffffffffffffffffffffffffffffffffffff163373ffffffffffffffffffffffffffffffffffffffff161480610fea5750600760009054906101000a900473ffffffffffffffffffffffffffffffffffffffff1673ffffffffffffffffffffffffffffffffffffffff163373ffffffffffffffffffffffffffffffffffffffff16145b611029576040517f08c379a000000000000000000000000000000000000000000000000000000000815260040161102090613b71565b60405180910390fd5b8060080160009054906101000a900460ff161561107b576040517f08c379a000000000000000000000000000000000000000000000000000000000815260040161107290613bdd565b60405180910390fd5b8060080160019054906101000a900460ff166110cc576040517f08c379a00000000000000000000000000000000000000000000000000000000081526004016110c390613c49565b60405180910390fd5b6110ff308260000160009054906101000a900473ffffffffffffffffffffffffffffffffffffffff1683600101546106c5565b600073ffffffffffffffffffffffffffffffffffffffff168160050160009054906101000a900473ffffffffffffffffffffffffffffffffffffffff1673ffffffffffffffffffffffffffffffffffffffff16146111c7578060050160009054906101000a900473ffffffffffffffffffffffffffffffffffffffff1673ffffffffffffffffffffffffffffffffffffffff166108fc82600401549081150290604051600060405180830381858888f193505050501580156111c5573d6000803e3d6000fd5b505b60018160080160006101000a81548160ff02191690831515021790555060008160080160016101000a81548160ff0219169083151502179055505050565b611217611210611fd2565b8383612373565b5050565b6112268484846105c3565b611232848484846124e2565b50505050565b600381565b60606000805b6008805490508110156112af578315156008828154811061126757611266613af6565b5b90600052602060002090600a020160080160019054906101000a900460ff1615150361129c57818061129890613c98565b9250505b80806112a790613c98565b915050611243565b5060008167ffffffffffffffff8111156112cc576112cb61340f565b5b60405190808252806020026020018201604052801561130557816020015b6112f2612d2b565b8152602001906001900390816112ea5790505b5090506000805b60088054905081101561153857851515600882815481106113305761132f613af6565b5b90600052602060002090600a020160080160019054906101000a900460ff16151503611525576008818154811061136a57611369613af6565b5b90600052602060002090600a0201604051806101600160405290816000820160009054906101000a900473ffffffffffffffffffffffffffffffffffffffff1673ffffffffffffffffffffffffffffffffffffffff1673ffffffffffffffffffffffffffffffffffffffff16815260200160018201548152602001600282015481526020016003820160009054906101000a900473ffffffffffffffffffffffffffffffffffffffff1673ffffffffffffffffffffffffffffffffffffffff1673ffffffffffffffffffffffffffffffffffffffff168152602001600482015481526020016005820160009054906101000a900473ffffffffffffffffffffffffffffffffffffffff1673ffffffffffffffffffffffffffffffffffffffff1673ffffffffffffffffffffffffffffffffffffffff16815260200160068201548152602001600782015481526020016008820160009054906101000a900460ff161515151581526020016008820160019054906101000a900460ff1615151515815260200160098201548152505083838151811061150b5761150a613af6565b5b6020026020010181905250818061152190613c98565b9250505b808061153090613c98565b91505061130c565b50819350505050919050565b606061154f82611f0d565b5060006006600084815260200190815260200160002080546115709061384c565b80601f016020809104026020016040519081016040528092919081815260200182805461159c9061384c565b80156115e95780601f106115be576101008083540402835291602001916115e9565b820191906000526020600020905b8154815290600101906020018083116115cc57829003601f168201915b5050505050905060006115fa612699565b9050600081510361160f578192505050611652565b60008251111561164457808260405160200161162c929190613d1c565b60405160208183030381529060405292505050611652565b61164d846126b0565b925050505b919050565b60006008828154811061166d5761166c613af6565b5b90600052602060002090600a020190508060000160009054906101000a900473ffffffffffffffffffffffffffffffffffffffff1673ffffffffffffffffffffffffffffffffffffffff163373ffffffffffffffffffffffffffffffffffffffff1614806117285750600760009054906101000a900473ffffffffffffffffffffffffffffffffffffffff1673ffffffffffffffffffffffffffffffffffffffff163373ffffffffffffffffffffffffffffffffffffffff16145b611767576040517f08c379a000000000000000000000000000000000000000000000000000000000815260040161175e90613b71565b60405180910390fd5b8060080160009054906101000a900460ff16156117b9576040517f08c379a00000000000000000000000000000000000000000000000000000000081526004016117b090613bdd565b60405180910390fd5b8060080160019054906101000a900460ff1661180a576040517f08c379a000000000000000000000000000000000000000000000000000000000815260040161180190613c49565b60405180910390fd5b61183d308260050160009054906101000a900473ffffffffffffffffffffffffffffffffffffffff1683600101546105c3565b6000816002015482600401546118539190613d40565b9050600060646003836118669190613d74565b6118709190613de5565b905060008184600401546118849190613d40565b90508360000160009054906101000a900473ffffffffffffffffffffffffffffffffffffffff1673ffffffffffffffffffffffffffffffffffffffff166108fc829081150290604051600060405180830381858888f193505050501580156118f0573d6000803e3d6000fd5b5060018460080160006101000a81548160ff02191690831515021790555060008460080160016101000a81548160ff0219169083151502179055505050505050565b6000600560008473ffffffffffffffffffffffffffffffffffffffff1673ffffffffffffffffffffffffffffffffffffffff16815260200190815260200160002060008373ffffffffffffffffffffffffffffffffffffffff1673ffffffffffffffffffffffffffffffffffffffff16815260200190815260200160002060009054906101000a900460ff16905092915050565b6000600883815481106119dc576119db613af6565b5b90600052602060002090600a020190508060060154421015611a33576040517f08c379a0000000000000000000000000000000000000000000000000000000008152600401611a2a90613e62565b60405180910390fd5b8060080160009054906101000a900460ff1615611a85576040517f08c379a0000000000000000000000000000000000000000000000000000000008152600401611a7c90613bdd565b60405180910390fd5b8060080160019054906101000a900460ff16611ad6576040517f08c379a0000000000000000000000000000000000000000000000000000000008152600401611acd90613ece565b60405180910390fd5b60008073ffffffffffffffffffffffffffffffffffffffff168260050160009054906101000a900473ffffffffffffffffffffffffffffffffffffffff1673ffffffffffffffffffffffffffffffffffffffff1614611b51576064606e8360040154611b429190613d74565b611b4c9190613de5565b611b57565b81600201545b905080831015611b9c576040517f08c379a0000000000000000000000000000000000000000000000000000000008152600401611b9390613f3a565b60405180910390fd5b82611ba633610bf6565b1015611be7576040517f08c379a0000000000000000000000000000000000000000000000000000000008152600401611bde90613fa6565b60405180910390fd5b8160000160009054906101000a900473ffffffffffffffffffffffffffffffffffffffff1673ffffffffffffffffffffffffffffffffffffffff163373ffffffffffffffffffffffffffffffffffffffff1603611c79576040517f08c379a0000000000000000000000000000000000000000000000000000000008152600401611c7090614012565b60405180910390fd5b611caa600760009054906101000a900473ffffffffffffffffffffffffffffffffffffffff163384600101546105c3565b600073ffffffffffffffffffffffffffffffffffffffff168260050160009054906101000a900473ffffffffffffffffffffffffffffffffffffffff1673ffffffffffffffffffffffffffffffffffffffff1614611d72578160000160009054906101000a900473ffffffffffffffffffffffffffffffffffffffff1673ffffffffffffffffffffffffffffffffffffffff166108fc83600401549081150290604051600060405180830381858888f19350505050158015611d70573d6000803e3d6000fd5b505b8160050160009054906101000a900473ffffffffffffffffffffffffffffffffffffffff168260030160006101000a81548173ffffffffffffffffffffffffffffffffffffffff021916908373ffffffffffffffffffffffffffffffffffffffff160217905550338260050160006101000a81548173ffffffffffffffffffffffffffffffffffffffff021916908373ffffffffffffffffffffffffffffffffffffffff16021790555082826004018190555050505050565b60007f80ac58cd000000000000000000000000000000000000000000000000000000007bffffffffffffffffffffffffffffffffffffffffffffffffffffffff1916827bffffffffffffffffffffffffffffffffffffffffffffffffffffffff19161480611ef657507f5b5e139f000000000000000000000000000000000000000000000000000000007bffffffffffffffffffffffffffffffffffffffffffffffffffffffff1916827bffffffffffffffffffffffffffffffffffffffffffffffffffffffff1916145b80611f065750611f0582612719565b5b9050919050565b600080611f1983612783565b9050600073ffffffffffffffffffffffffffffffffffffffff168173ffffffffffffffffffffffffffffffffffffffff1603611f8c57826040517f7e273289000000000000000000000000000000000000000000000000000000008152600401611f8391906131eb565b60405180910390fd5b80915050919050565b60006004600083815260200190815260200160002060009054906101000a900473ffffffffffffffffffffffffffffffffffffffff169050919050565b600033905090565b611fe783838360016127c0565b505050565b600080611ff884612783565b9050600073ffffffffffffffffffffffffffffffffffffffff168373ffffffffffffffffffffffffffffffffffffffff161461203a57612039818486612985565b5b600073ffffffffffffffffffffffffffffffffffffffff168173ffffffffffffffffffffffffffffffffffffffff16146120cb5761207c6000856000806127c0565b6001600360008373ffffffffffffffffffffffffffffffffffffffff1673ffffffffffffffffffffffffffffffffffffffff168152602001908152602001600020600082825403925050819055505b600073ffffffffffffffffffffffffffffffffffffffff168573ffffffffffffffffffffffffffffffffffffffff161461214e576001600360008773ffffffffffffffffffffffffffffffffffffffff1673ffffffffffffffffffffffffffffffffffffffff168152602001908152602001600020600082825401925050819055505b846002600086815260200190815260200160002060006101000a81548173ffffffffffffffffffffffffffffffffffffffff021916908373ffffffffffffffffffffffffffffffffffffffff160217905550838573ffffffffffffffffffffffffffffffffffffffff168273ffffffffffffffffffffffffffffffffffffffff167fddf252ad1be2c89b69c2b068fc378daa952ba7f163c4a11628f55a4df523b3ef60405160405180910390a4809150509392505050565b600073ffffffffffffffffffffffffffffffffffffffff168273ffffffffffffffffffffffffffffffffffffffff16036122785760006040517f64a0ae9200000000000000000000000000000000000000000000000000000000815260040161226f9190612ff0565b60405180910390fd5b600061228683836000611fec565b9050600073ffffffffffffffffffffffffffffffffffffffff168173ffffffffffffffffffffffffffffffffffffffff16036122f957816040517f7e2732890000000000000000000000000000000000000000000000000000000081526004016122f091906131eb565b60405180910390fd5b8373ffffffffffffffffffffffffffffffffffffffff168173ffffffffffffffffffffffffffffffffffffffff161461236d578382826040517f64283d7b0000000000000000000000000000000000000000000000000000000081526004016123649392919061387d565b60405180910390fd5b50505050565b600073ffffffffffffffffffffffffffffffffffffffff168273ffffffffffffffffffffffffffffffffffffffff16036123e457816040517f5b08ba180000000000000000000000000000000000000000000000000000000081526004016123db9190612ff0565b60405180910390fd5b80600560008573ffffffffffffffffffffffffffffffffffffffff1673ffffffffffffffffffffffffffffffffffffffff16815260200190815260200160002060008473ffffffffffffffffffffffffffffffffffffffff1673ffffffffffffffffffffffffffffffffffffffff16815260200190815260200160002060006101000a81548160ff0219169083151502179055508173ffffffffffffffffffffffffffffffffffffffff168373ffffffffffffffffffffffffffffffffffffffff167f17307eab39ab6107e8899845ad3d59bd9653f200f220920489ca2b5937696c31836040516124d59190612e7f565b60405180910390a3505050565b60008373ffffffffffffffffffffffffffffffffffffffff163b1115612693578273ffffffffffffffffffffffffffffffffffffffff1663150b7a02612526611fd2565b8685856040518563ffffffff1660e01b81526004016125489493929190614087565b6020604051808303816000875af192505050801561258457506040513d601f19601f8201168201806040525081019061258191906140e8565b60015b612608573d80600081146125b4576040519150601f19603f3d011682016040523d82523d6000602084013e6125b9565b606091505b50600081510361260057836040517f64a0ae920000000000000000000000000000000000000000000000000000000081526004016125f79190612ff0565b60405180910390fd5b805181602001fd5b63150b7a0260e01b7bffffffffffffffffffffffffffffffffffffffffffffffffffffffff1916817bffffffffffffffffffffffffffffffffffffffffffffffffffffffff19161461269157836040517f64a0ae920000000000000000000000000000000000000000000000000000000081526004016126889190612ff0565b60405180910390fd5b505b50505050565b606060405180602001604052806000815250905090565b60606126bb82611f0d565b5060006126c6612699565b905060008151116126e65760405180602001604052806000815250612711565b806126f084612a49565b604051602001612701929190613d1c565b6040516020818303038152906040525b915050919050565b60007f01ffc9a7000000000000000000000000000000000000000000000000000000007bffffffffffffffffffffffffffffffffffffffffffffffffffffffff1916827bffffffffffffffffffffffffffffffffffffffffffffffffffffffff1916149050919050565b60006002600083815260200190815260200160002060009054906101000a900473ffffffffffffffffffffffffffffffffffffffff169050919050565b80806127f95750600073ffffffffffffffffffffffffffffffffffffffff168273ffffffffffffffffffffffffffffffffffffffff1614155b1561292d57600061280984611f0d565b9050600073ffffffffffffffffffffffffffffffffffffffff168373ffffffffffffffffffffffffffffffffffffffff161415801561287457508273ffffffffffffffffffffffffffffffffffffffff168173ffffffffffffffffffffffffffffffffffffffff1614155b801561288757506128858184611932565b155b156128c957826040517fa9fbf51f0000000000000000000000000000000000000000000000000000000081526004016128c09190612ff0565b60405180910390fd5b811561292b57838573ffffffffffffffffffffffffffffffffffffffff168273ffffffffffffffffffffffffffffffffffffffff167f8c5be1e5ebec7d5bd14f71427d1e84f3dd0314c0f7b2291e5b200ac8c7c3b92560405160405180910390a45b505b836004600085815260200190815260200160002060006101000a81548173ffffffffffffffffffffffffffffffffffffffff021916908373ffffffffffffffffffffffffffffffffffffffff16021790555050505050565b612990838383612b17565b612a4457600073ffffffffffffffffffffffffffffffffffffffff168373ffffffffffffffffffffffffffffffffffffffff1603612a0557806040517f7e2732890000000000000000000000000000000000000000000000000000000081526004016129fc91906131eb565b60405180910390fd5b81816040517f177e802f000000000000000000000000000000000000000000000000000000008152600401612a3b929190614115565b60405180910390fd5b505050565b606060006001612a5884612bd8565b01905060008167ffffffffffffffff811115612a7757612a7661340f565b5b6040519080825280601f01601f191660200182016040528015612aa95781602001600182028036833780820191505090505b509050600082602001820190505b600115612b0c578080600190039150507f3031323334353637383961626364656600000000000000000000000000000000600a86061a8153600a8581612b0057612aff613db6565b5b04945060008503612ab7575b819350505050919050565b60008073ffffffffffffffffffffffffffffffffffffffff168373ffffffffffffffffffffffffffffffffffffffff1614158015612bcf57508273ffffffffffffffffffffffffffffffffffffffff168473ffffffffffffffffffffffffffffffffffffffff161480612b905750612b8f8484611932565b5b80612bce57508273ffffffffffffffffffffffffffffffffffffffff16612bb683611f95565b73ffffffffffffffffffffffffffffffffffffffff16145b5b90509392505050565b600080600090507a184f03e93ff9f4daa797ed6e38ed64bf6a1f0100000000000000008310612c36577a184f03e93ff9f4daa797ed6e38ed64bf6a1f0100000000000000008381612c2c57612c2b613db6565b5b0492506040810190505b6d04ee2d6d415b85acef81000000008310612c73576d04ee2d6d415b85acef81000000008381612c6957612c68613db6565b5b0492506020810190505b662386f26fc100008310612ca257662386f26fc100008381612c9857612c97613db6565b5b0492506010810190505b6305f5e1008310612ccb576305f5e1008381612cc157612cc0613db6565b5b0492506008810190505b6127108310612cf0576127108381612ce657612ce5613db6565b5b0492506004810190505b60648310612d135760648381612d0957612d08613db6565b5b0492506002810190505b600a8310612d22576001810190505b80915050919050565b604051806101600160405280600073ffffffffffffffffffffffffffffffffffffffff1681526020016000815260200160008152602001600073ffffffffffffffffffffffffffffffffffffffff16815260200160008152602001600073ffffffffffffffffffffffffffffffffffffffff1681526020016000815260200160008152602001600015158152602001600015158152602001600081525090565b6000604051905090565b600080fd5b600080fd5b60007fffffffff0000000000000000000000000000000000000000000000000000000082169050919050565b612e1481612ddf565b8114612e1f57600080fd5b50565b600081359050612e3181612e0b565b92915050565b600060208284031215612e4d57612e4c612dd5565b5b6000612e5b84828501612e22565b91505092915050565b60008115159050919050565b612e7981612e64565b82525050565b6000602082019050612e946000830184612e70565b92915050565b600081519050919050565b600082825260208201905092915050565b60005b83811015612ed4578082015181840152602081019050612eb9565b60008484015250505050565b6000601f19601f8301169050919050565b6000612efc82612e9a565b612f068185612ea5565b9350612f16818560208601612eb6565b612f1f81612ee0565b840191505092915050565b60006020820190508181036000830152612f448184612ef1565b905092915050565b6000819050919050565b612f5f81612f4c565b8114612f6a57600080fd5b50565b600081359050612f7c81612f56565b92915050565b600060208284031215612f9857612f97612dd5565b5b6000612fa684828501612f6d565b91505092915050565b600073ffffffffffffffffffffffffffffffffffffffff82169050919050565b6000612fda82612faf565b9050919050565b612fea81612fcf565b82525050565b60006020820190506130056000830184612fe1565b92915050565b61301481612fcf565b811461301f57600080fd5b50565b6000813590506130318161300b565b92915050565b6000806040838503121561304e5761304d612dd5565b5b600061305c85828601613022565b925050602061306d85828601612f6d565b9150509250929050565b6000806000606084860312156130905761308f612dd5565b5b600061309e86828701613022565b93505060206130af86828701613022565b92505060406130c086828701612f6d565b9150509250925092565b600080600080608085870312156130e4576130e3612dd5565b5b60006130f287828801612f6d565b945050602061310387828801612f6d565b935050604061311487828801612f6d565b925050606061312587828801612f6d565b91505092959194509250565b61313a81612f4c565b82525050565b600061016082019050613156600083018e612fe1565b613163602083018d613131565b613170604083018c613131565b61317d606083018b612fe1565b61318a608083018a613131565b61319760a0830189612fe1565b6131a460c0830188613131565b6131b160e0830187613131565b6131bf610100830186612e70565b6131cd610120830185612e70565b6131db610140830184613131565b9c9b505050505050505050505050565b60006020820190506132006000830184613131565b92915050565b60006020828403121561321c5761321b612dd5565b5b600061322a84828501613022565b91505092915050565b61323c81612fcf565b82525050565b61324b81612f4c565b82525050565b61325a81612e64565b82525050565b610160820160008201516132776000850182613233565b50602082015161328a6020850182613242565b50604082015161329d6040850182613242565b5060608201516132b06060850182613233565b5060808201516132c36080850182613242565b5060a08201516132d660a0850182613233565b5060c08201516132e960c0850182613242565b5060e08201516132fc60e0850182613242565b50610100820151613311610100850182613251565b50610120820151613326610120850182613251565b5061014082015161333b610140850182613242565b50505050565b6000610160820190506133576000830184613260565b92915050565b600061336882612faf565b9050919050565b6133788161335d565b82525050565b6000602082019050613393600083018461336f565b92915050565b6133a281612e64565b81146133ad57600080fd5b50565b6000813590506133bf81613399565b92915050565b600080604083850312156133dc576133db612dd5565b5b60006133ea85828601613022565b92505060206133fb858286016133b0565b9150509250929050565b600080fd5b600080fd5b7f4e487b7100000000000000000000000000000000000000000000000000000000600052604160045260246000fd5b61344782612ee0565b810181811067ffffffffffffffff821117156134665761346561340f565b5b80604052505050565b6000613479612dcb565b9050613485828261343e565b919050565b600067ffffffffffffffff8211156134a5576134a461340f565b5b6134ae82612ee0565b9050602081019050919050565b82818337600083830152505050565b60006134dd6134d88461348a565b61346f565b9050828152602081018484840111156134f9576134f861340a565b5b6135048482856134bb565b509392505050565b600082601f83011261352157613520613405565b5b81356135318482602086016134ca565b91505092915050565b6000806000806080858703121561355457613553612dd5565b5b600061356287828801613022565b945050602061357387828801613022565b935050604061358487828801612f6d565b925050606085013567ffffffffffffffff8111156135a5576135a4612dda565b5b6135b18782880161350c565b91505092959194509250565b6000602082840312156135d3576135d2612dd5565b5b60006135e1848285016133b0565b91505092915050565b600081519050919050565b600082825260208201905092915050565b6000819050602082019050919050565b6101608201600082015161362d6000850182613233565b5060208201516136406020850182613242565b5060408201516136536040850182613242565b5060608201516136666060850182613233565b5060808201516136796080850182613242565b5060a082015161368c60a0850182613233565b5060c082015161369f60c0850182613242565b5060e08201516136b260e0850182613242565b506101008201516136c7610100850182613251565b506101208201516136dc610120850182613251565b506101408201516136f1610140850182613242565b50505050565b60006137038383613616565b6101608301905092915050565b6000602082019050919050565b6000613728826135ea565b61373281856135f5565b935061373d83613606565b8060005b8381101561376e57815161375588826136f7565b975061376083613710565b925050600181019050613741565b5085935050505092915050565b60006020820190508181036000830152613795818461371d565b905092915050565b600080604083850312156137b4576137b3612dd5565b5b60006137c285828601613022565b92505060206137d385828601613022565b9150509250929050565b600080604083850312156137f4576137f3612dd5565b5b600061380285828601612f6d565b925050602061381385828601612f6d565b9150509250929050565b7f4e487b7100000000000000000000000000000000000000000000000000000000600052602260045260246000fd5b6000600282049050600182168061386457607f821691505b6020821081036138775761387661381d565b5b50919050565b60006060820190506138926000830186612fe1565b61389f6020830185613131565b6138ac6040830184612fe1565b949350505050565b7f41756374696f6e2063616e6e6f74207374617274207965740000000000000000600082015250565b60006138ea601883612ea5565b91506138f5826138b4565b602082019050919050565b60006020820190508181036000830152613919816138dd565b9050919050565b7f496e76616c69642061756374696f6e2074696d65730000000000000000000000600082015250565b6000613956601583612ea5565b915061396182613920565b602082019050919050565b6000602082019050818103600083015261398581613949565b9050919050565b7f496e697469616c207072696365206d757374206265206772656174657220746860008201527f616e203000000000000000000000000000000000000000000000000000000000602082015250565b60006139e8602483612ea5565b91506139f38261398c565b604082019050919050565b60006020820190508181036000830152613a17816139db565b9050919050565b7f596f75206d757374206f776e2074686520746f6b656e00000000000000000000600082015250565b6000613a54601683612ea5565b9150613a5f82613a1e565b602082019050919050565b60006020820190508181036000830152613a8381613a47565b9050919050565b7f436f6e7472616374206e6565647320617070726f76616c000000000000000000600082015250565b6000613ac0601783612ea5565b9150613acb82613a8a565b602082019050919050565b60006020820190508181036000830152613aef81613ab3565b9050919050565b7f4e487b7100000000000000000000000000000000000000000000000000000000600052603260045260246000fd5b7f4e6f7420617574686f72697a6564000000000000000000000000000000000000600082015250565b6000613b5b600e83612ea5565b9150613b6682613b25565b602082019050919050565b60006020820190508181036000830152613b8a81613b4e565b9050919050565b7f41756374696f6e20616c726561647920636f6d706c6574656400000000000000600082015250565b6000613bc7601983612ea5565b9150613bd282613b91565b602082019050919050565b60006020820190508181036000830152613bf681613bba565b9050919050565b7f41756374696f6e206e6f74206163746976650000000000000000000000000000600082015250565b6000613c33601283612ea5565b9150613c3e82613bfd565b602082019050919050565b60006020820190508181036000830152613c6281613c26565b9050919050565b7f4e487b7100000000000000000000000000000000000000000000000000000000600052601160045260246000fd5b6000613ca382612f4c565b91507fffffffffffffffffffffffffffffffffffffffffffffffffffffffffffffffff8203613cd557613cd4613c69565b5b600182019050919050565b600081905092915050565b6000613cf682612e9a565b613d008185613ce0565b9350613d10818560208601612eb6565b80840191505092915050565b6000613d288285613ceb565b9150613d348284613ceb565b91508190509392505050565b6000613d4b82612f4c565b9150613d5683612f4c565b9250828203905081811115613d6e57613d6d613c69565b5b92915050565b6000613d7f82612f4c565b9150613d8a83612f4c565b9250828202613d9881612f4c565b91508282048414831517613daf57613dae613c69565b5b5092915050565b7f4e487b7100000000000000000000000000000000000000000000000000000000600052601260045260246000fd5b6000613df082612f4c565b9150613dfb83612f4c565b925082613e0b57613e0a613db6565b5b828204905092915050565b7f41756374696f6e206e6f74207965742073746172746564000000000000000000600082015250565b6000613e4c601783612ea5565b9150613e5782613e16565b602082019050919050565b60006020820190508181036000830152613e7b81613e3f565b9050919050565b7f41756374696f6e206973206e6f74206163746976650000000000000000000000600082015250565b6000613eb8601583612ea5565b9150613ec382613e82565b602082019050919050565b60006020820190508181036000830152613ee781613eab565b9050919050565b7f42696420746f6f206c6f77000000000000000000000000000000000000000000600082015250565b6000613f24600b83612ea5565b9150613f2f82613eee565b602082019050919050565b60006020820190508181036000830152613f5381613f17565b9050919050565b7f496e73756666696369656e742062616c616e6365000000000000000000000000600082015250565b6000613f90601483612ea5565b9150613f9b82613f5a565b602082019050919050565b60006020820190508181036000830152613fbf81613f83565b9050919050565b7f43616e6e6f7420626964206f6e20796f7572206f776e2061756374696f6e0000600082015250565b6000613ffc601e83612ea5565b915061400782613fc6565b602082019050919050565b6000602082019050818103600083015261402b81613fef565b9050919050565b600081519050919050565b600082825260208201905092915050565b600061405982614032565b614063818561403d565b9350614073818560208601612eb6565b61407c81612ee0565b840191505092915050565b600060808201905061409c6000830187612fe1565b6140a96020830186612fe1565b6140b66040830185613131565b81810360608301526140c8818461404e565b905095945050505050565b6000815190506140e281612e0b565b92915050565b6000602082840312156140fe576140fd612dd5565b5b600061410c848285016140d3565b91505092915050565b600060408201905061412a6000830185612fe1565b6141376020830184613131565b939250505056fea26469706673582212201eac0753f445b883fb770eb0c49f02d13a02cab122085db2a00b3bd2bf894dec64736f6c63430008140033",
  "linkReferences": {},
  "deployedLinkReferences": {}
}