{
  "_format": "hh-sol-artifact-1",
  "contractName": "NFTMarketplace",
  "sourceName": "contracts/NFTMarketplace.sol",
  "abi": [
    {
      "inputs": [],
      "stateMutability": "nonpayable",
      "type": "constructor"
    },
    {
      "inputs": [
        {
          "internalType": "address",
          "name": "sender",
          "type": "address"
        },
        {
          "internalType": "uint256",
          "name": "tokenId",
          "type": "uint256"
        },
        {
          "internalType": "address",
          "name": "owner",
          "type": "address"
        }
      ],
      "name": "ERC721IncorrectOwner",
      "type": "error"
    },
    {
      "inputs": [
        {
          "internalType": "address",
          "name": "operator",
          "type": "address"
        },
        {
          "internalType": "uint256",
          "name": "tokenId",
          "type": "uint256"
        }
      ],
      "name": "ERC721InsufficientApproval",
      "type": "error"
    },
    {
      "inputs": [
        {
          "internalType": "address",
          "name": "approver",
          "type": "address"
        }
      ],
      "name": "ERC721InvalidApprover",
      "type": "error"
    },
    {
      "inputs": [
        {
          "internalType": "address",
          "name": "operator",
          "type": "address"
        }
      ],
      "name": "ERC721InvalidOperator",
      "type": "error"
    },
    {
      "inputs": [
        {
          "internalType": "address",
          "name": "owner",
          "type": "address"
        }
      ],
      "name": "ERC721InvalidOwner",
      "type": "error"
    },
    {
      "inputs": [
        {
          "internalType": "address",
          "name": "receiver",
          "type": "address"
        }
      ],
      "name": "ERC721InvalidReceiver",
      "type": "error"
    },
    {
      "inputs": [
        {
          "internalType": "address",
          "name": "sender",
          "type": "address"
        }
      ],
      "name": "ERC721InvalidSender",
      "type": "error"
    },
    {
      "inputs": [
        {
          "internalType": "uint256",
          "name": "tokenId",
          "type": "uint256"
        }
      ],
      "name": "ERC721NonexistentToken",
      "type": "error"
    },
    {
      "anonymous": false,
      "inputs": [
        {
          "indexed": true,
          "internalType": "address",
          "name": "owner",
          "type": "address"
        },
        {
          "indexed": true,
          "internalType": "address",
          "name": "approved",
          "type": "address"
        },
        {
          "indexed": true,
          "internalType": "uint256",
          "name": "tokenId",
          "type": "uint256"
        }
      ],
      "name": "Approval",
      "type": "event"
    },
    {
      "anonymous": false,
      "inputs": [
        {
          "indexed": true,
          "internalType": "address",
          "name": "owner",
          "type": "address"
        },
        {
          "indexed": true,
          "internalType": "address",
          "name": "operator",
          "type": "address"
        },
        {
          "indexed": false,
          "internalType": "bool",
          "name": "approved",
          "type": "bool"
        }
      ],
      "name": "ApprovalForAll",
      "type": "event"
    },
    {
      "anonymous": false,
      "inputs": [
        {
          "indexed": false,
          "internalType": "uint256",
          "name": "_fromTokenId",
          "type": "uint256"
        },
        {
          "indexed": false,
          "internalType": "uint256",
          "name": "_toTokenId",
          "type": "uint256"
        }
      ],
      "name": "BatchMetadataUpdate",
      "type": "event"
    },
    {
      "anonymous": false,
      "inputs": [
        {
          "indexed": false,
          "internalType": "uint256",
          "name": "_tokenId",
          "type": "uint256"
        }
      ],
      "name": "MetadataUpdate",
      "type": "event"
    },
    {
      "anonymous": false,
      "inputs": [
        {
          "indexed": true,
          "internalType": "address",
          "name": "from",
          "type": "address"
        },
        {
          "indexed": true,
          "internalType": "address",
          "name": "to",
          "type": "address"
        },
        {
          "indexed": true,
          "internalType": "uint256",
          "name": "tokenId",
          "type": "uint256"
        }
      ],
      "name": "Transfer",
      "type": "event"
    },
    {
      "inputs": [
        {
          "internalType": "address",
          "name": "to",
          "type": "address"
        },
        {
          "internalType": "uint256",
          "name": "tokenId",
          "type": "uint256"
        }
      ],
      "name": "approve",
      "outputs": [],
      "stateMutability": "nonpayable",
      "type": "function"
    },
    {
      "inputs": [
        {
          "internalType": "address",
          "name": "owner",
          "type": "address"
        }
      ],
      "name": "balanceOf",
      "outputs": [
        {
          "internalType": "uint256",
          "name": "",
          "type": "uint256"
        }
      ],
      "stateMutability": "view",
      "type": "function"
    },
    {
      "inputs": [
        {
          "internalType": "uint256",
          "name": "tokenId",
          "type": "uint256"
        }
      ],
      "name": "cancelAuction",
      "outputs": [],
      "stateMutability": "payable",
      "type": "function"
    },
    {
      "inputs": [
        {
          "internalType": "uint256",
          "name": "tokenId",
          "type": "uint256"
        }
      ],
      "name": "cancelSelling",
      "outputs": [],
      "stateMutability": "payable",
      "type": "function"
    },
    {
      "inputs": [
        {
          "internalType": "uint256",
          "name": "tokenId",
          "type": "uint256"
        },
        {
          "internalType": "uint256",
          "name": "price",
          "type": "uint256"
        }
      ],
      "name": "createMarketItem",
      "outputs": [],
      "stateMutability": "payable",
      "type": "function"
    },
    {
      "inputs": [
        {
          "internalType": "uint256",
          "name": "tokenId",
          "type": "uint256"
        }
      ],
      "name": "createMarketSale",
      "outputs": [],
      "stateMutability": "payable",
      "type": "function"
    },
    {
      "inputs": [
        {
          "internalType": "string",
          "name": "tokenURI",
          "type": "string"
        }
      ],
      "name": "createToken",
      "outputs": [
        {
          "internalType": "uint256",
          "name": "",
          "type": "uint256"
        }
      ],
      "stateMutability": "payable",
      "type": "function"
    },
    {
      "inputs": [],
      "name": "fetchAllAuctionItems",
      "outputs": [
        {
          "components": [
            {
              "internalType": "uint256",
              "name": "tokenId",
              "type": "uint256"
            },
            {
              "internalType": "address payable",
              "name": "seller",
              "type": "address"
            },
            {
              "internalType": "address payable",
              "name": "owner",
              "type": "address"
            },
            {
              "internalType": "uint256",
              "name": "price",
              "type": "uint256"
            },
            {
              "internalType": "bool",
              "name": "sold",
              "type": "bool"
            },
            {
              "internalType": "bool",
              "name": "directSold",
              "type": "bool"
            },
            {
              "internalType": "uint256",
              "name": "startTime",
              "type": "uint256"
            },
            {
              "internalType": "uint256",
              "name": "endTime",
              "type": "uint256"
            },
            {
              "internalType": "address payable",
              "name": "highestBidder",
              "type": "address"
            },
            {
              "internalType": "uint256",
              "name": "highestBid",
              "type": "uint256"
            },
            {
              "internalType": "bool",
              "name": "auctionCompleted",
              "type": "bool"
            }
          ],
          "internalType": "struct NFTMarketplace.MarketItem[]",
          "name": "",
          "type": "tuple[]"
        }
      ],
      "stateMutability": "view",
      "type": "function"
    },
    {
      "inputs": [],
      "name": "fetchItemsListed",
      "outputs": [
        {
          "components": [
            {
              "internalType": "uint256",
              "name": "tokenId",
              "type": "uint256"
            },
            {
              "internalType": "address payable",
              "name": "seller",
              "type": "address"
            },
            {
              "internalType": "address payable",
              "name": "owner",
              "type": "address"
            },
            {
              "internalType": "uint256",
              "name": "price",
              "type": "uint256"
            },
            {
              "internalType": "bool",
              "name": "sold",
              "type": "bool"
            },
            {
              "internalType": "bool",
              "name": "directSold",
              "type": "bool"
            },
            {
              "internalType": "uint256",
              "name": "startTime",
              "type": "uint256"
            },
            {
              "internalType": "uint256",
              "name": "endTime",
              "type": "uint256"
            },
            {
              "internalType": "address payable",
              "name": "highestBidder",
              "type": "address"
            },
            {
              "internalType": "uint256",
              "name": "highestBid",
              "type": "uint256"
            },
            {
              "internalType": "bool",
              "name": "auctionCompleted",
              "type": "bool"
            }
          ],
          "internalType": "struct NFTMarketplace.MarketItem[]",
          "name": "",
          "type": "tuple[]"
        }
      ],
      "stateMutability": "view",
      "type": "function"
    },
    {
      "inputs": [],
      "name": "fetchMarketItems",
      "outputs": [
        {
          "components": [
            {
              "internalType": "uint256",
              "name": "tokenId",
              "type": "uint256"
            },
            {
              "internalType": "address payable",
              "name": "seller",
              "type": "address"
            },
            {
              "internalType": "address payable",
              "name": "owner",
              "type": "address"
            },
            {
              "internalType": "uint256",
              "name": "price",
              "type": "uint256"
            },
            {
              "internalType": "bool",
              "name": "sold",
              "type": "bool"
            },
            {
              "internalType": "bool",
              "name": "directSold",
              "type": "bool"
            },
            {
              "internalType": "uint256",
              "name": "startTime",
              "type": "uint256"
            },
            {
              "internalType": "uint256",
              "name": "endTime",
              "type": "uint256"
            },
            {
              "internalType": "address payable",
              "name": "highestBidder",
              "type": "address"
            },
            {
              "internalType": "uint256",
              "name": "highestBid",
              "type": "uint256"
            },
            {
              "internalType": "bool",
              "name": "auctionCompleted",
              "type": "bool"
            }
          ],
          "internalType": "struct NFTMarketplace.MarketItem[]",
          "name": "",
          "type": "tuple[]"
        }
      ],
      "stateMutability": "view",
      "type": "function"
    },
    {
      "inputs": [],
      "name": "fetchMyAuctionItems",
      "outputs": [
        {
          "components": [
            {
              "internalType": "uint256",
              "name": "tokenId",
              "type": "uint256"
            },
            {
              "internalType": "address payable",
              "name": "seller",
              "type": "address"
            },
            {
              "internalType": "address payable",
              "name": "owner",
              "type": "address"
            },
            {
              "internalType": "uint256",
              "name": "price",
              "type": "uint256"
            },
            {
              "internalType": "bool",
              "name": "sold",
              "type": "bool"
            },
            {
              "internalType": "bool",
              "name": "directSold",
              "type": "bool"
            },
            {
              "internalType": "uint256",
              "name": "startTime",
              "type": "uint256"
            },
            {
              "internalType": "uint256",
              "name": "endTime",
              "type": "uint256"
            },
            {
              "internalType": "address payable",
              "name": "highestBidder",
              "type": "address"
            },
            {
              "internalType": "uint256",
              "name": "highestBid",
              "type": "uint256"
            },
            {
              "internalType": "bool",
              "name": "auctionCompleted",
              "type": "bool"
            }
          ],
          "internalType": "struct NFTMarketplace.MarketItem[]",
          "name": "",
          "type": "tuple[]"
        }
      ],
      "stateMutability": "view",
      "type": "function"
    },
    {
      "inputs": [],
      "name": "fetchMyNFTs",
      "outputs": [
        {
          "components": [
            {
              "internalType": "uint256",
              "name": "tokenId",
              "type": "uint256"
            },
            {
              "internalType": "address payable",
              "name": "seller",
              "type": "address"
            },
            {
              "internalType": "address payable",
              "name": "owner",
              "type": "address"
            },
            {
              "internalType": "uint256",
              "name": "price",
              "type": "uint256"
            },
            {
              "internalType": "bool",
              "name": "sold",
              "type": "bool"
            },
            {
              "internalType": "bool",
              "name": "directSold",
              "type": "bool"
            },
            {
              "internalType": "uint256",
              "name": "startTime",
              "type": "uint256"
            },
            {
              "internalType": "uint256",
              "name": "endTime",
              "type": "uint256"
            },
            {
              "internalType": "address payable",
              "name": "highestBidder",
              "type": "address"
            },
            {
              "internalType": "uint256",
              "name": "highestBid",
              "type": "uint256"
            },
            {
              "internalType": "bool",
              "name": "auctionCompleted",
              "type": "bool"
            }
          ],
          "internalType": "struct NFTMarketplace.MarketItem[]",
          "name": "",
          "type": "tuple[]"
        }
      ],
      "stateMutability": "view",
      "type": "function"
    },
    {
      "inputs": [
        {
          "internalType": "uint256",
          "name": "tokenId",
          "type": "uint256"
        }
      ],
      "name": "finishAuction",
      "outputs": [],
      "stateMutability": "payable",
      "type": "function"
    },
    {
      "inputs": [
        {
          "internalType": "uint256",
          "name": "tokenId",
          "type": "uint256"
        }
      ],
      "name": "getApproved",
      "outputs": [
        {
          "internalType": "address",
          "name": "",
          "type": "address"
        }
      ],
      "stateMutability": "view",
      "type": "function"
    },
    {
      "inputs": [
        {
          "internalType": "uint256",
          "name": "tokenId",
          "type": "uint256"
        }
      ],
      "name": "getTimeEndOfAuction",
      "outputs": [
        {
          "internalType": "uint256",
          "name": "",
          "type": "uint256"
        }
      ],
      "stateMutability": "view",
      "type": "function"
    },
    {
      "inputs": [
        {
          "internalType": "address",
          "name": "owner",
          "type": "address"
        },
        {
          "internalType": "address",
          "name": "operator",
          "type": "address"
        }
      ],
      "name": "isApprovedForAll",
      "outputs": [
        {
          "internalType": "bool",
          "name": "",
          "type": "bool"
        }
      ],
      "stateMutability": "view",
      "type": "function"
    },
    {
      "inputs": [],
      "name": "name",
      "outputs": [
        {
          "internalType": "string",
          "name": "",
          "type": "string"
        }
      ],
      "stateMutability": "view",
      "type": "function"
    },
    {
      "inputs": [
        {
          "internalType": "uint256",
          "name": "tokenId",
          "type": "uint256"
        }
      ],
      "name": "ownerOf",
      "outputs": [
        {
          "internalType": "address",
          "name": "",
          "type": "address"
        }
      ],
      "stateMutability": "view",
      "type": "function"
    },
    {
      "inputs": [
        {
          "internalType": "uint256",
          "name": "tokenId",
          "type": "uint256"
        }
      ],
      "name": "placeBid",
      "outputs": [],
      "stateMutability": "payable",
      "type": "function"
    },
    {
      "inputs": [
        {
          "internalType": "address",
          "name": "from",
          "type": "address"
        },
        {
          "internalType": "address",
          "name": "to",
          "type": "address"
        },
        {
          "internalType": "uint256",
          "name": "tokenId",
          "type": "uint256"
        }
      ],
      "name": "safeTransferFrom",
      "outputs": [],
      "stateMutability": "nonpayable",
      "type": "function"
    },
    {
      "inputs": [
        {
          "internalType": "address",
          "name": "from",
          "type": "address"
        },
        {
          "internalType": "address",
          "name": "to",
          "type": "address"
        },
        {
          "internalType": "uint256",
          "name": "tokenId",
          "type": "uint256"
        },
        {
          "internalType": "bytes",
          "name": "data",
          "type": "bytes"
        }
      ],
      "name": "safeTransferFrom",
      "outputs": [],
      "stateMutability": "nonpayable",
      "type": "function"
    },
    {
      "inputs": [
        {
          "internalType": "address",
          "name": "operator",
          "type": "address"
        },
        {
          "internalType": "bool",
          "name": "approved",
          "type": "bool"
        }
      ],
      "name": "setApprovalForAll",
      "outputs": [],
      "stateMutability": "nonpayable",
      "type": "function"
    },
    {
      "inputs": [
        {
          "internalType": "uint256",
          "name": "tokenId",
          "type": "uint256"
        },
        {
          "internalType": "uint256",
          "name": "price",
          "type": "uint256"
        },
        {
          "internalType": "uint256",
          "name": "durations",
          "type": "uint256"
        }
      ],
      "name": "startAuction",
      "outputs": [],
      "stateMutability": "payable",
      "type": "function"
    },
    {
      "inputs": [
        {
          "internalType": "bytes4",
          "name": "interfaceId",
          "type": "bytes4"
        }
      ],
      "name": "supportsInterface",
      "outputs": [
        {
          "internalType": "bool",
          "name": "",
          "type": "bool"
        }
      ],
      "stateMutability": "view",
      "type": "function"
    },
    {
      "inputs": [],
      "name": "symbol",
      "outputs": [
        {
          "internalType": "string",
          "name": "",
          "type": "string"
        }
      ],
      "stateMutability": "view",
      "type": "function"
    },
    {
      "inputs": [
        {
          "internalType": "uint256",
          "name": "tokenId",
          "type": "uint256"
        }
      ],
      "name": "tokenURI",
      "outputs": [
        {
          "internalType": "string",
          "name": "",
          "type": "string"
        }
      ],
      "stateMutability": "view",
      "type": "function"
    },
    {
      "inputs": [
        {
          "internalType": "address",
          "name": "from",
          "type": "address"
        },
        {
          "internalType": "address",
          "name": "to",
          "type": "address"
        },
        {
          "internalType": "uint256",
          "name": "tokenId",
          "type": "uint256"
        }
      ],
      "name": "transferFrom",
      "outputs": [],
      "stateMutability": "nonpayable",
      "type": "function"
    },
    {
      "inputs": [
        {
          "internalType": "uint256",
          "name": "_listingPrice",
          "type": "uint256"
        }
      ],
      "name": "updateListingPrice",
      "outputs": [],
      "stateMutability": "payable",
      "type": "function"
    }
  ],
  "bytecode": "0x60806040526658d15e17628000600a553480156200001c57600080fd5b506040518060400160405280601081526020017f4d657461766572736520546f6b656e73000000000000000000000000000000008152506040518060400160405280600481526020017f4d4554540000000000000000000000000000000000000000000000000000000081525081600090816200009a919062000388565b508060019081620000ac919062000388565b50505033600b60006101000a81548173ffffffffffffffffffffffffffffffffffffffff021916908373ffffffffffffffffffffffffffffffffffffffff1602179055506000600781905550600060098190555060006008819055506200046f565b600081519050919050565b7f4e487b7100000000000000000000000000000000000000000000000000000000600052604160045260246000fd5b7f4e487b7100000000000000000000000000000000000000000000000000000000600052602260045260246000fd5b600060028204905060018216806200019057607f821691505b602082108103620001a657620001a562000148565b5b50919050565b60008190508160005260206000209050919050565b60006020601f8301049050919050565b600082821b905092915050565b600060088302620002107fffffffffffffffffffffffffffffffffffffffffffffffffffffffffffffffff82620001d1565b6200021c8683620001d1565b95508019841693508086168417925050509392505050565b6000819050919050565b6000819050919050565b600062000269620002636200025d8462000234565b6200023e565b62000234565b9050919050565b6000819050919050565b620002858362000248565b6200029d620002948262000270565b848454620001de565b825550505050565b600090565b620002b4620002a5565b620002c18184846200027a565b505050565b5b81811015620002e957620002dd600082620002aa565b600181019050620002c7565b5050565b601f82111562000338576200030281620001ac565b6200030d84620001c1565b810160208510156200031d578190505b620003356200032c85620001c1565b830182620002c6565b50505b505050565b600082821c905092915050565b60006200035d600019846008026200033d565b1980831691505092915050565b60006200037883836200034a565b9150826002028217905092915050565b62000393826200010e565b67ffffffffffffffff811115620003af57620003ae62000119565b5b620003bb825462000177565b620003c8828285620002ed565b600060209050601f831160018114620004005760008415620003eb578287015190505b620003f785826200036a565b86555062000467565b601f1984166200041086620001ac565b60005b828110156200043a5784890151825560018201915060208501945060208101905062000413565b868310156200045a578489015162000456601f8916826200034a565b8355505b6001600288020188555050505b505050505050565b615f1a806200047f6000396000f3fe6080604052600436106101b75760003560e01c80636612374b116100ec578063ae677aa31161008a578063c87b56dd11610064578063c87b56dd1461059e578063cf266ed0146105db578063d12812c6146105f7578063e985e9c514610634576101b7565b8063ae677aa31461053d578063b88d4fde14610559578063be9af53614610582576101b7565b806395d89b41116100c657806395d89b41146104b157806396b5a755146104dc5780639979ef45146104f8578063a22cb46514610514576101b7565b80636612374b1461042d57806370a082311461045857806391e078bb14610495576101b7565b806323b872dd1161015957806342842e0e1161013357806342842e0e1461036c57806345576f941461039557806345f8fa80146103c55780636352211e146103f0576101b7565b806323b872dd1461030b5780632f33df6014610334578063361c199514610350576101b7565b8063095ea7b311610195578063095ea7b3146102615780630f08efe01461028a578063146df2bc146102b5578063202e3740146102e0576101b7565b806301ffc9a7146101bc57806306fdde03146101f9578063081812fc14610224575b600080fd5b3480156101c857600080fd5b506101e360048036038101906101de9190614a80565b610671565b6040516101f09190614ac8565b60405180910390f35b34801561020557600080fd5b5061020e6106d2565b60405161021b9190614b73565b60405180910390f35b34801561023057600080fd5b5061024b60048036038101906102469190614bcb565b610764565b6040516102589190614c39565b60405180910390f35b34801561026d57600080fd5b5061028860048036038101906102839190614c80565b610780565b005b34801561029657600080fd5b5061029f610796565b6040516102ac9190614e90565b60405180910390f35b3480156102c157600080fd5b506102ca610b06565b6040516102d79190614e90565b60405180910390f35b3480156102ec57600080fd5b506102f5610f93565b6040516103029190614e90565b60405180910390f35b34801561031757600080fd5b50610332600480360381019061032d9190614eb2565b611323565b005b61034e60048036038101906103499190614bcb565b611425565b005b61036a60048036038101906103659190614f05565b61159a565b005b34801561037857600080fd5b50610393600480360381019061038e9190614eb2565b6118c2565b005b6103af60048036038101906103aa919061507a565b6118e2565b6040516103bc91906150d2565b60405180910390f35b3480156103d157600080fd5b506103da611b3d565b6040516103e79190614e90565b60405180910390f35b3480156103fc57600080fd5b5061041760048036038101906104129190614bcb565b611f4d565b6040516104249190614c39565b60405180910390f35b34801561043957600080fd5b50610442611f5f565b60405161044f9190614e90565b60405180910390f35b34801561046457600080fd5b5061047f600480360381019061047a91906150ed565b6122cf565b60405161048c91906150d2565b60405180910390f35b6104af60048036038101906104aa919061511a565b612389565b005b3480156104bd57600080fd5b506104c6612677565b6040516104d39190614b73565b60405180910390f35b6104f660048036038101906104f19190614bcb565b612709565b005b610512600480360381019061050d9190614bcb565b612b2d565b005b34801561052057600080fd5b5061053b60048036038101906105369190615199565b612fd8565b005b61055760048036038101906105529190614bcb565b612fee565b005b34801561056557600080fd5b50610580600480360381019061057b919061527a565b613088565b005b61059c60048036038101906105979190614bcb565b6130a5565b005b3480156105aa57600080fd5b506105c560048036038101906105c09190614bcb565b6132eb565b6040516105d29190614b73565b60405180910390f35b6105f560048036038101906105f09190614bcb565b6133fe565b005b34801561060357600080fd5b5061061e60048036038101906106199190614bcb565b613864565b60405161062b91906150d2565b60405180910390f35b34801561064057600080fd5b5061065b600480360381019061065691906152fd565b613889565b6040516106689190614ac8565b60405180910390f35b6000634906490660e01b7bffffffffffffffffffffffffffffffffffffffffffffffffffffffff1916827bffffffffffffffffffffffffffffffffffffffffffffffffffffffff191614806106cb57506106ca8261391d565b5b9050919050565b6060600080546106e19061536c565b80601f016020809104026020016040519081016040528092919081815260200182805461070d9061536c565b801561075a5780601f1061072f5761010080835404028352916020019161075a565b820191906000526020600020905b81548152906001019060200180831161073d57829003601f168201915b5050505050905090565b600061076f826139ff565b5061077982613a87565b9050919050565b610792828261078d613ac4565b613acc565b5050565b606060006007549050600060085490506000808267ffffffffffffffff8111156107c3576107c2614f4f565b5b6040519080825280602002602001820160405280156107fc57816020015b6107e9614972565b8152602001906001900390816107e15790505b50905060005b84811015610afb573073ffffffffffffffffffffffffffffffffffffffff16600c600060018461083291906153cc565b815260200190815260200160002060020160009054906101000a900473ffffffffffffffffffffffffffffffffffffffff1673ffffffffffffffffffffffffffffffffffffffff161480156108ba575060011515600c600060018461089791906153cc565b815260200190815260200160002060040160019054906101000a900460ff161515145b80156108f9575060001515600c60006001846108d691906153cc565b815260200190815260200160002060040160009054906101000a900460ff161515145b15610ae857600060018261090d91906153cc565b90506000600c600083815260200190815260200160002090508060405180610160016040529081600082015481526020016001820160009054906101000a900473ffffffffffffffffffffffffffffffffffffffff1673ffffffffffffffffffffffffffffffffffffffff1673ffffffffffffffffffffffffffffffffffffffff1681526020016002820160009054906101000a900473ffffffffffffffffffffffffffffffffffffffff1673ffffffffffffffffffffffffffffffffffffffff1673ffffffffffffffffffffffffffffffffffffffff168152602001600382015481526020016004820160009054906101000a900460ff161515151581526020016004820160019054906101000a900460ff1615151515815260200160058201548152602001600682015481526020016007820160009054906101000a900473ffffffffffffffffffffffffffffffffffffffff1673ffffffffffffffffffffffffffffffffffffffff1673ffffffffffffffffffffffffffffffffffffffff168152602001600882015481526020016009820160009054906101000a900460ff161515151581525050848681518110610acb57610aca615400565b5b6020026020010181905250600185610ae391906153cc565b945050505b8080610af39061542f565b915050610802565b508094505050505090565b60606000600754905060008060005b83811015610c33573373ffffffffffffffffffffffffffffffffffffffff16600c6000600184610b4591906153cc565b815260200190815260200160002060020160009054906101000a900473ffffffffffffffffffffffffffffffffffffffff1673ffffffffffffffffffffffffffffffffffffffff16148015610bcd575060001515600c6000600184610baa91906153cc565b815260200190815260200160002060040160019054906101000a900460ff161515145b8015610c0c575060001515600c6000600184610be991906153cc565b815260200190815260200160002060040160009054906101000a900460ff161515145b15610c20578280610c1c9061542f565b9350505b8080610c2b9061542f565b915050610b15565b5060008267ffffffffffffffff811115610c5057610c4f614f4f565b5b604051908082528060200260200182016040528015610c8957816020015b610c76614972565b815260200190600190039081610c6e5790505b50905060005b84811015610f88573373ffffffffffffffffffffffffffffffffffffffff16600c6000600184610cbf91906153cc565b815260200190815260200160002060020160009054906101000a900473ffffffffffffffffffffffffffffffffffffffff1673ffffffffffffffffffffffffffffffffffffffff16148015610d47575060001515600c6000600184610d2491906153cc565b815260200190815260200160002060040160019054906101000a900460ff161515145b8015610d86575060001515600c6000600184610d6391906153cc565b815260200190815260200160002060040160009054906101000a900460ff161515145b15610f75576000600182610d9a91906153cc565b90506000600c600083815260200190815260200160002090508060405180610160016040529081600082015481526020016001820160009054906101000a900473ffffffffffffffffffffffffffffffffffffffff1673ffffffffffffffffffffffffffffffffffffffff1673ffffffffffffffffffffffffffffffffffffffff1681526020016002820160009054906101000a900473ffffffffffffffffffffffffffffffffffffffff1673ffffffffffffffffffffffffffffffffffffffff1673ffffffffffffffffffffffffffffffffffffffff168152602001600382015481526020016004820160009054906101000a900460ff161515151581526020016004820160019054906101000a900460ff1615151515815260200160058201548152602001600682015481526020016007820160009054906101000a900473ffffffffffffffffffffffffffffffffffffffff1673ffffffffffffffffffffffffffffffffffffffff1673ffffffffffffffffffffffffffffffffffffffff168152602001600882015481526020016009820160009054906101000a900460ff161515151581525050848681518110610f5857610f57615400565b5b6020026020010181905250600185610f7091906153cc565b945050505b8080610f809061542f565b915050610c8f565b508094505050505090565b60606000600754905060008060005b83811015611042573373ffffffffffffffffffffffffffffffffffffffff16600c6000600184610fd291906153cc565b815260200190815260200160002060020160009054906101000a900473ffffffffffffffffffffffffffffffffffffffff1673ffffffffffffffffffffffffffffffffffffffff160361102f5760018361102c91906153cc565b92505b808061103a9061542f565b915050610fa2565b5060008267ffffffffffffffff81111561105f5761105e614f4f565b5b60405190808252806020026020018201604052801561109857816020015b611085614972565b81526020019060019003908161107d5790505b50905060005b84811015611318573373ffffffffffffffffffffffffffffffffffffffff16600c60006001846110ce91906153cc565b815260200190815260200160002060020160009054906101000a900473ffffffffffffffffffffffffffffffffffffffff1673ffffffffffffffffffffffffffffffffffffffff160361130557600060018261112a91906153cc565b90506000600c600083815260200190815260200160002090508060405180610160016040529081600082015481526020016001820160009054906101000a900473ffffffffffffffffffffffffffffffffffffffff1673ffffffffffffffffffffffffffffffffffffffff1673ffffffffffffffffffffffffffffffffffffffff1681526020016002820160009054906101000a900473ffffffffffffffffffffffffffffffffffffffff1673ffffffffffffffffffffffffffffffffffffffff1673ffffffffffffffffffffffffffffffffffffffff168152602001600382015481526020016004820160009054906101000a900460ff161515151581526020016004820160019054906101000a900460ff1615151515815260200160058201548152602001600682015481526020016007820160009054906101000a900473ffffffffffffffffffffffffffffffffffffffff1673ffffffffffffffffffffffffffffffffffffffff1673ffffffffffffffffffffffffffffffffffffffff168152602001600882015481526020016009820160009054906101000a900460ff1615151515815250508486815181106112e8576112e7615400565b5b602002602001018190525060018561130091906153cc565b945050505b80806113109061542f565b91505061109e565b508094505050505090565b600073ffffffffffffffffffffffffffffffffffffffff168273ffffffffffffffffffffffffffffffffffffffff16036113955760006040517f64a0ae9200000000000000000000000000000000000000000000000000000000815260040161138c9190614c39565b60405180910390fd5b60006113a983836113a4613ac4565b613ade565b90508373ffffffffffffffffffffffffffffffffffffffff168173ffffffffffffffffffffffffffffffffffffffff161461141f578382826040517f64283d7b00000000000000000000000000000000000000000000000000000000815260040161141693929190615477565b60405180910390fd5b50505050565b600c600082815260200190815260200160002060010160009054906101000a900473ffffffffffffffffffffffffffffffffffffffff1673ffffffffffffffffffffffffffffffffffffffff163373ffffffffffffffffffffffffffffffffffffffff16146114c9576040517f08c379a00000000000000000000000000000000000000000000000000000000081526004016114c0906154fa565b60405180910390fd5b600860008154809291906114dc9061551a565b91905055506114ec303383613cf8565b33600c600083815260200190815260200160002060020160006101000a81548173ffffffffffffffffffffffffffffffffffffffff021916908373ffffffffffffffffffffffffffffffffffffffff1602179055506000600c600083815260200190815260200160002060010160006101000a81548173ffffffffffffffffffffffffffffffffffffffff021916908373ffffffffffffffffffffffffffffffffffffffff16021790555050565b600081116115dd576040517f08c379a00000000000000000000000000000000000000000000000000000000081526004016115d49061558f565b60405180910390fd5b3373ffffffffffffffffffffffffffffffffffffffff16600c600084815260200190815260200160002060020160009054906101000a900473ffffffffffffffffffffffffffffffffffffffff1673ffffffffffffffffffffffffffffffffffffffff1614611681576040517f08c379a000000000000000000000000000000000000000000000000000000000815260040161167890615621565b60405180910390fd5b6040518061016001604052808381526020013373ffffffffffffffffffffffffffffffffffffffff1681526020013073ffffffffffffffffffffffffffffffffffffffff1681526020018281526020016000151581526020016001151581526020016000815260200160008152602001600073ffffffffffffffffffffffffffffffffffffffff16815260200182815260200160001515815250600c60008481526020019081526020016000206000820151816000015560208201518160010160006101000a81548173ffffffffffffffffffffffffffffffffffffffff021916908373ffffffffffffffffffffffffffffffffffffffff16021790555060408201518160020160006101000a81548173ffffffffffffffffffffffffffffffffffffffff021916908373ffffffffffffffffffffffffffffffffffffffff1602179055506060820151816003015560808201518160040160006101000a81548160ff02191690831515021790555060a08201518160040160016101000a81548160ff02191690831515021790555060c0820151816005015560e082015181600601556101008201518160070160006101000a81548173ffffffffffffffffffffffffffffffffffffffff021916908373ffffffffffffffffffffffffffffffffffffffff16021790555061012082015181600801556101408201518160090160006101000a81548160ff021916908315150217905550905050600860008154809291906118ae9061542f565b91905055506118be333084613cf8565b5050565b6118dd83838360405180602001604052806000815250613088565b505050565b6000600760008154809291906118f79061542f565b91905055506000600754905061190d3382613e65565b6119178184613f5e565b604051806101600160405280828152602001600073ffffffffffffffffffffffffffffffffffffffff1681526020013373ffffffffffffffffffffffffffffffffffffffff168152602001600081526020016001151581526020016001151581526020016000815260200160008152602001600073ffffffffffffffffffffffffffffffffffffffff1681526020016000815260200160001515815250600c60008381526020019081526020016000206000820151816000015560208201518160010160006101000a81548173ffffffffffffffffffffffffffffffffffffffff021916908373ffffffffffffffffffffffffffffffffffffffff16021790555060408201518160020160006101000a81548173ffffffffffffffffffffffffffffffffffffffff021916908373ffffffffffffffffffffffffffffffffffffffff1602179055506060820151816003015560808201518160040160006101000a81548160ff02191690831515021790555060a08201518160040160016101000a81548160ff02191690831515021790555060c0820151816005015560e082015181600601556101008201518160070160006101000a81548173ffffffffffffffffffffffffffffffffffffffff021916908373ffffffffffffffffffffffffffffffffffffffff16021790555061012082015181600801556101408201518160090160006101000a81548160ff02191690831515021790555090505080915050919050565b60606000600754905060008060005b83811015611c2c573373ffffffffffffffffffffffffffffffffffffffff16600c6000600184611b7c91906153cc565b815260200190815260200160002060010160009054906101000a900473ffffffffffffffffffffffffffffffffffffffff1673ffffffffffffffffffffffffffffffffffffffff16148015611c04575060011515600c6000600184611be191906153cc565b815260200190815260200160002060040160019054906101000a900460ff161515145b15611c1957600183611c1691906153cc565b92505b8080611c249061542f565b915050611b4c565b5060008267ffffffffffffffff811115611c4957611c48614f4f565b5b604051908082528060200260200182016040528015611c8257816020015b611c6f614972565b815260200190600190039081611c675790505b50905060005b84811015611f42573373ffffffffffffffffffffffffffffffffffffffff16600c6000600184611cb891906153cc565b815260200190815260200160002060010160009054906101000a900473ffffffffffffffffffffffffffffffffffffffff1673ffffffffffffffffffffffffffffffffffffffff16148015611d40575060011515600c6000600184611d1d91906153cc565b815260200190815260200160002060040160019054906101000a900460ff161515145b15611f2f576000600182611d5491906153cc565b90506000600c600083815260200190815260200160002090508060405180610160016040529081600082015481526020016001820160009054906101000a900473ffffffffffffffffffffffffffffffffffffffff1673ffffffffffffffffffffffffffffffffffffffff1673ffffffffffffffffffffffffffffffffffffffff1681526020016002820160009054906101000a900473ffffffffffffffffffffffffffffffffffffffff1673ffffffffffffffffffffffffffffffffffffffff1673ffffffffffffffffffffffffffffffffffffffff168152602001600382015481526020016004820160009054906101000a900460ff161515151581526020016004820160019054906101000a900460ff1615151515815260200160058201548152602001600682015481526020016007820160009054906101000a900473ffffffffffffffffffffffffffffffffffffffff1673ffffffffffffffffffffffffffffffffffffffff1673ffffffffffffffffffffffffffffffffffffffff168152602001600882015481526020016009820160009054906101000a900460ff161515151581525050848681518110611f1257611f11615400565b5b6020026020010181905250600185611f2a91906153cc565b945050505b8080611f3a9061542f565b915050611c88565b508094505050505090565b6000611f58826139ff565b9050919050565b606060006007549050600060095490506000808267ffffffffffffffff811115611f8c57611f8b614f4f565b5b604051908082528060200260200182016040528015611fc557816020015b611fb2614972565b815260200190600190039081611faa5790505b50905060005b848110156122c4573073ffffffffffffffffffffffffffffffffffffffff16600c6000600184611ffb91906153cc565b815260200190815260200160002060020160009054906101000a900473ffffffffffffffffffffffffffffffffffffffff1673ffffffffffffffffffffffffffffffffffffffff16148015612083575060001515600c600060018461206091906153cc565b815260200190815260200160002060040160019054906101000a900460ff161515145b80156120c2575060001515600c600060018461209f91906153cc565b815260200190815260200160002060040160009054906101000a900460ff161515145b156122b15760006001826120d691906153cc565b90506000600c600083815260200190815260200160002090508060405180610160016040529081600082015481526020016001820160009054906101000a900473ffffffffffffffffffffffffffffffffffffffff1673ffffffffffffffffffffffffffffffffffffffff1673ffffffffffffffffffffffffffffffffffffffff1681526020016002820160009054906101000a900473ffffffffffffffffffffffffffffffffffffffff1673ffffffffffffffffffffffffffffffffffffffff1673ffffffffffffffffffffffffffffffffffffffff168152602001600382015481526020016004820160009054906101000a900460ff161515151581526020016004820160019054906101000a900460ff1615151515815260200160058201548152602001600682015481526020016007820160009054906101000a900473ffffffffffffffffffffffffffffffffffffffff1673ffffffffffffffffffffffffffffffffffffffff1673ffffffffffffffffffffffffffffffffffffffff168152602001600882015481526020016009820160009054906101000a900460ff16151515158152505084868151811061229457612293615400565b5b60200260200101819052506001856122ac91906153cc565b945050505b80806122bc9061542f565b915050611fcb565b508094505050505090565b60008073ffffffffffffffffffffffffffffffffffffffff168273ffffffffffffffffffffffffffffffffffffffff16036123425760006040517f89c62b640000000000000000000000000000000000000000000000000000000081526004016123399190614c39565b60405180910390fd5b600360008373ffffffffffffffffffffffffffffffffffffffff1673ffffffffffffffffffffffffffffffffffffffff168152602001908152602001600020549050919050565b3373ffffffffffffffffffffffffffffffffffffffff16600c600085815260200190815260200160002060020160009054906101000a900473ffffffffffffffffffffffffffffffffffffffff1673ffffffffffffffffffffffffffffffffffffffff161461242d576040517f08c379a000000000000000000000000000000000000000000000000000000000815260040161242490615621565b60405180910390fd5b6040518061016001604052808481526020013373ffffffffffffffffffffffffffffffffffffffff1681526020013073ffffffffffffffffffffffffffffffffffffffff16815260200183815260200160001515815260200160001515815260200142815260200182426124a191906153cc565b81526020013373ffffffffffffffffffffffffffffffffffffffff16815260200183815260200160001515815250600c60008581526020019081526020016000206000820151816000015560208201518160010160006101000a81548173ffffffffffffffffffffffffffffffffffffffff021916908373ffffffffffffffffffffffffffffffffffffffff16021790555060408201518160020160006101000a81548173ffffffffffffffffffffffffffffffffffffffff021916908373ffffffffffffffffffffffffffffffffffffffff1602179055506060820151816003015560808201518160040160006101000a81548160ff02191690831515021790555060a08201518160040160016101000a81548160ff02191690831515021790555060c0820151816005015560e082015181600601556101008201518160070160006101000a81548173ffffffffffffffffffffffffffffffffffffffff021916908373ffffffffffffffffffffffffffffffffffffffff16021790555061012082015181600801556101408201518160090160006101000a81548160ff021916908315150217905550905050600960008154809291906126629061542f565b9190505550612672333085613cf8565b505050565b6060600180546126869061536c565b80601f01602080910402602001604051908101604052809291908181526020018280546126b29061536c565b80156126ff5780601f106126d4576101008083540402835291602001916126ff565b820191906000526020600020905b8154815290600101906020018083116126e257829003601f168201915b5050505050905090565b6000600c600083815260200190815260200160002090508060010160009054906101000a900473ffffffffffffffffffffffffffffffffffffffff1673ffffffffffffffffffffffffffffffffffffffff163373ffffffffffffffffffffffffffffffffffffffff16146127b2576040517f08c379a00000000000000000000000000000000000000000000000000000000081526004016127a99061568d565b60405180910390fd5b600960008154809291906127c59061551a565b9190505550600073ffffffffffffffffffffffffffffffffffffffff168160070160009054906101000a900473ffffffffffffffffffffffffffffffffffffffff1673ffffffffffffffffffffffffffffffffffffffff1614612892578060070160009054906101000a900473ffffffffffffffffffffffffffffffffffffffff1673ffffffffffffffffffffffffffffffffffffffff166108fc82600801549081150290604051600060405180830381858888f19350505050158015612890573d6000803e3d6000fd5b505b338160020160006101000a81548173ffffffffffffffffffffffffffffffffffffffff021916908373ffffffffffffffffffffffffffffffffffffffff16021790555060008160010160006101000a81548173ffffffffffffffffffffffffffffffffffffffff021916908373ffffffffffffffffffffffffffffffffffffffff160217905550612924303384613cf8565b80600c6000848152602001908152602001600020600082015481600001556001820160009054906101000a900473ffffffffffffffffffffffffffffffffffffffff168160010160006101000a81548173ffffffffffffffffffffffffffffffffffffffff021916908373ffffffffffffffffffffffffffffffffffffffff1602179055506002820160009054906101000a900473ffffffffffffffffffffffffffffffffffffffff168160020160006101000a81548173ffffffffffffffffffffffffffffffffffffffff021916908373ffffffffffffffffffffffffffffffffffffffff160217905550600382015481600301556004820160009054906101000a900460ff168160040160006101000a81548160ff0219169083151502179055506004820160019054906101000a900460ff168160040160016101000a81548160ff02191690831515021790555060058201548160050155600682015481600601556007820160009054906101000a900473ffffffffffffffffffffffffffffffffffffffff168160070160006101000a81548173ffffffffffffffffffffffffffffffffffffffff021916908373ffffffffffffffffffffffffffffffffffffffff160217905550600882015481600801556009820160009054906101000a900460ff168160090160006101000a81548160ff0219169083151502179055509050505050565b6000600c6000838152602001908152602001600020905080600801543411612b8a576040517f08c379a0000000000000000000000000000000000000000000000000000000008152600401612b819061571f565b60405180910390fd5b8060050154421015612bd1576040517f08c379a0000000000000000000000000000000000000000000000000000000008152600401612bc89061578b565b60405180910390fd5b8060090160009054906101000a900460ff1615612c23576040517f08c379a0000000000000000000000000000000000000000000000000000000008152600401612c1a906157f7565b60405180910390fd5b3373ffffffffffffffffffffffffffffffffffffffff168160070160009054906101000a900473ffffffffffffffffffffffffffffffffffffffff1673ffffffffffffffffffffffffffffffffffffffff1603612cb5576040517f08c379a0000000000000000000000000000000000000000000000000000000008152600401612cac90615863565b60405180910390fd5b600073ffffffffffffffffffffffffffffffffffffffff168160070160009054906101000a900473ffffffffffffffffffffffffffffffffffffffff1673ffffffffffffffffffffffffffffffffffffffff1614612d835760008160070160009054906101000a900473ffffffffffffffffffffffffffffffffffffffff1690508073ffffffffffffffffffffffffffffffffffffffff166108fc83600801549081150290604051600060405180830381858888f19350505050158015612d80573d6000803e3d6000fd5b50505b348160080181905550338160070160006101000a81548173ffffffffffffffffffffffffffffffffffffffff021916908373ffffffffffffffffffffffffffffffffffffffff16021790555080600c6000848152602001908152602001600020600082015481600001556001820160009054906101000a900473ffffffffffffffffffffffffffffffffffffffff168160010160006101000a81548173ffffffffffffffffffffffffffffffffffffffff021916908373ffffffffffffffffffffffffffffffffffffffff1602179055506002820160009054906101000a900473ffffffffffffffffffffffffffffffffffffffff168160020160006101000a81548173ffffffffffffffffffffffffffffffffffffffff021916908373ffffffffffffffffffffffffffffffffffffffff160217905550600382015481600301556004820160009054906101000a900460ff168160040160006101000a81548160ff0219169083151502179055506004820160019054906101000a900460ff168160040160016101000a81548160ff02191690831515021790555060058201548160050155600682015481600601556007820160009054906101000a900473ffffffffffffffffffffffffffffffffffffffff168160070160006101000a81548173ffffffffffffffffffffffffffffffffffffffff021916908373ffffffffffffffffffffffffffffffffffffffff160217905550600882015481600801556009820160009054906101000a900460ff168160090160006101000a81548160ff0219169083151502179055509050505050565b612fea612fe3613ac4565b8383613fba565b5050565b3373ffffffffffffffffffffffffffffffffffffffff16600b60009054906101000a900473ffffffffffffffffffffffffffffffffffffffff1673ffffffffffffffffffffffffffffffffffffffff161461307e576040517f08c379a0000000000000000000000000000000000000000000000000000000008152600401613075906158f5565b60405180910390fd5b80600a8190555050565b613093848484611323565b61309f84848484614129565b50505050565b6000600c6000838152602001908152602001600020600301549050803414613102576040517f08c379a00000000000000000000000000000000000000000000000000000000081526004016130f990615987565b60405180910390fd5b33600c600084815260200190815260200160002060020160006101000a81548173ffffffffffffffffffffffffffffffffffffffff021916908373ffffffffffffffffffffffffffffffffffffffff1602179055506001600c600084815260200190815260200160002060040160006101000a81548160ff021916908315150217905550600860008154809291906131999061551a565b91905055506131a9303384613cf8565b600b60009054906101000a900473ffffffffffffffffffffffffffffffffffffffff1673ffffffffffffffffffffffffffffffffffffffff166108fc600a549081150290604051600060405180830381858888f19350505050158015613213573d6000803e3d6000fd5b50600c600083815260200190815260200160002060010160009054906101000a900473ffffffffffffffffffffffffffffffffffffffff1673ffffffffffffffffffffffffffffffffffffffff166108fc349081150290604051600060405180830381858888f19350505050158015613290573d6000803e3d6000fd5b506000600c600084815260200190815260200160002060010160006101000a81548173ffffffffffffffffffffffffffffffffffffffff021916908373ffffffffffffffffffffffffffffffffffffffff1602179055505050565b60606132f6826139ff565b5060006006600084815260200190815260200160002080546133179061536c565b80601f01602080910402602001604051908101604052809291908181526020018280546133439061536c565b80156133905780601f1061336557610100808354040283529160200191613390565b820191906000526020600020905b81548152906001019060200180831161337357829003601f168201915b5050505050905060006133a16142e0565b905060008151036133b65781925050506133f9565b6000825111156133eb5780826040516020016133d39291906159e3565b604051602081830303815290604052925050506133f9565b6133f4846142f7565b925050505b919050565b6000600c600083815260200190815260200160002090508060010160009054906101000a900473ffffffffffffffffffffffffffffffffffffffff1673ffffffffffffffffffffffffffffffffffffffff163373ffffffffffffffffffffffffffffffffffffffff16146134a7576040517f08c379a000000000000000000000000000000000000000000000000000000000815260040161349e90615a79565b60405180910390fd5b600073ffffffffffffffffffffffffffffffffffffffff168160070160009054906101000a900473ffffffffffffffffffffffffffffffffffffffff1673ffffffffffffffffffffffffffffffffffffffff160361353a576040517f08c379a000000000000000000000000000000000000000000000000000000000815260040161353190615b0b565b60405180910390fd5b6009600081548092919061354d9061551a565b919050555061359330600c600085815260200190815260200160002060070160009054906101000a900473ffffffffffffffffffffffffffffffffffffffff1684613cf8565b60018160090160006101000a81548160ff0219169083151502179055508060070160009054906101000a900473ffffffffffffffffffffffffffffffffffffffff168160020160006101000a81548173ffffffffffffffffffffffffffffffffffffffff021916908373ffffffffffffffffffffffffffffffffffffffff16021790555060008160010160006101000a81548173ffffffffffffffffffffffffffffffffffffffff021916908373ffffffffffffffffffffffffffffffffffffffff16021790555080600c6000848152602001908152602001600020600082015481600001556001820160009054906101000a900473ffffffffffffffffffffffffffffffffffffffff168160010160006101000a81548173ffffffffffffffffffffffffffffffffffffffff021916908373ffffffffffffffffffffffffffffffffffffffff1602179055506002820160009054906101000a900473ffffffffffffffffffffffffffffffffffffffff168160020160006101000a81548173ffffffffffffffffffffffffffffffffffffffff021916908373ffffffffffffffffffffffffffffffffffffffff160217905550600382015481600301556004820160009054906101000a900460ff168160040160006101000a81548160ff0219169083151502179055506004820160019054906101000a900460ff168160040160016101000a81548160ff02191690831515021790555060058201548160050155600682015481600601556007820160009054906101000a900473ffffffffffffffffffffffffffffffffffffffff168160070160006101000a81548173ffffffffffffffffffffffffffffffffffffffff021916908373ffffffffffffffffffffffffffffffffffffffff160217905550600882015481600801556009820160009054906101000a900460ff168160090160006101000a81548160ff0219169083151502179055509050505050565b600080600c600084815260200190815260200160002090508060060154915050919050565b6000600560008473ffffffffffffffffffffffffffffffffffffffff1673ffffffffffffffffffffffffffffffffffffffff16815260200190815260200160002060008373ffffffffffffffffffffffffffffffffffffffff1673ffffffffffffffffffffffffffffffffffffffff16815260200190815260200160002060009054906101000a900460ff16905092915050565b60007f80ac58cd000000000000000000000000000000000000000000000000000000007bffffffffffffffffffffffffffffffffffffffffffffffffffffffff1916827bffffffffffffffffffffffffffffffffffffffffffffffffffffffff191614806139e857507f5b5e139f000000000000000000000000000000000000000000000000000000007bffffffffffffffffffffffffffffffffffffffffffffffffffffffff1916827bffffffffffffffffffffffffffffffffffffffffffffffffffffffff1916145b806139f857506139f782614360565b5b9050919050565b600080613a0b836143ca565b9050600073ffffffffffffffffffffffffffffffffffffffff168173ffffffffffffffffffffffffffffffffffffffff1603613a7e57826040517f7e273289000000000000000000000000000000000000000000000000000000008152600401613a7591906150d2565b60405180910390fd5b80915050919050565b60006004600083815260200190815260200160002060009054906101000a900473ffffffffffffffffffffffffffffffffffffffff169050919050565b600033905090565b613ad98383836001614407565b505050565b600080613aea846143ca565b9050600073ffffffffffffffffffffffffffffffffffffffff168373ffffffffffffffffffffffffffffffffffffffff1614613b2c57613b2b8184866145cc565b5b600073ffffffffffffffffffffffffffffffffffffffff168173ffffffffffffffffffffffffffffffffffffffff1614613bbd57613b6e600085600080614407565b6001600360008373ffffffffffffffffffffffffffffffffffffffff1673ffffffffffffffffffffffffffffffffffffffff168152602001908152602001600020600082825403925050819055505b600073ffffffffffffffffffffffffffffffffffffffff168573ffffffffffffffffffffffffffffffffffffffff1614613c40576001600360008773ffffffffffffffffffffffffffffffffffffffff1673ffffffffffffffffffffffffffffffffffffffff168152602001908152602001600020600082825401925050819055505b846002600086815260200190815260200160002060006101000a81548173ffffffffffffffffffffffffffffffffffffffff021916908373ffffffffffffffffffffffffffffffffffffffff160217905550838573ffffffffffffffffffffffffffffffffffffffff168273ffffffffffffffffffffffffffffffffffffffff167fddf252ad1be2c89b69c2b068fc378daa952ba7f163c4a11628f55a4df523b3ef60405160405180910390a4809150509392505050565b600073ffffffffffffffffffffffffffffffffffffffff168273ffffffffffffffffffffffffffffffffffffffff1603613d6a5760006040517f64a0ae92000000000000000000000000000000000000000000000000000000008152600401613d619190614c39565b60405180910390fd5b6000613d7883836000613ade565b9050600073ffffffffffffffffffffffffffffffffffffffff168173ffffffffffffffffffffffffffffffffffffffff1603613deb57816040517f7e273289000000000000000000000000000000000000000000000000000000008152600401613de291906150d2565b60405180910390fd5b8373ffffffffffffffffffffffffffffffffffffffff168173ffffffffffffffffffffffffffffffffffffffff1614613e5f578382826040517f64283d7b000000000000000000000000000000000000000000000000000000008152600401613e5693929190615477565b60405180910390fd5b50505050565b600073ffffffffffffffffffffffffffffffffffffffff168273ffffffffffffffffffffffffffffffffffffffff1603613ed75760006040517f64a0ae92000000000000000000000000000000000000000000000000000000008152600401613ece9190614c39565b60405180910390fd5b6000613ee583836000613ade565b9050600073ffffffffffffffffffffffffffffffffffffffff168173ffffffffffffffffffffffffffffffffffffffff1614613f595760006040517f73c6ac6e000000000000000000000000000000000000000000000000000000008152600401613f509190614c39565b60405180910390fd5b505050565b80600660008481526020019081526020016000209081613f7e9190615cd7565b507ff8e1a15aba9398e019f0b49df1a4fde98ee17ae345cb5f6b5e2c27f5033e8ce782604051613fae91906150d2565b60405180910390a15050565b600073ffffffffffffffffffffffffffffffffffffffff168273ffffffffffffffffffffffffffffffffffffffff160361402b57816040517f5b08ba180000000000000000000000000000000000000000000000000000000081526004016140229190614c39565b60405180910390fd5b80600560008573ffffffffffffffffffffffffffffffffffffffff1673ffffffffffffffffffffffffffffffffffffffff16815260200190815260200160002060008473ffffffffffffffffffffffffffffffffffffffff1673ffffffffffffffffffffffffffffffffffffffff16815260200190815260200160002060006101000a81548160ff0219169083151502179055508173ffffffffffffffffffffffffffffffffffffffff168373ffffffffffffffffffffffffffffffffffffffff167f17307eab39ab6107e8899845ad3d59bd9653f200f220920489ca2b5937696c318360405161411c9190614ac8565b60405180910390a3505050565b60008373ffffffffffffffffffffffffffffffffffffffff163b11156142da578273ffffffffffffffffffffffffffffffffffffffff1663150b7a0261416d613ac4565b8685856040518563ffffffff1660e01b815260040161418f9493929190615dfe565b6020604051808303816000875af19250505080156141cb57506040513d601f19601f820116820180604052508101906141c89190615e5f565b60015b61424f573d80600081146141fb576040519150601f19603f3d011682016040523d82523d6000602084013e614200565b606091505b50600081510361424757836040517f64a0ae9200000000000000000000000000000000000000000000000000000000815260040161423e9190614c39565b60405180910390fd5b805181602001fd5b63150b7a0260e01b7bffffffffffffffffffffffffffffffffffffffffffffffffffffffff1916817bffffffffffffffffffffffffffffffffffffffffffffffffffffffff1916146142d857836040517f64a0ae920000000000000000000000000000000000000000000000000000000081526004016142cf9190614c39565b60405180910390fd5b505b50505050565b606060405180602001604052806000815250905090565b6060614302826139ff565b50600061430d6142e0565b9050600081511161432d5760405180602001604052806000815250614358565b8061433784614690565b6040516020016143489291906159e3565b6040516020818303038152906040525b915050919050565b60007f01ffc9a7000000000000000000000000000000000000000000000000000000007bffffffffffffffffffffffffffffffffffffffffffffffffffffffff1916827bffffffffffffffffffffffffffffffffffffffffffffffffffffffff1916149050919050565b60006002600083815260200190815260200160002060009054906101000a900473ffffffffffffffffffffffffffffffffffffffff169050919050565b80806144405750600073ffffffffffffffffffffffffffffffffffffffff168273ffffffffffffffffffffffffffffffffffffffff1614155b15614574576000614450846139ff565b9050600073ffffffffffffffffffffffffffffffffffffffff168373ffffffffffffffffffffffffffffffffffffffff16141580156144bb57508273ffffffffffffffffffffffffffffffffffffffff168173ffffffffffffffffffffffffffffffffffffffff1614155b80156144ce57506144cc8184613889565b155b1561451057826040517fa9fbf51f0000000000000000000000000000000000000000000000000000000081526004016145079190614c39565b60405180910390fd5b811561457257838573ffffffffffffffffffffffffffffffffffffffff168273ffffffffffffffffffffffffffffffffffffffff167f8c5be1e5ebec7d5bd14f71427d1e84f3dd0314c0f7b2291e5b200ac8c7c3b92560405160405180910390a45b505b836004600085815260200190815260200160002060006101000a81548173ffffffffffffffffffffffffffffffffffffffff021916908373ffffffffffffffffffffffffffffffffffffffff16021790555050505050565b6145d783838361475e565b61468b57600073ffffffffffffffffffffffffffffffffffffffff168373ffffffffffffffffffffffffffffffffffffffff160361464c57806040517f7e27328900000000000000000000000000000000000000000000000000000000815260040161464391906150d2565b60405180910390fd5b81816040517f177e802f000000000000000000000000000000000000000000000000000000008152600401614682929190615e8c565b60405180910390fd5b505050565b60606000600161469f8461481f565b01905060008167ffffffffffffffff8111156146be576146bd614f4f565b5b6040519080825280601f01601f1916602001820160405280156146f05781602001600182028036833780820191505090505b509050600082602001820190505b600115614753578080600190039150507f3031323334353637383961626364656600000000000000000000000000000000600a86061a8153600a858161474757614746615eb5565b5b049450600085036146fe575b819350505050919050565b60008073ffffffffffffffffffffffffffffffffffffffff168373ffffffffffffffffffffffffffffffffffffffff161415801561481657508273ffffffffffffffffffffffffffffffffffffffff168473ffffffffffffffffffffffffffffffffffffffff1614806147d757506147d68484613889565b5b8061481557508273ffffffffffffffffffffffffffffffffffffffff166147fd83613a87565b73ffffffffffffffffffffffffffffffffffffffff16145b5b90509392505050565b600080600090507a184f03e93ff9f4daa797ed6e38ed64bf6a1f010000000000000000831061487d577a184f03e93ff9f4daa797ed6e38ed64bf6a1f010000000000000000838161487357614872615eb5565b5b0492506040810190505b6d04ee2d6d415b85acef810000000083106148ba576d04ee2d6d415b85acef810000000083816148b0576148af615eb5565b5b0492506020810190505b662386f26fc1000083106148e957662386f26fc1000083816148df576148de615eb5565b5b0492506010810190505b6305f5e1008310614912576305f5e100838161490857614907615eb5565b5b0492506008810190505b612710831061493757612710838161492d5761492c615eb5565b5b0492506004810190505b6064831061495a57606483816149505761494f615eb5565b5b0492506002810190505b600a8310614969576001810190505b80915050919050565b60405180610160016040528060008152602001600073ffffffffffffffffffffffffffffffffffffffff168152602001600073ffffffffffffffffffffffffffffffffffffffff168152602001600081526020016000151581526020016000151581526020016000815260200160008152602001600073ffffffffffffffffffffffffffffffffffffffff168152602001600081526020016000151581525090565b6000604051905090565b600080fd5b600080fd5b60007fffffffff0000000000000000000000000000000000000000000000000000000082169050919050565b614a5d81614a28565b8114614a6857600080fd5b50565b600081359050614a7a81614a54565b92915050565b600060208284031215614a9657614a95614a1e565b5b6000614aa484828501614a6b565b91505092915050565b60008115159050919050565b614ac281614aad565b82525050565b6000602082019050614add6000830184614ab9565b92915050565b600081519050919050565b600082825260208201905092915050565b60005b83811015614b1d578082015181840152602081019050614b02565b60008484015250505050565b6000601f19601f8301169050919050565b6000614b4582614ae3565b614b4f8185614aee565b9350614b5f818560208601614aff565b614b6881614b29565b840191505092915050565b60006020820190508181036000830152614b8d8184614b3a565b905092915050565b6000819050919050565b614ba881614b95565b8114614bb357600080fd5b50565b600081359050614bc581614b9f565b92915050565b600060208284031215614be157614be0614a1e565b5b6000614bef84828501614bb6565b91505092915050565b600073ffffffffffffffffffffffffffffffffffffffff82169050919050565b6000614c2382614bf8565b9050919050565b614c3381614c18565b82525050565b6000602082019050614c4e6000830184614c2a565b92915050565b614c5d81614c18565b8114614c6857600080fd5b50565b600081359050614c7a81614c54565b92915050565b60008060408385031215614c9757614c96614a1e565b5b6000614ca585828601614c6b565b9250506020614cb685828601614bb6565b9150509250929050565b600081519050919050565b600082825260208201905092915050565b6000819050602082019050919050565b614cf581614b95565b82525050565b6000614d0682614bf8565b9050919050565b614d1681614cfb565b82525050565b614d2581614aad565b82525050565b61016082016000820151614d426000850182614cec565b506020820151614d556020850182614d0d565b506040820151614d686040850182614d0d565b506060820151614d7b6060850182614cec565b506080820151614d8e6080850182614d1c565b5060a0820151614da160a0850182614d1c565b5060c0820151614db460c0850182614cec565b5060e0820151614dc760e0850182614cec565b50610100820151614ddc610100850182614d0d565b50610120820151614df1610120850182614cec565b50610140820151614e06610140850182614d1c565b50505050565b6000614e188383614d2b565b6101608301905092915050565b6000602082019050919050565b6000614e3d82614cc0565b614e478185614ccb565b9350614e5283614cdc565b8060005b83811015614e83578151614e6a8882614e0c565b9750614e7583614e25565b925050600181019050614e56565b5085935050505092915050565b60006020820190508181036000830152614eaa8184614e32565b905092915050565b600080600060608486031215614ecb57614eca614a1e565b5b6000614ed986828701614c6b565b9350506020614eea86828701614c6b565b9250506040614efb86828701614bb6565b9150509250925092565b60008060408385031215614f1c57614f1b614a1e565b5b6000614f2a85828601614bb6565b9250506020614f3b85828601614bb6565b9150509250929050565b600080fd5b600080fd5b7f4e487b7100000000000000000000000000000000000000000000000000000000600052604160045260246000fd5b614f8782614b29565b810181811067ffffffffffffffff82111715614fa657614fa5614f4f565b5b80604052505050565b6000614fb9614a14565b9050614fc58282614f7e565b919050565b600067ffffffffffffffff821115614fe557614fe4614f4f565b5b614fee82614b29565b9050602081019050919050565b82818337600083830152505050565b600061501d61501884614fca565b614faf565b90508281526020810184848401111561503957615038614f4a565b5b615044848285614ffb565b509392505050565b600082601f83011261506157615060614f45565b5b813561507184826020860161500a565b91505092915050565b6000602082840312156150905761508f614a1e565b5b600082013567ffffffffffffffff8111156150ae576150ad614a23565b5b6150ba8482850161504c565b91505092915050565b6150cc81614b95565b82525050565b60006020820190506150e760008301846150c3565b92915050565b60006020828403121561510357615102614a1e565b5b600061511184828501614c6b565b91505092915050565b60008060006060848603121561513357615132614a1e565b5b600061514186828701614bb6565b935050602061515286828701614bb6565b925050604061516386828701614bb6565b9150509250925092565b61517681614aad565b811461518157600080fd5b50565b6000813590506151938161516d565b92915050565b600080604083850312156151b0576151af614a1e565b5b60006151be85828601614c6b565b92505060206151cf85828601615184565b9150509250929050565b600067ffffffffffffffff8211156151f4576151f3614f4f565b5b6151fd82614b29565b9050602081019050919050565b600061521d615218846151d9565b614faf565b90508281526020810184848401111561523957615238614f4a565b5b615244848285614ffb565b509392505050565b600082601f83011261526157615260614f45565b5b813561527184826020860161520a565b91505092915050565b6000806000806080858703121561529457615293614a1e565b5b60006152a287828801614c6b565b94505060206152b387828801614c6b565b93505060406152c487828801614bb6565b925050606085013567ffffffffffffffff8111156152e5576152e4614a23565b5b6152f18782880161524c565b91505092959194509250565b6000806040838503121561531457615313614a1e565b5b600061532285828601614c6b565b925050602061533385828601614c6b565b9150509250929050565b7f4e487b7100000000000000000000000000000000000000000000000000000000600052602260045260246000fd5b6000600282049050600182168061538457607f821691505b6020821081036153975761539661533d565b5b50919050565b7f4e487b7100000000000000000000000000000000000000000000000000000000600052601160045260246000fd5b60006153d782614b95565b91506153e283614b95565b92508282019050808211156153fa576153f961539d565b5b92915050565b7f4e487b7100000000000000000000000000000000000000000000000000000000600052603260045260246000fd5b600061543a82614b95565b91507fffffffffffffffffffffffffffffffffffffffffffffffffffffffffffffffff820361546c5761546b61539d565b5b600182019050919050565b600060608201905061548c6000830186614c2a565b61549960208301856150c3565b6154a66040830184614c2a565b949350505050565b7f4f6e6c79206f776e65722063616e2063616e63656c2073656c6c696e67000000600082015250565b60006154e4601d83614aee565b91506154ef826154ae565b602082019050919050565b60006020820190508181036000830152615513816154d7565b9050919050565b600061552582614b95565b9150600082036155385761553761539d565b5b600182039050919050565b7f5072696365206d757374206265206174206c6561737420312077656900000000600082015250565b6000615579601c83614aee565b915061558482615543565b602082019050919050565b600060208201905081810360008301526155a88161556c565b9050919050565b7f4f6e6c79206974656d206f776e65722063616e20706572666f726d207468697360008201527f206f7065726174696f6e00000000000000000000000000000000000000000000602082015250565b600061560b602a83614aee565b9150615616826155af565b604082019050919050565b6000602082019050818103600083015261563a816155fe565b9050919050565b7f4f6e6c79206f776e65722063616e2063616e63656c2061756374696f6e000000600082015250565b6000615677601d83614aee565b915061568282615641565b602082019050919050565b600060208201905081810360008301526156a68161566a565b9050919050565b7f426964206d7573742062652067726561746572207468616e206869676865737460008201527f2062696400000000000000000000000000000000000000000000000000000000602082015250565b6000615709602483614aee565b9150615714826156ad565b604082019050919050565b60006020820190508181036000830152615738816156fc565b9050919050565b7f41756374696f6e206e6f74207965742073746172746564000000000000000000600082015250565b6000615775601783614aee565b91506157808261573f565b602082019050919050565b600060208201905081810360008301526157a481615768565b9050919050565b7f41756374696f6e20616c726561647920636f6d706c6574656400000000000000600082015250565b60006157e1601983614aee565b91506157ec826157ab565b602082019050919050565b60006020820190508181036000830152615810816157d4565b9050919050565b7f43616e6e6f742062696420747769636520696e206120726f7700000000000000600082015250565b600061584d601983614aee565b915061585882615817565b602082019050919050565b6000602082019050818103600083015261587c81615840565b9050919050565b7f4f6e6c79206d61726b6574706c616365206f776e65722063616e20757064617460008201527f65206c697374696e672070726963652e00000000000000000000000000000000602082015250565b60006158df603083614aee565b91506158ea82615883565b604082019050919050565b6000602082019050818103600083015261590e816158d2565b9050919050565b7f506c65617365207375626d6974207468652061736b696e67207072696365206960008201527f6e206f7264657220746f20636f6d706c65746520746865207075726368617365602082015250565b6000615971604083614aee565b915061597c82615915565b604082019050919050565b600060208201905081810360008301526159a081615964565b9050919050565b600081905092915050565b60006159bd82614ae3565b6159c781856159a7565b93506159d7818560208601614aff565b80840191505092915050565b60006159ef82856159b2565b91506159fb82846159b2565b91508190509392505050565b7f4f6e6c792074686520746f6b656e206f776e65722063616e20656e642074686560008201527f2061756374696f6e000000000000000000000000000000000000000000000000602082015250565b6000615a63602883614aee565b9150615a6e82615a07565b604082019050919050565b60006020820190508181036000830152615a9281615a56565b9050919050565b7f41756374696f6e206d7573742068617665206174206c65617374206f6e65206260008201527f6964000000000000000000000000000000000000000000000000000000000000602082015250565b6000615af5602283614aee565b9150615b0082615a99565b604082019050919050565b60006020820190508181036000830152615b2481615ae8565b9050919050565b60008190508160005260206000209050919050565b60006020601f8301049050919050565b600082821b905092915050565b600060088302615b8d7fffffffffffffffffffffffffffffffffffffffffffffffffffffffffffffffff82615b50565b615b978683615b50565b95508019841693508086168417925050509392505050565b6000819050919050565b6000615bd4615bcf615bca84614b95565b615baf565b614b95565b9050919050565b6000819050919050565b615bee83615bb9565b615c02615bfa82615bdb565b848454615b5d565b825550505050565b600090565b615c17615c0a565b615c22818484615be5565b505050565b5b81811015615c4657615c3b600082615c0f565b600181019050615c28565b5050565b601f821115615c8b57615c5c81615b2b565b615c6584615b40565b81016020851015615c74578190505b615c88615c8085615b40565b830182615c27565b50505b505050565b600082821c905092915050565b6000615cae60001984600802615c90565b1980831691505092915050565b6000615cc78383615c9d565b9150826002028217905092915050565b615ce082614ae3565b67ffffffffffffffff811115615cf957615cf8614f4f565b5b615d03825461536c565b615d0e828285615c4a565b600060209050601f831160018114615d415760008415615d2f578287015190505b615d398582615cbb565b865550615da1565b601f198416615d4f86615b2b565b60005b82811015615d7757848901518255600182019150602085019450602081019050615d52565b86831015615d945784890151615d90601f891682615c9d565b8355505b6001600288020188555050505b505050505050565b600081519050919050565b600082825260208201905092915050565b6000615dd082615da9565b615dda8185615db4565b9350615dea818560208601614aff565b615df381614b29565b840191505092915050565b6000608082019050615e136000830187614c2a565b615e206020830186614c2a565b615e2d60408301856150c3565b8181036060830152615e3f8184615dc5565b905095945050505050565b600081519050615e5981614a54565b92915050565b600060208284031215615e7557615e74614a1e565b5b6000615e8384828501615e4a565b91505092915050565b6000604082019050615ea16000830185614c2a565b615eae60208301846150c3565b9392505050565b7f4e487b7100000000000000000000000000000000000000000000000000000000600052601260045260246000fdfea264697066735822122046ff7c3c4da2d8f4eb07ca87a6e6de8f4fe663b5d9e90c13dcacd2ade554ae8064736f6c63430008140033",
  "linkReferences": {},
  "deployedLinkReferences": {}
}