{
  "_format": "hh-sol-artifact-1",
  "contractName": "NFTMarketplace",
  "sourceName": "contracts/NFTMarketplace.sol",
  "abi": [
    {
      "inputs": [],
      "stateMutability": "nonpayable",
      "type": "constructor"
    },
    {
      "inputs": [
        {
          "internalType": "address",
          "name": "sender",
          "type": "address"
        },
        {
          "internalType": "uint256",
          "name": "tokenId",
          "type": "uint256"
        },
        {
          "internalType": "address",
          "name": "owner",
          "type": "address"
        }
      ],
      "name": "ERC721IncorrectOwner",
      "type": "error"
    },
    {
      "inputs": [
        {
          "internalType": "address",
          "name": "operator",
          "type": "address"
        },
        {
          "internalType": "uint256",
          "name": "tokenId",
          "type": "uint256"
        }
      ],
      "name": "ERC721InsufficientApproval",
      "type": "error"
    },
    {
      "inputs": [
        {
          "internalType": "address",
          "name": "approver",
          "type": "address"
        }
      ],
      "name": "ERC721InvalidApprover",
      "type": "error"
    },
    {
      "inputs": [
        {
          "internalType": "address",
          "name": "operator",
          "type": "address"
        }
      ],
      "name": "ERC721InvalidOperator",
      "type": "error"
    },
    {
      "inputs": [
        {
          "internalType": "address",
          "name": "owner",
          "type": "address"
        }
      ],
      "name": "ERC721InvalidOwner",
      "type": "error"
    },
    {
      "inputs": [
        {
          "internalType": "address",
          "name": "receiver",
          "type": "address"
        }
      ],
      "name": "ERC721InvalidReceiver",
      "type": "error"
    },
    {
      "inputs": [
        {
          "internalType": "address",
          "name": "sender",
          "type": "address"
        }
      ],
      "name": "ERC721InvalidSender",
      "type": "error"
    },
    {
      "inputs": [
        {
          "internalType": "uint256",
          "name": "tokenId",
          "type": "uint256"
        }
      ],
      "name": "ERC721NonexistentToken",
      "type": "error"
    },
    {
      "anonymous": false,
      "inputs": [
        {
          "indexed": true,
          "internalType": "address",
          "name": "owner",
          "type": "address"
        },
        {
          "indexed": true,
          "internalType": "address",
          "name": "approved",
          "type": "address"
        },
        {
          "indexed": true,
          "internalType": "uint256",
          "name": "tokenId",
          "type": "uint256"
        }
      ],
      "name": "Approval",
      "type": "event"
    },
    {
      "anonymous": false,
      "inputs": [
        {
          "indexed": true,
          "internalType": "address",
          "name": "owner",
          "type": "address"
        },
        {
          "indexed": true,
          "internalType": "address",
          "name": "operator",
          "type": "address"
        },
        {
          "indexed": false,
          "internalType": "bool",
          "name": "approved",
          "type": "bool"
        }
      ],
      "name": "ApprovalForAll",
      "type": "event"
    },
    {
      "anonymous": false,
      "inputs": [
        {
          "indexed": false,
          "internalType": "uint256",
          "name": "_fromTokenId",
          "type": "uint256"
        },
        {
          "indexed": false,
          "internalType": "uint256",
          "name": "_toTokenId",
          "type": "uint256"
        }
      ],
      "name": "BatchMetadataUpdate",
      "type": "event"
    },
    {
      "anonymous": false,
      "inputs": [
        {
          "indexed": false,
          "internalType": "uint256",
          "name": "_tokenId",
          "type": "uint256"
        }
      ],
      "name": "MetadataUpdate",
      "type": "event"
    },
    {
      "anonymous": false,
      "inputs": [
        {
          "indexed": true,
          "internalType": "address",
          "name": "from",
          "type": "address"
        },
        {
          "indexed": true,
          "internalType": "address",
          "name": "to",
          "type": "address"
        },
        {
          "indexed": true,
          "internalType": "uint256",
          "name": "tokenId",
          "type": "uint256"
        }
      ],
      "name": "Transfer",
      "type": "event"
    },
    {
      "inputs": [
        {
          "internalType": "address",
          "name": "to",
          "type": "address"
        },
        {
          "internalType": "uint256",
          "name": "tokenId",
          "type": "uint256"
        }
      ],
      "name": "approve",
      "outputs": [],
      "stateMutability": "nonpayable",
      "type": "function"
    },
    {
      "inputs": [
        {
          "internalType": "address",
          "name": "owner",
          "type": "address"
        }
      ],
      "name": "balanceOf",
      "outputs": [
        {
          "internalType": "uint256",
          "name": "",
          "type": "uint256"
        }
      ],
      "stateMutability": "view",
      "type": "function"
    },
    {
      "inputs": [
        {
          "internalType": "uint256",
          "name": "tokenId",
          "type": "uint256"
        }
      ],
      "name": "cancelAuction",
      "outputs": [],
      "stateMutability": "payable",
      "type": "function"
    },
    {
      "inputs": [
        {
          "internalType": "uint256",
          "name": "tokenId",
          "type": "uint256"
        }
      ],
      "name": "cancelSelling",
      "outputs": [],
      "stateMutability": "payable",
      "type": "function"
    },
    {
      "inputs": [
        {
          "internalType": "uint256",
          "name": "tokenId",
          "type": "uint256"
        },
        {
          "internalType": "uint256",
          "name": "price",
          "type": "uint256"
        }
      ],
      "name": "createMarketItem",
      "outputs": [],
      "stateMutability": "payable",
      "type": "function"
    },
    {
      "inputs": [
        {
          "internalType": "uint256",
          "name": "tokenId",
          "type": "uint256"
        }
      ],
      "name": "createMarketSale",
      "outputs": [],
      "stateMutability": "payable",
      "type": "function"
    },
    {
      "inputs": [
        {
          "internalType": "string",
          "name": "tokenURI",
          "type": "string"
        }
      ],
      "name": "createToken",
      "outputs": [
        {
          "internalType": "uint256",
          "name": "",
          "type": "uint256"
        }
      ],
      "stateMutability": "payable",
      "type": "function"
    },
    {
      "inputs": [],
      "name": "fetchAllAuctionItems",
      "outputs": [
        {
          "components": [
            {
              "internalType": "uint256",
              "name": "tokenId",
              "type": "uint256"
            },
            {
              "internalType": "address payable",
              "name": "seller",
              "type": "address"
            },
            {
              "internalType": "address payable",
              "name": "owner",
              "type": "address"
            },
            {
              "internalType": "uint256",
              "name": "price",
              "type": "uint256"
            },
            {
              "internalType": "bool",
              "name": "sold",
              "type": "bool"
            },
            {
              "internalType": "bool",
              "name": "directSold",
              "type": "bool"
            },
            {
              "internalType": "uint256",
              "name": "startTime",
              "type": "uint256"
            },
            {
              "internalType": "uint256",
              "name": "endTime",
              "type": "uint256"
            },
            {
              "internalType": "address payable",
              "name": "highestBidder",
              "type": "address"
            },
            {
              "internalType": "uint256",
              "name": "highestBid",
              "type": "uint256"
            },
            {
              "internalType": "bool",
              "name": "auctionCompleted",
              "type": "bool"
            }
          ],
          "internalType": "struct NFTMarketplace.MarketItem[]",
          "name": "",
          "type": "tuple[]"
        }
      ],
      "stateMutability": "view",
      "type": "function"
    },
    {
      "inputs": [],
      "name": "fetchItemsListed",
      "outputs": [
        {
          "components": [
            {
              "internalType": "uint256",
              "name": "tokenId",
              "type": "uint256"
            },
            {
              "internalType": "address payable",
              "name": "seller",
              "type": "address"
            },
            {
              "internalType": "address payable",
              "name": "owner",
              "type": "address"
            },
            {
              "internalType": "uint256",
              "name": "price",
              "type": "uint256"
            },
            {
              "internalType": "bool",
              "name": "sold",
              "type": "bool"
            },
            {
              "internalType": "bool",
              "name": "directSold",
              "type": "bool"
            },
            {
              "internalType": "uint256",
              "name": "startTime",
              "type": "uint256"
            },
            {
              "internalType": "uint256",
              "name": "endTime",
              "type": "uint256"
            },
            {
              "internalType": "address payable",
              "name": "highestBidder",
              "type": "address"
            },
            {
              "internalType": "uint256",
              "name": "highestBid",
              "type": "uint256"
            },
            {
              "internalType": "bool",
              "name": "auctionCompleted",
              "type": "bool"
            }
          ],
          "internalType": "struct NFTMarketplace.MarketItem[]",
          "name": "",
          "type": "tuple[]"
        }
      ],
      "stateMutability": "view",
      "type": "function"
    },
    {
      "inputs": [],
      "name": "fetchMarketItems",
      "outputs": [
        {
          "components": [
            {
              "internalType": "uint256",
              "name": "tokenId",
              "type": "uint256"
            },
            {
              "internalType": "address payable",
              "name": "seller",
              "type": "address"
            },
            {
              "internalType": "address payable",
              "name": "owner",
              "type": "address"
            },
            {
              "internalType": "uint256",
              "name": "price",
              "type": "uint256"
            },
            {
              "internalType": "bool",
              "name": "sold",
              "type": "bool"
            },
            {
              "internalType": "bool",
              "name": "directSold",
              "type": "bool"
            },
            {
              "internalType": "uint256",
              "name": "startTime",
              "type": "uint256"
            },
            {
              "internalType": "uint256",
              "name": "endTime",
              "type": "uint256"
            },
            {
              "internalType": "address payable",
              "name": "highestBidder",
              "type": "address"
            },
            {
              "internalType": "uint256",
              "name": "highestBid",
              "type": "uint256"
            },
            {
              "internalType": "bool",
              "name": "auctionCompleted",
              "type": "bool"
            }
          ],
          "internalType": "struct NFTMarketplace.MarketItem[]",
          "name": "",
          "type": "tuple[]"
        }
      ],
      "stateMutability": "view",
      "type": "function"
    },
    {
      "inputs": [],
      "name": "fetchMyAuctionItems",
      "outputs": [
        {
          "components": [
            {
              "internalType": "uint256",
              "name": "tokenId",
              "type": "uint256"
            },
            {
              "internalType": "address payable",
              "name": "seller",
              "type": "address"
            },
            {
              "internalType": "address payable",
              "name": "owner",
              "type": "address"
            },
            {
              "internalType": "uint256",
              "name": "price",
              "type": "uint256"
            },
            {
              "internalType": "bool",
              "name": "sold",
              "type": "bool"
            },
            {
              "internalType": "bool",
              "name": "directSold",
              "type": "bool"
            },
            {
              "internalType": "uint256",
              "name": "startTime",
              "type": "uint256"
            },
            {
              "internalType": "uint256",
              "name": "endTime",
              "type": "uint256"
            },
            {
              "internalType": "address payable",
              "name": "highestBidder",
              "type": "address"
            },
            {
              "internalType": "uint256",
              "name": "highestBid",
              "type": "uint256"
            },
            {
              "internalType": "bool",
              "name": "auctionCompleted",
              "type": "bool"
            }
          ],
          "internalType": "struct NFTMarketplace.MarketItem[]",
          "name": "",
          "type": "tuple[]"
        }
      ],
      "stateMutability": "view",
      "type": "function"
    },
    {
      "inputs": [],
      "name": "fetchMyNFTs",
      "outputs": [
        {
          "components": [
            {
              "internalType": "uint256",
              "name": "tokenId",
              "type": "uint256"
            },
            {
              "internalType": "address payable",
              "name": "seller",
              "type": "address"
            },
            {
              "internalType": "address payable",
              "name": "owner",
              "type": "address"
            },
            {
              "internalType": "uint256",
              "name": "price",
              "type": "uint256"
            },
            {
              "internalType": "bool",
              "name": "sold",
              "type": "bool"
            },
            {
              "internalType": "bool",
              "name": "directSold",
              "type": "bool"
            },
            {
              "internalType": "uint256",
              "name": "startTime",
              "type": "uint256"
            },
            {
              "internalType": "uint256",
              "name": "endTime",
              "type": "uint256"
            },
            {
              "internalType": "address payable",
              "name": "highestBidder",
              "type": "address"
            },
            {
              "internalType": "uint256",
              "name": "highestBid",
              "type": "uint256"
            },
            {
              "internalType": "bool",
              "name": "auctionCompleted",
              "type": "bool"
            }
          ],
          "internalType": "struct NFTMarketplace.MarketItem[]",
          "name": "",
          "type": "tuple[]"
        }
      ],
      "stateMutability": "view",
      "type": "function"
    },
    {
      "inputs": [
        {
          "internalType": "uint256",
          "name": "tokenId",
          "type": "uint256"
        }
      ],
      "name": "finishAuction",
      "outputs": [],
      "stateMutability": "payable",
      "type": "function"
    },
    {
      "inputs": [
        {
          "internalType": "uint256",
          "name": "tokenId",
          "type": "uint256"
        }
      ],
      "name": "getApproved",
      "outputs": [
        {
          "internalType": "address",
          "name": "",
          "type": "address"
        }
      ],
      "stateMutability": "view",
      "type": "function"
    },
    {
      "inputs": [
        {
          "internalType": "uint256",
          "name": "tokenId",
          "type": "uint256"
        }
      ],
      "name": "getTimeEndOfAuction",
      "outputs": [
        {
          "internalType": "uint256",
          "name": "",
          "type": "uint256"
        }
      ],
      "stateMutability": "view",
      "type": "function"
    },
    {
      "inputs": [
        {
          "internalType": "address",
          "name": "owner",
          "type": "address"
        },
        {
          "internalType": "address",
          "name": "operator",
          "type": "address"
        }
      ],
      "name": "isApprovedForAll",
      "outputs": [
        {
          "internalType": "bool",
          "name": "",
          "type": "bool"
        }
      ],
      "stateMutability": "view",
      "type": "function"
    },
    {
      "inputs": [],
      "name": "name",
      "outputs": [
        {
          "internalType": "string",
          "name": "",
          "type": "string"
        }
      ],
      "stateMutability": "view",
      "type": "function"
    },
    {
      "inputs": [
        {
          "internalType": "uint256",
          "name": "tokenId",
          "type": "uint256"
        }
      ],
      "name": "ownerOf",
      "outputs": [
        {
          "internalType": "address",
          "name": "",
          "type": "address"
        }
      ],
      "stateMutability": "view",
      "type": "function"
    },
    {
      "inputs": [
        {
          "internalType": "uint256",
          "name": "tokenId",
          "type": "uint256"
        }
      ],
      "name": "placeBid",
      "outputs": [],
      "stateMutability": "payable",
      "type": "function"
    },
    {
      "inputs": [
        {
          "internalType": "address",
          "name": "from",
          "type": "address"
        },
        {
          "internalType": "address",
          "name": "to",
          "type": "address"
        },
        {
          "internalType": "uint256",
          "name": "tokenId",
          "type": "uint256"
        }
      ],
      "name": "safeTransferFrom",
      "outputs": [],
      "stateMutability": "nonpayable",
      "type": "function"
    },
    {
      "inputs": [
        {
          "internalType": "address",
          "name": "from",
          "type": "address"
        },
        {
          "internalType": "address",
          "name": "to",
          "type": "address"
        },
        {
          "internalType": "uint256",
          "name": "tokenId",
          "type": "uint256"
        },
        {
          "internalType": "bytes",
          "name": "data",
          "type": "bytes"
        }
      ],
      "name": "safeTransferFrom",
      "outputs": [],
      "stateMutability": "nonpayable",
      "type": "function"
    },
    {
      "inputs": [
        {
          "internalType": "address",
          "name": "operator",
          "type": "address"
        },
        {
          "internalType": "bool",
          "name": "approved",
          "type": "bool"
        }
      ],
      "name": "setApprovalForAll",
      "outputs": [],
      "stateMutability": "nonpayable",
      "type": "function"
    },
    {
      "inputs": [
        {
          "internalType": "uint256",
          "name": "tokenId",
          "type": "uint256"
        },
        {
          "internalType": "uint256",
          "name": "price",
          "type": "uint256"
        },
        {
          "internalType": "uint256",
          "name": "durations",
          "type": "uint256"
        }
      ],
      "name": "startAuction",
      "outputs": [],
      "stateMutability": "payable",
      "type": "function"
    },
    {
      "inputs": [
        {
          "internalType": "bytes4",
          "name": "interfaceId",
          "type": "bytes4"
        }
      ],
      "name": "supportsInterface",
      "outputs": [
        {
          "internalType": "bool",
          "name": "",
          "type": "bool"
        }
      ],
      "stateMutability": "view",
      "type": "function"
    },
    {
      "inputs": [],
      "name": "symbol",
      "outputs": [
        {
          "internalType": "string",
          "name": "",
          "type": "string"
        }
      ],
      "stateMutability": "view",
      "type": "function"
    },
    {
      "inputs": [
        {
          "internalType": "uint256",
          "name": "tokenId",
          "type": "uint256"
        }
      ],
      "name": "tokenURI",
      "outputs": [
        {
          "internalType": "string",
          "name": "",
          "type": "string"
        }
      ],
      "stateMutability": "view",
      "type": "function"
    },
    {
      "inputs": [
        {
          "internalType": "address",
          "name": "from",
          "type": "address"
        },
        {
          "internalType": "address",
          "name": "to",
          "type": "address"
        },
        {
          "internalType": "uint256",
          "name": "tokenId",
          "type": "uint256"
        }
      ],
      "name": "transferFrom",
      "outputs": [],
      "stateMutability": "nonpayable",
      "type": "function"
    },
    {
      "inputs": [
        {
          "internalType": "uint256",
          "name": "_listingPrice",
          "type": "uint256"
        }
      ],
      "name": "updateListingPrice",
      "outputs": [],
      "stateMutability": "payable",
      "type": "function"
    }
  ],
  "bytecode": "0x60806040526658d15e17628000600a553480156200001c57600080fd5b506040518060400160405280601081526020017f4d657461766572736520546f6b656e73000000000000000000000000000000008152506040518060400160405280600481526020017f4d4554540000000000000000000000000000000000000000000000000000000081525081600090816200009a919062000388565b508060019081620000ac919062000388565b50505033600b60006101000a81548173ffffffffffffffffffffffffffffffffffffffff021916908373ffffffffffffffffffffffffffffffffffffffff1602179055506000600781905550600060098190555060006008819055506200046f565b600081519050919050565b7f4e487b7100000000000000000000000000000000000000000000000000000000600052604160045260246000fd5b7f4e487b7100000000000000000000000000000000000000000000000000000000600052602260045260246000fd5b600060028204905060018216806200019057607f821691505b602082108103620001a657620001a562000148565b5b50919050565b60008190508160005260206000209050919050565b60006020601f8301049050919050565b600082821b905092915050565b600060088302620002107fffffffffffffffffffffffffffffffffffffffffffffffffffffffffffffffff82620001d1565b6200021c8683620001d1565b95508019841693508086168417925050509392505050565b6000819050919050565b6000819050919050565b600062000269620002636200025d8462000234565b6200023e565b62000234565b9050919050565b6000819050919050565b620002858362000248565b6200029d620002948262000270565b848454620001de565b825550505050565b600090565b620002b4620002a5565b620002c18184846200027a565b505050565b5b81811015620002e957620002dd600082620002aa565b600181019050620002c7565b5050565b601f82111562000338576200030281620001ac565b6200030d84620001c1565b810160208510156200031d578190505b620003356200032c85620001c1565b830182620002c6565b50505b505050565b600082821c905092915050565b60006200035d600019846008026200033d565b1980831691505092915050565b60006200037883836200034a565b9150826002028217905092915050565b62000393826200010e565b67ffffffffffffffff811115620003af57620003ae62000119565b5b620003bb825462000177565b620003c8828285620002ed565b600060209050601f831160018114620004005760008415620003eb578287015190505b620003f785826200036a565b86555062000467565b601f1984166200041086620001ac565b60005b828110156200043a5784890151825560018201915060208501945060208101905062000413565b868310156200045a578489015162000456601f8916826200034a565b8355505b6001600288020188555050505b505050505050565b615b3a806200047f6000396000f3fe6080604052600436106101b75760003560e01c80636612374b116100ec578063ae677aa31161008a578063c87b56dd11610064578063c87b56dd1461059e578063cf266ed0146105db578063d12812c6146105f7578063e985e9c514610634576101b7565b8063ae677aa31461053d578063b88d4fde14610559578063be9af53614610582576101b7565b806395d89b41116100c657806395d89b41146104b157806396b5a755146104dc5780639979ef45146104f8578063a22cb46514610514576101b7565b80636612374b1461042d57806370a082311461045857806391e078bb14610495576101b7565b806323b872dd1161015957806342842e0e1161013357806342842e0e1461036c57806345576f941461039557806345f8fa80146103c55780636352211e146103f0576101b7565b806323b872dd1461030b5780632f33df6014610334578063361c199514610350576101b7565b8063095ea7b311610195578063095ea7b3146102615780630f08efe01461028a578063146df2bc146102b5578063202e3740146102e0576101b7565b806301ffc9a7146101bc57806306fdde03146101f9578063081812fc14610224575b600080fd5b3480156101c857600080fd5b506101e360048036038101906101de9190614830565b610671565b6040516101f09190614878565b60405180910390f35b34801561020557600080fd5b5061020e6106d2565b60405161021b9190614923565b60405180910390f35b34801561023057600080fd5b5061024b6004803603810190610246919061497b565b610764565b60405161025891906149e9565b60405180910390f35b34801561026d57600080fd5b5061028860048036038101906102839190614a30565b610780565b005b34801561029657600080fd5b5061029f610796565b6040516102ac9190614c40565b60405180910390f35b3480156102c157600080fd5b506102ca610b06565b6040516102d79190614c40565b60405180910390f35b3480156102ec57600080fd5b506102f5610f93565b6040516103029190614c40565b60405180910390f35b34801561031757600080fd5b50610332600480360381019061032d9190614c62565b611323565b005b61034e6004803603810190610349919061497b565b611425565b005b61036a60048036038101906103659190614cb5565b61159a565b005b34801561037857600080fd5b50610393600480360381019061038e9190614c62565b6118c2565b005b6103af60048036038101906103aa9190614e2a565b6118e2565b6040516103bc9190614e82565b60405180910390f35b3480156103d157600080fd5b506103da611b3d565b6040516103e79190614c40565b60405180910390f35b3480156103fc57600080fd5b506104176004803603810190610412919061497b565b611f4d565b60405161042491906149e9565b60405180910390f35b34801561043957600080fd5b50610442611f5f565b60405161044f9190614c40565b60405180910390f35b34801561046457600080fd5b5061047f600480360381019061047a9190614e9d565b6122cf565b60405161048c9190614e82565b60405180910390f35b6104af60048036038101906104aa9190614eca565b612389565b005b3480156104bd57600080fd5b506104c6612677565b6040516104d39190614923565b60405180910390f35b6104f660048036038101906104f1919061497b565b612709565b005b610512600480360381019061050d919061497b565b61296f565b005b34801561052057600080fd5b5061053b60048036038101906105369190614f49565b612e10565b005b6105576004803603810190610552919061497b565b612e26565b005b34801561056557600080fd5b50610580600480360381019061057b919061502a565b612ec0565b005b61059c6004803603810190610597919061497b565b612edd565b005b3480156105aa57600080fd5b506105c560048036038101906105c0919061497b565b613123565b6040516105d29190614923565b60405180910390f35b6105f560048036038101906105f0919061497b565b613236565b005b34801561060357600080fd5b5061061e6004803603810190610619919061497b565b613614565b60405161062b9190614e82565b60405180910390f35b34801561064057600080fd5b5061065b600480360381019061065691906150ad565b613639565b6040516106689190614878565b60405180910390f35b6000634906490660e01b7bffffffffffffffffffffffffffffffffffffffffffffffffffffffff1916827bffffffffffffffffffffffffffffffffffffffffffffffffffffffff191614806106cb57506106ca826136cd565b5b9050919050565b6060600080546106e19061511c565b80601f016020809104026020016040519081016040528092919081815260200182805461070d9061511c565b801561075a5780601f1061072f5761010080835404028352916020019161075a565b820191906000526020600020905b81548152906001019060200180831161073d57829003601f168201915b5050505050905090565b600061076f826137af565b5061077982613837565b9050919050565b610792828261078d613874565b61387c565b5050565b606060006007549050600060085490506000808267ffffffffffffffff8111156107c3576107c2614cff565b5b6040519080825280602002602001820160405280156107fc57816020015b6107e9614722565b8152602001906001900390816107e15790505b50905060005b84811015610afb573073ffffffffffffffffffffffffffffffffffffffff16600c6000600184610832919061517c565b815260200190815260200160002060020160009054906101000a900473ffffffffffffffffffffffffffffffffffffffff1673ffffffffffffffffffffffffffffffffffffffff161480156108ba575060011515600c6000600184610897919061517c565b815260200190815260200160002060040160019054906101000a900460ff161515145b80156108f9575060001515600c60006001846108d6919061517c565b815260200190815260200160002060040160009054906101000a900460ff161515145b15610ae857600060018261090d919061517c565b90506000600c600083815260200190815260200160002090508060405180610160016040529081600082015481526020016001820160009054906101000a900473ffffffffffffffffffffffffffffffffffffffff1673ffffffffffffffffffffffffffffffffffffffff1673ffffffffffffffffffffffffffffffffffffffff1681526020016002820160009054906101000a900473ffffffffffffffffffffffffffffffffffffffff1673ffffffffffffffffffffffffffffffffffffffff1673ffffffffffffffffffffffffffffffffffffffff168152602001600382015481526020016004820160009054906101000a900460ff161515151581526020016004820160019054906101000a900460ff1615151515815260200160058201548152602001600682015481526020016007820160009054906101000a900473ffffffffffffffffffffffffffffffffffffffff1673ffffffffffffffffffffffffffffffffffffffff1673ffffffffffffffffffffffffffffffffffffffff168152602001600882015481526020016009820160009054906101000a900460ff161515151581525050848681518110610acb57610aca6151b0565b5b6020026020010181905250600185610ae3919061517c565b945050505b8080610af3906151df565b915050610802565b508094505050505090565b60606000600754905060008060005b83811015610c33573373ffffffffffffffffffffffffffffffffffffffff16600c6000600184610b45919061517c565b815260200190815260200160002060020160009054906101000a900473ffffffffffffffffffffffffffffffffffffffff1673ffffffffffffffffffffffffffffffffffffffff16148015610bcd575060001515600c6000600184610baa919061517c565b815260200190815260200160002060040160019054906101000a900460ff161515145b8015610c0c575060001515600c6000600184610be9919061517c565b815260200190815260200160002060040160009054906101000a900460ff161515145b15610c20578280610c1c906151df565b9350505b8080610c2b906151df565b915050610b15565b5060008267ffffffffffffffff811115610c5057610c4f614cff565b5b604051908082528060200260200182016040528015610c8957816020015b610c76614722565b815260200190600190039081610c6e5790505b50905060005b84811015610f88573373ffffffffffffffffffffffffffffffffffffffff16600c6000600184610cbf919061517c565b815260200190815260200160002060020160009054906101000a900473ffffffffffffffffffffffffffffffffffffffff1673ffffffffffffffffffffffffffffffffffffffff16148015610d47575060001515600c6000600184610d24919061517c565b815260200190815260200160002060040160019054906101000a900460ff161515145b8015610d86575060001515600c6000600184610d63919061517c565b815260200190815260200160002060040160009054906101000a900460ff161515145b15610f75576000600182610d9a919061517c565b90506000600c600083815260200190815260200160002090508060405180610160016040529081600082015481526020016001820160009054906101000a900473ffffffffffffffffffffffffffffffffffffffff1673ffffffffffffffffffffffffffffffffffffffff1673ffffffffffffffffffffffffffffffffffffffff1681526020016002820160009054906101000a900473ffffffffffffffffffffffffffffffffffffffff1673ffffffffffffffffffffffffffffffffffffffff1673ffffffffffffffffffffffffffffffffffffffff168152602001600382015481526020016004820160009054906101000a900460ff161515151581526020016004820160019054906101000a900460ff1615151515815260200160058201548152602001600682015481526020016007820160009054906101000a900473ffffffffffffffffffffffffffffffffffffffff1673ffffffffffffffffffffffffffffffffffffffff1673ffffffffffffffffffffffffffffffffffffffff168152602001600882015481526020016009820160009054906101000a900460ff161515151581525050848681518110610f5857610f576151b0565b5b6020026020010181905250600185610f70919061517c565b945050505b8080610f80906151df565b915050610c8f565b508094505050505090565b60606000600754905060008060005b83811015611042573373ffffffffffffffffffffffffffffffffffffffff16600c6000600184610fd2919061517c565b815260200190815260200160002060020160009054906101000a900473ffffffffffffffffffffffffffffffffffffffff1673ffffffffffffffffffffffffffffffffffffffff160361102f5760018361102c919061517c565b92505b808061103a906151df565b915050610fa2565b5060008267ffffffffffffffff81111561105f5761105e614cff565b5b60405190808252806020026020018201604052801561109857816020015b611085614722565b81526020019060019003908161107d5790505b50905060005b84811015611318573373ffffffffffffffffffffffffffffffffffffffff16600c60006001846110ce919061517c565b815260200190815260200160002060020160009054906101000a900473ffffffffffffffffffffffffffffffffffffffff1673ffffffffffffffffffffffffffffffffffffffff160361130557600060018261112a919061517c565b90506000600c600083815260200190815260200160002090508060405180610160016040529081600082015481526020016001820160009054906101000a900473ffffffffffffffffffffffffffffffffffffffff1673ffffffffffffffffffffffffffffffffffffffff1673ffffffffffffffffffffffffffffffffffffffff1681526020016002820160009054906101000a900473ffffffffffffffffffffffffffffffffffffffff1673ffffffffffffffffffffffffffffffffffffffff1673ffffffffffffffffffffffffffffffffffffffff168152602001600382015481526020016004820160009054906101000a900460ff161515151581526020016004820160019054906101000a900460ff1615151515815260200160058201548152602001600682015481526020016007820160009054906101000a900473ffffffffffffffffffffffffffffffffffffffff1673ffffffffffffffffffffffffffffffffffffffff1673ffffffffffffffffffffffffffffffffffffffff168152602001600882015481526020016009820160009054906101000a900460ff1615151515815250508486815181106112e8576112e76151b0565b5b6020026020010181905250600185611300919061517c565b945050505b8080611310906151df565b91505061109e565b508094505050505090565b600073ffffffffffffffffffffffffffffffffffffffff168273ffffffffffffffffffffffffffffffffffffffff16036113955760006040517f64a0ae9200000000000000000000000000000000000000000000000000000000815260040161138c91906149e9565b60405180910390fd5b60006113a983836113a4613874565b61388e565b90508373ffffffffffffffffffffffffffffffffffffffff168173ffffffffffffffffffffffffffffffffffffffff161461141f578382826040517f64283d7b00000000000000000000000000000000000000000000000000000000815260040161141693929190615227565b60405180910390fd5b50505050565b600c600082815260200190815260200160002060010160009054906101000a900473ffffffffffffffffffffffffffffffffffffffff1673ffffffffffffffffffffffffffffffffffffffff163373ffffffffffffffffffffffffffffffffffffffff16146114c9576040517f08c379a00000000000000000000000000000000000000000000000000000000081526004016114c0906152aa565b60405180910390fd5b600860008154809291906114dc906152ca565b91905055506114ec303383613aa8565b33600c600083815260200190815260200160002060020160006101000a81548173ffffffffffffffffffffffffffffffffffffffff021916908373ffffffffffffffffffffffffffffffffffffffff1602179055506000600c600083815260200190815260200160002060010160006101000a81548173ffffffffffffffffffffffffffffffffffffffff021916908373ffffffffffffffffffffffffffffffffffffffff16021790555050565b600081116115dd576040517f08c379a00000000000000000000000000000000000000000000000000000000081526004016115d49061533f565b60405180910390fd5b3373ffffffffffffffffffffffffffffffffffffffff16600c600084815260200190815260200160002060020160009054906101000a900473ffffffffffffffffffffffffffffffffffffffff1673ffffffffffffffffffffffffffffffffffffffff1614611681576040517f08c379a0000000000000000000000000000000000000000000000000000000008152600401611678906153d1565b60405180910390fd5b6040518061016001604052808381526020013373ffffffffffffffffffffffffffffffffffffffff1681526020013073ffffffffffffffffffffffffffffffffffffffff1681526020018281526020016000151581526020016001151581526020016000815260200160008152602001600073ffffffffffffffffffffffffffffffffffffffff16815260200182815260200160001515815250600c60008481526020019081526020016000206000820151816000015560208201518160010160006101000a81548173ffffffffffffffffffffffffffffffffffffffff021916908373ffffffffffffffffffffffffffffffffffffffff16021790555060408201518160020160006101000a81548173ffffffffffffffffffffffffffffffffffffffff021916908373ffffffffffffffffffffffffffffffffffffffff1602179055506060820151816003015560808201518160040160006101000a81548160ff02191690831515021790555060a08201518160040160016101000a81548160ff02191690831515021790555060c0820151816005015560e082015181600601556101008201518160070160006101000a81548173ffffffffffffffffffffffffffffffffffffffff021916908373ffffffffffffffffffffffffffffffffffffffff16021790555061012082015181600801556101408201518160090160006101000a81548160ff021916908315150217905550905050600860008154809291906118ae906151df565b91905055506118be333084613aa8565b5050565b6118dd83838360405180602001604052806000815250612ec0565b505050565b6000600760008154809291906118f7906151df565b91905055506000600754905061190d3382613c15565b6119178184613d0e565b604051806101600160405280828152602001600073ffffffffffffffffffffffffffffffffffffffff1681526020013373ffffffffffffffffffffffffffffffffffffffff168152602001600081526020016001151581526020016001151581526020016000815260200160008152602001600073ffffffffffffffffffffffffffffffffffffffff1681526020016000815260200160001515815250600c60008381526020019081526020016000206000820151816000015560208201518160010160006101000a81548173ffffffffffffffffffffffffffffffffffffffff021916908373ffffffffffffffffffffffffffffffffffffffff16021790555060408201518160020160006101000a81548173ffffffffffffffffffffffffffffffffffffffff021916908373ffffffffffffffffffffffffffffffffffffffff1602179055506060820151816003015560808201518160040160006101000a81548160ff02191690831515021790555060a08201518160040160016101000a81548160ff02191690831515021790555060c0820151816005015560e082015181600601556101008201518160070160006101000a81548173ffffffffffffffffffffffffffffffffffffffff021916908373ffffffffffffffffffffffffffffffffffffffff16021790555061012082015181600801556101408201518160090160006101000a81548160ff02191690831515021790555090505080915050919050565b60606000600754905060008060005b83811015611c2c573373ffffffffffffffffffffffffffffffffffffffff16600c6000600184611b7c919061517c565b815260200190815260200160002060010160009054906101000a900473ffffffffffffffffffffffffffffffffffffffff1673ffffffffffffffffffffffffffffffffffffffff16148015611c04575060011515600c6000600184611be1919061517c565b815260200190815260200160002060040160019054906101000a900460ff161515145b15611c1957600183611c16919061517c565b92505b8080611c24906151df565b915050611b4c565b5060008267ffffffffffffffff811115611c4957611c48614cff565b5b604051908082528060200260200182016040528015611c8257816020015b611c6f614722565b815260200190600190039081611c675790505b50905060005b84811015611f42573373ffffffffffffffffffffffffffffffffffffffff16600c6000600184611cb8919061517c565b815260200190815260200160002060010160009054906101000a900473ffffffffffffffffffffffffffffffffffffffff1673ffffffffffffffffffffffffffffffffffffffff16148015611d40575060011515600c6000600184611d1d919061517c565b815260200190815260200160002060040160019054906101000a900460ff161515145b15611f2f576000600182611d54919061517c565b90506000600c600083815260200190815260200160002090508060405180610160016040529081600082015481526020016001820160009054906101000a900473ffffffffffffffffffffffffffffffffffffffff1673ffffffffffffffffffffffffffffffffffffffff1673ffffffffffffffffffffffffffffffffffffffff1681526020016002820160009054906101000a900473ffffffffffffffffffffffffffffffffffffffff1673ffffffffffffffffffffffffffffffffffffffff1673ffffffffffffffffffffffffffffffffffffffff168152602001600382015481526020016004820160009054906101000a900460ff161515151581526020016004820160019054906101000a900460ff1615151515815260200160058201548152602001600682015481526020016007820160009054906101000a900473ffffffffffffffffffffffffffffffffffffffff1673ffffffffffffffffffffffffffffffffffffffff1673ffffffffffffffffffffffffffffffffffffffff168152602001600882015481526020016009820160009054906101000a900460ff161515151581525050848681518110611f1257611f116151b0565b5b6020026020010181905250600185611f2a919061517c565b945050505b8080611f3a906151df565b915050611c88565b508094505050505090565b6000611f58826137af565b9050919050565b606060006007549050600060095490506000808267ffffffffffffffff811115611f8c57611f8b614cff565b5b604051908082528060200260200182016040528015611fc557816020015b611fb2614722565b815260200190600190039081611faa5790505b50905060005b848110156122c4573073ffffffffffffffffffffffffffffffffffffffff16600c6000600184611ffb919061517c565b815260200190815260200160002060020160009054906101000a900473ffffffffffffffffffffffffffffffffffffffff1673ffffffffffffffffffffffffffffffffffffffff16148015612083575060001515600c6000600184612060919061517c565b815260200190815260200160002060040160019054906101000a900460ff161515145b80156120c2575060001515600c600060018461209f919061517c565b815260200190815260200160002060040160009054906101000a900460ff161515145b156122b15760006001826120d6919061517c565b90506000600c600083815260200190815260200160002090508060405180610160016040529081600082015481526020016001820160009054906101000a900473ffffffffffffffffffffffffffffffffffffffff1673ffffffffffffffffffffffffffffffffffffffff1673ffffffffffffffffffffffffffffffffffffffff1681526020016002820160009054906101000a900473ffffffffffffffffffffffffffffffffffffffff1673ffffffffffffffffffffffffffffffffffffffff1673ffffffffffffffffffffffffffffffffffffffff168152602001600382015481526020016004820160009054906101000a900460ff161515151581526020016004820160019054906101000a900460ff1615151515815260200160058201548152602001600682015481526020016007820160009054906101000a900473ffffffffffffffffffffffffffffffffffffffff1673ffffffffffffffffffffffffffffffffffffffff1673ffffffffffffffffffffffffffffffffffffffff168152602001600882015481526020016009820160009054906101000a900460ff161515151581525050848681518110612294576122936151b0565b5b60200260200101819052506001856122ac919061517c565b945050505b80806122bc906151df565b915050611fcb565b508094505050505090565b60008073ffffffffffffffffffffffffffffffffffffffff168273ffffffffffffffffffffffffffffffffffffffff16036123425760006040517f89c62b6400000000000000000000000000000000000000000000000000000000815260040161233991906149e9565b60405180910390fd5b600360008373ffffffffffffffffffffffffffffffffffffffff1673ffffffffffffffffffffffffffffffffffffffff168152602001908152602001600020549050919050565b3373ffffffffffffffffffffffffffffffffffffffff16600c600085815260200190815260200160002060020160009054906101000a900473ffffffffffffffffffffffffffffffffffffffff1673ffffffffffffffffffffffffffffffffffffffff161461242d576040517f08c379a0000000000000000000000000000000000000000000000000000000008152600401612424906153d1565b60405180910390fd5b6040518061016001604052808481526020013373ffffffffffffffffffffffffffffffffffffffff1681526020013073ffffffffffffffffffffffffffffffffffffffff16815260200183815260200160001515815260200160001515815260200142815260200182426124a1919061517c565b81526020013373ffffffffffffffffffffffffffffffffffffffff16815260200183815260200160001515815250600c60008581526020019081526020016000206000820151816000015560208201518160010160006101000a81548173ffffffffffffffffffffffffffffffffffffffff021916908373ffffffffffffffffffffffffffffffffffffffff16021790555060408201518160020160006101000a81548173ffffffffffffffffffffffffffffffffffffffff021916908373ffffffffffffffffffffffffffffffffffffffff1602179055506060820151816003015560808201518160040160006101000a81548160ff02191690831515021790555060a08201518160040160016101000a81548160ff02191690831515021790555060c0820151816005015560e082015181600601556101008201518160070160006101000a81548173ffffffffffffffffffffffffffffffffffffffff021916908373ffffffffffffffffffffffffffffffffffffffff16021790555061012082015181600801556101408201518160090160006101000a81548160ff02191690831515021790555090505060096000815480929190612662906151df565b9190505550612672333085613aa8565b505050565b6060600180546126869061511c565b80601f01602080910402602001604051908101604052809291908181526020018280546126b29061511c565b80156126ff5780601f106126d4576101008083540402835291602001916126ff565b820191906000526020600020905b8154815290600101906020018083116126e257829003601f168201915b5050505050905090565b6000600c600083815260200190815260200160002090508060010160009054906101000a900473ffffffffffffffffffffffffffffffffffffffff1673ffffffffffffffffffffffffffffffffffffffff163373ffffffffffffffffffffffffffffffffffffffff16146127b2576040517f08c379a00000000000000000000000000000000000000000000000000000000081526004016127a99061543d565b60405180910390fd5b600960008154809291906127c5906152ca565b91905055508060010160009054906101000a900473ffffffffffffffffffffffffffffffffffffffff1673ffffffffffffffffffffffffffffffffffffffff168160070160009054906101000a900473ffffffffffffffffffffffffffffffffffffffff1673ffffffffffffffffffffffffffffffffffffffff16146128b5578060070160009054906101000a900473ffffffffffffffffffffffffffffffffffffffff1673ffffffffffffffffffffffffffffffffffffffff166108fc82600801549081150290604051600060405180830381858888f193505050501580156128b3573d6000803e3d6000fd5b505b33600c600084815260200190815260200160002060020160006101000a81548173ffffffffffffffffffffffffffffffffffffffff021916908373ffffffffffffffffffffffffffffffffffffffff1602179055506000600c600084815260200190815260200160002060010160006101000a81548173ffffffffffffffffffffffffffffffffffffffff021916908373ffffffffffffffffffffffffffffffffffffffff16021790555061296b303384613aa8565b5050565b6000600c6000838152602001908152602001600020905080600501544210156129cd576040517f08c379a00000000000000000000000000000000000000000000000000000000081526004016129c4906154a9565b60405180910390fd5b3373ffffffffffffffffffffffffffffffffffffffff168160070160009054906101000a900473ffffffffffffffffffffffffffffffffffffffff1673ffffffffffffffffffffffffffffffffffffffff1603612a5f576040517f08c379a0000000000000000000000000000000000000000000000000000000008152600401612a5690615515565b60405180910390fd5b8060010160009054906101000a900473ffffffffffffffffffffffffffffffffffffffff1673ffffffffffffffffffffffffffffffffffffffff168160070160009054906101000a900473ffffffffffffffffffffffffffffffffffffffff1673ffffffffffffffffffffffffffffffffffffffff1614612b505760008160070160009054906101000a900473ffffffffffffffffffffffffffffffffffffffff1690508073ffffffffffffffffffffffffffffffffffffffff166108fc83600801549081150290604051600060405180830381858888f19350505050158015612b4d573d6000803e3d6000fd5b50505b348160080181905550338160070160006101000a81548173ffffffffffffffffffffffffffffffffffffffff021916908373ffffffffffffffffffffffffffffffffffffffff1602179055508060010160009054906101000a900473ffffffffffffffffffffffffffffffffffffffff1673ffffffffffffffffffffffffffffffffffffffff166108fc349081150290604051600060405180830381858888f19350505050158015612c06573d6000803e3d6000fd5b5080600c6000848152602001908152602001600020600082015481600001556001820160009054906101000a900473ffffffffffffffffffffffffffffffffffffffff168160010160006101000a81548173ffffffffffffffffffffffffffffffffffffffff021916908373ffffffffffffffffffffffffffffffffffffffff1602179055506002820160009054906101000a900473ffffffffffffffffffffffffffffffffffffffff168160020160006101000a81548173ffffffffffffffffffffffffffffffffffffffff021916908373ffffffffffffffffffffffffffffffffffffffff160217905550600382015481600301556004820160009054906101000a900460ff168160040160006101000a81548160ff0219169083151502179055506004820160019054906101000a900460ff168160040160016101000a81548160ff02191690831515021790555060058201548160050155600682015481600601556007820160009054906101000a900473ffffffffffffffffffffffffffffffffffffffff168160070160006101000a81548173ffffffffffffffffffffffffffffffffffffffff021916908373ffffffffffffffffffffffffffffffffffffffff160217905550600882015481600801556009820160009054906101000a900460ff168160090160006101000a81548160ff0219169083151502179055509050505050565b612e22612e1b613874565b8383613d6a565b5050565b3373ffffffffffffffffffffffffffffffffffffffff16600b60009054906101000a900473ffffffffffffffffffffffffffffffffffffffff1673ffffffffffffffffffffffffffffffffffffffff1614612eb6576040517f08c379a0000000000000000000000000000000000000000000000000000000008152600401612ead906155a7565b60405180910390fd5b80600a8190555050565b612ecb848484611323565b612ed784848484613ed9565b50505050565b6000600c6000838152602001908152602001600020600301549050803414612f3a576040517f08c379a0000000000000000000000000000000000000000000000000000000008152600401612f3190615639565b60405180910390fd5b33600c600084815260200190815260200160002060020160006101000a81548173ffffffffffffffffffffffffffffffffffffffff021916908373ffffffffffffffffffffffffffffffffffffffff1602179055506001600c600084815260200190815260200160002060040160006101000a81548160ff02191690831515021790555060086000815480929190612fd1906152ca565b9190505550612fe1303384613aa8565b600b60009054906101000a900473ffffffffffffffffffffffffffffffffffffffff1673ffffffffffffffffffffffffffffffffffffffff166108fc600a549081150290604051600060405180830381858888f1935050505015801561304b573d6000803e3d6000fd5b50600c600083815260200190815260200160002060010160009054906101000a900473ffffffffffffffffffffffffffffffffffffffff1673ffffffffffffffffffffffffffffffffffffffff166108fc349081150290604051600060405180830381858888f193505050501580156130c8573d6000803e3d6000fd5b506000600c600084815260200190815260200160002060010160006101000a81548173ffffffffffffffffffffffffffffffffffffffff021916908373ffffffffffffffffffffffffffffffffffffffff1602179055505050565b606061312e826137af565b50600060066000848152602001908152602001600020805461314f9061511c565b80601f016020809104026020016040519081016040528092919081815260200182805461317b9061511c565b80156131c85780601f1061319d576101008083540402835291602001916131c8565b820191906000526020600020905b8154815290600101906020018083116131ab57829003601f168201915b5050505050905060006131d9614090565b905060008151036131ee578192505050613231565b60008251111561322357808260405160200161320b929190615695565b60405160208183030381529060405292505050613231565b61322c846140a7565b925050505b919050565b6000600c600083815260200190815260200160002090508060010160009054906101000a900473ffffffffffffffffffffffffffffffffffffffff1673ffffffffffffffffffffffffffffffffffffffff163373ffffffffffffffffffffffffffffffffffffffff16146132df576040517f08c379a00000000000000000000000000000000000000000000000000000000081526004016132d69061572b565b60405180910390fd5b600960008154809291906132f2906152ca565b9190505550613326308260070160009054906101000a900473ffffffffffffffffffffffffffffffffffffffff1684613aa8565b60018160090160006101000a81548160ff02191690831515021790555060018160040160006101000a81548160ff0219169083151502179055508060070160009054906101000a900473ffffffffffffffffffffffffffffffffffffffff168160020160006101000a81548173ffffffffffffffffffffffffffffffffffffffff021916908373ffffffffffffffffffffffffffffffffffffffff16021790555060008160010160006101000a81548173ffffffffffffffffffffffffffffffffffffffff021916908373ffffffffffffffffffffffffffffffffffffffff16021790555080600c6000848152602001908152602001600020600082015481600001556001820160009054906101000a900473ffffffffffffffffffffffffffffffffffffffff168160010160006101000a81548173ffffffffffffffffffffffffffffffffffffffff021916908373ffffffffffffffffffffffffffffffffffffffff1602179055506002820160009054906101000a900473ffffffffffffffffffffffffffffffffffffffff168160020160006101000a81548173ffffffffffffffffffffffffffffffffffffffff021916908373ffffffffffffffffffffffffffffffffffffffff160217905550600382015481600301556004820160009054906101000a900460ff168160040160006101000a81548160ff0219169083151502179055506004820160019054906101000a900460ff168160040160016101000a81548160ff02191690831515021790555060058201548160050155600682015481600601556007820160009054906101000a900473ffffffffffffffffffffffffffffffffffffffff168160070160006101000a81548173ffffffffffffffffffffffffffffffffffffffff021916908373ffffffffffffffffffffffffffffffffffffffff160217905550600882015481600801556009820160009054906101000a900460ff168160090160006101000a81548160ff0219169083151502179055509050505050565b600080600c600084815260200190815260200160002090508060060154915050919050565b6000600560008473ffffffffffffffffffffffffffffffffffffffff1673ffffffffffffffffffffffffffffffffffffffff16815260200190815260200160002060008373ffffffffffffffffffffffffffffffffffffffff1673ffffffffffffffffffffffffffffffffffffffff16815260200190815260200160002060009054906101000a900460ff16905092915050565b60007f80ac58cd000000000000000000000000000000000000000000000000000000007bffffffffffffffffffffffffffffffffffffffffffffffffffffffff1916827bffffffffffffffffffffffffffffffffffffffffffffffffffffffff1916148061379857507f5b5e139f000000000000000000000000000000000000000000000000000000007bffffffffffffffffffffffffffffffffffffffffffffffffffffffff1916827bffffffffffffffffffffffffffffffffffffffffffffffffffffffff1916145b806137a857506137a782614110565b5b9050919050565b6000806137bb8361417a565b9050600073ffffffffffffffffffffffffffffffffffffffff168173ffffffffffffffffffffffffffffffffffffffff160361382e57826040517f7e2732890000000000000000000000000000000000000000000000000000000081526004016138259190614e82565b60405180910390fd5b80915050919050565b60006004600083815260200190815260200160002060009054906101000a900473ffffffffffffffffffffffffffffffffffffffff169050919050565b600033905090565b61388983838360016141b7565b505050565b60008061389a8461417a565b9050600073ffffffffffffffffffffffffffffffffffffffff168373ffffffffffffffffffffffffffffffffffffffff16146138dc576138db81848661437c565b5b600073ffffffffffffffffffffffffffffffffffffffff168173ffffffffffffffffffffffffffffffffffffffff161461396d5761391e6000856000806141b7565b6001600360008373ffffffffffffffffffffffffffffffffffffffff1673ffffffffffffffffffffffffffffffffffffffff168152602001908152602001600020600082825403925050819055505b600073ffffffffffffffffffffffffffffffffffffffff168573ffffffffffffffffffffffffffffffffffffffff16146139f0576001600360008773ffffffffffffffffffffffffffffffffffffffff1673ffffffffffffffffffffffffffffffffffffffff168152602001908152602001600020600082825401925050819055505b846002600086815260200190815260200160002060006101000a81548173ffffffffffffffffffffffffffffffffffffffff021916908373ffffffffffffffffffffffffffffffffffffffff160217905550838573ffffffffffffffffffffffffffffffffffffffff168273ffffffffffffffffffffffffffffffffffffffff167fddf252ad1be2c89b69c2b068fc378daa952ba7f163c4a11628f55a4df523b3ef60405160405180910390a4809150509392505050565b600073ffffffffffffffffffffffffffffffffffffffff168273ffffffffffffffffffffffffffffffffffffffff1603613b1a5760006040517f64a0ae92000000000000000000000000000000000000000000000000000000008152600401613b1191906149e9565b60405180910390fd5b6000613b288383600061388e565b9050600073ffffffffffffffffffffffffffffffffffffffff168173ffffffffffffffffffffffffffffffffffffffff1603613b9b57816040517f7e273289000000000000000000000000000000000000000000000000000000008152600401613b929190614e82565b60405180910390fd5b8373ffffffffffffffffffffffffffffffffffffffff168173ffffffffffffffffffffffffffffffffffffffff1614613c0f578382826040517f64283d7b000000000000000000000000000000000000000000000000000000008152600401613c0693929190615227565b60405180910390fd5b50505050565b600073ffffffffffffffffffffffffffffffffffffffff168273ffffffffffffffffffffffffffffffffffffffff1603613c875760006040517f64a0ae92000000000000000000000000000000000000000000000000000000008152600401613c7e91906149e9565b60405180910390fd5b6000613c958383600061388e565b9050600073ffffffffffffffffffffffffffffffffffffffff168173ffffffffffffffffffffffffffffffffffffffff1614613d095760006040517f73c6ac6e000000000000000000000000000000000000000000000000000000008152600401613d0091906149e9565b60405180910390fd5b505050565b80600660008481526020019081526020016000209081613d2e91906158f7565b507ff8e1a15aba9398e019f0b49df1a4fde98ee17ae345cb5f6b5e2c27f5033e8ce782604051613d5e9190614e82565b60405180910390a15050565b600073ffffffffffffffffffffffffffffffffffffffff168273ffffffffffffffffffffffffffffffffffffffff1603613ddb57816040517f5b08ba18000000000000000000000000000000000000000000000000000000008152600401613dd291906149e9565b60405180910390fd5b80600560008573ffffffffffffffffffffffffffffffffffffffff1673ffffffffffffffffffffffffffffffffffffffff16815260200190815260200160002060008473ffffffffffffffffffffffffffffffffffffffff1673ffffffffffffffffffffffffffffffffffffffff16815260200190815260200160002060006101000a81548160ff0219169083151502179055508173ffffffffffffffffffffffffffffffffffffffff168373ffffffffffffffffffffffffffffffffffffffff167f17307eab39ab6107e8899845ad3d59bd9653f200f220920489ca2b5937696c3183604051613ecc9190614878565b60405180910390a3505050565b60008373ffffffffffffffffffffffffffffffffffffffff163b111561408a578273ffffffffffffffffffffffffffffffffffffffff1663150b7a02613f1d613874565b8685856040518563ffffffff1660e01b8152600401613f3f9493929190615a1e565b6020604051808303816000875af1925050508015613f7b57506040513d601f19601f82011682018060405250810190613f789190615a7f565b60015b613fff573d8060008114613fab576040519150601f19603f3d011682016040523d82523d6000602084013e613fb0565b606091505b506000815103613ff757836040517f64a0ae92000000000000000000000000000000000000000000000000000000008152600401613fee91906149e9565b60405180910390fd5b805181602001fd5b63150b7a0260e01b7bffffffffffffffffffffffffffffffffffffffffffffffffffffffff1916817bffffffffffffffffffffffffffffffffffffffffffffffffffffffff19161461408857836040517f64a0ae9200000000000000000000000000000000000000000000000000000000815260040161407f91906149e9565b60405180910390fd5b505b50505050565b606060405180602001604052806000815250905090565b60606140b2826137af565b5060006140bd614090565b905060008151116140dd5760405180602001604052806000815250614108565b806140e784614440565b6040516020016140f8929190615695565b6040516020818303038152906040525b915050919050565b60007f01ffc9a7000000000000000000000000000000000000000000000000000000007bffffffffffffffffffffffffffffffffffffffffffffffffffffffff1916827bffffffffffffffffffffffffffffffffffffffffffffffffffffffff1916149050919050565b60006002600083815260200190815260200160002060009054906101000a900473ffffffffffffffffffffffffffffffffffffffff169050919050565b80806141f05750600073ffffffffffffffffffffffffffffffffffffffff168273ffffffffffffffffffffffffffffffffffffffff1614155b15614324576000614200846137af565b9050600073ffffffffffffffffffffffffffffffffffffffff168373ffffffffffffffffffffffffffffffffffffffff161415801561426b57508273ffffffffffffffffffffffffffffffffffffffff168173ffffffffffffffffffffffffffffffffffffffff1614155b801561427e575061427c8184613639565b155b156142c057826040517fa9fbf51f0000000000000000000000000000000000000000000000000000000081526004016142b791906149e9565b60405180910390fd5b811561432257838573ffffffffffffffffffffffffffffffffffffffff168273ffffffffffffffffffffffffffffffffffffffff167f8c5be1e5ebec7d5bd14f71427d1e84f3dd0314c0f7b2291e5b200ac8c7c3b92560405160405180910390a45b505b836004600085815260200190815260200160002060006101000a81548173ffffffffffffffffffffffffffffffffffffffff021916908373ffffffffffffffffffffffffffffffffffffffff16021790555050505050565b61438783838361450e565b61443b57600073ffffffffffffffffffffffffffffffffffffffff168373ffffffffffffffffffffffffffffffffffffffff16036143fc57806040517f7e2732890000000000000000000000000000000000000000000000000000000081526004016143f39190614e82565b60405180910390fd5b81816040517f177e802f000000000000000000000000000000000000000000000000000000008152600401614432929190615aac565b60405180910390fd5b505050565b60606000600161444f846145cf565b01905060008167ffffffffffffffff81111561446e5761446d614cff565b5b6040519080825280601f01601f1916602001820160405280156144a05781602001600182028036833780820191505090505b509050600082602001820190505b600115614503578080600190039150507f3031323334353637383961626364656600000000000000000000000000000000600a86061a8153600a85816144f7576144f6615ad5565b5b049450600085036144ae575b819350505050919050565b60008073ffffffffffffffffffffffffffffffffffffffff168373ffffffffffffffffffffffffffffffffffffffff16141580156145c657508273ffffffffffffffffffffffffffffffffffffffff168473ffffffffffffffffffffffffffffffffffffffff16148061458757506145868484613639565b5b806145c557508273ffffffffffffffffffffffffffffffffffffffff166145ad83613837565b73ffffffffffffffffffffffffffffffffffffffff16145b5b90509392505050565b600080600090507a184f03e93ff9f4daa797ed6e38ed64bf6a1f010000000000000000831061462d577a184f03e93ff9f4daa797ed6e38ed64bf6a1f010000000000000000838161462357614622615ad5565b5b0492506040810190505b6d04ee2d6d415b85acef8100000000831061466a576d04ee2d6d415b85acef810000000083816146605761465f615ad5565b5b0492506020810190505b662386f26fc10000831061469957662386f26fc10000838161468f5761468e615ad5565b5b0492506010810190505b6305f5e10083106146c2576305f5e10083816146b8576146b7615ad5565b5b0492506008810190505b61271083106146e75761271083816146dd576146dc615ad5565b5b0492506004810190505b6064831061470a5760648381614700576146ff615ad5565b5b0492506002810190505b600a8310614719576001810190505b80915050919050565b60405180610160016040528060008152602001600073ffffffffffffffffffffffffffffffffffffffff168152602001600073ffffffffffffffffffffffffffffffffffffffff168152602001600081526020016000151581526020016000151581526020016000815260200160008152602001600073ffffffffffffffffffffffffffffffffffffffff168152602001600081526020016000151581525090565b6000604051905090565b600080fd5b600080fd5b60007fffffffff0000000000000000000000000000000000000000000000000000000082169050919050565b61480d816147d8565b811461481857600080fd5b50565b60008135905061482a81614804565b92915050565b600060208284031215614846576148456147ce565b5b60006148548482850161481b565b91505092915050565b60008115159050919050565b6148728161485d565b82525050565b600060208201905061488d6000830184614869565b92915050565b600081519050919050565b600082825260208201905092915050565b60005b838110156148cd5780820151818401526020810190506148b2565b60008484015250505050565b6000601f19601f8301169050919050565b60006148f582614893565b6148ff818561489e565b935061490f8185602086016148af565b614918816148d9565b840191505092915050565b6000602082019050818103600083015261493d81846148ea565b905092915050565b6000819050919050565b61495881614945565b811461496357600080fd5b50565b6000813590506149758161494f565b92915050565b600060208284031215614991576149906147ce565b5b600061499f84828501614966565b91505092915050565b600073ffffffffffffffffffffffffffffffffffffffff82169050919050565b60006149d3826149a8565b9050919050565b6149e3816149c8565b82525050565b60006020820190506149fe60008301846149da565b92915050565b614a0d816149c8565b8114614a1857600080fd5b50565b600081359050614a2a81614a04565b92915050565b60008060408385031215614a4757614a466147ce565b5b6000614a5585828601614a1b565b9250506020614a6685828601614966565b9150509250929050565b600081519050919050565b600082825260208201905092915050565b6000819050602082019050919050565b614aa581614945565b82525050565b6000614ab6826149a8565b9050919050565b614ac681614aab565b82525050565b614ad58161485d565b82525050565b61016082016000820151614af26000850182614a9c565b506020820151614b056020850182614abd565b506040820151614b186040850182614abd565b506060820151614b2b6060850182614a9c565b506080820151614b3e6080850182614acc565b5060a0820151614b5160a0850182614acc565b5060c0820151614b6460c0850182614a9c565b5060e0820151614b7760e0850182614a9c565b50610100820151614b8c610100850182614abd565b50610120820151614ba1610120850182614a9c565b50610140820151614bb6610140850182614acc565b50505050565b6000614bc88383614adb565b6101608301905092915050565b6000602082019050919050565b6000614bed82614a70565b614bf78185614a7b565b9350614c0283614a8c565b8060005b83811015614c33578151614c1a8882614bbc565b9750614c2583614bd5565b925050600181019050614c06565b5085935050505092915050565b60006020820190508181036000830152614c5a8184614be2565b905092915050565b600080600060608486031215614c7b57614c7a6147ce565b5b6000614c8986828701614a1b565b9350506020614c9a86828701614a1b565b9250506040614cab86828701614966565b9150509250925092565b60008060408385031215614ccc57614ccb6147ce565b5b6000614cda85828601614966565b9250506020614ceb85828601614966565b9150509250929050565b600080fd5b600080fd5b7f4e487b7100000000000000000000000000000000000000000000000000000000600052604160045260246000fd5b614d37826148d9565b810181811067ffffffffffffffff82111715614d5657614d55614cff565b5b80604052505050565b6000614d696147c4565b9050614d758282614d2e565b919050565b600067ffffffffffffffff821115614d9557614d94614cff565b5b614d9e826148d9565b9050602081019050919050565b82818337600083830152505050565b6000614dcd614dc884614d7a565b614d5f565b905082815260208101848484011115614de957614de8614cfa565b5b614df4848285614dab565b509392505050565b600082601f830112614e1157614e10614cf5565b5b8135614e21848260208601614dba565b91505092915050565b600060208284031215614e4057614e3f6147ce565b5b600082013567ffffffffffffffff811115614e5e57614e5d6147d3565b5b614e6a84828501614dfc565b91505092915050565b614e7c81614945565b82525050565b6000602082019050614e976000830184614e73565b92915050565b600060208284031215614eb357614eb26147ce565b5b6000614ec184828501614a1b565b91505092915050565b600080600060608486031215614ee357614ee26147ce565b5b6000614ef186828701614966565b9350506020614f0286828701614966565b9250506040614f1386828701614966565b9150509250925092565b614f268161485d565b8114614f3157600080fd5b50565b600081359050614f4381614f1d565b92915050565b60008060408385031215614f6057614f5f6147ce565b5b6000614f6e85828601614a1b565b9250506020614f7f85828601614f34565b9150509250929050565b600067ffffffffffffffff821115614fa457614fa3614cff565b5b614fad826148d9565b9050602081019050919050565b6000614fcd614fc884614f89565b614d5f565b905082815260208101848484011115614fe957614fe8614cfa565b5b614ff4848285614dab565b509392505050565b600082601f83011261501157615010614cf5565b5b8135615021848260208601614fba565b91505092915050565b60008060008060808587031215615044576150436147ce565b5b600061505287828801614a1b565b945050602061506387828801614a1b565b935050604061507487828801614966565b925050606085013567ffffffffffffffff811115615095576150946147d3565b5b6150a187828801614ffc565b91505092959194509250565b600080604083850312156150c4576150c36147ce565b5b60006150d285828601614a1b565b92505060206150e385828601614a1b565b9150509250929050565b7f4e487b7100000000000000000000000000000000000000000000000000000000600052602260045260246000fd5b6000600282049050600182168061513457607f821691505b602082108103615147576151466150ed565b5b50919050565b7f4e487b7100000000000000000000000000000000000000000000000000000000600052601160045260246000fd5b600061518782614945565b915061519283614945565b92508282019050808211156151aa576151a961514d565b5b92915050565b7f4e487b7100000000000000000000000000000000000000000000000000000000600052603260045260246000fd5b60006151ea82614945565b91507fffffffffffffffffffffffffffffffffffffffffffffffffffffffffffffffff820361521c5761521b61514d565b5b600182019050919050565b600060608201905061523c60008301866149da565b6152496020830185614e73565b61525660408301846149da565b949350505050565b7f4f6e6c79206f776e65722063616e2063616e63656c2073656c6c696e67000000600082015250565b6000615294601d8361489e565b915061529f8261525e565b602082019050919050565b600060208201905081810360008301526152c381615287565b9050919050565b60006152d582614945565b9150600082036152e8576152e761514d565b5b600182039050919050565b7f5072696365206d757374206265206174206c6561737420312077656900000000600082015250565b6000615329601c8361489e565b9150615334826152f3565b602082019050919050565b600060208201905081810360008301526153588161531c565b9050919050565b7f4f6e6c79206974656d206f776e65722063616e20706572666f726d207468697360008201527f206f7065726174696f6e00000000000000000000000000000000000000000000602082015250565b60006153bb602a8361489e565b91506153c68261535f565b604082019050919050565b600060208201905081810360008301526153ea816153ae565b9050919050565b7f4f6e6c79206f776e65722063616e2063616e63656c2061756374696f6e000000600082015250565b6000615427601d8361489e565b9150615432826153f1565b602082019050919050565b600060208201905081810360008301526154568161541a565b9050919050565b7f41756374696f6e206e6f74207965742073746172746564000000000000000000600082015250565b600061549360178361489e565b915061549e8261545d565b602082019050919050565b600060208201905081810360008301526154c281615486565b9050919050565b7f43616e6e6f742062696420747769636520696e206120726f7700000000000000600082015250565b60006154ff60198361489e565b915061550a826154c9565b602082019050919050565b6000602082019050818103600083015261552e816154f2565b9050919050565b7f4f6e6c79206d61726b6574706c616365206f776e65722063616e20757064617460008201527f65206c697374696e672070726963652e00000000000000000000000000000000602082015250565b600061559160308361489e565b915061559c82615535565b604082019050919050565b600060208201905081810360008301526155c081615584565b9050919050565b7f506c65617365207375626d6974207468652061736b696e67207072696365206960008201527f6e206f7264657220746f20636f6d706c65746520746865207075726368617365602082015250565b600061562360408361489e565b915061562e826155c7565b604082019050919050565b6000602082019050818103600083015261565281615616565b9050919050565b600081905092915050565b600061566f82614893565b6156798185615659565b93506156898185602086016148af565b80840191505092915050565b60006156a18285615664565b91506156ad8284615664565b91508190509392505050565b7f4f6e6c792074686520746f6b656e206f776e65722063616e20656e642074686560008201527f2061756374696f6e000000000000000000000000000000000000000000000000602082015250565b600061571560288361489e565b9150615720826156b9565b604082019050919050565b6000602082019050818103600083015261574481615708565b9050919050565b60008190508160005260206000209050919050565b60006020601f8301049050919050565b600082821b905092915050565b6000600883026157ad7fffffffffffffffffffffffffffffffffffffffffffffffffffffffffffffffff82615770565b6157b78683615770565b95508019841693508086168417925050509392505050565b6000819050919050565b60006157f46157ef6157ea84614945565b6157cf565b614945565b9050919050565b6000819050919050565b61580e836157d9565b61582261581a826157fb565b84845461577d565b825550505050565b600090565b61583761582a565b615842818484615805565b505050565b5b818110156158665761585b60008261582f565b600181019050615848565b5050565b601f8211156158ab5761587c8161574b565b61588584615760565b81016020851015615894578190505b6158a86158a085615760565b830182615847565b50505b505050565b600082821c905092915050565b60006158ce600019846008026158b0565b1980831691505092915050565b60006158e783836158bd565b9150826002028217905092915050565b61590082614893565b67ffffffffffffffff81111561591957615918614cff565b5b615923825461511c565b61592e82828561586a565b600060209050601f831160018114615961576000841561594f578287015190505b61595985826158db565b8655506159c1565b601f19841661596f8661574b565b60005b8281101561599757848901518255600182019150602085019450602081019050615972565b868310156159b457848901516159b0601f8916826158bd565b8355505b6001600288020188555050505b505050505050565b600081519050919050565b600082825260208201905092915050565b60006159f0826159c9565b6159fa81856159d4565b9350615a0a8185602086016148af565b615a13816148d9565b840191505092915050565b6000608082019050615a3360008301876149da565b615a4060208301866149da565b615a4d6040830185614e73565b8181036060830152615a5f81846159e5565b905095945050505050565b600081519050615a7981614804565b92915050565b600060208284031215615a9557615a946147ce565b5b6000615aa384828501615a6a565b91505092915050565b6000604082019050615ac160008301856149da565b615ace6020830184614e73565b9392505050565b7f4e487b7100000000000000000000000000000000000000000000000000000000600052601260045260246000fdfea26469706673582212205b899116f7e1386eb6d0648d9f739bf231f328152de6de02f7f0904114bc674064736f6c63430008140033",
  "linkReferences": {},
  "deployedLinkReferences": {}
}