{
  "_format": "hh-sol-artifact-1",
  "contractName": "NFTMarketplace",
  "sourceName": "contracts/NFTMarketplace.sol",
  "abi": [
    {
      "inputs": [],
      "stateMutability": "nonpayable",
      "type": "constructor"
    },
    {
      "inputs": [
        {
          "internalType": "address",
          "name": "sender",
          "type": "address"
        },
        {
          "internalType": "uint256",
          "name": "tokenId",
          "type": "uint256"
        },
        {
          "internalType": "address",
          "name": "owner",
          "type": "address"
        }
      ],
      "name": "ERC721IncorrectOwner",
      "type": "error"
    },
    {
      "inputs": [
        {
          "internalType": "address",
          "name": "operator",
          "type": "address"
        },
        {
          "internalType": "uint256",
          "name": "tokenId",
          "type": "uint256"
        }
      ],
      "name": "ERC721InsufficientApproval",
      "type": "error"
    },
    {
      "inputs": [
        {
          "internalType": "address",
          "name": "approver",
          "type": "address"
        }
      ],
      "name": "ERC721InvalidApprover",
      "type": "error"
    },
    {
      "inputs": [
        {
          "internalType": "address",
          "name": "operator",
          "type": "address"
        }
      ],
      "name": "ERC721InvalidOperator",
      "type": "error"
    },
    {
      "inputs": [
        {
          "internalType": "address",
          "name": "owner",
          "type": "address"
        }
      ],
      "name": "ERC721InvalidOwner",
      "type": "error"
    },
    {
      "inputs": [
        {
          "internalType": "address",
          "name": "receiver",
          "type": "address"
        }
      ],
      "name": "ERC721InvalidReceiver",
      "type": "error"
    },
    {
      "inputs": [
        {
          "internalType": "address",
          "name": "sender",
          "type": "address"
        }
      ],
      "name": "ERC721InvalidSender",
      "type": "error"
    },
    {
      "inputs": [
        {
          "internalType": "uint256",
          "name": "tokenId",
          "type": "uint256"
        }
      ],
      "name": "ERC721NonexistentToken",
      "type": "error"
    },
    {
      "anonymous": false,
      "inputs": [
        {
          "indexed": true,
          "internalType": "address",
          "name": "owner",
          "type": "address"
        },
        {
          "indexed": true,
          "internalType": "address",
          "name": "approved",
          "type": "address"
        },
        {
          "indexed": true,
          "internalType": "uint256",
          "name": "tokenId",
          "type": "uint256"
        }
      ],
      "name": "Approval",
      "type": "event"
    },
    {
      "anonymous": false,
      "inputs": [
        {
          "indexed": true,
          "internalType": "address",
          "name": "owner",
          "type": "address"
        },
        {
          "indexed": true,
          "internalType": "address",
          "name": "operator",
          "type": "address"
        },
        {
          "indexed": false,
          "internalType": "bool",
          "name": "approved",
          "type": "bool"
        }
      ],
      "name": "ApprovalForAll",
      "type": "event"
    },
    {
      "anonymous": false,
      "inputs": [
        {
          "indexed": false,
          "internalType": "uint256",
          "name": "_fromTokenId",
          "type": "uint256"
        },
        {
          "indexed": false,
          "internalType": "uint256",
          "name": "_toTokenId",
          "type": "uint256"
        }
      ],
      "name": "BatchMetadataUpdate",
      "type": "event"
    },
    {
      "anonymous": false,
      "inputs": [
        {
          "indexed": true,
          "internalType": "uint256",
          "name": "tokenId",
          "type": "uint256"
        },
        {
          "indexed": false,
          "internalType": "address",
          "name": "seller",
          "type": "address"
        },
        {
          "indexed": false,
          "internalType": "address",
          "name": "owner",
          "type": "address"
        },
        {
          "indexed": false,
          "internalType": "uint256",
          "name": "price",
          "type": "uint256"
        },
        {
          "indexed": false,
          "internalType": "bool",
          "name": "sold",
          "type": "bool"
        },
        {
          "indexed": false,
          "internalType": "bool",
          "name": "directSold",
          "type": "bool"
        },
        {
          "indexed": false,
          "internalType": "uint256",
          "name": "startTime",
          "type": "uint256"
        },
        {
          "indexed": false,
          "internalType": "uint256",
          "name": "endTime",
          "type": "uint256"
        },
        {
          "indexed": false,
          "internalType": "address",
          "name": "highestBidder",
          "type": "address"
        },
        {
          "indexed": false,
          "internalType": "uint256",
          "name": "highestBid",
          "type": "uint256"
        },
        {
          "indexed": false,
          "internalType": "bool",
          "name": "auctionCompleted",
          "type": "bool"
        }
      ],
      "name": "MarketItemCreated",
      "type": "event"
    },
    {
      "anonymous": false,
      "inputs": [
        {
          "indexed": false,
          "internalType": "uint256",
          "name": "_tokenId",
          "type": "uint256"
        }
      ],
      "name": "MetadataUpdate",
      "type": "event"
    },
    {
      "anonymous": false,
      "inputs": [
        {
          "indexed": true,
          "internalType": "address",
          "name": "from",
          "type": "address"
        },
        {
          "indexed": true,
          "internalType": "address",
          "name": "to",
          "type": "address"
        },
        {
          "indexed": true,
          "internalType": "uint256",
          "name": "tokenId",
          "type": "uint256"
        }
      ],
      "name": "Transfer",
      "type": "event"
    },
    {
      "inputs": [
        {
          "internalType": "address",
          "name": "to",
          "type": "address"
        },
        {
          "internalType": "uint256",
          "name": "tokenId",
          "type": "uint256"
        }
      ],
      "name": "approve",
      "outputs": [],
      "stateMutability": "nonpayable",
      "type": "function"
    },
    {
      "inputs": [
        {
          "internalType": "address",
          "name": "owner",
          "type": "address"
        }
      ],
      "name": "balanceOf",
      "outputs": [
        {
          "internalType": "uint256",
          "name": "",
          "type": "uint256"
        }
      ],
      "stateMutability": "view",
      "type": "function"
    },
    {
      "inputs": [
        {
          "internalType": "uint256",
          "name": "tokenId",
          "type": "uint256"
        }
      ],
      "name": "cancelAuction",
      "outputs": [],
      "stateMutability": "payable",
      "type": "function"
    },
    {
      "inputs": [
        {
          "internalType": "uint256",
          "name": "tokenId",
          "type": "uint256"
        }
      ],
      "name": "cancelSelling",
      "outputs": [],
      "stateMutability": "payable",
      "type": "function"
    },
    {
      "inputs": [
        {
          "internalType": "uint256",
          "name": "tokenId",
          "type": "uint256"
        }
      ],
      "name": "createMarketSale",
      "outputs": [],
      "stateMutability": "payable",
      "type": "function"
    },
    {
      "inputs": [
        {
          "internalType": "string",
          "name": "tokenURI",
          "type": "string"
        },
        {
          "internalType": "uint256",
          "name": "price",
          "type": "uint256"
        }
      ],
      "name": "createToken",
      "outputs": [
        {
          "internalType": "uint256",
          "name": "",
          "type": "uint256"
        }
      ],
      "stateMutability": "payable",
      "type": "function"
    },
    {
      "inputs": [],
      "name": "fetchAuctionItems",
      "outputs": [
        {
          "components": [
            {
              "internalType": "uint256",
              "name": "tokenId",
              "type": "uint256"
            },
            {
              "internalType": "address payable",
              "name": "seller",
              "type": "address"
            },
            {
              "internalType": "address payable",
              "name": "owner",
              "type": "address"
            },
            {
              "internalType": "uint256",
              "name": "price",
              "type": "uint256"
            },
            {
              "internalType": "bool",
              "name": "sold",
              "type": "bool"
            },
            {
              "internalType": "bool",
              "name": "directSold",
              "type": "bool"
            },
            {
              "internalType": "uint256",
              "name": "startTime",
              "type": "uint256"
            },
            {
              "internalType": "uint256",
              "name": "endTime",
              "type": "uint256"
            },
            {
              "internalType": "address payable",
              "name": "highestBidder",
              "type": "address"
            },
            {
              "internalType": "uint256",
              "name": "highestBid",
              "type": "uint256"
            },
            {
              "internalType": "bool",
              "name": "auctionCompleted",
              "type": "bool"
            }
          ],
          "internalType": "struct NFTMarketplace.MarketItem[]",
          "name": "",
          "type": "tuple[]"
        }
      ],
      "stateMutability": "view",
      "type": "function"
    },
    {
      "inputs": [],
      "name": "fetchItemsListed",
      "outputs": [
        {
          "components": [
            {
              "internalType": "uint256",
              "name": "tokenId",
              "type": "uint256"
            },
            {
              "internalType": "address payable",
              "name": "seller",
              "type": "address"
            },
            {
              "internalType": "address payable",
              "name": "owner",
              "type": "address"
            },
            {
              "internalType": "uint256",
              "name": "price",
              "type": "uint256"
            },
            {
              "internalType": "bool",
              "name": "sold",
              "type": "bool"
            },
            {
              "internalType": "bool",
              "name": "directSold",
              "type": "bool"
            },
            {
              "internalType": "uint256",
              "name": "startTime",
              "type": "uint256"
            },
            {
              "internalType": "uint256",
              "name": "endTime",
              "type": "uint256"
            },
            {
              "internalType": "address payable",
              "name": "highestBidder",
              "type": "address"
            },
            {
              "internalType": "uint256",
              "name": "highestBid",
              "type": "uint256"
            },
            {
              "internalType": "bool",
              "name": "auctionCompleted",
              "type": "bool"
            }
          ],
          "internalType": "struct NFTMarketplace.MarketItem[]",
          "name": "",
          "type": "tuple[]"
        }
      ],
      "stateMutability": "view",
      "type": "function"
    },
    {
      "inputs": [],
      "name": "fetchMarketItems",
      "outputs": [
        {
          "components": [
            {
              "internalType": "uint256",
              "name": "tokenId",
              "type": "uint256"
            },
            {
              "internalType": "address payable",
              "name": "seller",
              "type": "address"
            },
            {
              "internalType": "address payable",
              "name": "owner",
              "type": "address"
            },
            {
              "internalType": "uint256",
              "name": "price",
              "type": "uint256"
            },
            {
              "internalType": "bool",
              "name": "sold",
              "type": "bool"
            },
            {
              "internalType": "bool",
              "name": "directSold",
              "type": "bool"
            },
            {
              "internalType": "uint256",
              "name": "startTime",
              "type": "uint256"
            },
            {
              "internalType": "uint256",
              "name": "endTime",
              "type": "uint256"
            },
            {
              "internalType": "address payable",
              "name": "highestBidder",
              "type": "address"
            },
            {
              "internalType": "uint256",
              "name": "highestBid",
              "type": "uint256"
            },
            {
              "internalType": "bool",
              "name": "auctionCompleted",
              "type": "bool"
            }
          ],
          "internalType": "struct NFTMarketplace.MarketItem[]",
          "name": "",
          "type": "tuple[]"
        }
      ],
      "stateMutability": "view",
      "type": "function"
    },
    {
      "inputs": [],
      "name": "fetchMyNFTs",
      "outputs": [
        {
          "components": [
            {
              "internalType": "uint256",
              "name": "tokenId",
              "type": "uint256"
            },
            {
              "internalType": "address payable",
              "name": "seller",
              "type": "address"
            },
            {
              "internalType": "address payable",
              "name": "owner",
              "type": "address"
            },
            {
              "internalType": "uint256",
              "name": "price",
              "type": "uint256"
            },
            {
              "internalType": "bool",
              "name": "sold",
              "type": "bool"
            },
            {
              "internalType": "bool",
              "name": "directSold",
              "type": "bool"
            },
            {
              "internalType": "uint256",
              "name": "startTime",
              "type": "uint256"
            },
            {
              "internalType": "uint256",
              "name": "endTime",
              "type": "uint256"
            },
            {
              "internalType": "address payable",
              "name": "highestBidder",
              "type": "address"
            },
            {
              "internalType": "uint256",
              "name": "highestBid",
              "type": "uint256"
            },
            {
              "internalType": "bool",
              "name": "auctionCompleted",
              "type": "bool"
            }
          ],
          "internalType": "struct NFTMarketplace.MarketItem[]",
          "name": "",
          "type": "tuple[]"
        }
      ],
      "stateMutability": "view",
      "type": "function"
    },
    {
      "inputs": [
        {
          "internalType": "uint256",
          "name": "tokenId",
          "type": "uint256"
        }
      ],
      "name": "finishAuction",
      "outputs": [],
      "stateMutability": "payable",
      "type": "function"
    },
    {
      "inputs": [
        {
          "internalType": "uint256",
          "name": "tokenId",
          "type": "uint256"
        }
      ],
      "name": "getApproved",
      "outputs": [
        {
          "internalType": "address",
          "name": "",
          "type": "address"
        }
      ],
      "stateMutability": "view",
      "type": "function"
    },
    {
      "inputs": [],
      "name": "getListingPrice",
      "outputs": [
        {
          "internalType": "uint256",
          "name": "",
          "type": "uint256"
        }
      ],
      "stateMutability": "view",
      "type": "function"
    },
    {
      "inputs": [
        {
          "internalType": "uint256",
          "name": "tokenId",
          "type": "uint256"
        }
      ],
      "name": "getTimeEndOfAuction",
      "outputs": [
        {
          "internalType": "uint256",
          "name": "",
          "type": "uint256"
        }
      ],
      "stateMutability": "view",
      "type": "function"
    },
    {
      "inputs": [
        {
          "internalType": "address",
          "name": "owner",
          "type": "address"
        },
        {
          "internalType": "address",
          "name": "operator",
          "type": "address"
        }
      ],
      "name": "isApprovedForAll",
      "outputs": [
        {
          "internalType": "bool",
          "name": "",
          "type": "bool"
        }
      ],
      "stateMutability": "view",
      "type": "function"
    },
    {
      "inputs": [],
      "name": "name",
      "outputs": [
        {
          "internalType": "string",
          "name": "",
          "type": "string"
        }
      ],
      "stateMutability": "view",
      "type": "function"
    },
    {
      "inputs": [
        {
          "internalType": "uint256",
          "name": "tokenId",
          "type": "uint256"
        }
      ],
      "name": "ownerOf",
      "outputs": [
        {
          "internalType": "address",
          "name": "",
          "type": "address"
        }
      ],
      "stateMutability": "view",
      "type": "function"
    },
    {
      "inputs": [
        {
          "internalType": "uint256",
          "name": "tokenId",
          "type": "uint256"
        }
      ],
      "name": "placeBid",
      "outputs": [],
      "stateMutability": "payable",
      "type": "function"
    },
    {
      "inputs": [
        {
          "internalType": "uint256",
          "name": "tokenId",
          "type": "uint256"
        },
        {
          "internalType": "uint256",
          "name": "price",
          "type": "uint256"
        }
      ],
      "name": "resellToken",
      "outputs": [],
      "stateMutability": "payable",
      "type": "function"
    },
    {
      "inputs": [
        {
          "internalType": "address",
          "name": "from",
          "type": "address"
        },
        {
          "internalType": "address",
          "name": "to",
          "type": "address"
        },
        {
          "internalType": "uint256",
          "name": "tokenId",
          "type": "uint256"
        }
      ],
      "name": "safeTransferFrom",
      "outputs": [],
      "stateMutability": "nonpayable",
      "type": "function"
    },
    {
      "inputs": [
        {
          "internalType": "address",
          "name": "from",
          "type": "address"
        },
        {
          "internalType": "address",
          "name": "to",
          "type": "address"
        },
        {
          "internalType": "uint256",
          "name": "tokenId",
          "type": "uint256"
        },
        {
          "internalType": "bytes",
          "name": "data",
          "type": "bytes"
        }
      ],
      "name": "safeTransferFrom",
      "outputs": [],
      "stateMutability": "nonpayable",
      "type": "function"
    },
    {
      "inputs": [
        {
          "internalType": "address",
          "name": "operator",
          "type": "address"
        },
        {
          "internalType": "bool",
          "name": "approved",
          "type": "bool"
        }
      ],
      "name": "setApprovalForAll",
      "outputs": [],
      "stateMutability": "nonpayable",
      "type": "function"
    },
    {
      "inputs": [
        {
          "internalType": "uint256",
          "name": "tokenId",
          "type": "uint256"
        },
        {
          "internalType": "uint256",
          "name": "price",
          "type": "uint256"
        },
        {
          "internalType": "uint256",
          "name": "durations",
          "type": "uint256"
        }
      ],
      "name": "startAuction",
      "outputs": [],
      "stateMutability": "payable",
      "type": "function"
    },
    {
      "inputs": [
        {
          "internalType": "bytes4",
          "name": "interfaceId",
          "type": "bytes4"
        }
      ],
      "name": "supportsInterface",
      "outputs": [
        {
          "internalType": "bool",
          "name": "",
          "type": "bool"
        }
      ],
      "stateMutability": "view",
      "type": "function"
    },
    {
      "inputs": [],
      "name": "symbol",
      "outputs": [
        {
          "internalType": "string",
          "name": "",
          "type": "string"
        }
      ],
      "stateMutability": "view",
      "type": "function"
    },
    {
      "inputs": [
        {
          "internalType": "uint256",
          "name": "tokenId",
          "type": "uint256"
        }
      ],
      "name": "tokenURI",
      "outputs": [
        {
          "internalType": "string",
          "name": "",
          "type": "string"
        }
      ],
      "stateMutability": "view",
      "type": "function"
    },
    {
      "inputs": [
        {
          "internalType": "address",
          "name": "from",
          "type": "address"
        },
        {
          "internalType": "address",
          "name": "to",
          "type": "address"
        },
        {
          "internalType": "uint256",
          "name": "tokenId",
          "type": "uint256"
        }
      ],
      "name": "transferFrom",
      "outputs": [],
      "stateMutability": "nonpayable",
      "type": "function"
    },
    {
      "inputs": [
        {
          "internalType": "uint256",
          "name": "_listingPrice",
          "type": "uint256"
        }
      ],
      "name": "updateListingPrice",
      "outputs": [],
      "stateMutability": "payable",
      "type": "function"
    }
  ],
  "bytecode": "0x60806040526658d15e17628000600a553480156200001c57600080fd5b506040518060400160405280601081526020017f4d657461766572736520546f6b656e73000000000000000000000000000000008152506040518060400160405280600481526020017f4d4554540000000000000000000000000000000000000000000000000000000081525081600090816200009a919062000388565b508060019081620000ac919062000388565b50505033600b60006101000a81548173ffffffffffffffffffffffffffffffffffffffff021916908373ffffffffffffffffffffffffffffffffffffffff1602179055506000600781905550600060098190555060006008819055506200046f565b600081519050919050565b7f4e487b7100000000000000000000000000000000000000000000000000000000600052604160045260246000fd5b7f4e487b7100000000000000000000000000000000000000000000000000000000600052602260045260246000fd5b600060028204905060018216806200019057607f821691505b602082108103620001a657620001a562000148565b5b50919050565b60008190508160005260206000209050919050565b60006020601f8301049050919050565b600082821b905092915050565b600060088302620002107fffffffffffffffffffffffffffffffffffffffffffffffffffffffffffffffff82620001d1565b6200021c8683620001d1565b95508019841693508086168417925050509392505050565b6000819050919050565b6000819050919050565b600062000269620002636200025d8462000234565b6200023e565b62000234565b9050919050565b6000819050919050565b620002858362000248565b6200029d620002948262000270565b848454620001de565b825550505050565b600090565b620002b4620002a5565b620002c18184846200027a565b505050565b5b81811015620002e957620002dd600082620002aa565b600181019050620002c7565b5050565b601f82111562000338576200030281620001ac565b6200030d84620001c1565b810160208510156200031d578190505b620003356200032c85620001c1565b830182620002c6565b50505b505050565b600082821c905092915050565b60006200035d600019846008026200033d565b1980831691505092915050565b60006200037883836200034a565b9150826002028217905092915050565b62000393826200010e565b67ffffffffffffffff811115620003af57620003ae62000119565b5b620003bb825462000177565b620003c8828285620002ed565b600060209050601f831160018114620004005760008415620003eb578287015190505b620003f785826200036a565b86555062000467565b601f1984166200041086620001ac565b60005b828110156200043a5784890151825560018201915060208501945060208101905062000413565b868310156200045a578489015162000456601f8916826200034a565b8355505b6001600288020188555050505b505050505050565b615c8d806200047f6000396000f3fe6080604052600436106101b75760003560e01c806372b3b620116100ec578063b88d4fde1161008a578063cf266ed011610064578063cf266ed0146105bf578063d12812c6146105db578063e219fc7514610618578063e985e9c514610634576101b7565b8063b88d4fde1461053d578063be9af53614610566578063c87b56dd14610582576101b7565b806396b5a755116100c657806396b5a755146104c05780639979ef45146104dc578063a22cb465146104f8578063ae677aa314610521576101b7565b806372b3b6201461044957806391e078bb1461047957806395d89b4114610495576101b7565b806323b872dd1161015957806345f8fa801161013357806345f8fa801461037957806354d54e0a146103a45780636352211e146103cf57806370a082311461040c576101b7565b806323b872dd1461030b5780632f33df601461033457806342842e0e14610350576101b7565b8063095ea7b311610195578063095ea7b3146102615780630f08efe01461028a57806312e85585146102b5578063202e3740146102e0576101b7565b806301ffc9a7146101bc57806306fdde03146101f9578063081812fc14610224575b600080fd5b3480156101c857600080fd5b506101e360048036038101906101de91906146b2565b610671565b6040516101f091906146fa565b60405180910390f35b34801561020557600080fd5b5061020e6106d2565b60405161021b91906147a5565b60405180910390f35b34801561023057600080fd5b5061024b600480360381019061024691906147fd565b610764565b604051610258919061486b565b60405180910390f35b34801561026d57600080fd5b50610288600480360381019061028391906148b2565b610780565b005b34801561029657600080fd5b5061029f610796565b6040516102ac9190614ac2565b60405180910390f35b3480156102c157600080fd5b506102ca610b06565b6040516102d79190614af3565b60405180910390f35b3480156102ec57600080fd5b506102f5610b10565b6040516103029190614ac2565b60405180910390f35b34801561031757600080fd5b50610332600480360381019061032d9190614b0e565b610ea0565b005b61034e600480360381019061034991906147fd565b610fa2565b005b34801561035c57600080fd5b5061037760048036038101906103729190614b0e565b611117565b005b34801561038557600080fd5b5061038e611137565b60405161039b9190614ac2565b60405180910390f35b3480156103b057600080fd5b506103b96114c7565b6040516103c69190614ac2565b60405180910390f35b3480156103db57600080fd5b506103f660048036038101906103f191906147fd565b611837565b604051610403919061486b565b60405180910390f35b34801561041857600080fd5b50610433600480360381019061042e9190614b61565b611849565b6040516104409190614af3565b60405180910390f35b610463600480360381019061045e9190614cc3565b611903565b6040516104709190614af3565b60405180910390f35b610493600480360381019061048e9190614d1f565b61194c565b005b3480156104a157600080fd5b506104aa611d7b565b6040516104b791906147a5565b60405180910390f35b6104da60048036038101906104d591906147fd565b611e0d565b005b6104f660048036038101906104f191906147fd565b612231565b005b34801561050457600080fd5b5061051f600480360381019061051a9190614d9e565b6126dc565b005b61053b600480360381019061053691906147fd565b6126f2565b005b34801561054957600080fd5b50610564600480360381019061055f9190614e7f565b61278c565b005b610580600480360381019061057b91906147fd565b6127a9565b005b34801561058e57600080fd5b506105a960048036038101906105a491906147fd565b6129ef565b6040516105b691906147a5565b60405180910390f35b6105d960048036038101906105d491906147fd565b612b02565b005b3480156105e757600080fd5b5061060260048036038101906105fd91906147fd565b612f50565b60405161060f9190614af3565b60405180910390f35b610632600480360381019061062d9190614f02565b612f75565b005b34801561064057600080fd5b5061065b60048036038101906106569190614f42565b6131a7565b60405161066891906146fa565b60405180910390f35b6000634906490660e01b7bffffffffffffffffffffffffffffffffffffffffffffffffffffffff1916827bffffffffffffffffffffffffffffffffffffffffffffffffffffffff191614806106cb57506106ca8261323b565b5b9050919050565b6060600080546106e190614fb1565b80601f016020809104026020016040519081016040528092919081815260200182805461070d90614fb1565b801561075a5780601f1061072f5761010080835404028352916020019161075a565b820191906000526020600020905b81548152906001019060200180831161073d57829003601f168201915b5050505050905090565b600061076f8261331d565b50610779826133a5565b9050919050565b610792828261078d6133e2565b6133ea565b5050565b606060006007549050600060085490506000808267ffffffffffffffff8111156107c3576107c2614b98565b5b6040519080825280602002602001820160405280156107fc57816020015b6107e96145a4565b8152602001906001900390816107e15790505b50905060005b84811015610afb573073ffffffffffffffffffffffffffffffffffffffff16600c60006001846108329190615011565b815260200190815260200160002060020160009054906101000a900473ffffffffffffffffffffffffffffffffffffffff1673ffffffffffffffffffffffffffffffffffffffff161480156108ba575060011515600c60006001846108979190615011565b815260200190815260200160002060040160019054906101000a900460ff161515145b80156108f9575060001515600c60006001846108d69190615011565b815260200190815260200160002060040160009054906101000a900460ff161515145b15610ae857600060018261090d9190615011565b90506000600c600083815260200190815260200160002090508060405180610160016040529081600082015481526020016001820160009054906101000a900473ffffffffffffffffffffffffffffffffffffffff1673ffffffffffffffffffffffffffffffffffffffff1673ffffffffffffffffffffffffffffffffffffffff1681526020016002820160009054906101000a900473ffffffffffffffffffffffffffffffffffffffff1673ffffffffffffffffffffffffffffffffffffffff1673ffffffffffffffffffffffffffffffffffffffff168152602001600382015481526020016004820160009054906101000a900460ff161515151581526020016004820160019054906101000a900460ff1615151515815260200160058201548152602001600682015481526020016007820160009054906101000a900473ffffffffffffffffffffffffffffffffffffffff1673ffffffffffffffffffffffffffffffffffffffff1673ffffffffffffffffffffffffffffffffffffffff168152602001600882015481526020016009820160009054906101000a900460ff161515151581525050848681518110610acb57610aca615045565b5b6020026020010181905250600185610ae39190615011565b945050505b8080610af390615074565b915050610802565b508094505050505090565b6000600a54905090565b60606000600754905060008060005b83811015610bbf573373ffffffffffffffffffffffffffffffffffffffff16600c6000600184610b4f9190615011565b815260200190815260200160002060020160009054906101000a900473ffffffffffffffffffffffffffffffffffffffff1673ffffffffffffffffffffffffffffffffffffffff1603610bac57600183610ba99190615011565b92505b8080610bb790615074565b915050610b1f565b5060008267ffffffffffffffff811115610bdc57610bdb614b98565b5b604051908082528060200260200182016040528015610c1557816020015b610c026145a4565b815260200190600190039081610bfa5790505b50905060005b84811015610e95573373ffffffffffffffffffffffffffffffffffffffff16600c6000600184610c4b9190615011565b815260200190815260200160002060020160009054906101000a900473ffffffffffffffffffffffffffffffffffffffff1673ffffffffffffffffffffffffffffffffffffffff1603610e82576000600182610ca79190615011565b90506000600c600083815260200190815260200160002090508060405180610160016040529081600082015481526020016001820160009054906101000a900473ffffffffffffffffffffffffffffffffffffffff1673ffffffffffffffffffffffffffffffffffffffff1673ffffffffffffffffffffffffffffffffffffffff1681526020016002820160009054906101000a900473ffffffffffffffffffffffffffffffffffffffff1673ffffffffffffffffffffffffffffffffffffffff1673ffffffffffffffffffffffffffffffffffffffff168152602001600382015481526020016004820160009054906101000a900460ff161515151581526020016004820160019054906101000a900460ff1615151515815260200160058201548152602001600682015481526020016007820160009054906101000a900473ffffffffffffffffffffffffffffffffffffffff1673ffffffffffffffffffffffffffffffffffffffff1673ffffffffffffffffffffffffffffffffffffffff168152602001600882015481526020016009820160009054906101000a900460ff161515151581525050848681518110610e6557610e64615045565b5b6020026020010181905250600185610e7d9190615011565b945050505b8080610e8d90615074565b915050610c1b565b508094505050505090565b600073ffffffffffffffffffffffffffffffffffffffff168273ffffffffffffffffffffffffffffffffffffffff1603610f125760006040517f64a0ae92000000000000000000000000000000000000000000000000000000008152600401610f09919061486b565b60405180910390fd5b6000610f268383610f216133e2565b6133fc565b90508373ffffffffffffffffffffffffffffffffffffffff168173ffffffffffffffffffffffffffffffffffffffff1614610f9c578382826040517f64283d7b000000000000000000000000000000000000000000000000000000008152600401610f93939291906150bc565b60405180910390fd5b50505050565b600c600082815260200190815260200160002060010160009054906101000a900473ffffffffffffffffffffffffffffffffffffffff1673ffffffffffffffffffffffffffffffffffffffff163373ffffffffffffffffffffffffffffffffffffffff1614611046576040517f08c379a000000000000000000000000000000000000000000000000000000000815260040161103d9061513f565b60405180910390fd5b600860008154809291906110599061515f565b9190505550611069303383613616565b33600c600083815260200190815260200160002060020160006101000a81548173ffffffffffffffffffffffffffffffffffffffff021916908373ffffffffffffffffffffffffffffffffffffffff1602179055506000600c600083815260200190815260200160002060010160006101000a81548173ffffffffffffffffffffffffffffffffffffffff021916908373ffffffffffffffffffffffffffffffffffffffff16021790555050565b6111328383836040518060200160405280600081525061278c565b505050565b60606000600754905060008060005b838110156111e6573373ffffffffffffffffffffffffffffffffffffffff16600c60006001846111769190615011565b815260200190815260200160002060010160009054906101000a900473ffffffffffffffffffffffffffffffffffffffff1673ffffffffffffffffffffffffffffffffffffffff16036111d3576001836111d09190615011565b92505b80806111de90615074565b915050611146565b5060008267ffffffffffffffff81111561120357611202614b98565b5b60405190808252806020026020018201604052801561123c57816020015b6112296145a4565b8152602001906001900390816112215790505b50905060005b848110156114bc573373ffffffffffffffffffffffffffffffffffffffff16600c60006001846112729190615011565b815260200190815260200160002060010160009054906101000a900473ffffffffffffffffffffffffffffffffffffffff1673ffffffffffffffffffffffffffffffffffffffff16036114a95760006001826112ce9190615011565b90506000600c600083815260200190815260200160002090508060405180610160016040529081600082015481526020016001820160009054906101000a900473ffffffffffffffffffffffffffffffffffffffff1673ffffffffffffffffffffffffffffffffffffffff1673ffffffffffffffffffffffffffffffffffffffff1681526020016002820160009054906101000a900473ffffffffffffffffffffffffffffffffffffffff1673ffffffffffffffffffffffffffffffffffffffff1673ffffffffffffffffffffffffffffffffffffffff168152602001600382015481526020016004820160009054906101000a900460ff161515151581526020016004820160019054906101000a900460ff1615151515815260200160058201548152602001600682015481526020016007820160009054906101000a900473ffffffffffffffffffffffffffffffffffffffff1673ffffffffffffffffffffffffffffffffffffffff1673ffffffffffffffffffffffffffffffffffffffff168152602001600882015481526020016009820160009054906101000a900460ff16151515158152505084868151811061148c5761148b615045565b5b60200260200101819052506001856114a49190615011565b945050505b80806114b490615074565b915050611242565b508094505050505090565b606060006007549050600060095490506000808267ffffffffffffffff8111156114f4576114f3614b98565b5b60405190808252806020026020018201604052801561152d57816020015b61151a6145a4565b8152602001906001900390816115125790505b50905060005b8481101561182c573073ffffffffffffffffffffffffffffffffffffffff16600c60006001846115639190615011565b815260200190815260200160002060020160009054906101000a900473ffffffffffffffffffffffffffffffffffffffff1673ffffffffffffffffffffffffffffffffffffffff161480156115eb575060001515600c60006001846115c89190615011565b815260200190815260200160002060040160019054906101000a900460ff161515145b801561162a575060001515600c60006001846116079190615011565b815260200190815260200160002060040160009054906101000a900460ff161515145b1561181957600060018261163e9190615011565b90506000600c600083815260200190815260200160002090508060405180610160016040529081600082015481526020016001820160009054906101000a900473ffffffffffffffffffffffffffffffffffffffff1673ffffffffffffffffffffffffffffffffffffffff1673ffffffffffffffffffffffffffffffffffffffff1681526020016002820160009054906101000a900473ffffffffffffffffffffffffffffffffffffffff1673ffffffffffffffffffffffffffffffffffffffff1673ffffffffffffffffffffffffffffffffffffffff168152602001600382015481526020016004820160009054906101000a900460ff161515151581526020016004820160019054906101000a900460ff1615151515815260200160058201548152602001600682015481526020016007820160009054906101000a900473ffffffffffffffffffffffffffffffffffffffff1673ffffffffffffffffffffffffffffffffffffffff1673ffffffffffffffffffffffffffffffffffffffff168152602001600882015481526020016009820160009054906101000a900460ff1615151515815250508486815181106117fc576117fb615045565b5b60200260200101819052506001856118149190615011565b945050505b808061182490615074565b915050611533565b508094505050505090565b60006118428261331d565b9050919050565b60008073ffffffffffffffffffffffffffffffffffffffff168273ffffffffffffffffffffffffffffffffffffffff16036118bc5760006040517f89c62b640000000000000000000000000000000000000000000000000000000081526004016118b3919061486b565b60405180910390fd5b600360008373ffffffffffffffffffffffffffffffffffffffff1673ffffffffffffffffffffffffffffffffffffffff168152602001908152602001600020549050919050565b60006007600081548092919061191890615074565b91905055506000600754905061192e3382613783565b611938818561387c565b61194281846138d8565b8091505092915050565b6000600c600085815260200190815260200160002090503373ffffffffffffffffffffffffffffffffffffffff16600c600086815260200190815260200160002060020160009054906101000a900473ffffffffffffffffffffffffffffffffffffffff1673ffffffffffffffffffffffffffffffffffffffff1614611a07576040517f08c379a00000000000000000000000000000000000000000000000000000000081526004016119fe906151fa565b60405180910390fd5b60008160040160016101000a81548160ff02191690831515021790555060008160090160006101000a81548160ff021916908315150217905550338160070160006101000a81548173ffffffffffffffffffffffffffffffffffffffff021916908373ffffffffffffffffffffffffffffffffffffffff160217905550828160080181905550338160010160006101000a81548173ffffffffffffffffffffffffffffffffffffffff021916908373ffffffffffffffffffffffffffffffffffffffff160217905550308160020160006101000a81548173ffffffffffffffffffffffffffffffffffffffff021916908373ffffffffffffffffffffffffffffffffffffffff1602179055504281600501819055508142611b289190615011565b816006018190555060008160040160006101000a81548160ff02191690831515021790555060096000815480929190611b6090615074565b919050555080600c6000868152602001908152602001600020600082015481600001556001820160009054906101000a900473ffffffffffffffffffffffffffffffffffffffff168160010160006101000a81548173ffffffffffffffffffffffffffffffffffffffff021916908373ffffffffffffffffffffffffffffffffffffffff1602179055506002820160009054906101000a900473ffffffffffffffffffffffffffffffffffffffff168160020160006101000a81548173ffffffffffffffffffffffffffffffffffffffff021916908373ffffffffffffffffffffffffffffffffffffffff160217905550600382015481600301556004820160009054906101000a900460ff168160040160006101000a81548160ff0219169083151502179055506004820160019054906101000a900460ff168160040160016101000a81548160ff02191690831515021790555060058201548160050155600682015481600601556007820160009054906101000a900473ffffffffffffffffffffffffffffffffffffffff168160070160006101000a81548173ffffffffffffffffffffffffffffffffffffffff021916908373ffffffffffffffffffffffffffffffffffffffff160217905550600882015481600801556009820160009054906101000a900460ff168160090160006101000a81548160ff021916908315150217905550905050611d75333086613616565b50505050565b606060018054611d8a90614fb1565b80601f0160208091040260200160405190810160405280929190818152602001828054611db690614fb1565b8015611e035780601f10611dd857610100808354040283529160200191611e03565b820191906000526020600020905b815481529060010190602001808311611de657829003601f168201915b5050505050905090565b6000600c600083815260200190815260200160002090508060010160009054906101000a900473ffffffffffffffffffffffffffffffffffffffff1673ffffffffffffffffffffffffffffffffffffffff163373ffffffffffffffffffffffffffffffffffffffff1614611eb6576040517f08c379a0000000000000000000000000000000000000000000000000000000008152600401611ead90615266565b60405180910390fd5b60096000815480929190611ec99061515f565b9190505550600073ffffffffffffffffffffffffffffffffffffffff168160070160009054906101000a900473ffffffffffffffffffffffffffffffffffffffff1673ffffffffffffffffffffffffffffffffffffffff1614611f96578060070160009054906101000a900473ffffffffffffffffffffffffffffffffffffffff1673ffffffffffffffffffffffffffffffffffffffff166108fc82600801549081150290604051600060405180830381858888f19350505050158015611f94573d6000803e3d6000fd5b505b338160020160006101000a81548173ffffffffffffffffffffffffffffffffffffffff021916908373ffffffffffffffffffffffffffffffffffffffff16021790555060008160010160006101000a81548173ffffffffffffffffffffffffffffffffffffffff021916908373ffffffffffffffffffffffffffffffffffffffff160217905550612028303384613616565b80600c6000848152602001908152602001600020600082015481600001556001820160009054906101000a900473ffffffffffffffffffffffffffffffffffffffff168160010160006101000a81548173ffffffffffffffffffffffffffffffffffffffff021916908373ffffffffffffffffffffffffffffffffffffffff1602179055506002820160009054906101000a900473ffffffffffffffffffffffffffffffffffffffff168160020160006101000a81548173ffffffffffffffffffffffffffffffffffffffff021916908373ffffffffffffffffffffffffffffffffffffffff160217905550600382015481600301556004820160009054906101000a900460ff168160040160006101000a81548160ff0219169083151502179055506004820160019054906101000a900460ff168160040160016101000a81548160ff02191690831515021790555060058201548160050155600682015481600601556007820160009054906101000a900473ffffffffffffffffffffffffffffffffffffffff168160070160006101000a81548173ffffffffffffffffffffffffffffffffffffffff021916908373ffffffffffffffffffffffffffffffffffffffff160217905550600882015481600801556009820160009054906101000a900460ff168160090160006101000a81548160ff0219169083151502179055509050505050565b6000600c600083815260200190815260200160002090508060080154341161228e576040517f08c379a0000000000000000000000000000000000000000000000000000000008152600401612285906152f8565b60405180910390fd5b80600501544210156122d5576040517f08c379a00000000000000000000000000000000000000000000000000000000081526004016122cc90615364565b60405180910390fd5b8060090160009054906101000a900460ff1615612327576040517f08c379a000000000000000000000000000000000000000000000000000000000815260040161231e906153d0565b60405180910390fd5b3373ffffffffffffffffffffffffffffffffffffffff168160070160009054906101000a900473ffffffffffffffffffffffffffffffffffffffff1673ffffffffffffffffffffffffffffffffffffffff16036123b9576040517f08c379a00000000000000000000000000000000000000000000000000000000081526004016123b09061543c565b60405180910390fd5b600073ffffffffffffffffffffffffffffffffffffffff168160070160009054906101000a900473ffffffffffffffffffffffffffffffffffffffff1673ffffffffffffffffffffffffffffffffffffffff16146124875760008160070160009054906101000a900473ffffffffffffffffffffffffffffffffffffffff1690508073ffffffffffffffffffffffffffffffffffffffff166108fc83600801549081150290604051600060405180830381858888f19350505050158015612484573d6000803e3d6000fd5b50505b348160080181905550338160070160006101000a81548173ffffffffffffffffffffffffffffffffffffffff021916908373ffffffffffffffffffffffffffffffffffffffff16021790555080600c6000848152602001908152602001600020600082015481600001556001820160009054906101000a900473ffffffffffffffffffffffffffffffffffffffff168160010160006101000a81548173ffffffffffffffffffffffffffffffffffffffff021916908373ffffffffffffffffffffffffffffffffffffffff1602179055506002820160009054906101000a900473ffffffffffffffffffffffffffffffffffffffff168160020160006101000a81548173ffffffffffffffffffffffffffffffffffffffff021916908373ffffffffffffffffffffffffffffffffffffffff160217905550600382015481600301556004820160009054906101000a900460ff168160040160006101000a81548160ff0219169083151502179055506004820160019054906101000a900460ff168160040160016101000a81548160ff02191690831515021790555060058201548160050155600682015481600601556007820160009054906101000a900473ffffffffffffffffffffffffffffffffffffffff168160070160006101000a81548173ffffffffffffffffffffffffffffffffffffffff021916908373ffffffffffffffffffffffffffffffffffffffff160217905550600882015481600801556009820160009054906101000a900460ff168160090160006101000a81548160ff0219169083151502179055509050505050565b6126ee6126e76133e2565b8383613bec565b5050565b3373ffffffffffffffffffffffffffffffffffffffff16600b60009054906101000a900473ffffffffffffffffffffffffffffffffffffffff1673ffffffffffffffffffffffffffffffffffffffff1614612782576040517f08c379a0000000000000000000000000000000000000000000000000000000008152600401612779906154ce565b60405180910390fd5b80600a8190555050565b612797848484610ea0565b6127a384848484613d5b565b50505050565b6000600c6000838152602001908152602001600020600301549050803414612806576040517f08c379a00000000000000000000000000000000000000000000000000000000081526004016127fd90615560565b60405180910390fd5b33600c600084815260200190815260200160002060020160006101000a81548173ffffffffffffffffffffffffffffffffffffffff021916908373ffffffffffffffffffffffffffffffffffffffff1602179055506001600c600084815260200190815260200160002060040160006101000a81548160ff0219169083151502179055506008600081548092919061289d9061515f565b91905055506128ad303384613616565b600b60009054906101000a900473ffffffffffffffffffffffffffffffffffffffff1673ffffffffffffffffffffffffffffffffffffffff166108fc600a549081150290604051600060405180830381858888f19350505050158015612917573d6000803e3d6000fd5b50600c600083815260200190815260200160002060010160009054906101000a900473ffffffffffffffffffffffffffffffffffffffff1673ffffffffffffffffffffffffffffffffffffffff166108fc349081150290604051600060405180830381858888f19350505050158015612994573d6000803e3d6000fd5b506000600c600084815260200190815260200160002060010160006101000a81548173ffffffffffffffffffffffffffffffffffffffff021916908373ffffffffffffffffffffffffffffffffffffffff1602179055505050565b60606129fa8261331d565b506000600660008481526020019081526020016000208054612a1b90614fb1565b80601f0160208091040260200160405190810160405280929190818152602001828054612a4790614fb1565b8015612a945780601f10612a6957610100808354040283529160200191612a94565b820191906000526020600020905b815481529060010190602001808311612a7757829003601f168201915b505050505090506000612aa5613f12565b90506000815103612aba578192505050612afd565b600082511115612aef578082604051602001612ad79291906155bc565b60405160208183030381529060405292505050612afd565b612af884613f29565b925050505b919050565b6000600c600083815260200190815260200160002090508060010160009054906101000a900473ffffffffffffffffffffffffffffffffffffffff1673ffffffffffffffffffffffffffffffffffffffff163373ffffffffffffffffffffffffffffffffffffffff1614612bab576040517f08c379a0000000000000000000000000000000000000000000000000000000008152600401612ba290615652565b60405180910390fd5b600073ffffffffffffffffffffffffffffffffffffffff168160070160009054906101000a900473ffffffffffffffffffffffffffffffffffffffff1673ffffffffffffffffffffffffffffffffffffffff1603612c3e576040517f08c379a0000000000000000000000000000000000000000000000000000000008152600401612c35906156e4565b60405180910390fd5b612c7f30600c600085815260200190815260200160002060070160009054906101000a900473ffffffffffffffffffffffffffffffffffffffff1684613616565b60018160090160006101000a81548160ff0219169083151502179055508060070160009054906101000a900473ffffffffffffffffffffffffffffffffffffffff168160020160006101000a81548173ffffffffffffffffffffffffffffffffffffffff021916908373ffffffffffffffffffffffffffffffffffffffff16021790555060008160010160006101000a81548173ffffffffffffffffffffffffffffffffffffffff021916908373ffffffffffffffffffffffffffffffffffffffff16021790555080600c6000848152602001908152602001600020600082015481600001556001820160009054906101000a900473ffffffffffffffffffffffffffffffffffffffff168160010160006101000a81548173ffffffffffffffffffffffffffffffffffffffff021916908373ffffffffffffffffffffffffffffffffffffffff1602179055506002820160009054906101000a900473ffffffffffffffffffffffffffffffffffffffff168160020160006101000a81548173ffffffffffffffffffffffffffffffffffffffff021916908373ffffffffffffffffffffffffffffffffffffffff160217905550600382015481600301556004820160009054906101000a900460ff168160040160006101000a81548160ff0219169083151502179055506004820160019054906101000a900460ff168160040160016101000a81548160ff02191690831515021790555060058201548160050155600682015481600601556007820160009054906101000a900473ffffffffffffffffffffffffffffffffffffffff168160070160006101000a81548173ffffffffffffffffffffffffffffffffffffffff021916908373ffffffffffffffffffffffffffffffffffffffff160217905550600882015481600801556009820160009054906101000a900460ff168160090160006101000a81548160ff0219169083151502179055509050505050565b600080600c600084815260200190815260200160002090508060060154915050919050565b3373ffffffffffffffffffffffffffffffffffffffff16600c600084815260200190815260200160002060020160009054906101000a900473ffffffffffffffffffffffffffffffffffffffff1673ffffffffffffffffffffffffffffffffffffffff1614613019576040517f08c379a0000000000000000000000000000000000000000000000000000000008152600401613010906151fa565b60405180910390fd5b600a54341461305d576040517f08c379a000000000000000000000000000000000000000000000000000000000815260040161305490615776565b60405180910390fd5b6000600c600084815260200190815260200160002060040160006101000a81548160ff02191690831515021790555080600c60008481526020019081526020016000206003018190555033600c600084815260200190815260200160002060010160006101000a81548173ffffffffffffffffffffffffffffffffffffffff021916908373ffffffffffffffffffffffffffffffffffffffff16021790555030600c600084815260200190815260200160002060020160006101000a81548173ffffffffffffffffffffffffffffffffffffffff021916908373ffffffffffffffffffffffffffffffffffffffff1602179055506001600c600084815260200190815260200160002060040160016101000a81548160ff0219169083151502179055506008600081548092919061319390615074565b91905055506131a3333084613616565b5050565b6000600560008473ffffffffffffffffffffffffffffffffffffffff1673ffffffffffffffffffffffffffffffffffffffff16815260200190815260200160002060008373ffffffffffffffffffffffffffffffffffffffff1673ffffffffffffffffffffffffffffffffffffffff16815260200190815260200160002060009054906101000a900460ff16905092915050565b60007f80ac58cd000000000000000000000000000000000000000000000000000000007bffffffffffffffffffffffffffffffffffffffffffffffffffffffff1916827bffffffffffffffffffffffffffffffffffffffffffffffffffffffff1916148061330657507f5b5e139f000000000000000000000000000000000000000000000000000000007bffffffffffffffffffffffffffffffffffffffffffffffffffffffff1916827bffffffffffffffffffffffffffffffffffffffffffffffffffffffff1916145b80613316575061331582613f92565b5b9050919050565b60008061332983613ffc565b9050600073ffffffffffffffffffffffffffffffffffffffff168173ffffffffffffffffffffffffffffffffffffffff160361339c57826040517f7e2732890000000000000000000000000000000000000000000000000000000081526004016133939190614af3565b60405180910390fd5b80915050919050565b60006004600083815260200190815260200160002060009054906101000a900473ffffffffffffffffffffffffffffffffffffffff169050919050565b600033905090565b6133f78383836001614039565b505050565b60008061340884613ffc565b9050600073ffffffffffffffffffffffffffffffffffffffff168373ffffffffffffffffffffffffffffffffffffffff161461344a576134498184866141fe565b5b600073ffffffffffffffffffffffffffffffffffffffff168173ffffffffffffffffffffffffffffffffffffffff16146134db5761348c600085600080614039565b6001600360008373ffffffffffffffffffffffffffffffffffffffff1673ffffffffffffffffffffffffffffffffffffffff168152602001908152602001600020600082825403925050819055505b600073ffffffffffffffffffffffffffffffffffffffff168573ffffffffffffffffffffffffffffffffffffffff161461355e576001600360008773ffffffffffffffffffffffffffffffffffffffff1673ffffffffffffffffffffffffffffffffffffffff168152602001908152602001600020600082825401925050819055505b846002600086815260200190815260200160002060006101000a81548173ffffffffffffffffffffffffffffffffffffffff021916908373ffffffffffffffffffffffffffffffffffffffff160217905550838573ffffffffffffffffffffffffffffffffffffffff168273ffffffffffffffffffffffffffffffffffffffff167fddf252ad1be2c89b69c2b068fc378daa952ba7f163c4a11628f55a4df523b3ef60405160405180910390a4809150509392505050565b600073ffffffffffffffffffffffffffffffffffffffff168273ffffffffffffffffffffffffffffffffffffffff16036136885760006040517f64a0ae9200000000000000000000000000000000000000000000000000000000815260040161367f919061486b565b60405180910390fd5b6000613696838360006133fc565b9050600073ffffffffffffffffffffffffffffffffffffffff168173ffffffffffffffffffffffffffffffffffffffff160361370957816040517f7e2732890000000000000000000000000000000000000000000000000000000081526004016137009190614af3565b60405180910390fd5b8373ffffffffffffffffffffffffffffffffffffffff168173ffffffffffffffffffffffffffffffffffffffff161461377d578382826040517f64283d7b000000000000000000000000000000000000000000000000000000008152600401613774939291906150bc565b60405180910390fd5b50505050565b600073ffffffffffffffffffffffffffffffffffffffff168273ffffffffffffffffffffffffffffffffffffffff16036137f55760006040517f64a0ae920000000000000000000000000000000000000000000000000000000081526004016137ec919061486b565b60405180910390fd5b6000613803838360006133fc565b9050600073ffffffffffffffffffffffffffffffffffffffff168173ffffffffffffffffffffffffffffffffffffffff16146138775760006040517f73c6ac6e00000000000000000000000000000000000000000000000000000000815260040161386e919061486b565b60405180910390fd5b505050565b8060066000848152602001908152602001600020908161389c9190615942565b507ff8e1a15aba9398e019f0b49df1a4fde98ee17ae345cb5f6b5e2c27f5033e8ce7826040516138cc9190614af3565b60405180910390a15050565b6000811161391b576040517f08c379a000000000000000000000000000000000000000000000000000000000815260040161391290615a60565b60405180910390fd5b600a54341461395f576040517f08c379a000000000000000000000000000000000000000000000000000000000815260040161395690615776565b60405180910390fd5b6040518061016001604052808381526020013373ffffffffffffffffffffffffffffffffffffffff1681526020013073ffffffffffffffffffffffffffffffffffffffff168152602001828152602001600015158152602001600115158152602001428152602001428152602001600073ffffffffffffffffffffffffffffffffffffffff16815260200182815260200160001515815250600c60008481526020019081526020016000206000820151816000015560208201518160010160006101000a81548173ffffffffffffffffffffffffffffffffffffffff021916908373ffffffffffffffffffffffffffffffffffffffff16021790555060408201518160020160006101000a81548173ffffffffffffffffffffffffffffffffffffffff021916908373ffffffffffffffffffffffffffffffffffffffff1602179055506060820151816003015560808201518160040160006101000a81548160ff02191690831515021790555060a08201518160040160016101000a81548160ff02191690831515021790555060c0820151816005015560e082015181600601556101008201518160070160006101000a81548173ffffffffffffffffffffffffffffffffffffffff021916908373ffffffffffffffffffffffffffffffffffffffff16021790555061012082015181600801556101408201518160090160006101000a81548160ff02191690831515021790555090505060086000815480929190613b8a90615074565b9190505550613b9a333084613616565b817ff28de24d294b42637634a7516b7c0a2384ab5c6f40d27c2c835bb0602083381c33308460006001424260008a6000604051613be09a99989796959493929190615a80565b60405180910390a25050565b600073ffffffffffffffffffffffffffffffffffffffff168273ffffffffffffffffffffffffffffffffffffffff1603613c5d57816040517f5b08ba18000000000000000000000000000000000000000000000000000000008152600401613c54919061486b565b60405180910390fd5b80600560008573ffffffffffffffffffffffffffffffffffffffff1673ffffffffffffffffffffffffffffffffffffffff16815260200190815260200160002060008473ffffffffffffffffffffffffffffffffffffffff1673ffffffffffffffffffffffffffffffffffffffff16815260200190815260200160002060006101000a81548160ff0219169083151502179055508173ffffffffffffffffffffffffffffffffffffffff168373ffffffffffffffffffffffffffffffffffffffff167f17307eab39ab6107e8899845ad3d59bd9653f200f220920489ca2b5937696c3183604051613d4e91906146fa565b60405180910390a3505050565b60008373ffffffffffffffffffffffffffffffffffffffff163b1115613f0c578273ffffffffffffffffffffffffffffffffffffffff1663150b7a02613d9f6133e2565b8685856040518563ffffffff1660e01b8152600401613dc19493929190615b71565b6020604051808303816000875af1925050508015613dfd57506040513d601f19601f82011682018060405250810190613dfa9190615bd2565b60015b613e81573d8060008114613e2d576040519150601f19603f3d011682016040523d82523d6000602084013e613e32565b606091505b506000815103613e7957836040517f64a0ae92000000000000000000000000000000000000000000000000000000008152600401613e70919061486b565b60405180910390fd5b805181602001fd5b63150b7a0260e01b7bffffffffffffffffffffffffffffffffffffffffffffffffffffffff1916817bffffffffffffffffffffffffffffffffffffffffffffffffffffffff191614613f0a57836040517f64a0ae92000000000000000000000000000000000000000000000000000000008152600401613f01919061486b565b60405180910390fd5b505b50505050565b606060405180602001604052806000815250905090565b6060613f348261331d565b506000613f3f613f12565b90506000815111613f5f5760405180602001604052806000815250613f8a565b80613f69846142c2565b604051602001613f7a9291906155bc565b6040516020818303038152906040525b915050919050565b60007f01ffc9a7000000000000000000000000000000000000000000000000000000007bffffffffffffffffffffffffffffffffffffffffffffffffffffffff1916827bffffffffffffffffffffffffffffffffffffffffffffffffffffffff1916149050919050565b60006002600083815260200190815260200160002060009054906101000a900473ffffffffffffffffffffffffffffffffffffffff169050919050565b80806140725750600073ffffffffffffffffffffffffffffffffffffffff168273ffffffffffffffffffffffffffffffffffffffff1614155b156141a65760006140828461331d565b9050600073ffffffffffffffffffffffffffffffffffffffff168373ffffffffffffffffffffffffffffffffffffffff16141580156140ed57508273ffffffffffffffffffffffffffffffffffffffff168173ffffffffffffffffffffffffffffffffffffffff1614155b801561410057506140fe81846131a7565b155b1561414257826040517fa9fbf51f000000000000000000000000000000000000000000000000000000008152600401614139919061486b565b60405180910390fd5b81156141a457838573ffffffffffffffffffffffffffffffffffffffff168273ffffffffffffffffffffffffffffffffffffffff167f8c5be1e5ebec7d5bd14f71427d1e84f3dd0314c0f7b2291e5b200ac8c7c3b92560405160405180910390a45b505b836004600085815260200190815260200160002060006101000a81548173ffffffffffffffffffffffffffffffffffffffff021916908373ffffffffffffffffffffffffffffffffffffffff16021790555050505050565b614209838383614390565b6142bd57600073ffffffffffffffffffffffffffffffffffffffff168373ffffffffffffffffffffffffffffffffffffffff160361427e57806040517f7e2732890000000000000000000000000000000000000000000000000000000081526004016142759190614af3565b60405180910390fd5b81816040517f177e802f0000000000000000000000000000000000000000000000000000000081526004016142b4929190615bff565b60405180910390fd5b505050565b6060600060016142d184614451565b01905060008167ffffffffffffffff8111156142f0576142ef614b98565b5b6040519080825280601f01601f1916602001820160405280156143225781602001600182028036833780820191505090505b509050600082602001820190505b600115614385578080600190039150507f3031323334353637383961626364656600000000000000000000000000000000600a86061a8153600a858161437957614378615c28565b5b04945060008503614330575b819350505050919050565b60008073ffffffffffffffffffffffffffffffffffffffff168373ffffffffffffffffffffffffffffffffffffffff161415801561444857508273ffffffffffffffffffffffffffffffffffffffff168473ffffffffffffffffffffffffffffffffffffffff161480614409575061440884846131a7565b5b8061444757508273ffffffffffffffffffffffffffffffffffffffff1661442f836133a5565b73ffffffffffffffffffffffffffffffffffffffff16145b5b90509392505050565b600080600090507a184f03e93ff9f4daa797ed6e38ed64bf6a1f01000000000000000083106144af577a184f03e93ff9f4daa797ed6e38ed64bf6a1f01000000000000000083816144a5576144a4615c28565b5b0492506040810190505b6d04ee2d6d415b85acef810000000083106144ec576d04ee2d6d415b85acef810000000083816144e2576144e1615c28565b5b0492506020810190505b662386f26fc10000831061451b57662386f26fc10000838161451157614510615c28565b5b0492506010810190505b6305f5e1008310614544576305f5e100838161453a57614539615c28565b5b0492506008810190505b612710831061456957612710838161455f5761455e615c28565b5b0492506004810190505b6064831061458c576064838161458257614581615c28565b5b0492506002810190505b600a831061459b576001810190505b80915050919050565b60405180610160016040528060008152602001600073ffffffffffffffffffffffffffffffffffffffff168152602001600073ffffffffffffffffffffffffffffffffffffffff168152602001600081526020016000151581526020016000151581526020016000815260200160008152602001600073ffffffffffffffffffffffffffffffffffffffff168152602001600081526020016000151581525090565b6000604051905090565b600080fd5b600080fd5b60007fffffffff0000000000000000000000000000000000000000000000000000000082169050919050565b61468f8161465a565b811461469a57600080fd5b50565b6000813590506146ac81614686565b92915050565b6000602082840312156146c8576146c7614650565b5b60006146d68482850161469d565b91505092915050565b60008115159050919050565b6146f4816146df565b82525050565b600060208201905061470f60008301846146eb565b92915050565b600081519050919050565b600082825260208201905092915050565b60005b8381101561474f578082015181840152602081019050614734565b60008484015250505050565b6000601f19601f8301169050919050565b600061477782614715565b6147818185614720565b9350614791818560208601614731565b61479a8161475b565b840191505092915050565b600060208201905081810360008301526147bf818461476c565b905092915050565b6000819050919050565b6147da816147c7565b81146147e557600080fd5b50565b6000813590506147f7816147d1565b92915050565b60006020828403121561481357614812614650565b5b6000614821848285016147e8565b91505092915050565b600073ffffffffffffffffffffffffffffffffffffffff82169050919050565b60006148558261482a565b9050919050565b6148658161484a565b82525050565b6000602082019050614880600083018461485c565b92915050565b61488f8161484a565b811461489a57600080fd5b50565b6000813590506148ac81614886565b92915050565b600080604083850312156148c9576148c8614650565b5b60006148d78582860161489d565b92505060206148e8858286016147e8565b9150509250929050565b600081519050919050565b600082825260208201905092915050565b6000819050602082019050919050565b614927816147c7565b82525050565b60006149388261482a565b9050919050565b6149488161492d565b82525050565b614957816146df565b82525050565b61016082016000820151614974600085018261491e565b506020820151614987602085018261493f565b50604082015161499a604085018261493f565b5060608201516149ad606085018261491e565b5060808201516149c0608085018261494e565b5060a08201516149d360a085018261494e565b5060c08201516149e660c085018261491e565b5060e08201516149f960e085018261491e565b50610100820151614a0e61010085018261493f565b50610120820151614a2361012085018261491e565b50610140820151614a3861014085018261494e565b50505050565b6000614a4a838361495d565b6101608301905092915050565b6000602082019050919050565b6000614a6f826148f2565b614a7981856148fd565b9350614a848361490e565b8060005b83811015614ab5578151614a9c8882614a3e565b9750614aa783614a57565b925050600181019050614a88565b5085935050505092915050565b60006020820190508181036000830152614adc8184614a64565b905092915050565b614aed816147c7565b82525050565b6000602082019050614b086000830184614ae4565b92915050565b600080600060608486031215614b2757614b26614650565b5b6000614b358682870161489d565b9350506020614b468682870161489d565b9250506040614b57868287016147e8565b9150509250925092565b600060208284031215614b7757614b76614650565b5b6000614b858482850161489d565b91505092915050565b600080fd5b600080fd5b7f4e487b7100000000000000000000000000000000000000000000000000000000600052604160045260246000fd5b614bd08261475b565b810181811067ffffffffffffffff82111715614bef57614bee614b98565b5b80604052505050565b6000614c02614646565b9050614c0e8282614bc7565b919050565b600067ffffffffffffffff821115614c2e57614c2d614b98565b5b614c378261475b565b9050602081019050919050565b82818337600083830152505050565b6000614c66614c6184614c13565b614bf8565b905082815260208101848484011115614c8257614c81614b93565b5b614c8d848285614c44565b509392505050565b600082601f830112614caa57614ca9614b8e565b5b8135614cba848260208601614c53565b91505092915050565b60008060408385031215614cda57614cd9614650565b5b600083013567ffffffffffffffff811115614cf857614cf7614655565b5b614d0485828601614c95565b9250506020614d15858286016147e8565b9150509250929050565b600080600060608486031215614d3857614d37614650565b5b6000614d46868287016147e8565b9350506020614d57868287016147e8565b9250506040614d68868287016147e8565b9150509250925092565b614d7b816146df565b8114614d8657600080fd5b50565b600081359050614d9881614d72565b92915050565b60008060408385031215614db557614db4614650565b5b6000614dc38582860161489d565b9250506020614dd485828601614d89565b9150509250929050565b600067ffffffffffffffff821115614df957614df8614b98565b5b614e028261475b565b9050602081019050919050565b6000614e22614e1d84614dde565b614bf8565b905082815260208101848484011115614e3e57614e3d614b93565b5b614e49848285614c44565b509392505050565b600082601f830112614e6657614e65614b8e565b5b8135614e76848260208601614e0f565b91505092915050565b60008060008060808587031215614e9957614e98614650565b5b6000614ea78782880161489d565b9450506020614eb88782880161489d565b9350506040614ec9878288016147e8565b925050606085013567ffffffffffffffff811115614eea57614ee9614655565b5b614ef687828801614e51565b91505092959194509250565b60008060408385031215614f1957614f18614650565b5b6000614f27858286016147e8565b9250506020614f38858286016147e8565b9150509250929050565b60008060408385031215614f5957614f58614650565b5b6000614f678582860161489d565b9250506020614f788582860161489d565b9150509250929050565b7f4e487b7100000000000000000000000000000000000000000000000000000000600052602260045260246000fd5b60006002820490506001821680614fc957607f821691505b602082108103614fdc57614fdb614f82565b5b50919050565b7f4e487b7100000000000000000000000000000000000000000000000000000000600052601160045260246000fd5b600061501c826147c7565b9150615027836147c7565b925082820190508082111561503f5761503e614fe2565b5b92915050565b7f4e487b7100000000000000000000000000000000000000000000000000000000600052603260045260246000fd5b600061507f826147c7565b91507fffffffffffffffffffffffffffffffffffffffffffffffffffffffffffffffff82036150b1576150b0614fe2565b5b600182019050919050565b60006060820190506150d1600083018661485c565b6150de6020830185614ae4565b6150eb604083018461485c565b949350505050565b7f4f6e6c79206f776e65722063616e2063616e63656c2073656c6c696e67000000600082015250565b6000615129601d83614720565b9150615134826150f3565b602082019050919050565b600060208201905081810360008301526151588161511c565b9050919050565b600061516a826147c7565b91506000820361517d5761517c614fe2565b5b600182039050919050565b7f4f6e6c79206974656d206f776e65722063616e20706572666f726d207468697360008201527f206f7065726174696f6e00000000000000000000000000000000000000000000602082015250565b60006151e4602a83614720565b91506151ef82615188565b604082019050919050565b60006020820190508181036000830152615213816151d7565b9050919050565b7f4f6e6c79206f776e65722063616e2063616e63656c2061756374696f6e000000600082015250565b6000615250601d83614720565b915061525b8261521a565b602082019050919050565b6000602082019050818103600083015261527f81615243565b9050919050565b7f426964206d7573742062652067726561746572207468616e206869676865737460008201527f2062696400000000000000000000000000000000000000000000000000000000602082015250565b60006152e2602483614720565b91506152ed82615286565b604082019050919050565b60006020820190508181036000830152615311816152d5565b9050919050565b7f41756374696f6e206e6f74207965742073746172746564000000000000000000600082015250565b600061534e601783614720565b915061535982615318565b602082019050919050565b6000602082019050818103600083015261537d81615341565b9050919050565b7f41756374696f6e20616c726561647920636f6d706c6574656400000000000000600082015250565b60006153ba601983614720565b91506153c582615384565b602082019050919050565b600060208201905081810360008301526153e9816153ad565b9050919050565b7f43616e6e6f742062696420747769636520696e206120726f7700000000000000600082015250565b6000615426601983614720565b9150615431826153f0565b602082019050919050565b6000602082019050818103600083015261545581615419565b9050919050565b7f4f6e6c79206d61726b6574706c616365206f776e65722063616e20757064617460008201527f65206c697374696e672070726963652e00000000000000000000000000000000602082015250565b60006154b8603083614720565b91506154c38261545c565b604082019050919050565b600060208201905081810360008301526154e7816154ab565b9050919050565b7f506c65617365207375626d6974207468652061736b696e67207072696365206960008201527f6e206f7264657220746f20636f6d706c65746520746865207075726368617365602082015250565b600061554a604083614720565b9150615555826154ee565b604082019050919050565b600060208201905081810360008301526155798161553d565b9050919050565b600081905092915050565b600061559682614715565b6155a08185615580565b93506155b0818560208601614731565b80840191505092915050565b60006155c8828561558b565b91506155d4828461558b565b91508190509392505050565b7f4f6e6c792074686520746f6b656e206f776e65722063616e20656e642074686560008201527f2061756374696f6e000000000000000000000000000000000000000000000000602082015250565b600061563c602883614720565b9150615647826155e0565b604082019050919050565b6000602082019050818103600083015261566b8161562f565b9050919050565b7f41756374696f6e206d7573742068617665206174206c65617374206f6e65206260008201527f6964000000000000000000000000000000000000000000000000000000000000602082015250565b60006156ce602283614720565b91506156d982615672565b604082019050919050565b600060208201905081810360008301526156fd816156c1565b9050919050565b7f5072696365206d75737420626520657175616c20746f206c697374696e67207060008201527f7269636500000000000000000000000000000000000000000000000000000000602082015250565b6000615760602483614720565b915061576b82615704565b604082019050919050565b6000602082019050818103600083015261578f81615753565b9050919050565b60008190508160005260206000209050919050565b60006020601f8301049050919050565b600082821b905092915050565b6000600883026157f87fffffffffffffffffffffffffffffffffffffffffffffffffffffffffffffffff826157bb565b61580286836157bb565b95508019841693508086168417925050509392505050565b6000819050919050565b600061583f61583a615835846147c7565b61581a565b6147c7565b9050919050565b6000819050919050565b61585983615824565b61586d61586582615846565b8484546157c8565b825550505050565b600090565b615882615875565b61588d818484615850565b505050565b5b818110156158b1576158a660008261587a565b600181019050615893565b5050565b601f8211156158f6576158c781615796565b6158d0846157ab565b810160208510156158df578190505b6158f36158eb856157ab565b830182615892565b50505b505050565b600082821c905092915050565b6000615919600019846008026158fb565b1980831691505092915050565b60006159328383615908565b9150826002028217905092915050565b61594b82614715565b67ffffffffffffffff81111561596457615963614b98565b5b61596e8254614fb1565b6159798282856158b5565b600060209050601f8311600181146159ac576000841561599a578287015190505b6159a48582615926565b865550615a0c565b601f1984166159ba86615796565b60005b828110156159e2578489015182556001820191506020850194506020810190506159bd565b868310156159ff57848901516159fb601f891682615908565b8355505b6001600288020188555050505b505050505050565b7f5072696365206d757374206265206174206c6561737420312077656900000000600082015250565b6000615a4a601c83614720565b9150615a5582615a14565b602082019050919050565b60006020820190508181036000830152615a7981615a3d565b9050919050565b600061014082019050615a96600083018d61485c565b615aa3602083018c61485c565b615ab0604083018b614ae4565b615abd606083018a6146eb565b615aca60808301896146eb565b615ad760a0830188614ae4565b615ae460c0830187614ae4565b615af160e083018661485c565b615aff610100830185614ae4565b615b0d6101208301846146eb565b9b9a5050505050505050505050565b600081519050919050565b600082825260208201905092915050565b6000615b4382615b1c565b615b4d8185615b27565b9350615b5d818560208601614731565b615b668161475b565b840191505092915050565b6000608082019050615b86600083018761485c565b615b93602083018661485c565b615ba06040830185614ae4565b8181036060830152615bb28184615b38565b905095945050505050565b600081519050615bcc81614686565b92915050565b600060208284031215615be857615be7614650565b5b6000615bf684828501615bbd565b91505092915050565b6000604082019050615c14600083018561485c565b615c216020830184614ae4565b9392505050565b7f4e487b7100000000000000000000000000000000000000000000000000000000600052601260045260246000fdfea26469706673582212202a0c17622c25dab879839531af9eb166df22802c2908c8cbf8ad5cb860647a4964736f6c63430008140033",
  "linkReferences": {},
  "deployedLinkReferences": {}
}