{
  "_format": "hh-sol-artifact-1",
  "contractName": "NFTMarketplace",
  "sourceName": "contracts/NFTMarketplace.sol",
  "abi": [
    {
      "inputs": [],
      "stateMutability": "nonpayable",
      "type": "constructor"
    },
    {
      "inputs": [
        {
          "internalType": "address",
          "name": "sender",
          "type": "address"
        },
        {
          "internalType": "uint256",
          "name": "tokenId",
          "type": "uint256"
        },
        {
          "internalType": "address",
          "name": "owner",
          "type": "address"
        }
      ],
      "name": "ERC721IncorrectOwner",
      "type": "error"
    },
    {
      "inputs": [
        {
          "internalType": "address",
          "name": "operator",
          "type": "address"
        },
        {
          "internalType": "uint256",
          "name": "tokenId",
          "type": "uint256"
        }
      ],
      "name": "ERC721InsufficientApproval",
      "type": "error"
    },
    {
      "inputs": [
        {
          "internalType": "address",
          "name": "approver",
          "type": "address"
        }
      ],
      "name": "ERC721InvalidApprover",
      "type": "error"
    },
    {
      "inputs": [
        {
          "internalType": "address",
          "name": "operator",
          "type": "address"
        }
      ],
      "name": "ERC721InvalidOperator",
      "type": "error"
    },
    {
      "inputs": [
        {
          "internalType": "address",
          "name": "owner",
          "type": "address"
        }
      ],
      "name": "ERC721InvalidOwner",
      "type": "error"
    },
    {
      "inputs": [
        {
          "internalType": "address",
          "name": "receiver",
          "type": "address"
        }
      ],
      "name": "ERC721InvalidReceiver",
      "type": "error"
    },
    {
      "inputs": [
        {
          "internalType": "address",
          "name": "sender",
          "type": "address"
        }
      ],
      "name": "ERC721InvalidSender",
      "type": "error"
    },
    {
      "inputs": [
        {
          "internalType": "uint256",
          "name": "tokenId",
          "type": "uint256"
        }
      ],
      "name": "ERC721NonexistentToken",
      "type": "error"
    },
    {
      "anonymous": false,
      "inputs": [
        {
          "indexed": true,
          "internalType": "address",
          "name": "owner",
          "type": "address"
        },
        {
          "indexed": true,
          "internalType": "address",
          "name": "approved",
          "type": "address"
        },
        {
          "indexed": true,
          "internalType": "uint256",
          "name": "tokenId",
          "type": "uint256"
        }
      ],
      "name": "Approval",
      "type": "event"
    },
    {
      "anonymous": false,
      "inputs": [
        {
          "indexed": true,
          "internalType": "address",
          "name": "owner",
          "type": "address"
        },
        {
          "indexed": true,
          "internalType": "address",
          "name": "operator",
          "type": "address"
        },
        {
          "indexed": false,
          "internalType": "bool",
          "name": "approved",
          "type": "bool"
        }
      ],
      "name": "ApprovalForAll",
      "type": "event"
    },
    {
      "anonymous": false,
      "inputs": [
        {
          "indexed": false,
          "internalType": "uint256",
          "name": "_fromTokenId",
          "type": "uint256"
        },
        {
          "indexed": false,
          "internalType": "uint256",
          "name": "_toTokenId",
          "type": "uint256"
        }
      ],
      "name": "BatchMetadataUpdate",
      "type": "event"
    },
    {
      "anonymous": false,
      "inputs": [
        {
          "indexed": true,
          "internalType": "uint256",
          "name": "tokenId",
          "type": "uint256"
        },
        {
          "indexed": false,
          "internalType": "address",
          "name": "seller",
          "type": "address"
        },
        {
          "indexed": false,
          "internalType": "address",
          "name": "owner",
          "type": "address"
        },
        {
          "indexed": false,
          "internalType": "uint256",
          "name": "price",
          "type": "uint256"
        },
        {
          "indexed": false,
          "internalType": "bool",
          "name": "sold",
          "type": "bool"
        },
        {
          "indexed": false,
          "internalType": "bool",
          "name": "directSold",
          "type": "bool"
        },
        {
          "indexed": false,
          "internalType": "uint256",
          "name": "startTime",
          "type": "uint256"
        },
        {
          "indexed": false,
          "internalType": "uint256",
          "name": "endTime",
          "type": "uint256"
        },
        {
          "indexed": false,
          "internalType": "address",
          "name": "highestBidder",
          "type": "address"
        },
        {
          "indexed": false,
          "internalType": "uint256",
          "name": "highestBid",
          "type": "uint256"
        },
        {
          "indexed": false,
          "internalType": "bool",
          "name": "auctionCompleted",
          "type": "bool"
        }
      ],
      "name": "MarketItemCreated",
      "type": "event"
    },
    {
      "anonymous": false,
      "inputs": [
        {
          "indexed": false,
          "internalType": "uint256",
          "name": "_tokenId",
          "type": "uint256"
        }
      ],
      "name": "MetadataUpdate",
      "type": "event"
    },
    {
      "anonymous": false,
      "inputs": [
        {
          "indexed": true,
          "internalType": "address",
          "name": "from",
          "type": "address"
        },
        {
          "indexed": true,
          "internalType": "address",
          "name": "to",
          "type": "address"
        },
        {
          "indexed": true,
          "internalType": "uint256",
          "name": "tokenId",
          "type": "uint256"
        }
      ],
      "name": "Transfer",
      "type": "event"
    },
    {
      "inputs": [
        {
          "internalType": "address",
          "name": "to",
          "type": "address"
        },
        {
          "internalType": "uint256",
          "name": "tokenId",
          "type": "uint256"
        }
      ],
      "name": "approve",
      "outputs": [],
      "stateMutability": "nonpayable",
      "type": "function"
    },
    {
      "inputs": [
        {
          "internalType": "address",
          "name": "owner",
          "type": "address"
        }
      ],
      "name": "balanceOf",
      "outputs": [
        {
          "internalType": "uint256",
          "name": "",
          "type": "uint256"
        }
      ],
      "stateMutability": "view",
      "type": "function"
    },
    {
      "inputs": [
        {
          "internalType": "uint256",
          "name": "tokenId",
          "type": "uint256"
        }
      ],
      "name": "cancelAuction",
      "outputs": [],
      "stateMutability": "payable",
      "type": "function"
    },
    {
      "inputs": [
        {
          "internalType": "uint256",
          "name": "tokenId",
          "type": "uint256"
        }
      ],
      "name": "cancelSelling",
      "outputs": [],
      "stateMutability": "payable",
      "type": "function"
    },
    {
      "inputs": [
        {
          "internalType": "uint256",
          "name": "tokenId",
          "type": "uint256"
        }
      ],
      "name": "createMarketSale",
      "outputs": [],
      "stateMutability": "payable",
      "type": "function"
    },
    {
      "inputs": [
        {
          "internalType": "string",
          "name": "tokenURI",
          "type": "string"
        },
        {
          "internalType": "uint256",
          "name": "price",
          "type": "uint256"
        }
      ],
      "name": "createToken",
      "outputs": [
        {
          "internalType": "uint256",
          "name": "",
          "type": "uint256"
        }
      ],
      "stateMutability": "payable",
      "type": "function"
    },
    {
      "inputs": [],
      "name": "fetchAuctionItems",
      "outputs": [
        {
          "components": [
            {
              "internalType": "uint256",
              "name": "tokenId",
              "type": "uint256"
            },
            {
              "internalType": "address payable",
              "name": "seller",
              "type": "address"
            },
            {
              "internalType": "address payable",
              "name": "owner",
              "type": "address"
            },
            {
              "internalType": "uint256",
              "name": "price",
              "type": "uint256"
            },
            {
              "internalType": "bool",
              "name": "sold",
              "type": "bool"
            },
            {
              "internalType": "bool",
              "name": "directSold",
              "type": "bool"
            },
            {
              "internalType": "uint256",
              "name": "startTime",
              "type": "uint256"
            },
            {
              "internalType": "uint256",
              "name": "endTime",
              "type": "uint256"
            },
            {
              "internalType": "address payable",
              "name": "highestBidder",
              "type": "address"
            },
            {
              "internalType": "uint256",
              "name": "highestBid",
              "type": "uint256"
            },
            {
              "internalType": "bool",
              "name": "auctionCompleted",
              "type": "bool"
            }
          ],
          "internalType": "struct NFTMarketplace.MarketItem[]",
          "name": "",
          "type": "tuple[]"
        }
      ],
      "stateMutability": "view",
      "type": "function"
    },
    {
      "inputs": [],
      "name": "fetchItemsListed",
      "outputs": [
        {
          "components": [
            {
              "internalType": "uint256",
              "name": "tokenId",
              "type": "uint256"
            },
            {
              "internalType": "address payable",
              "name": "seller",
              "type": "address"
            },
            {
              "internalType": "address payable",
              "name": "owner",
              "type": "address"
            },
            {
              "internalType": "uint256",
              "name": "price",
              "type": "uint256"
            },
            {
              "internalType": "bool",
              "name": "sold",
              "type": "bool"
            },
            {
              "internalType": "bool",
              "name": "directSold",
              "type": "bool"
            },
            {
              "internalType": "uint256",
              "name": "startTime",
              "type": "uint256"
            },
            {
              "internalType": "uint256",
              "name": "endTime",
              "type": "uint256"
            },
            {
              "internalType": "address payable",
              "name": "highestBidder",
              "type": "address"
            },
            {
              "internalType": "uint256",
              "name": "highestBid",
              "type": "uint256"
            },
            {
              "internalType": "bool",
              "name": "auctionCompleted",
              "type": "bool"
            }
          ],
          "internalType": "struct NFTMarketplace.MarketItem[]",
          "name": "",
          "type": "tuple[]"
        }
      ],
      "stateMutability": "view",
      "type": "function"
    },
    {
      "inputs": [],
      "name": "fetchMarketItems",
      "outputs": [
        {
          "components": [
            {
              "internalType": "uint256",
              "name": "tokenId",
              "type": "uint256"
            },
            {
              "internalType": "address payable",
              "name": "seller",
              "type": "address"
            },
            {
              "internalType": "address payable",
              "name": "owner",
              "type": "address"
            },
            {
              "internalType": "uint256",
              "name": "price",
              "type": "uint256"
            },
            {
              "internalType": "bool",
              "name": "sold",
              "type": "bool"
            },
            {
              "internalType": "bool",
              "name": "directSold",
              "type": "bool"
            },
            {
              "internalType": "uint256",
              "name": "startTime",
              "type": "uint256"
            },
            {
              "internalType": "uint256",
              "name": "endTime",
              "type": "uint256"
            },
            {
              "internalType": "address payable",
              "name": "highestBidder",
              "type": "address"
            },
            {
              "internalType": "uint256",
              "name": "highestBid",
              "type": "uint256"
            },
            {
              "internalType": "bool",
              "name": "auctionCompleted",
              "type": "bool"
            }
          ],
          "internalType": "struct NFTMarketplace.MarketItem[]",
          "name": "",
          "type": "tuple[]"
        }
      ],
      "stateMutability": "view",
      "type": "function"
    },
    {
      "inputs": [],
      "name": "fetchMyNFTs",
      "outputs": [
        {
          "components": [
            {
              "internalType": "uint256",
              "name": "tokenId",
              "type": "uint256"
            },
            {
              "internalType": "address payable",
              "name": "seller",
              "type": "address"
            },
            {
              "internalType": "address payable",
              "name": "owner",
              "type": "address"
            },
            {
              "internalType": "uint256",
              "name": "price",
              "type": "uint256"
            },
            {
              "internalType": "bool",
              "name": "sold",
              "type": "bool"
            },
            {
              "internalType": "bool",
              "name": "directSold",
              "type": "bool"
            },
            {
              "internalType": "uint256",
              "name": "startTime",
              "type": "uint256"
            },
            {
              "internalType": "uint256",
              "name": "endTime",
              "type": "uint256"
            },
            {
              "internalType": "address payable",
              "name": "highestBidder",
              "type": "address"
            },
            {
              "internalType": "uint256",
              "name": "highestBid",
              "type": "uint256"
            },
            {
              "internalType": "bool",
              "name": "auctionCompleted",
              "type": "bool"
            }
          ],
          "internalType": "struct NFTMarketplace.MarketItem[]",
          "name": "",
          "type": "tuple[]"
        }
      ],
      "stateMutability": "view",
      "type": "function"
    },
    {
      "inputs": [
        {
          "internalType": "uint256",
          "name": "tokenId",
          "type": "uint256"
        }
      ],
      "name": "finishAuction",
      "outputs": [],
      "stateMutability": "payable",
      "type": "function"
    },
    {
      "inputs": [
        {
          "internalType": "uint256",
          "name": "tokenId",
          "type": "uint256"
        }
      ],
      "name": "getApproved",
      "outputs": [
        {
          "internalType": "address",
          "name": "",
          "type": "address"
        }
      ],
      "stateMutability": "view",
      "type": "function"
    },
    {
      "inputs": [],
      "name": "getListingPrice",
      "outputs": [
        {
          "internalType": "uint256",
          "name": "",
          "type": "uint256"
        }
      ],
      "stateMutability": "view",
      "type": "function"
    },
    {
      "inputs": [
        {
          "internalType": "address",
          "name": "owner",
          "type": "address"
        },
        {
          "internalType": "address",
          "name": "operator",
          "type": "address"
        }
      ],
      "name": "isApprovedForAll",
      "outputs": [
        {
          "internalType": "bool",
          "name": "",
          "type": "bool"
        }
      ],
      "stateMutability": "view",
      "type": "function"
    },
    {
      "inputs": [],
      "name": "name",
      "outputs": [
        {
          "internalType": "string",
          "name": "",
          "type": "string"
        }
      ],
      "stateMutability": "view",
      "type": "function"
    },
    {
      "inputs": [
        {
          "internalType": "uint256",
          "name": "tokenId",
          "type": "uint256"
        }
      ],
      "name": "ownerOf",
      "outputs": [
        {
          "internalType": "address",
          "name": "",
          "type": "address"
        }
      ],
      "stateMutability": "view",
      "type": "function"
    },
    {
      "inputs": [
        {
          "internalType": "uint256",
          "name": "tokenId",
          "type": "uint256"
        }
      ],
      "name": "placeBid",
      "outputs": [],
      "stateMutability": "payable",
      "type": "function"
    },
    {
      "inputs": [
        {
          "internalType": "uint256",
          "name": "tokenId",
          "type": "uint256"
        },
        {
          "internalType": "uint256",
          "name": "price",
          "type": "uint256"
        }
      ],
      "name": "resellToken",
      "outputs": [],
      "stateMutability": "payable",
      "type": "function"
    },
    {
      "inputs": [
        {
          "internalType": "address",
          "name": "from",
          "type": "address"
        },
        {
          "internalType": "address",
          "name": "to",
          "type": "address"
        },
        {
          "internalType": "uint256",
          "name": "tokenId",
          "type": "uint256"
        }
      ],
      "name": "safeTransferFrom",
      "outputs": [],
      "stateMutability": "nonpayable",
      "type": "function"
    },
    {
      "inputs": [
        {
          "internalType": "address",
          "name": "from",
          "type": "address"
        },
        {
          "internalType": "address",
          "name": "to",
          "type": "address"
        },
        {
          "internalType": "uint256",
          "name": "tokenId",
          "type": "uint256"
        },
        {
          "internalType": "bytes",
          "name": "data",
          "type": "bytes"
        }
      ],
      "name": "safeTransferFrom",
      "outputs": [],
      "stateMutability": "nonpayable",
      "type": "function"
    },
    {
      "inputs": [
        {
          "internalType": "address",
          "name": "operator",
          "type": "address"
        },
        {
          "internalType": "bool",
          "name": "approved",
          "type": "bool"
        }
      ],
      "name": "setApprovalForAll",
      "outputs": [],
      "stateMutability": "nonpayable",
      "type": "function"
    },
    {
      "inputs": [
        {
          "internalType": "uint256",
          "name": "tokenId",
          "type": "uint256"
        },
        {
          "internalType": "uint256",
          "name": "price",
          "type": "uint256"
        },
        {
          "internalType": "uint256",
          "name": "durations",
          "type": "uint256"
        }
      ],
      "name": "startAuction",
      "outputs": [],
      "stateMutability": "payable",
      "type": "function"
    },
    {
      "inputs": [
        {
          "internalType": "bytes4",
          "name": "interfaceId",
          "type": "bytes4"
        }
      ],
      "name": "supportsInterface",
      "outputs": [
        {
          "internalType": "bool",
          "name": "",
          "type": "bool"
        }
      ],
      "stateMutability": "view",
      "type": "function"
    },
    {
      "inputs": [],
      "name": "symbol",
      "outputs": [
        {
          "internalType": "string",
          "name": "",
          "type": "string"
        }
      ],
      "stateMutability": "view",
      "type": "function"
    },
    {
      "inputs": [
        {
          "internalType": "uint256",
          "name": "tokenId",
          "type": "uint256"
        }
      ],
      "name": "tokenURI",
      "outputs": [
        {
          "internalType": "string",
          "name": "",
          "type": "string"
        }
      ],
      "stateMutability": "view",
      "type": "function"
    },
    {
      "inputs": [
        {
          "internalType": "address",
          "name": "from",
          "type": "address"
        },
        {
          "internalType": "address",
          "name": "to",
          "type": "address"
        },
        {
          "internalType": "uint256",
          "name": "tokenId",
          "type": "uint256"
        }
      ],
      "name": "transferFrom",
      "outputs": [],
      "stateMutability": "nonpayable",
      "type": "function"
    },
    {
      "inputs": [
        {
          "internalType": "uint256",
          "name": "_listingPrice",
          "type": "uint256"
        }
      ],
      "name": "updateListingPrice",
      "outputs": [],
      "stateMutability": "payable",
      "type": "function"
    }
  ],
  "bytecode": "0x60806040526658d15e17628000600a553480156200001c57600080fd5b506040518060400160405280601081526020017f4d657461766572736520546f6b656e73000000000000000000000000000000008152506040518060400160405280600481526020017f4d4554540000000000000000000000000000000000000000000000000000000081525081600090816200009a919062000388565b508060019081620000ac919062000388565b50505033600b60006101000a81548173ffffffffffffffffffffffffffffffffffffffff021916908373ffffffffffffffffffffffffffffffffffffffff1602179055506000600781905550600060098190555060006008819055506200046f565b600081519050919050565b7f4e487b7100000000000000000000000000000000000000000000000000000000600052604160045260246000fd5b7f4e487b7100000000000000000000000000000000000000000000000000000000600052602260045260246000fd5b600060028204905060018216806200019057607f821691505b602082108103620001a657620001a562000148565b5b50919050565b60008190508160005260206000209050919050565b60006020601f8301049050919050565b600082821b905092915050565b600060088302620002107fffffffffffffffffffffffffffffffffffffffffffffffffffffffffffffffff82620001d1565b6200021c8683620001d1565b95508019841693508086168417925050509392505050565b6000819050919050565b6000819050919050565b600062000269620002636200025d8462000234565b6200023e565b62000234565b9050919050565b6000819050919050565b620002858362000248565b6200029d620002948262000270565b848454620001de565b825550505050565b600090565b620002b4620002a5565b620002c18184846200027a565b505050565b5b81811015620002e957620002dd600082620002aa565b600181019050620002c7565b5050565b601f82111562000338576200030281620001ac565b6200030d84620001c1565b810160208510156200031d578190505b620003356200032c85620001c1565b830182620002c6565b50505b505050565b600082821c905092915050565b60006200035d600019846008026200033d565b1980831691505092915050565b60006200037883836200034a565b9150826002028217905092915050565b62000393826200010e565b67ffffffffffffffff811115620003af57620003ae62000119565b5b620003bb825462000177565b620003c8828285620002ed565b600060209050601f831160018114620004005760008415620003eb578287015190505b620003f785826200036a565b86555062000467565b601f1984166200041086620001ac565b60005b828110156200043a5784890151825560018201915060208501945060208101905062000413565b868310156200045a578489015162000456601f8916826200034a565b8355505b6001600288020188555050505b505050505050565b615b78806200047f6000396000f3fe60806040526004361061019c5760003560e01c806370a08231116100ec578063ae677aa31161008a578063c87b56dd11610064578063c87b56dd14610567578063cf266ed0146105a4578063e219fc75146105c0578063e985e9c5146105dc5761019c565b8063ae677aa314610506578063b88d4fde14610522578063be9af5361461054b5761019c565b806395d89b41116100c657806395d89b411461047a57806396b5a755146104a55780639979ef45146104c1578063a22cb465146104dd5761019c565b806370a08231146103f157806372b3b6201461042e57806391e078bb1461045e5761019c565b8063202e37401161015957806342842e0e1161013357806342842e0e1461033557806345f8fa801461035e57806354d54e0a146103895780636352211e146103b45761019c565b8063202e3740146102c557806323b872dd146102f05780632f33df60146103195761019c565b806301ffc9a7146101a157806306fdde03146101de578063081812fc14610209578063095ea7b3146102465780630f08efe01461026f57806312e855851461029a575b600080fd5b3480156101ad57600080fd5b506101c860048036038101906101c3919061459d565b610619565b6040516101d591906145e5565b60405180910390f35b3480156101ea57600080fd5b506101f361067a565b6040516102009190614690565b60405180910390f35b34801561021557600080fd5b50610230600480360381019061022b91906146e8565b61070c565b60405161023d9190614756565b60405180910390f35b34801561025257600080fd5b5061026d6004803603810190610268919061479d565b610728565b005b34801561027b57600080fd5b5061028461073e565b60405161029191906149ad565b60405180910390f35b3480156102a657600080fd5b506102af610aae565b6040516102bc91906149de565b60405180910390f35b3480156102d157600080fd5b506102da610ab8565b6040516102e791906149ad565b60405180910390f35b3480156102fc57600080fd5b50610317600480360381019061031291906149f9565b610e48565b005b610333600480360381019061032e91906146e8565b610f4a565b005b34801561034157600080fd5b5061035c600480360381019061035791906149f9565b61106a565b005b34801561036a57600080fd5b5061037361108a565b60405161038091906149ad565b60405180910390f35b34801561039557600080fd5b5061039e61141a565b6040516103ab91906149ad565b60405180910390f35b3480156103c057600080fd5b506103db60048036038101906103d691906146e8565b61178a565b6040516103e89190614756565b60405180910390f35b3480156103fd57600080fd5b5061041860048036038101906104139190614a4c565b61179c565b60405161042591906149de565b60405180910390f35b61044860048036038101906104439190614bae565b611856565b60405161045591906149de565b60405180910390f35b61047860048036038101906104739190614c0a565b61189f565b005b34801561048657600080fd5b5061048f611cce565b60405161049c9190614690565b60405180910390f35b6104bf60048036038101906104ba91906146e8565b611d60565b005b6104db60048036038101906104d691906146e8565b612141565b005b3480156104e957600080fd5b5061050460048036038101906104ff9190614c89565b6125ec565b005b610520600480360381019061051b91906146e8565b612602565b005b34801561052e57600080fd5b5061054960048036038101906105449190614d6a565b61269c565b005b610565600480360381019061056091906146e8565b6126b9565b005b34801561057357600080fd5b5061058e600480360381019061058991906146e8565b6128ff565b60405161059b9190614690565b60405180910390f35b6105be60048036038101906105b991906146e8565b612a12565b005b6105da60048036038101906105d59190614ded565b612e60565b005b3480156105e857600080fd5b5061060360048036038101906105fe9190614e2d565b613092565b60405161061091906145e5565b60405180910390f35b6000634906490660e01b7bffffffffffffffffffffffffffffffffffffffffffffffffffffffff1916827bffffffffffffffffffffffffffffffffffffffffffffffffffffffff19161480610673575061067282613126565b5b9050919050565b60606000805461068990614e9c565b80601f01602080910402602001604051908101604052809291908181526020018280546106b590614e9c565b80156107025780601f106106d757610100808354040283529160200191610702565b820191906000526020600020905b8154815290600101906020018083116106e557829003601f168201915b5050505050905090565b600061071782613208565b5061072182613290565b9050919050565b61073a82826107356132cd565b6132d5565b5050565b606060006007549050600060085490506000808267ffffffffffffffff81111561076b5761076a614a83565b5b6040519080825280602002602001820160405280156107a457816020015b61079161448f565b8152602001906001900390816107895790505b50905060005b84811015610aa3573073ffffffffffffffffffffffffffffffffffffffff16600c60006001846107da9190614efc565b815260200190815260200160002060020160009054906101000a900473ffffffffffffffffffffffffffffffffffffffff1673ffffffffffffffffffffffffffffffffffffffff16148015610862575060011515600c600060018461083f9190614efc565b815260200190815260200160002060040160019054906101000a900460ff161515145b80156108a1575060001515600c600060018461087e9190614efc565b815260200190815260200160002060040160009054906101000a900460ff161515145b15610a905760006001826108b59190614efc565b90506000600c600083815260200190815260200160002090508060405180610160016040529081600082015481526020016001820160009054906101000a900473ffffffffffffffffffffffffffffffffffffffff1673ffffffffffffffffffffffffffffffffffffffff1673ffffffffffffffffffffffffffffffffffffffff1681526020016002820160009054906101000a900473ffffffffffffffffffffffffffffffffffffffff1673ffffffffffffffffffffffffffffffffffffffff1673ffffffffffffffffffffffffffffffffffffffff168152602001600382015481526020016004820160009054906101000a900460ff161515151581526020016004820160019054906101000a900460ff1615151515815260200160058201548152602001600682015481526020016007820160009054906101000a900473ffffffffffffffffffffffffffffffffffffffff1673ffffffffffffffffffffffffffffffffffffffff1673ffffffffffffffffffffffffffffffffffffffff168152602001600882015481526020016009820160009054906101000a900460ff161515151581525050848681518110610a7357610a72614f30565b5b6020026020010181905250600185610a8b9190614efc565b945050505b8080610a9b90614f5f565b9150506107aa565b508094505050505090565b6000600a54905090565b60606000600754905060008060005b83811015610b67573373ffffffffffffffffffffffffffffffffffffffff16600c6000600184610af79190614efc565b815260200190815260200160002060020160009054906101000a900473ffffffffffffffffffffffffffffffffffffffff1673ffffffffffffffffffffffffffffffffffffffff1603610b5457600183610b519190614efc565b92505b8080610b5f90614f5f565b915050610ac7565b5060008267ffffffffffffffff811115610b8457610b83614a83565b5b604051908082528060200260200182016040528015610bbd57816020015b610baa61448f565b815260200190600190039081610ba25790505b50905060005b84811015610e3d573373ffffffffffffffffffffffffffffffffffffffff16600c6000600184610bf39190614efc565b815260200190815260200160002060020160009054906101000a900473ffffffffffffffffffffffffffffffffffffffff1673ffffffffffffffffffffffffffffffffffffffff1603610e2a576000600182610c4f9190614efc565b90506000600c600083815260200190815260200160002090508060405180610160016040529081600082015481526020016001820160009054906101000a900473ffffffffffffffffffffffffffffffffffffffff1673ffffffffffffffffffffffffffffffffffffffff1673ffffffffffffffffffffffffffffffffffffffff1681526020016002820160009054906101000a900473ffffffffffffffffffffffffffffffffffffffff1673ffffffffffffffffffffffffffffffffffffffff1673ffffffffffffffffffffffffffffffffffffffff168152602001600382015481526020016004820160009054906101000a900460ff161515151581526020016004820160019054906101000a900460ff1615151515815260200160058201548152602001600682015481526020016007820160009054906101000a900473ffffffffffffffffffffffffffffffffffffffff1673ffffffffffffffffffffffffffffffffffffffff1673ffffffffffffffffffffffffffffffffffffffff168152602001600882015481526020016009820160009054906101000a900460ff161515151581525050848681518110610e0d57610e0c614f30565b5b6020026020010181905250600185610e259190614efc565b945050505b8080610e3590614f5f565b915050610bc3565b508094505050505090565b600073ffffffffffffffffffffffffffffffffffffffff168273ffffffffffffffffffffffffffffffffffffffff1603610eba5760006040517f64a0ae92000000000000000000000000000000000000000000000000000000008152600401610eb19190614756565b60405180910390fd5b6000610ece8383610ec96132cd565b6132e7565b90508373ffffffffffffffffffffffffffffffffffffffff168173ffffffffffffffffffffffffffffffffffffffff1614610f44578382826040517f64283d7b000000000000000000000000000000000000000000000000000000008152600401610f3b93929190614fa7565b60405180910390fd5b50505050565b600c600082815260200190815260200160002060020160009054906101000a900473ffffffffffffffffffffffffffffffffffffffff1673ffffffffffffffffffffffffffffffffffffffff163373ffffffffffffffffffffffffffffffffffffffff1614610fee576040517f08c379a0000000000000000000000000000000000000000000000000000000008152600401610fe59061502a565b60405180910390fd5b600860008154809291906110019061504a565b9190505550611011303383613501565b6000600c600083815260200190815260200160002060010160006101000a81548173ffffffffffffffffffffffffffffffffffffffff021916908373ffffffffffffffffffffffffffffffffffffffff16021790555050565b6110858383836040518060200160405280600081525061269c565b505050565b60606000600754905060008060005b83811015611139573373ffffffffffffffffffffffffffffffffffffffff16600c60006001846110c99190614efc565b815260200190815260200160002060010160009054906101000a900473ffffffffffffffffffffffffffffffffffffffff1673ffffffffffffffffffffffffffffffffffffffff1603611126576001836111239190614efc565b92505b808061113190614f5f565b915050611099565b5060008267ffffffffffffffff81111561115657611155614a83565b5b60405190808252806020026020018201604052801561118f57816020015b61117c61448f565b8152602001906001900390816111745790505b50905060005b8481101561140f573373ffffffffffffffffffffffffffffffffffffffff16600c60006001846111c59190614efc565b815260200190815260200160002060010160009054906101000a900473ffffffffffffffffffffffffffffffffffffffff1673ffffffffffffffffffffffffffffffffffffffff16036113fc5760006001826112219190614efc565b90506000600c600083815260200190815260200160002090508060405180610160016040529081600082015481526020016001820160009054906101000a900473ffffffffffffffffffffffffffffffffffffffff1673ffffffffffffffffffffffffffffffffffffffff1673ffffffffffffffffffffffffffffffffffffffff1681526020016002820160009054906101000a900473ffffffffffffffffffffffffffffffffffffffff1673ffffffffffffffffffffffffffffffffffffffff1673ffffffffffffffffffffffffffffffffffffffff168152602001600382015481526020016004820160009054906101000a900460ff161515151581526020016004820160019054906101000a900460ff1615151515815260200160058201548152602001600682015481526020016007820160009054906101000a900473ffffffffffffffffffffffffffffffffffffffff1673ffffffffffffffffffffffffffffffffffffffff1673ffffffffffffffffffffffffffffffffffffffff168152602001600882015481526020016009820160009054906101000a900460ff1615151515815250508486815181106113df576113de614f30565b5b60200260200101819052506001856113f79190614efc565b945050505b808061140790614f5f565b915050611195565b508094505050505090565b606060006007549050600060095490506000808267ffffffffffffffff81111561144757611446614a83565b5b60405190808252806020026020018201604052801561148057816020015b61146d61448f565b8152602001906001900390816114655790505b50905060005b8481101561177f573073ffffffffffffffffffffffffffffffffffffffff16600c60006001846114b69190614efc565b815260200190815260200160002060020160009054906101000a900473ffffffffffffffffffffffffffffffffffffffff1673ffffffffffffffffffffffffffffffffffffffff1614801561153e575060001515600c600060018461151b9190614efc565b815260200190815260200160002060040160019054906101000a900460ff161515145b801561157d575060001515600c600060018461155a9190614efc565b815260200190815260200160002060040160009054906101000a900460ff161515145b1561176c5760006001826115919190614efc565b90506000600c600083815260200190815260200160002090508060405180610160016040529081600082015481526020016001820160009054906101000a900473ffffffffffffffffffffffffffffffffffffffff1673ffffffffffffffffffffffffffffffffffffffff1673ffffffffffffffffffffffffffffffffffffffff1681526020016002820160009054906101000a900473ffffffffffffffffffffffffffffffffffffffff1673ffffffffffffffffffffffffffffffffffffffff1673ffffffffffffffffffffffffffffffffffffffff168152602001600382015481526020016004820160009054906101000a900460ff161515151581526020016004820160019054906101000a900460ff1615151515815260200160058201548152602001600682015481526020016007820160009054906101000a900473ffffffffffffffffffffffffffffffffffffffff1673ffffffffffffffffffffffffffffffffffffffff1673ffffffffffffffffffffffffffffffffffffffff168152602001600882015481526020016009820160009054906101000a900460ff16151515158152505084868151811061174f5761174e614f30565b5b60200260200101819052506001856117679190614efc565b945050505b808061177790614f5f565b915050611486565b508094505050505090565b600061179582613208565b9050919050565b60008073ffffffffffffffffffffffffffffffffffffffff168273ffffffffffffffffffffffffffffffffffffffff160361180f5760006040517f89c62b640000000000000000000000000000000000000000000000000000000081526004016118069190614756565b60405180910390fd5b600360008373ffffffffffffffffffffffffffffffffffffffff1673ffffffffffffffffffffffffffffffffffffffff168152602001908152602001600020549050919050565b60006007600081548092919061186b90614f5f565b919050555060006007549050611881338261366e565b61188b8185613767565b61189581846137c3565b8091505092915050565b6000600c600085815260200190815260200160002090503373ffffffffffffffffffffffffffffffffffffffff16600c600086815260200190815260200160002060020160009054906101000a900473ffffffffffffffffffffffffffffffffffffffff1673ffffffffffffffffffffffffffffffffffffffff161461195a576040517f08c379a0000000000000000000000000000000000000000000000000000000008152600401611951906150e5565b60405180910390fd5b60008160040160016101000a81548160ff02191690831515021790555060008160090160006101000a81548160ff021916908315150217905550338160070160006101000a81548173ffffffffffffffffffffffffffffffffffffffff021916908373ffffffffffffffffffffffffffffffffffffffff160217905550828160080181905550338160010160006101000a81548173ffffffffffffffffffffffffffffffffffffffff021916908373ffffffffffffffffffffffffffffffffffffffff160217905550308160020160006101000a81548173ffffffffffffffffffffffffffffffffffffffff021916908373ffffffffffffffffffffffffffffffffffffffff1602179055504281600501819055508142611a7b9190614efc565b816006018190555060008160040160006101000a81548160ff02191690831515021790555060096000815480929190611ab390614f5f565b919050555080600c6000868152602001908152602001600020600082015481600001556001820160009054906101000a900473ffffffffffffffffffffffffffffffffffffffff168160010160006101000a81548173ffffffffffffffffffffffffffffffffffffffff021916908373ffffffffffffffffffffffffffffffffffffffff1602179055506002820160009054906101000a900473ffffffffffffffffffffffffffffffffffffffff168160020160006101000a81548173ffffffffffffffffffffffffffffffffffffffff021916908373ffffffffffffffffffffffffffffffffffffffff160217905550600382015481600301556004820160009054906101000a900460ff168160040160006101000a81548160ff0219169083151502179055506004820160019054906101000a900460ff168160040160016101000a81548160ff02191690831515021790555060058201548160050155600682015481600601556007820160009054906101000a900473ffffffffffffffffffffffffffffffffffffffff168160070160006101000a81548173ffffffffffffffffffffffffffffffffffffffff021916908373ffffffffffffffffffffffffffffffffffffffff160217905550600882015481600801556009820160009054906101000a900460ff168160090160006101000a81548160ff021916908315150217905550905050611cc8333086613501565b50505050565b606060018054611cdd90614e9c565b80601f0160208091040260200160405190810160405280929190818152602001828054611d0990614e9c565b8015611d565780601f10611d2b57610100808354040283529160200191611d56565b820191906000526020600020905b815481529060010190602001808311611d3957829003601f168201915b5050505050905090565b6000600c600083815260200190815260200160002090508060020160009054906101000a900473ffffffffffffffffffffffffffffffffffffffff1673ffffffffffffffffffffffffffffffffffffffff163373ffffffffffffffffffffffffffffffffffffffff1614611e09576040517f08c379a0000000000000000000000000000000000000000000000000000000008152600401611e0090615151565b60405180910390fd5b60096000815480929190611e1c9061504a565b9190505550600073ffffffffffffffffffffffffffffffffffffffff168160070160009054906101000a900473ffffffffffffffffffffffffffffffffffffffff1673ffffffffffffffffffffffffffffffffffffffff1614611ee9578060070160009054906101000a900473ffffffffffffffffffffffffffffffffffffffff1673ffffffffffffffffffffffffffffffffffffffff166108fc82600801549081150290604051600060405180830381858888f19350505050158015611ee7573d6000803e3d6000fd5b505b60008160010160006101000a81548173ffffffffffffffffffffffffffffffffffffffff021916908373ffffffffffffffffffffffffffffffffffffffff160217905550611f38303384613501565b80600c6000848152602001908152602001600020600082015481600001556001820160009054906101000a900473ffffffffffffffffffffffffffffffffffffffff168160010160006101000a81548173ffffffffffffffffffffffffffffffffffffffff021916908373ffffffffffffffffffffffffffffffffffffffff1602179055506002820160009054906101000a900473ffffffffffffffffffffffffffffffffffffffff168160020160006101000a81548173ffffffffffffffffffffffffffffffffffffffff021916908373ffffffffffffffffffffffffffffffffffffffff160217905550600382015481600301556004820160009054906101000a900460ff168160040160006101000a81548160ff0219169083151502179055506004820160019054906101000a900460ff168160040160016101000a81548160ff02191690831515021790555060058201548160050155600682015481600601556007820160009054906101000a900473ffffffffffffffffffffffffffffffffffffffff168160070160006101000a81548173ffffffffffffffffffffffffffffffffffffffff021916908373ffffffffffffffffffffffffffffffffffffffff160217905550600882015481600801556009820160009054906101000a900460ff168160090160006101000a81548160ff0219169083151502179055509050505050565b6000600c600083815260200190815260200160002090508060080154341161219e576040517f08c379a0000000000000000000000000000000000000000000000000000000008152600401612195906151e3565b60405180910390fd5b80600501544210156121e5576040517f08c379a00000000000000000000000000000000000000000000000000000000081526004016121dc9061524f565b60405180910390fd5b8060090160009054906101000a900460ff1615612237576040517f08c379a000000000000000000000000000000000000000000000000000000000815260040161222e906152bb565b60405180910390fd5b3373ffffffffffffffffffffffffffffffffffffffff168160070160009054906101000a900473ffffffffffffffffffffffffffffffffffffffff1673ffffffffffffffffffffffffffffffffffffffff16036122c9576040517f08c379a00000000000000000000000000000000000000000000000000000000081526004016122c090615327565b60405180910390fd5b600073ffffffffffffffffffffffffffffffffffffffff168160070160009054906101000a900473ffffffffffffffffffffffffffffffffffffffff1673ffffffffffffffffffffffffffffffffffffffff16146123975760008160070160009054906101000a900473ffffffffffffffffffffffffffffffffffffffff1690508073ffffffffffffffffffffffffffffffffffffffff166108fc83600801549081150290604051600060405180830381858888f19350505050158015612394573d6000803e3d6000fd5b50505b348160080181905550338160070160006101000a81548173ffffffffffffffffffffffffffffffffffffffff021916908373ffffffffffffffffffffffffffffffffffffffff16021790555080600c6000848152602001908152602001600020600082015481600001556001820160009054906101000a900473ffffffffffffffffffffffffffffffffffffffff168160010160006101000a81548173ffffffffffffffffffffffffffffffffffffffff021916908373ffffffffffffffffffffffffffffffffffffffff1602179055506002820160009054906101000a900473ffffffffffffffffffffffffffffffffffffffff168160020160006101000a81548173ffffffffffffffffffffffffffffffffffffffff021916908373ffffffffffffffffffffffffffffffffffffffff160217905550600382015481600301556004820160009054906101000a900460ff168160040160006101000a81548160ff0219169083151502179055506004820160019054906101000a900460ff168160040160016101000a81548160ff02191690831515021790555060058201548160050155600682015481600601556007820160009054906101000a900473ffffffffffffffffffffffffffffffffffffffff168160070160006101000a81548173ffffffffffffffffffffffffffffffffffffffff021916908373ffffffffffffffffffffffffffffffffffffffff160217905550600882015481600801556009820160009054906101000a900460ff168160090160006101000a81548160ff0219169083151502179055509050505050565b6125fe6125f76132cd565b8383613ad7565b5050565b3373ffffffffffffffffffffffffffffffffffffffff16600b60009054906101000a900473ffffffffffffffffffffffffffffffffffffffff1673ffffffffffffffffffffffffffffffffffffffff1614612692576040517f08c379a0000000000000000000000000000000000000000000000000000000008152600401612689906153b9565b60405180910390fd5b80600a8190555050565b6126a7848484610e48565b6126b384848484613c46565b50505050565b6000600c6000838152602001908152602001600020600301549050803414612716576040517f08c379a000000000000000000000000000000000000000000000000000000000815260040161270d9061544b565b60405180910390fd5b33600c600084815260200190815260200160002060020160006101000a81548173ffffffffffffffffffffffffffffffffffffffff021916908373ffffffffffffffffffffffffffffffffffffffff1602179055506001600c600084815260200190815260200160002060040160006101000a81548160ff021916908315150217905550600860008154809291906127ad9061504a565b91905055506127bd303384613501565b600b60009054906101000a900473ffffffffffffffffffffffffffffffffffffffff1673ffffffffffffffffffffffffffffffffffffffff166108fc600a549081150290604051600060405180830381858888f19350505050158015612827573d6000803e3d6000fd5b50600c600083815260200190815260200160002060010160009054906101000a900473ffffffffffffffffffffffffffffffffffffffff1673ffffffffffffffffffffffffffffffffffffffff166108fc349081150290604051600060405180830381858888f193505050501580156128a4573d6000803e3d6000fd5b506000600c600084815260200190815260200160002060010160006101000a81548173ffffffffffffffffffffffffffffffffffffffff021916908373ffffffffffffffffffffffffffffffffffffffff1602179055505050565b606061290a82613208565b50600060066000848152602001908152602001600020805461292b90614e9c565b80601f016020809104026020016040519081016040528092919081815260200182805461295790614e9c565b80156129a45780601f10612979576101008083540402835291602001916129a4565b820191906000526020600020905b81548152906001019060200180831161298757829003601f168201915b5050505050905060006129b5613dfd565b905060008151036129ca578192505050612a0d565b6000825111156129ff5780826040516020016129e79291906154a7565b60405160208183030381529060405292505050612a0d565b612a0884613e14565b925050505b919050565b6000600c600083815260200190815260200160002090508060010160009054906101000a900473ffffffffffffffffffffffffffffffffffffffff1673ffffffffffffffffffffffffffffffffffffffff163373ffffffffffffffffffffffffffffffffffffffff1614612abb576040517f08c379a0000000000000000000000000000000000000000000000000000000008152600401612ab29061553d565b60405180910390fd5b600073ffffffffffffffffffffffffffffffffffffffff168160070160009054906101000a900473ffffffffffffffffffffffffffffffffffffffff1673ffffffffffffffffffffffffffffffffffffffff1603612b4e576040517f08c379a0000000000000000000000000000000000000000000000000000000008152600401612b45906155cf565b60405180910390fd5b612b8f30600c600085815260200190815260200160002060070160009054906101000a900473ffffffffffffffffffffffffffffffffffffffff1684613501565b60018160090160006101000a81548160ff0219169083151502179055508060070160009054906101000a900473ffffffffffffffffffffffffffffffffffffffff168160020160006101000a81548173ffffffffffffffffffffffffffffffffffffffff021916908373ffffffffffffffffffffffffffffffffffffffff16021790555060008160010160006101000a81548173ffffffffffffffffffffffffffffffffffffffff021916908373ffffffffffffffffffffffffffffffffffffffff16021790555080600c6000848152602001908152602001600020600082015481600001556001820160009054906101000a900473ffffffffffffffffffffffffffffffffffffffff168160010160006101000a81548173ffffffffffffffffffffffffffffffffffffffff021916908373ffffffffffffffffffffffffffffffffffffffff1602179055506002820160009054906101000a900473ffffffffffffffffffffffffffffffffffffffff168160020160006101000a81548173ffffffffffffffffffffffffffffffffffffffff021916908373ffffffffffffffffffffffffffffffffffffffff160217905550600382015481600301556004820160009054906101000a900460ff168160040160006101000a81548160ff0219169083151502179055506004820160019054906101000a900460ff168160040160016101000a81548160ff02191690831515021790555060058201548160050155600682015481600601556007820160009054906101000a900473ffffffffffffffffffffffffffffffffffffffff168160070160006101000a81548173ffffffffffffffffffffffffffffffffffffffff021916908373ffffffffffffffffffffffffffffffffffffffff160217905550600882015481600801556009820160009054906101000a900460ff168160090160006101000a81548160ff0219169083151502179055509050505050565b3373ffffffffffffffffffffffffffffffffffffffff16600c600084815260200190815260200160002060020160009054906101000a900473ffffffffffffffffffffffffffffffffffffffff1673ffffffffffffffffffffffffffffffffffffffff1614612f04576040517f08c379a0000000000000000000000000000000000000000000000000000000008152600401612efb906150e5565b60405180910390fd5b600a543414612f48576040517f08c379a0000000000000000000000000000000000000000000000000000000008152600401612f3f90615661565b60405180910390fd5b6000600c600084815260200190815260200160002060040160006101000a81548160ff02191690831515021790555080600c60008481526020019081526020016000206003018190555033600c600084815260200190815260200160002060010160006101000a81548173ffffffffffffffffffffffffffffffffffffffff021916908373ffffffffffffffffffffffffffffffffffffffff16021790555030600c600084815260200190815260200160002060020160006101000a81548173ffffffffffffffffffffffffffffffffffffffff021916908373ffffffffffffffffffffffffffffffffffffffff1602179055506001600c600084815260200190815260200160002060040160016101000a81548160ff0219169083151502179055506008600081548092919061307e90614f5f565b919050555061308e333084613501565b5050565b6000600560008473ffffffffffffffffffffffffffffffffffffffff1673ffffffffffffffffffffffffffffffffffffffff16815260200190815260200160002060008373ffffffffffffffffffffffffffffffffffffffff1673ffffffffffffffffffffffffffffffffffffffff16815260200190815260200160002060009054906101000a900460ff16905092915050565b60007f80ac58cd000000000000000000000000000000000000000000000000000000007bffffffffffffffffffffffffffffffffffffffffffffffffffffffff1916827bffffffffffffffffffffffffffffffffffffffffffffffffffffffff191614806131f157507f5b5e139f000000000000000000000000000000000000000000000000000000007bffffffffffffffffffffffffffffffffffffffffffffffffffffffff1916827bffffffffffffffffffffffffffffffffffffffffffffffffffffffff1916145b80613201575061320082613e7d565b5b9050919050565b60008061321483613ee7565b9050600073ffffffffffffffffffffffffffffffffffffffff168173ffffffffffffffffffffffffffffffffffffffff160361328757826040517f7e27328900000000000000000000000000000000000000000000000000000000815260040161327e91906149de565b60405180910390fd5b80915050919050565b60006004600083815260200190815260200160002060009054906101000a900473ffffffffffffffffffffffffffffffffffffffff169050919050565b600033905090565b6132e28383836001613f24565b505050565b6000806132f384613ee7565b9050600073ffffffffffffffffffffffffffffffffffffffff168373ffffffffffffffffffffffffffffffffffffffff1614613335576133348184866140e9565b5b600073ffffffffffffffffffffffffffffffffffffffff168173ffffffffffffffffffffffffffffffffffffffff16146133c657613377600085600080613f24565b6001600360008373ffffffffffffffffffffffffffffffffffffffff1673ffffffffffffffffffffffffffffffffffffffff168152602001908152602001600020600082825403925050819055505b600073ffffffffffffffffffffffffffffffffffffffff168573ffffffffffffffffffffffffffffffffffffffff1614613449576001600360008773ffffffffffffffffffffffffffffffffffffffff1673ffffffffffffffffffffffffffffffffffffffff168152602001908152602001600020600082825401925050819055505b846002600086815260200190815260200160002060006101000a81548173ffffffffffffffffffffffffffffffffffffffff021916908373ffffffffffffffffffffffffffffffffffffffff160217905550838573ffffffffffffffffffffffffffffffffffffffff168273ffffffffffffffffffffffffffffffffffffffff167fddf252ad1be2c89b69c2b068fc378daa952ba7f163c4a11628f55a4df523b3ef60405160405180910390a4809150509392505050565b600073ffffffffffffffffffffffffffffffffffffffff168273ffffffffffffffffffffffffffffffffffffffff16036135735760006040517f64a0ae9200000000000000000000000000000000000000000000000000000000815260040161356a9190614756565b60405180910390fd5b6000613581838360006132e7565b9050600073ffffffffffffffffffffffffffffffffffffffff168173ffffffffffffffffffffffffffffffffffffffff16036135f457816040517f7e2732890000000000000000000000000000000000000000000000000000000081526004016135eb91906149de565b60405180910390fd5b8373ffffffffffffffffffffffffffffffffffffffff168173ffffffffffffffffffffffffffffffffffffffff1614613668578382826040517f64283d7b00000000000000000000000000000000000000000000000000000000815260040161365f93929190614fa7565b60405180910390fd5b50505050565b600073ffffffffffffffffffffffffffffffffffffffff168273ffffffffffffffffffffffffffffffffffffffff16036136e05760006040517f64a0ae920000000000000000000000000000000000000000000000000000000081526004016136d79190614756565b60405180910390fd5b60006136ee838360006132e7565b9050600073ffffffffffffffffffffffffffffffffffffffff168173ffffffffffffffffffffffffffffffffffffffff16146137625760006040517f73c6ac6e0000000000000000000000000000000000000000000000000000000081526004016137599190614756565b60405180910390fd5b505050565b80600660008481526020019081526020016000209081613787919061582d565b507ff8e1a15aba9398e019f0b49df1a4fde98ee17ae345cb5f6b5e2c27f5033e8ce7826040516137b791906149de565b60405180910390a15050565b60008111613806576040517f08c379a00000000000000000000000000000000000000000000000000000000081526004016137fd9061594b565b60405180910390fd5b600a54341461384a576040517f08c379a000000000000000000000000000000000000000000000000000000000815260040161384190615661565b60405180910390fd5b6040518061016001604052808381526020013373ffffffffffffffffffffffffffffffffffffffff1681526020013073ffffffffffffffffffffffffffffffffffffffff168152602001828152602001600015158152602001600115158152602001428152602001428152602001600073ffffffffffffffffffffffffffffffffffffffff16815260200182815260200160001515815250600c60008481526020019081526020016000206000820151816000015560208201518160010160006101000a81548173ffffffffffffffffffffffffffffffffffffffff021916908373ffffffffffffffffffffffffffffffffffffffff16021790555060408201518160020160006101000a81548173ffffffffffffffffffffffffffffffffffffffff021916908373ffffffffffffffffffffffffffffffffffffffff1602179055506060820151816003015560808201518160040160006101000a81548160ff02191690831515021790555060a08201518160040160016101000a81548160ff02191690831515021790555060c0820151816005015560e082015181600601556101008201518160070160006101000a81548173ffffffffffffffffffffffffffffffffffffffff021916908373ffffffffffffffffffffffffffffffffffffffff16021790555061012082015181600801556101408201518160090160006101000a81548160ff02191690831515021790555090505060086000815480929190613a7590614f5f565b9190505550613a85333084613501565b817ff28de24d294b42637634a7516b7c0a2384ab5c6f40d27c2c835bb0602083381c33308460006001424260008a6000604051613acb9a9998979695949392919061596b565b60405180910390a25050565b600073ffffffffffffffffffffffffffffffffffffffff168273ffffffffffffffffffffffffffffffffffffffff1603613b4857816040517f5b08ba18000000000000000000000000000000000000000000000000000000008152600401613b3f9190614756565b60405180910390fd5b80600560008573ffffffffffffffffffffffffffffffffffffffff1673ffffffffffffffffffffffffffffffffffffffff16815260200190815260200160002060008473ffffffffffffffffffffffffffffffffffffffff1673ffffffffffffffffffffffffffffffffffffffff16815260200190815260200160002060006101000a81548160ff0219169083151502179055508173ffffffffffffffffffffffffffffffffffffffff168373ffffffffffffffffffffffffffffffffffffffff167f17307eab39ab6107e8899845ad3d59bd9653f200f220920489ca2b5937696c3183604051613c3991906145e5565b60405180910390a3505050565b60008373ffffffffffffffffffffffffffffffffffffffff163b1115613df7578273ffffffffffffffffffffffffffffffffffffffff1663150b7a02613c8a6132cd565b8685856040518563ffffffff1660e01b8152600401613cac9493929190615a5c565b6020604051808303816000875af1925050508015613ce857506040513d601f19601f82011682018060405250810190613ce59190615abd565b60015b613d6c573d8060008114613d18576040519150601f19603f3d011682016040523d82523d6000602084013e613d1d565b606091505b506000815103613d6457836040517f64a0ae92000000000000000000000000000000000000000000000000000000008152600401613d5b9190614756565b60405180910390fd5b805181602001fd5b63150b7a0260e01b7bffffffffffffffffffffffffffffffffffffffffffffffffffffffff1916817bffffffffffffffffffffffffffffffffffffffffffffffffffffffff191614613df557836040517f64a0ae92000000000000000000000000000000000000000000000000000000008152600401613dec9190614756565b60405180910390fd5b505b50505050565b606060405180602001604052806000815250905090565b6060613e1f82613208565b506000613e2a613dfd565b90506000815111613e4a5760405180602001604052806000815250613e75565b80613e54846141ad565b604051602001613e659291906154a7565b6040516020818303038152906040525b915050919050565b60007f01ffc9a7000000000000000000000000000000000000000000000000000000007bffffffffffffffffffffffffffffffffffffffffffffffffffffffff1916827bffffffffffffffffffffffffffffffffffffffffffffffffffffffff1916149050919050565b60006002600083815260200190815260200160002060009054906101000a900473ffffffffffffffffffffffffffffffffffffffff169050919050565b8080613f5d5750600073ffffffffffffffffffffffffffffffffffffffff168273ffffffffffffffffffffffffffffffffffffffff1614155b15614091576000613f6d84613208565b9050600073ffffffffffffffffffffffffffffffffffffffff168373ffffffffffffffffffffffffffffffffffffffff1614158015613fd857508273ffffffffffffffffffffffffffffffffffffffff168173ffffffffffffffffffffffffffffffffffffffff1614155b8015613feb5750613fe98184613092565b155b1561402d57826040517fa9fbf51f0000000000000000000000000000000000000000000000000000000081526004016140249190614756565b60405180910390fd5b811561408f57838573ffffffffffffffffffffffffffffffffffffffff168273ffffffffffffffffffffffffffffffffffffffff167f8c5be1e5ebec7d5bd14f71427d1e84f3dd0314c0f7b2291e5b200ac8c7c3b92560405160405180910390a45b505b836004600085815260200190815260200160002060006101000a81548173ffffffffffffffffffffffffffffffffffffffff021916908373ffffffffffffffffffffffffffffffffffffffff16021790555050505050565b6140f483838361427b565b6141a857600073ffffffffffffffffffffffffffffffffffffffff168373ffffffffffffffffffffffffffffffffffffffff160361416957806040517f7e27328900000000000000000000000000000000000000000000000000000000815260040161416091906149de565b60405180910390fd5b81816040517f177e802f00000000000000000000000000000000000000000000000000000000815260040161419f929190615aea565b60405180910390fd5b505050565b6060600060016141bc8461433c565b01905060008167ffffffffffffffff8111156141db576141da614a83565b5b6040519080825280601f01601f19166020018201604052801561420d5781602001600182028036833780820191505090505b509050600082602001820190505b600115614270578080600190039150507f3031323334353637383961626364656600000000000000000000000000000000600a86061a8153600a858161426457614263615b13565b5b0494506000850361421b575b819350505050919050565b60008073ffffffffffffffffffffffffffffffffffffffff168373ffffffffffffffffffffffffffffffffffffffff161415801561433357508273ffffffffffffffffffffffffffffffffffffffff168473ffffffffffffffffffffffffffffffffffffffff1614806142f457506142f38484613092565b5b8061433257508273ffffffffffffffffffffffffffffffffffffffff1661431a83613290565b73ffffffffffffffffffffffffffffffffffffffff16145b5b90509392505050565b600080600090507a184f03e93ff9f4daa797ed6e38ed64bf6a1f010000000000000000831061439a577a184f03e93ff9f4daa797ed6e38ed64bf6a1f01000000000000000083816143905761438f615b13565b5b0492506040810190505b6d04ee2d6d415b85acef810000000083106143d7576d04ee2d6d415b85acef810000000083816143cd576143cc615b13565b5b0492506020810190505b662386f26fc10000831061440657662386f26fc1000083816143fc576143fb615b13565b5b0492506010810190505b6305f5e100831061442f576305f5e100838161442557614424615b13565b5b0492506008810190505b612710831061445457612710838161444a57614449615b13565b5b0492506004810190505b60648310614477576064838161446d5761446c615b13565b5b0492506002810190505b600a8310614486576001810190505b80915050919050565b60405180610160016040528060008152602001600073ffffffffffffffffffffffffffffffffffffffff168152602001600073ffffffffffffffffffffffffffffffffffffffff168152602001600081526020016000151581526020016000151581526020016000815260200160008152602001600073ffffffffffffffffffffffffffffffffffffffff168152602001600081526020016000151581525090565b6000604051905090565b600080fd5b600080fd5b60007fffffffff0000000000000000000000000000000000000000000000000000000082169050919050565b61457a81614545565b811461458557600080fd5b50565b60008135905061459781614571565b92915050565b6000602082840312156145b3576145b261453b565b5b60006145c184828501614588565b91505092915050565b60008115159050919050565b6145df816145ca565b82525050565b60006020820190506145fa60008301846145d6565b92915050565b600081519050919050565b600082825260208201905092915050565b60005b8381101561463a57808201518184015260208101905061461f565b60008484015250505050565b6000601f19601f8301169050919050565b600061466282614600565b61466c818561460b565b935061467c81856020860161461c565b61468581614646565b840191505092915050565b600060208201905081810360008301526146aa8184614657565b905092915050565b6000819050919050565b6146c5816146b2565b81146146d057600080fd5b50565b6000813590506146e2816146bc565b92915050565b6000602082840312156146fe576146fd61453b565b5b600061470c848285016146d3565b91505092915050565b600073ffffffffffffffffffffffffffffffffffffffff82169050919050565b600061474082614715565b9050919050565b61475081614735565b82525050565b600060208201905061476b6000830184614747565b92915050565b61477a81614735565b811461478557600080fd5b50565b60008135905061479781614771565b92915050565b600080604083850312156147b4576147b361453b565b5b60006147c285828601614788565b92505060206147d3858286016146d3565b9150509250929050565b600081519050919050565b600082825260208201905092915050565b6000819050602082019050919050565b614812816146b2565b82525050565b600061482382614715565b9050919050565b61483381614818565b82525050565b614842816145ca565b82525050565b6101608201600082015161485f6000850182614809565b506020820151614872602085018261482a565b506040820151614885604085018261482a565b5060608201516148986060850182614809565b5060808201516148ab6080850182614839565b5060a08201516148be60a0850182614839565b5060c08201516148d160c0850182614809565b5060e08201516148e460e0850182614809565b506101008201516148f961010085018261482a565b5061012082015161490e610120850182614809565b50610140820151614923610140850182614839565b50505050565b60006149358383614848565b6101608301905092915050565b6000602082019050919050565b600061495a826147dd565b61496481856147e8565b935061496f836147f9565b8060005b838110156149a05781516149878882614929565b975061499283614942565b925050600181019050614973565b5085935050505092915050565b600060208201905081810360008301526149c7818461494f565b905092915050565b6149d8816146b2565b82525050565b60006020820190506149f360008301846149cf565b92915050565b600080600060608486031215614a1257614a1161453b565b5b6000614a2086828701614788565b9350506020614a3186828701614788565b9250506040614a42868287016146d3565b9150509250925092565b600060208284031215614a6257614a6161453b565b5b6000614a7084828501614788565b91505092915050565b600080fd5b600080fd5b7f4e487b7100000000000000000000000000000000000000000000000000000000600052604160045260246000fd5b614abb82614646565b810181811067ffffffffffffffff82111715614ada57614ad9614a83565b5b80604052505050565b6000614aed614531565b9050614af98282614ab2565b919050565b600067ffffffffffffffff821115614b1957614b18614a83565b5b614b2282614646565b9050602081019050919050565b82818337600083830152505050565b6000614b51614b4c84614afe565b614ae3565b905082815260208101848484011115614b6d57614b6c614a7e565b5b614b78848285614b2f565b509392505050565b600082601f830112614b9557614b94614a79565b5b8135614ba5848260208601614b3e565b91505092915050565b60008060408385031215614bc557614bc461453b565b5b600083013567ffffffffffffffff811115614be357614be2614540565b5b614bef85828601614b80565b9250506020614c00858286016146d3565b9150509250929050565b600080600060608486031215614c2357614c2261453b565b5b6000614c31868287016146d3565b9350506020614c42868287016146d3565b9250506040614c53868287016146d3565b9150509250925092565b614c66816145ca565b8114614c7157600080fd5b50565b600081359050614c8381614c5d565b92915050565b60008060408385031215614ca057614c9f61453b565b5b6000614cae85828601614788565b9250506020614cbf85828601614c74565b9150509250929050565b600067ffffffffffffffff821115614ce457614ce3614a83565b5b614ced82614646565b9050602081019050919050565b6000614d0d614d0884614cc9565b614ae3565b905082815260208101848484011115614d2957614d28614a7e565b5b614d34848285614b2f565b509392505050565b600082601f830112614d5157614d50614a79565b5b8135614d61848260208601614cfa565b91505092915050565b60008060008060808587031215614d8457614d8361453b565b5b6000614d9287828801614788565b9450506020614da387828801614788565b9350506040614db4878288016146d3565b925050606085013567ffffffffffffffff811115614dd557614dd4614540565b5b614de187828801614d3c565b91505092959194509250565b60008060408385031215614e0457614e0361453b565b5b6000614e12858286016146d3565b9250506020614e23858286016146d3565b9150509250929050565b60008060408385031215614e4457614e4361453b565b5b6000614e5285828601614788565b9250506020614e6385828601614788565b9150509250929050565b7f4e487b7100000000000000000000000000000000000000000000000000000000600052602260045260246000fd5b60006002820490506001821680614eb457607f821691505b602082108103614ec757614ec6614e6d565b5b50919050565b7f4e487b7100000000000000000000000000000000000000000000000000000000600052601160045260246000fd5b6000614f07826146b2565b9150614f12836146b2565b9250828201905080821115614f2a57614f29614ecd565b5b92915050565b7f4e487b7100000000000000000000000000000000000000000000000000000000600052603260045260246000fd5b6000614f6a826146b2565b91507fffffffffffffffffffffffffffffffffffffffffffffffffffffffffffffffff8203614f9c57614f9b614ecd565b5b600182019050919050565b6000606082019050614fbc6000830186614747565b614fc960208301856149cf565b614fd66040830184614747565b949350505050565b7f4f6e6c79206f776e65722063616e2063616e63656c2073656c6c696e67000000600082015250565b6000615014601d8361460b565b915061501f82614fde565b602082019050919050565b6000602082019050818103600083015261504381615007565b9050919050565b6000615055826146b2565b91506000820361506857615067614ecd565b5b600182039050919050565b7f4f6e6c79206974656d206f776e65722063616e20706572666f726d207468697360008201527f206f7065726174696f6e00000000000000000000000000000000000000000000602082015250565b60006150cf602a8361460b565b91506150da82615073565b604082019050919050565b600060208201905081810360008301526150fe816150c2565b9050919050565b7f4f6e6c79206f776e65722063616e2063616e63656c2061756374696f6e000000600082015250565b600061513b601d8361460b565b915061514682615105565b602082019050919050565b6000602082019050818103600083015261516a8161512e565b9050919050565b7f426964206d7573742062652067726561746572207468616e206869676865737460008201527f2062696400000000000000000000000000000000000000000000000000000000602082015250565b60006151cd60248361460b565b91506151d882615171565b604082019050919050565b600060208201905081810360008301526151fc816151c0565b9050919050565b7f41756374696f6e206e6f74207965742073746172746564000000000000000000600082015250565b600061523960178361460b565b915061524482615203565b602082019050919050565b600060208201905081810360008301526152688161522c565b9050919050565b7f41756374696f6e20616c726561647920636f6d706c6574656400000000000000600082015250565b60006152a560198361460b565b91506152b08261526f565b602082019050919050565b600060208201905081810360008301526152d481615298565b9050919050565b7f43616e6e6f742062696420747769636520696e206120726f7700000000000000600082015250565b600061531160198361460b565b915061531c826152db565b602082019050919050565b6000602082019050818103600083015261534081615304565b9050919050565b7f4f6e6c79206d61726b6574706c616365206f776e65722063616e20757064617460008201527f65206c697374696e672070726963652e00000000000000000000000000000000602082015250565b60006153a360308361460b565b91506153ae82615347565b604082019050919050565b600060208201905081810360008301526153d281615396565b9050919050565b7f506c65617365207375626d6974207468652061736b696e67207072696365206960008201527f6e206f7264657220746f20636f6d706c65746520746865207075726368617365602082015250565b600061543560408361460b565b9150615440826153d9565b604082019050919050565b6000602082019050818103600083015261546481615428565b9050919050565b600081905092915050565b600061548182614600565b61548b818561546b565b935061549b81856020860161461c565b80840191505092915050565b60006154b38285615476565b91506154bf8284615476565b91508190509392505050565b7f4f6e6c792074686520746f6b656e206f776e65722063616e20656e642074686560008201527f2061756374696f6e000000000000000000000000000000000000000000000000602082015250565b600061552760288361460b565b9150615532826154cb565b604082019050919050565b600060208201905081810360008301526155568161551a565b9050919050565b7f41756374696f6e206d7573742068617665206174206c65617374206f6e65206260008201527f6964000000000000000000000000000000000000000000000000000000000000602082015250565b60006155b960228361460b565b91506155c48261555d565b604082019050919050565b600060208201905081810360008301526155e8816155ac565b9050919050565b7f5072696365206d75737420626520657175616c20746f206c697374696e67207060008201527f7269636500000000000000000000000000000000000000000000000000000000602082015250565b600061564b60248361460b565b9150615656826155ef565b604082019050919050565b6000602082019050818103600083015261567a8161563e565b9050919050565b60008190508160005260206000209050919050565b60006020601f8301049050919050565b600082821b905092915050565b6000600883026156e37fffffffffffffffffffffffffffffffffffffffffffffffffffffffffffffffff826156a6565b6156ed86836156a6565b95508019841693508086168417925050509392505050565b6000819050919050565b600061572a615725615720846146b2565b615705565b6146b2565b9050919050565b6000819050919050565b6157448361570f565b61575861575082615731565b8484546156b3565b825550505050565b600090565b61576d615760565b61577881848461573b565b505050565b5b8181101561579c57615791600082615765565b60018101905061577e565b5050565b601f8211156157e1576157b281615681565b6157bb84615696565b810160208510156157ca578190505b6157de6157d685615696565b83018261577d565b50505b505050565b600082821c905092915050565b6000615804600019846008026157e6565b1980831691505092915050565b600061581d83836157f3565b9150826002028217905092915050565b61583682614600565b67ffffffffffffffff81111561584f5761584e614a83565b5b6158598254614e9c565b6158648282856157a0565b600060209050601f8311600181146158975760008415615885578287015190505b61588f8582615811565b8655506158f7565b601f1984166158a586615681565b60005b828110156158cd578489015182556001820191506020850194506020810190506158a8565b868310156158ea57848901516158e6601f8916826157f3565b8355505b6001600288020188555050505b505050505050565b7f5072696365206d757374206265206174206c6561737420312077656900000000600082015250565b6000615935601c8361460b565b9150615940826158ff565b602082019050919050565b6000602082019050818103600083015261596481615928565b9050919050565b600061014082019050615981600083018d614747565b61598e602083018c614747565b61599b604083018b6149cf565b6159a8606083018a6145d6565b6159b560808301896145d6565b6159c260a08301886149cf565b6159cf60c08301876149cf565b6159dc60e0830186614747565b6159ea6101008301856149cf565b6159f86101208301846145d6565b9b9a5050505050505050505050565b600081519050919050565b600082825260208201905092915050565b6000615a2e82615a07565b615a388185615a12565b9350615a4881856020860161461c565b615a5181614646565b840191505092915050565b6000608082019050615a716000830187614747565b615a7e6020830186614747565b615a8b60408301856149cf565b8181036060830152615a9d8184615a23565b905095945050505050565b600081519050615ab781614571565b92915050565b600060208284031215615ad357615ad261453b565b5b6000615ae184828501615aa8565b91505092915050565b6000604082019050615aff6000830185614747565b615b0c60208301846149cf565b9392505050565b7f4e487b7100000000000000000000000000000000000000000000000000000000600052601260045260246000fdfea264697066735822122082f66182466213a7e00ba2532061c67ed9b4f859ee5c8061a6e5aed9f0714c0f64736f6c63430008140033",
  "linkReferences": {},
  "deployedLinkReferences": {}
}