{
  "_format": "hh-sol-artifact-1",
  "contractName": "NFTMarketplace",
  "sourceName": "contracts/NFTMarketplace.sol",
  "abi": [
    {
      "inputs": [],
      "stateMutability": "nonpayable",
      "type": "constructor"
    },
    {
      "inputs": [
        {
          "internalType": "address",
          "name": "sender",
          "type": "address"
        },
        {
          "internalType": "uint256",
          "name": "tokenId",
          "type": "uint256"
        },
        {
          "internalType": "address",
          "name": "owner",
          "type": "address"
        }
      ],
      "name": "ERC721IncorrectOwner",
      "type": "error"
    },
    {
      "inputs": [
        {
          "internalType": "address",
          "name": "operator",
          "type": "address"
        },
        {
          "internalType": "uint256",
          "name": "tokenId",
          "type": "uint256"
        }
      ],
      "name": "ERC721InsufficientApproval",
      "type": "error"
    },
    {
      "inputs": [
        {
          "internalType": "address",
          "name": "approver",
          "type": "address"
        }
      ],
      "name": "ERC721InvalidApprover",
      "type": "error"
    },
    {
      "inputs": [
        {
          "internalType": "address",
          "name": "operator",
          "type": "address"
        }
      ],
      "name": "ERC721InvalidOperator",
      "type": "error"
    },
    {
      "inputs": [
        {
          "internalType": "address",
          "name": "owner",
          "type": "address"
        }
      ],
      "name": "ERC721InvalidOwner",
      "type": "error"
    },
    {
      "inputs": [
        {
          "internalType": "address",
          "name": "receiver",
          "type": "address"
        }
      ],
      "name": "ERC721InvalidReceiver",
      "type": "error"
    },
    {
      "inputs": [
        {
          "internalType": "address",
          "name": "sender",
          "type": "address"
        }
      ],
      "name": "ERC721InvalidSender",
      "type": "error"
    },
    {
      "inputs": [
        {
          "internalType": "uint256",
          "name": "tokenId",
          "type": "uint256"
        }
      ],
      "name": "ERC721NonexistentToken",
      "type": "error"
    },
    {
      "anonymous": false,
      "inputs": [
        {
          "indexed": true,
          "internalType": "address",
          "name": "owner",
          "type": "address"
        },
        {
          "indexed": true,
          "internalType": "address",
          "name": "approved",
          "type": "address"
        },
        {
          "indexed": true,
          "internalType": "uint256",
          "name": "tokenId",
          "type": "uint256"
        }
      ],
      "name": "Approval",
      "type": "event"
    },
    {
      "anonymous": false,
      "inputs": [
        {
          "indexed": true,
          "internalType": "address",
          "name": "owner",
          "type": "address"
        },
        {
          "indexed": true,
          "internalType": "address",
          "name": "operator",
          "type": "address"
        },
        {
          "indexed": false,
          "internalType": "bool",
          "name": "approved",
          "type": "bool"
        }
      ],
      "name": "ApprovalForAll",
      "type": "event"
    },
    {
      "anonymous": false,
      "inputs": [
        {
          "indexed": false,
          "internalType": "uint256",
          "name": "_fromTokenId",
          "type": "uint256"
        },
        {
          "indexed": false,
          "internalType": "uint256",
          "name": "_toTokenId",
          "type": "uint256"
        }
      ],
      "name": "BatchMetadataUpdate",
      "type": "event"
    },
    {
      "anonymous": false,
      "inputs": [
        {
          "indexed": true,
          "internalType": "uint256",
          "name": "tokenId",
          "type": "uint256"
        },
        {
          "indexed": false,
          "internalType": "address",
          "name": "seller",
          "type": "address"
        },
        {
          "indexed": false,
          "internalType": "address",
          "name": "owner",
          "type": "address"
        },
        {
          "indexed": false,
          "internalType": "uint256",
          "name": "price",
          "type": "uint256"
        },
        {
          "indexed": false,
          "internalType": "bool",
          "name": "sold",
          "type": "bool"
        },
        {
          "indexed": false,
          "internalType": "bool",
          "name": "directSold",
          "type": "bool"
        },
        {
          "indexed": false,
          "internalType": "uint256",
          "name": "startTime",
          "type": "uint256"
        },
        {
          "indexed": false,
          "internalType": "uint256",
          "name": "endTime",
          "type": "uint256"
        },
        {
          "indexed": false,
          "internalType": "address",
          "name": "highestBidder",
          "type": "address"
        },
        {
          "indexed": false,
          "internalType": "uint256",
          "name": "highestBid",
          "type": "uint256"
        },
        {
          "indexed": false,
          "internalType": "bool",
          "name": "auctionCompleted",
          "type": "bool"
        }
      ],
      "name": "MarketItemCreated",
      "type": "event"
    },
    {
      "anonymous": false,
      "inputs": [
        {
          "indexed": false,
          "internalType": "uint256",
          "name": "_tokenId",
          "type": "uint256"
        }
      ],
      "name": "MetadataUpdate",
      "type": "event"
    },
    {
      "anonymous": false,
      "inputs": [
        {
          "indexed": true,
          "internalType": "address",
          "name": "from",
          "type": "address"
        },
        {
          "indexed": true,
          "internalType": "address",
          "name": "to",
          "type": "address"
        },
        {
          "indexed": true,
          "internalType": "uint256",
          "name": "tokenId",
          "type": "uint256"
        }
      ],
      "name": "Transfer",
      "type": "event"
    },
    {
      "inputs": [
        {
          "internalType": "address",
          "name": "to",
          "type": "address"
        },
        {
          "internalType": "uint256",
          "name": "tokenId",
          "type": "uint256"
        }
      ],
      "name": "approve",
      "outputs": [],
      "stateMutability": "nonpayable",
      "type": "function"
    },
    {
      "inputs": [
        {
          "internalType": "address",
          "name": "owner",
          "type": "address"
        }
      ],
      "name": "balanceOf",
      "outputs": [
        {
          "internalType": "uint256",
          "name": "",
          "type": "uint256"
        }
      ],
      "stateMutability": "view",
      "type": "function"
    },
    {
      "inputs": [
        {
          "internalType": "uint256",
          "name": "tokenId",
          "type": "uint256"
        }
      ],
      "name": "cancelAuction",
      "outputs": [],
      "stateMutability": "payable",
      "type": "function"
    },
    {
      "inputs": [
        {
          "internalType": "uint256",
          "name": "tokenId",
          "type": "uint256"
        }
      ],
      "name": "cancelSelling",
      "outputs": [],
      "stateMutability": "payable",
      "type": "function"
    },
    {
      "inputs": [
        {
          "internalType": "uint256",
          "name": "tokenId",
          "type": "uint256"
        }
      ],
      "name": "createMarketSale",
      "outputs": [],
      "stateMutability": "payable",
      "type": "function"
    },
    {
      "inputs": [
        {
          "internalType": "string",
          "name": "tokenURI",
          "type": "string"
        },
        {
          "internalType": "uint256",
          "name": "price",
          "type": "uint256"
        }
      ],
      "name": "createToken",
      "outputs": [
        {
          "internalType": "uint256",
          "name": "",
          "type": "uint256"
        }
      ],
      "stateMutability": "payable",
      "type": "function"
    },
    {
      "inputs": [],
      "name": "fetchAuctionItems",
      "outputs": [
        {
          "components": [
            {
              "internalType": "uint256",
              "name": "tokenId",
              "type": "uint256"
            },
            {
              "internalType": "address payable",
              "name": "seller",
              "type": "address"
            },
            {
              "internalType": "address payable",
              "name": "owner",
              "type": "address"
            },
            {
              "internalType": "uint256",
              "name": "price",
              "type": "uint256"
            },
            {
              "internalType": "bool",
              "name": "sold",
              "type": "bool"
            },
            {
              "internalType": "bool",
              "name": "directSold",
              "type": "bool"
            },
            {
              "internalType": "uint256",
              "name": "startTime",
              "type": "uint256"
            },
            {
              "internalType": "uint256",
              "name": "endTime",
              "type": "uint256"
            },
            {
              "internalType": "address payable",
              "name": "highestBidder",
              "type": "address"
            },
            {
              "internalType": "uint256",
              "name": "highestBid",
              "type": "uint256"
            },
            {
              "internalType": "bool",
              "name": "auctionCompleted",
              "type": "bool"
            }
          ],
          "internalType": "struct NFTMarketplace.MarketItem[]",
          "name": "",
          "type": "tuple[]"
        }
      ],
      "stateMutability": "view",
      "type": "function"
    },
    {
      "inputs": [],
      "name": "fetchItemsListed",
      "outputs": [
        {
          "components": [
            {
              "internalType": "uint256",
              "name": "tokenId",
              "type": "uint256"
            },
            {
              "internalType": "address payable",
              "name": "seller",
              "type": "address"
            },
            {
              "internalType": "address payable",
              "name": "owner",
              "type": "address"
            },
            {
              "internalType": "uint256",
              "name": "price",
              "type": "uint256"
            },
            {
              "internalType": "bool",
              "name": "sold",
              "type": "bool"
            },
            {
              "internalType": "bool",
              "name": "directSold",
              "type": "bool"
            },
            {
              "internalType": "uint256",
              "name": "startTime",
              "type": "uint256"
            },
            {
              "internalType": "uint256",
              "name": "endTime",
              "type": "uint256"
            },
            {
              "internalType": "address payable",
              "name": "highestBidder",
              "type": "address"
            },
            {
              "internalType": "uint256",
              "name": "highestBid",
              "type": "uint256"
            },
            {
              "internalType": "bool",
              "name": "auctionCompleted",
              "type": "bool"
            }
          ],
          "internalType": "struct NFTMarketplace.MarketItem[]",
          "name": "",
          "type": "tuple[]"
        }
      ],
      "stateMutability": "view",
      "type": "function"
    },
    {
      "inputs": [],
      "name": "fetchMarketItems",
      "outputs": [
        {
          "components": [
            {
              "internalType": "uint256",
              "name": "tokenId",
              "type": "uint256"
            },
            {
              "internalType": "address payable",
              "name": "seller",
              "type": "address"
            },
            {
              "internalType": "address payable",
              "name": "owner",
              "type": "address"
            },
            {
              "internalType": "uint256",
              "name": "price",
              "type": "uint256"
            },
            {
              "internalType": "bool",
              "name": "sold",
              "type": "bool"
            },
            {
              "internalType": "bool",
              "name": "directSold",
              "type": "bool"
            },
            {
              "internalType": "uint256",
              "name": "startTime",
              "type": "uint256"
            },
            {
              "internalType": "uint256",
              "name": "endTime",
              "type": "uint256"
            },
            {
              "internalType": "address payable",
              "name": "highestBidder",
              "type": "address"
            },
            {
              "internalType": "uint256",
              "name": "highestBid",
              "type": "uint256"
            },
            {
              "internalType": "bool",
              "name": "auctionCompleted",
              "type": "bool"
            }
          ],
          "internalType": "struct NFTMarketplace.MarketItem[]",
          "name": "",
          "type": "tuple[]"
        }
      ],
      "stateMutability": "view",
      "type": "function"
    },
    {
      "inputs": [],
      "name": "fetchMyNFTs",
      "outputs": [
        {
          "components": [
            {
              "internalType": "uint256",
              "name": "tokenId",
              "type": "uint256"
            },
            {
              "internalType": "address payable",
              "name": "seller",
              "type": "address"
            },
            {
              "internalType": "address payable",
              "name": "owner",
              "type": "address"
            },
            {
              "internalType": "uint256",
              "name": "price",
              "type": "uint256"
            },
            {
              "internalType": "bool",
              "name": "sold",
              "type": "bool"
            },
            {
              "internalType": "bool",
              "name": "directSold",
              "type": "bool"
            },
            {
              "internalType": "uint256",
              "name": "startTime",
              "type": "uint256"
            },
            {
              "internalType": "uint256",
              "name": "endTime",
              "type": "uint256"
            },
            {
              "internalType": "address payable",
              "name": "highestBidder",
              "type": "address"
            },
            {
              "internalType": "uint256",
              "name": "highestBid",
              "type": "uint256"
            },
            {
              "internalType": "bool",
              "name": "auctionCompleted",
              "type": "bool"
            }
          ],
          "internalType": "struct NFTMarketplace.MarketItem[]",
          "name": "",
          "type": "tuple[]"
        }
      ],
      "stateMutability": "view",
      "type": "function"
    },
    {
      "inputs": [
        {
          "internalType": "uint256",
          "name": "tokenId",
          "type": "uint256"
        }
      ],
      "name": "finishAuction",
      "outputs": [],
      "stateMutability": "payable",
      "type": "function"
    },
    {
      "inputs": [
        {
          "internalType": "uint256",
          "name": "tokenId",
          "type": "uint256"
        }
      ],
      "name": "getApproved",
      "outputs": [
        {
          "internalType": "address",
          "name": "",
          "type": "address"
        }
      ],
      "stateMutability": "view",
      "type": "function"
    },
    {
      "inputs": [],
      "name": "getListingPrice",
      "outputs": [
        {
          "internalType": "uint256",
          "name": "",
          "type": "uint256"
        }
      ],
      "stateMutability": "view",
      "type": "function"
    },
    {
      "inputs": [
        {
          "internalType": "uint256",
          "name": "tokenId",
          "type": "uint256"
        }
      ],
      "name": "getTimeEndOfAuction",
      "outputs": [
        {
          "internalType": "uint256",
          "name": "",
          "type": "uint256"
        }
      ],
      "stateMutability": "view",
      "type": "function"
    },
    {
      "inputs": [
        {
          "internalType": "address",
          "name": "owner",
          "type": "address"
        },
        {
          "internalType": "address",
          "name": "operator",
          "type": "address"
        }
      ],
      "name": "isApprovedForAll",
      "outputs": [
        {
          "internalType": "bool",
          "name": "",
          "type": "bool"
        }
      ],
      "stateMutability": "view",
      "type": "function"
    },
    {
      "inputs": [],
      "name": "name",
      "outputs": [
        {
          "internalType": "string",
          "name": "",
          "type": "string"
        }
      ],
      "stateMutability": "view",
      "type": "function"
    },
    {
      "inputs": [
        {
          "internalType": "uint256",
          "name": "tokenId",
          "type": "uint256"
        }
      ],
      "name": "ownerOf",
      "outputs": [
        {
          "internalType": "address",
          "name": "",
          "type": "address"
        }
      ],
      "stateMutability": "view",
      "type": "function"
    },
    {
      "inputs": [
        {
          "internalType": "uint256",
          "name": "tokenId",
          "type": "uint256"
        }
      ],
      "name": "placeBid",
      "outputs": [],
      "stateMutability": "payable",
      "type": "function"
    },
    {
      "inputs": [
        {
          "internalType": "uint256",
          "name": "tokenId",
          "type": "uint256"
        },
        {
          "internalType": "uint256",
          "name": "price",
          "type": "uint256"
        }
      ],
      "name": "resellToken",
      "outputs": [],
      "stateMutability": "payable",
      "type": "function"
    },
    {
      "inputs": [
        {
          "internalType": "address",
          "name": "from",
          "type": "address"
        },
        {
          "internalType": "address",
          "name": "to",
          "type": "address"
        },
        {
          "internalType": "uint256",
          "name": "tokenId",
          "type": "uint256"
        }
      ],
      "name": "safeTransferFrom",
      "outputs": [],
      "stateMutability": "nonpayable",
      "type": "function"
    },
    {
      "inputs": [
        {
          "internalType": "address",
          "name": "from",
          "type": "address"
        },
        {
          "internalType": "address",
          "name": "to",
          "type": "address"
        },
        {
          "internalType": "uint256",
          "name": "tokenId",
          "type": "uint256"
        },
        {
          "internalType": "bytes",
          "name": "data",
          "type": "bytes"
        }
      ],
      "name": "safeTransferFrom",
      "outputs": [],
      "stateMutability": "nonpayable",
      "type": "function"
    },
    {
      "inputs": [
        {
          "internalType": "address",
          "name": "operator",
          "type": "address"
        },
        {
          "internalType": "bool",
          "name": "approved",
          "type": "bool"
        }
      ],
      "name": "setApprovalForAll",
      "outputs": [],
      "stateMutability": "nonpayable",
      "type": "function"
    },
    {
      "inputs": [
        {
          "internalType": "uint256",
          "name": "tokenId",
          "type": "uint256"
        },
        {
          "internalType": "uint256",
          "name": "price",
          "type": "uint256"
        },
        {
          "internalType": "uint256",
          "name": "durations",
          "type": "uint256"
        }
      ],
      "name": "startAuction",
      "outputs": [],
      "stateMutability": "payable",
      "type": "function"
    },
    {
      "inputs": [
        {
          "internalType": "bytes4",
          "name": "interfaceId",
          "type": "bytes4"
        }
      ],
      "name": "supportsInterface",
      "outputs": [
        {
          "internalType": "bool",
          "name": "",
          "type": "bool"
        }
      ],
      "stateMutability": "view",
      "type": "function"
    },
    {
      "inputs": [],
      "name": "symbol",
      "outputs": [
        {
          "internalType": "string",
          "name": "",
          "type": "string"
        }
      ],
      "stateMutability": "view",
      "type": "function"
    },
    {
      "inputs": [
        {
          "internalType": "uint256",
          "name": "tokenId",
          "type": "uint256"
        }
      ],
      "name": "tokenURI",
      "outputs": [
        {
          "internalType": "string",
          "name": "",
          "type": "string"
        }
      ],
      "stateMutability": "view",
      "type": "function"
    },
    {
      "inputs": [
        {
          "internalType": "address",
          "name": "from",
          "type": "address"
        },
        {
          "internalType": "address",
          "name": "to",
          "type": "address"
        },
        {
          "internalType": "uint256",
          "name": "tokenId",
          "type": "uint256"
        }
      ],
      "name": "transferFrom",
      "outputs": [],
      "stateMutability": "nonpayable",
      "type": "function"
    },
    {
      "inputs": [
        {
          "internalType": "uint256",
          "name": "_listingPrice",
          "type": "uint256"
        }
      ],
      "name": "updateListingPrice",
      "outputs": [],
      "stateMutability": "payable",
      "type": "function"
    }
  ],
  "bytecode": "0x60806040526658d15e17628000600a553480156200001c57600080fd5b506040518060400160405280601081526020017f4d657461766572736520546f6b656e73000000000000000000000000000000008152506040518060400160405280600481526020017f4d4554540000000000000000000000000000000000000000000000000000000081525081600090816200009a919062000388565b508060019081620000ac919062000388565b50505033600b60006101000a81548173ffffffffffffffffffffffffffffffffffffffff021916908373ffffffffffffffffffffffffffffffffffffffff1602179055506000600781905550600060098190555060006008819055506200046f565b600081519050919050565b7f4e487b7100000000000000000000000000000000000000000000000000000000600052604160045260246000fd5b7f4e487b7100000000000000000000000000000000000000000000000000000000600052602260045260246000fd5b600060028204905060018216806200019057607f821691505b602082108103620001a657620001a562000148565b5b50919050565b60008190508160005260206000209050919050565b60006020601f8301049050919050565b600082821b905092915050565b600060088302620002107fffffffffffffffffffffffffffffffffffffffffffffffffffffffffffffffff82620001d1565b6200021c8683620001d1565b95508019841693508086168417925050509392505050565b6000819050919050565b6000819050919050565b600062000269620002636200025d8462000234565b6200023e565b62000234565b9050919050565b6000819050919050565b620002858362000248565b6200029d620002948262000270565b848454620001de565b825550505050565b600090565b620002b4620002a5565b620002c18184846200027a565b505050565b5b81811015620002e957620002dd600082620002aa565b600181019050620002c7565b5050565b601f82111562000338576200030281620001ac565b6200030d84620001c1565b810160208510156200031d578190505b620003356200032c85620001c1565b830182620002c6565b50505b505050565b600082821c905092915050565b60006200035d600019846008026200033d565b1980831691505092915050565b60006200037883836200034a565b9150826002028217905092915050565b62000393826200010e565b67ffffffffffffffff811115620003af57620003ae62000119565b5b620003bb825462000177565b620003c8828285620002ed565b600060209050601f831160018114620004005760008415620003eb578287015190505b620003f785826200036a565b86555062000467565b601f1984166200041086620001ac565b60005b828110156200043a5784890151825560018201915060208501945060208101905062000413565b868310156200045a578489015162000456601f8916826200034a565b8355505b6001600288020188555050505b505050505050565b615d0d806200047f6000396000f3fe6080604052600436106101b75760003560e01c806372b3b620116100ec578063b88d4fde1161008a578063cf266ed011610064578063cf266ed0146105bf578063d12812c6146105db578063e219fc7514610618578063e985e9c514610634576101b7565b8063b88d4fde1461053d578063be9af53614610566578063c87b56dd14610582576101b7565b806396b5a755116100c657806396b5a755146104c05780639979ef45146104dc578063a22cb465146104f8578063ae677aa314610521576101b7565b806372b3b6201461044957806391e078bb1461047957806395d89b4114610495576101b7565b806323b872dd1161015957806345f8fa801161013357806345f8fa801461037957806354d54e0a146103a45780636352211e146103cf57806370a082311461040c576101b7565b806323b872dd1461030b5780632f33df601461033457806342842e0e14610350576101b7565b8063095ea7b311610195578063095ea7b3146102615780630f08efe01461028a57806312e85585146102b5578063202e3740146102e0576101b7565b806301ffc9a7146101bc57806306fdde03146101f9578063081812fc14610224575b600080fd5b3480156101c857600080fd5b506101e360048036038101906101de9190614732565b610671565b6040516101f0919061477a565b60405180910390f35b34801561020557600080fd5b5061020e6106d2565b60405161021b9190614825565b60405180910390f35b34801561023057600080fd5b5061024b6004803603810190610246919061487d565b610764565b60405161025891906148eb565b60405180910390f35b34801561026d57600080fd5b5061028860048036038101906102839190614932565b610780565b005b34801561029657600080fd5b5061029f610796565b6040516102ac9190614b42565b60405180910390f35b3480156102c157600080fd5b506102ca610b06565b6040516102d79190614b73565b60405180910390f35b3480156102ec57600080fd5b506102f5610b10565b6040516103029190614b42565b60405180910390f35b34801561031757600080fd5b50610332600480360381019061032d9190614b8e565b610ea0565b005b61034e6004803603810190610349919061487d565b610fa2565b005b34801561035c57600080fd5b5061037760048036038101906103729190614b8e565b611117565b005b34801561038557600080fd5b5061038e611137565b60405161039b9190614b42565b60405180910390f35b3480156103b057600080fd5b506103b9611547565b6040516103c69190614b42565b60405180910390f35b3480156103db57600080fd5b506103f660048036038101906103f1919061487d565b6118b7565b60405161040391906148eb565b60405180910390f35b34801561041857600080fd5b50610433600480360381019061042e9190614be1565b6118c9565b6040516104409190614b73565b60405180910390f35b610463600480360381019061045e9190614d43565b611983565b6040516104709190614b73565b60405180910390f35b610493600480360381019061048e9190614d9f565b6119cc565b005b3480156104a157600080fd5b506104aa611dfb565b6040516104b79190614825565b60405180910390f35b6104da60048036038101906104d5919061487d565b611e8d565b005b6104f660048036038101906104f1919061487d565b6122b1565b005b34801561050457600080fd5b5061051f600480360381019061051a9190614e1e565b61275c565b005b61053b6004803603810190610536919061487d565b612772565b005b34801561054957600080fd5b50610564600480360381019061055f9190614eff565b61280c565b005b610580600480360381019061057b919061487d565b612829565b005b34801561058e57600080fd5b506105a960048036038101906105a4919061487d565b612a6f565b6040516105b69190614825565b60405180910390f35b6105d960048036038101906105d4919061487d565b612b82565b005b3480156105e757600080fd5b5061060260048036038101906105fd919061487d565b612fd0565b60405161060f9190614b73565b60405180910390f35b610632600480360381019061062d9190614f82565b612ff5565b005b34801561064057600080fd5b5061065b60048036038101906106569190614fc2565b613227565b604051610668919061477a565b60405180910390f35b6000634906490660e01b7bffffffffffffffffffffffffffffffffffffffffffffffffffffffff1916827bffffffffffffffffffffffffffffffffffffffffffffffffffffffff191614806106cb57506106ca826132bb565b5b9050919050565b6060600080546106e190615031565b80601f016020809104026020016040519081016040528092919081815260200182805461070d90615031565b801561075a5780601f1061072f5761010080835404028352916020019161075a565b820191906000526020600020905b81548152906001019060200180831161073d57829003601f168201915b5050505050905090565b600061076f8261339d565b5061077982613425565b9050919050565b610792828261078d613462565b61346a565b5050565b606060006007549050600060085490506000808267ffffffffffffffff8111156107c3576107c2614c18565b5b6040519080825280602002602001820160405280156107fc57816020015b6107e9614624565b8152602001906001900390816107e15790505b50905060005b84811015610afb573073ffffffffffffffffffffffffffffffffffffffff16600c60006001846108329190615091565b815260200190815260200160002060020160009054906101000a900473ffffffffffffffffffffffffffffffffffffffff1673ffffffffffffffffffffffffffffffffffffffff161480156108ba575060011515600c60006001846108979190615091565b815260200190815260200160002060040160019054906101000a900460ff161515145b80156108f9575060001515600c60006001846108d69190615091565b815260200190815260200160002060040160009054906101000a900460ff161515145b15610ae857600060018261090d9190615091565b90506000600c600083815260200190815260200160002090508060405180610160016040529081600082015481526020016001820160009054906101000a900473ffffffffffffffffffffffffffffffffffffffff1673ffffffffffffffffffffffffffffffffffffffff1673ffffffffffffffffffffffffffffffffffffffff1681526020016002820160009054906101000a900473ffffffffffffffffffffffffffffffffffffffff1673ffffffffffffffffffffffffffffffffffffffff1673ffffffffffffffffffffffffffffffffffffffff168152602001600382015481526020016004820160009054906101000a900460ff161515151581526020016004820160019054906101000a900460ff1615151515815260200160058201548152602001600682015481526020016007820160009054906101000a900473ffffffffffffffffffffffffffffffffffffffff1673ffffffffffffffffffffffffffffffffffffffff1673ffffffffffffffffffffffffffffffffffffffff168152602001600882015481526020016009820160009054906101000a900460ff161515151581525050848681518110610acb57610aca6150c5565b5b6020026020010181905250600185610ae39190615091565b945050505b8080610af3906150f4565b915050610802565b508094505050505090565b6000600a54905090565b60606000600754905060008060005b83811015610bbf573373ffffffffffffffffffffffffffffffffffffffff16600c6000600184610b4f9190615091565b815260200190815260200160002060020160009054906101000a900473ffffffffffffffffffffffffffffffffffffffff1673ffffffffffffffffffffffffffffffffffffffff1603610bac57600183610ba99190615091565b92505b8080610bb7906150f4565b915050610b1f565b5060008267ffffffffffffffff811115610bdc57610bdb614c18565b5b604051908082528060200260200182016040528015610c1557816020015b610c02614624565b815260200190600190039081610bfa5790505b50905060005b84811015610e95573373ffffffffffffffffffffffffffffffffffffffff16600c6000600184610c4b9190615091565b815260200190815260200160002060020160009054906101000a900473ffffffffffffffffffffffffffffffffffffffff1673ffffffffffffffffffffffffffffffffffffffff1603610e82576000600182610ca79190615091565b90506000600c600083815260200190815260200160002090508060405180610160016040529081600082015481526020016001820160009054906101000a900473ffffffffffffffffffffffffffffffffffffffff1673ffffffffffffffffffffffffffffffffffffffff1673ffffffffffffffffffffffffffffffffffffffff1681526020016002820160009054906101000a900473ffffffffffffffffffffffffffffffffffffffff1673ffffffffffffffffffffffffffffffffffffffff1673ffffffffffffffffffffffffffffffffffffffff168152602001600382015481526020016004820160009054906101000a900460ff161515151581526020016004820160019054906101000a900460ff1615151515815260200160058201548152602001600682015481526020016007820160009054906101000a900473ffffffffffffffffffffffffffffffffffffffff1673ffffffffffffffffffffffffffffffffffffffff1673ffffffffffffffffffffffffffffffffffffffff168152602001600882015481526020016009820160009054906101000a900460ff161515151581525050848681518110610e6557610e646150c5565b5b6020026020010181905250600185610e7d9190615091565b945050505b8080610e8d906150f4565b915050610c1b565b508094505050505090565b600073ffffffffffffffffffffffffffffffffffffffff168273ffffffffffffffffffffffffffffffffffffffff1603610f125760006040517f64a0ae92000000000000000000000000000000000000000000000000000000008152600401610f0991906148eb565b60405180910390fd5b6000610f268383610f21613462565b61347c565b90508373ffffffffffffffffffffffffffffffffffffffff168173ffffffffffffffffffffffffffffffffffffffff1614610f9c578382826040517f64283d7b000000000000000000000000000000000000000000000000000000008152600401610f939392919061513c565b60405180910390fd5b50505050565b600c600082815260200190815260200160002060010160009054906101000a900473ffffffffffffffffffffffffffffffffffffffff1673ffffffffffffffffffffffffffffffffffffffff163373ffffffffffffffffffffffffffffffffffffffff1614611046576040517f08c379a000000000000000000000000000000000000000000000000000000000815260040161103d906151bf565b60405180910390fd5b60086000815480929190611059906151df565b9190505550611069303383613696565b33600c600083815260200190815260200160002060020160006101000a81548173ffffffffffffffffffffffffffffffffffffffff021916908373ffffffffffffffffffffffffffffffffffffffff1602179055506000600c600083815260200190815260200160002060010160006101000a81548173ffffffffffffffffffffffffffffffffffffffff021916908373ffffffffffffffffffffffffffffffffffffffff16021790555050565b6111328383836040518060200160405280600081525061280c565b505050565b60606000600754905060008060005b83811015611226573373ffffffffffffffffffffffffffffffffffffffff16600c60006001846111769190615091565b815260200190815260200160002060010160009054906101000a900473ffffffffffffffffffffffffffffffffffffffff1673ffffffffffffffffffffffffffffffffffffffff161480156111fe575060011515600c60006001846111db9190615091565b815260200190815260200160002060040160019054906101000a900460ff161515145b15611213576001836112109190615091565b92505b808061121e906150f4565b915050611146565b5060008267ffffffffffffffff81111561124357611242614c18565b5b60405190808252806020026020018201604052801561127c57816020015b611269614624565b8152602001906001900390816112615790505b50905060005b8481101561153c573373ffffffffffffffffffffffffffffffffffffffff16600c60006001846112b29190615091565b815260200190815260200160002060010160009054906101000a900473ffffffffffffffffffffffffffffffffffffffff1673ffffffffffffffffffffffffffffffffffffffff1614801561133a575060011515600c60006001846113179190615091565b815260200190815260200160002060040160019054906101000a900460ff161515145b1561152957600060018261134e9190615091565b90506000600c600083815260200190815260200160002090508060405180610160016040529081600082015481526020016001820160009054906101000a900473ffffffffffffffffffffffffffffffffffffffff1673ffffffffffffffffffffffffffffffffffffffff1673ffffffffffffffffffffffffffffffffffffffff1681526020016002820160009054906101000a900473ffffffffffffffffffffffffffffffffffffffff1673ffffffffffffffffffffffffffffffffffffffff1673ffffffffffffffffffffffffffffffffffffffff168152602001600382015481526020016004820160009054906101000a900460ff161515151581526020016004820160019054906101000a900460ff1615151515815260200160058201548152602001600682015481526020016007820160009054906101000a900473ffffffffffffffffffffffffffffffffffffffff1673ffffffffffffffffffffffffffffffffffffffff1673ffffffffffffffffffffffffffffffffffffffff168152602001600882015481526020016009820160009054906101000a900460ff16151515158152505084868151811061150c5761150b6150c5565b5b60200260200101819052506001856115249190615091565b945050505b8080611534906150f4565b915050611282565b508094505050505090565b606060006007549050600060095490506000808267ffffffffffffffff81111561157457611573614c18565b5b6040519080825280602002602001820160405280156115ad57816020015b61159a614624565b8152602001906001900390816115925790505b50905060005b848110156118ac573073ffffffffffffffffffffffffffffffffffffffff16600c60006001846115e39190615091565b815260200190815260200160002060020160009054906101000a900473ffffffffffffffffffffffffffffffffffffffff1673ffffffffffffffffffffffffffffffffffffffff1614801561166b575060001515600c60006001846116489190615091565b815260200190815260200160002060040160019054906101000a900460ff161515145b80156116aa575060001515600c60006001846116879190615091565b815260200190815260200160002060040160009054906101000a900460ff161515145b156118995760006001826116be9190615091565b90506000600c600083815260200190815260200160002090508060405180610160016040529081600082015481526020016001820160009054906101000a900473ffffffffffffffffffffffffffffffffffffffff1673ffffffffffffffffffffffffffffffffffffffff1673ffffffffffffffffffffffffffffffffffffffff1681526020016002820160009054906101000a900473ffffffffffffffffffffffffffffffffffffffff1673ffffffffffffffffffffffffffffffffffffffff1673ffffffffffffffffffffffffffffffffffffffff168152602001600382015481526020016004820160009054906101000a900460ff161515151581526020016004820160019054906101000a900460ff1615151515815260200160058201548152602001600682015481526020016007820160009054906101000a900473ffffffffffffffffffffffffffffffffffffffff1673ffffffffffffffffffffffffffffffffffffffff1673ffffffffffffffffffffffffffffffffffffffff168152602001600882015481526020016009820160009054906101000a900460ff16151515158152505084868151811061187c5761187b6150c5565b5b60200260200101819052506001856118949190615091565b945050505b80806118a4906150f4565b9150506115b3565b508094505050505090565b60006118c28261339d565b9050919050565b60008073ffffffffffffffffffffffffffffffffffffffff168273ffffffffffffffffffffffffffffffffffffffff160361193c5760006040517f89c62b6400000000000000000000000000000000000000000000000000000000815260040161193391906148eb565b60405180910390fd5b600360008373ffffffffffffffffffffffffffffffffffffffff1673ffffffffffffffffffffffffffffffffffffffff168152602001908152602001600020549050919050565b600060076000815480929190611998906150f4565b9190505550600060075490506119ae3382613803565b6119b881856138fc565b6119c28184613958565b8091505092915050565b6000600c600085815260200190815260200160002090503373ffffffffffffffffffffffffffffffffffffffff16600c600086815260200190815260200160002060020160009054906101000a900473ffffffffffffffffffffffffffffffffffffffff1673ffffffffffffffffffffffffffffffffffffffff1614611a87576040517f08c379a0000000000000000000000000000000000000000000000000000000008152600401611a7e9061527a565b60405180910390fd5b60008160040160016101000a81548160ff02191690831515021790555060008160090160006101000a81548160ff021916908315150217905550338160070160006101000a81548173ffffffffffffffffffffffffffffffffffffffff021916908373ffffffffffffffffffffffffffffffffffffffff160217905550828160080181905550338160010160006101000a81548173ffffffffffffffffffffffffffffffffffffffff021916908373ffffffffffffffffffffffffffffffffffffffff160217905550308160020160006101000a81548173ffffffffffffffffffffffffffffffffffffffff021916908373ffffffffffffffffffffffffffffffffffffffff1602179055504281600501819055508142611ba89190615091565b816006018190555060008160040160006101000a81548160ff02191690831515021790555060096000815480929190611be0906150f4565b919050555080600c6000868152602001908152602001600020600082015481600001556001820160009054906101000a900473ffffffffffffffffffffffffffffffffffffffff168160010160006101000a81548173ffffffffffffffffffffffffffffffffffffffff021916908373ffffffffffffffffffffffffffffffffffffffff1602179055506002820160009054906101000a900473ffffffffffffffffffffffffffffffffffffffff168160020160006101000a81548173ffffffffffffffffffffffffffffffffffffffff021916908373ffffffffffffffffffffffffffffffffffffffff160217905550600382015481600301556004820160009054906101000a900460ff168160040160006101000a81548160ff0219169083151502179055506004820160019054906101000a900460ff168160040160016101000a81548160ff02191690831515021790555060058201548160050155600682015481600601556007820160009054906101000a900473ffffffffffffffffffffffffffffffffffffffff168160070160006101000a81548173ffffffffffffffffffffffffffffffffffffffff021916908373ffffffffffffffffffffffffffffffffffffffff160217905550600882015481600801556009820160009054906101000a900460ff168160090160006101000a81548160ff021916908315150217905550905050611df5333086613696565b50505050565b606060018054611e0a90615031565b80601f0160208091040260200160405190810160405280929190818152602001828054611e3690615031565b8015611e835780601f10611e5857610100808354040283529160200191611e83565b820191906000526020600020905b815481529060010190602001808311611e6657829003601f168201915b5050505050905090565b6000600c600083815260200190815260200160002090508060010160009054906101000a900473ffffffffffffffffffffffffffffffffffffffff1673ffffffffffffffffffffffffffffffffffffffff163373ffffffffffffffffffffffffffffffffffffffff1614611f36576040517f08c379a0000000000000000000000000000000000000000000000000000000008152600401611f2d906152e6565b60405180910390fd5b60096000815480929190611f49906151df565b9190505550600073ffffffffffffffffffffffffffffffffffffffff168160070160009054906101000a900473ffffffffffffffffffffffffffffffffffffffff1673ffffffffffffffffffffffffffffffffffffffff1614612016578060070160009054906101000a900473ffffffffffffffffffffffffffffffffffffffff1673ffffffffffffffffffffffffffffffffffffffff166108fc82600801549081150290604051600060405180830381858888f19350505050158015612014573d6000803e3d6000fd5b505b338160020160006101000a81548173ffffffffffffffffffffffffffffffffffffffff021916908373ffffffffffffffffffffffffffffffffffffffff16021790555060008160010160006101000a81548173ffffffffffffffffffffffffffffffffffffffff021916908373ffffffffffffffffffffffffffffffffffffffff1602179055506120a8303384613696565b80600c6000848152602001908152602001600020600082015481600001556001820160009054906101000a900473ffffffffffffffffffffffffffffffffffffffff168160010160006101000a81548173ffffffffffffffffffffffffffffffffffffffff021916908373ffffffffffffffffffffffffffffffffffffffff1602179055506002820160009054906101000a900473ffffffffffffffffffffffffffffffffffffffff168160020160006101000a81548173ffffffffffffffffffffffffffffffffffffffff021916908373ffffffffffffffffffffffffffffffffffffffff160217905550600382015481600301556004820160009054906101000a900460ff168160040160006101000a81548160ff0219169083151502179055506004820160019054906101000a900460ff168160040160016101000a81548160ff02191690831515021790555060058201548160050155600682015481600601556007820160009054906101000a900473ffffffffffffffffffffffffffffffffffffffff168160070160006101000a81548173ffffffffffffffffffffffffffffffffffffffff021916908373ffffffffffffffffffffffffffffffffffffffff160217905550600882015481600801556009820160009054906101000a900460ff168160090160006101000a81548160ff0219169083151502179055509050505050565b6000600c600083815260200190815260200160002090508060080154341161230e576040517f08c379a000000000000000000000000000000000000000000000000000000000815260040161230590615378565b60405180910390fd5b8060050154421015612355576040517f08c379a000000000000000000000000000000000000000000000000000000000815260040161234c906153e4565b60405180910390fd5b8060090160009054906101000a900460ff16156123a7576040517f08c379a000000000000000000000000000000000000000000000000000000000815260040161239e90615450565b60405180910390fd5b3373ffffffffffffffffffffffffffffffffffffffff168160070160009054906101000a900473ffffffffffffffffffffffffffffffffffffffff1673ffffffffffffffffffffffffffffffffffffffff1603612439576040517f08c379a0000000000000000000000000000000000000000000000000000000008152600401612430906154bc565b60405180910390fd5b600073ffffffffffffffffffffffffffffffffffffffff168160070160009054906101000a900473ffffffffffffffffffffffffffffffffffffffff1673ffffffffffffffffffffffffffffffffffffffff16146125075760008160070160009054906101000a900473ffffffffffffffffffffffffffffffffffffffff1690508073ffffffffffffffffffffffffffffffffffffffff166108fc83600801549081150290604051600060405180830381858888f19350505050158015612504573d6000803e3d6000fd5b50505b348160080181905550338160070160006101000a81548173ffffffffffffffffffffffffffffffffffffffff021916908373ffffffffffffffffffffffffffffffffffffffff16021790555080600c6000848152602001908152602001600020600082015481600001556001820160009054906101000a900473ffffffffffffffffffffffffffffffffffffffff168160010160006101000a81548173ffffffffffffffffffffffffffffffffffffffff021916908373ffffffffffffffffffffffffffffffffffffffff1602179055506002820160009054906101000a900473ffffffffffffffffffffffffffffffffffffffff168160020160006101000a81548173ffffffffffffffffffffffffffffffffffffffff021916908373ffffffffffffffffffffffffffffffffffffffff160217905550600382015481600301556004820160009054906101000a900460ff168160040160006101000a81548160ff0219169083151502179055506004820160019054906101000a900460ff168160040160016101000a81548160ff02191690831515021790555060058201548160050155600682015481600601556007820160009054906101000a900473ffffffffffffffffffffffffffffffffffffffff168160070160006101000a81548173ffffffffffffffffffffffffffffffffffffffff021916908373ffffffffffffffffffffffffffffffffffffffff160217905550600882015481600801556009820160009054906101000a900460ff168160090160006101000a81548160ff0219169083151502179055509050505050565b61276e612767613462565b8383613c6c565b5050565b3373ffffffffffffffffffffffffffffffffffffffff16600b60009054906101000a900473ffffffffffffffffffffffffffffffffffffffff1673ffffffffffffffffffffffffffffffffffffffff1614612802576040517f08c379a00000000000000000000000000000000000000000000000000000000081526004016127f99061554e565b60405180910390fd5b80600a8190555050565b612817848484610ea0565b61282384848484613ddb565b50505050565b6000600c6000838152602001908152602001600020600301549050803414612886576040517f08c379a000000000000000000000000000000000000000000000000000000000815260040161287d906155e0565b60405180910390fd5b33600c600084815260200190815260200160002060020160006101000a81548173ffffffffffffffffffffffffffffffffffffffff021916908373ffffffffffffffffffffffffffffffffffffffff1602179055506001600c600084815260200190815260200160002060040160006101000a81548160ff0219169083151502179055506008600081548092919061291d906151df565b919050555061292d303384613696565b600b60009054906101000a900473ffffffffffffffffffffffffffffffffffffffff1673ffffffffffffffffffffffffffffffffffffffff166108fc600a549081150290604051600060405180830381858888f19350505050158015612997573d6000803e3d6000fd5b50600c600083815260200190815260200160002060010160009054906101000a900473ffffffffffffffffffffffffffffffffffffffff1673ffffffffffffffffffffffffffffffffffffffff166108fc349081150290604051600060405180830381858888f19350505050158015612a14573d6000803e3d6000fd5b506000600c600084815260200190815260200160002060010160006101000a81548173ffffffffffffffffffffffffffffffffffffffff021916908373ffffffffffffffffffffffffffffffffffffffff1602179055505050565b6060612a7a8261339d565b506000600660008481526020019081526020016000208054612a9b90615031565b80601f0160208091040260200160405190810160405280929190818152602001828054612ac790615031565b8015612b145780601f10612ae957610100808354040283529160200191612b14565b820191906000526020600020905b815481529060010190602001808311612af757829003601f168201915b505050505090506000612b25613f92565b90506000815103612b3a578192505050612b7d565b600082511115612b6f578082604051602001612b5792919061563c565b60405160208183030381529060405292505050612b7d565b612b7884613fa9565b925050505b919050565b6000600c600083815260200190815260200160002090508060010160009054906101000a900473ffffffffffffffffffffffffffffffffffffffff1673ffffffffffffffffffffffffffffffffffffffff163373ffffffffffffffffffffffffffffffffffffffff1614612c2b576040517f08c379a0000000000000000000000000000000000000000000000000000000008152600401612c22906156d2565b60405180910390fd5b600073ffffffffffffffffffffffffffffffffffffffff168160070160009054906101000a900473ffffffffffffffffffffffffffffffffffffffff1673ffffffffffffffffffffffffffffffffffffffff1603612cbe576040517f08c379a0000000000000000000000000000000000000000000000000000000008152600401612cb590615764565b60405180910390fd5b612cff30600c600085815260200190815260200160002060070160009054906101000a900473ffffffffffffffffffffffffffffffffffffffff1684613696565b60018160090160006101000a81548160ff0219169083151502179055508060070160009054906101000a900473ffffffffffffffffffffffffffffffffffffffff168160020160006101000a81548173ffffffffffffffffffffffffffffffffffffffff021916908373ffffffffffffffffffffffffffffffffffffffff16021790555060008160010160006101000a81548173ffffffffffffffffffffffffffffffffffffffff021916908373ffffffffffffffffffffffffffffffffffffffff16021790555080600c6000848152602001908152602001600020600082015481600001556001820160009054906101000a900473ffffffffffffffffffffffffffffffffffffffff168160010160006101000a81548173ffffffffffffffffffffffffffffffffffffffff021916908373ffffffffffffffffffffffffffffffffffffffff1602179055506002820160009054906101000a900473ffffffffffffffffffffffffffffffffffffffff168160020160006101000a81548173ffffffffffffffffffffffffffffffffffffffff021916908373ffffffffffffffffffffffffffffffffffffffff160217905550600382015481600301556004820160009054906101000a900460ff168160040160006101000a81548160ff0219169083151502179055506004820160019054906101000a900460ff168160040160016101000a81548160ff02191690831515021790555060058201548160050155600682015481600601556007820160009054906101000a900473ffffffffffffffffffffffffffffffffffffffff168160070160006101000a81548173ffffffffffffffffffffffffffffffffffffffff021916908373ffffffffffffffffffffffffffffffffffffffff160217905550600882015481600801556009820160009054906101000a900460ff168160090160006101000a81548160ff0219169083151502179055509050505050565b600080600c600084815260200190815260200160002090508060060154915050919050565b3373ffffffffffffffffffffffffffffffffffffffff16600c600084815260200190815260200160002060020160009054906101000a900473ffffffffffffffffffffffffffffffffffffffff1673ffffffffffffffffffffffffffffffffffffffff1614613099576040517f08c379a00000000000000000000000000000000000000000000000000000000081526004016130909061527a565b60405180910390fd5b600a5434146130dd576040517f08c379a00000000000000000000000000000000000000000000000000000000081526004016130d4906157f6565b60405180910390fd5b6000600c600084815260200190815260200160002060040160006101000a81548160ff02191690831515021790555080600c60008481526020019081526020016000206003018190555033600c600084815260200190815260200160002060010160006101000a81548173ffffffffffffffffffffffffffffffffffffffff021916908373ffffffffffffffffffffffffffffffffffffffff16021790555030600c600084815260200190815260200160002060020160006101000a81548173ffffffffffffffffffffffffffffffffffffffff021916908373ffffffffffffffffffffffffffffffffffffffff1602179055506001600c600084815260200190815260200160002060040160016101000a81548160ff02191690831515021790555060086000815480929190613213906150f4565b9190505550613223333084613696565b5050565b6000600560008473ffffffffffffffffffffffffffffffffffffffff1673ffffffffffffffffffffffffffffffffffffffff16815260200190815260200160002060008373ffffffffffffffffffffffffffffffffffffffff1673ffffffffffffffffffffffffffffffffffffffff16815260200190815260200160002060009054906101000a900460ff16905092915050565b60007f80ac58cd000000000000000000000000000000000000000000000000000000007bffffffffffffffffffffffffffffffffffffffffffffffffffffffff1916827bffffffffffffffffffffffffffffffffffffffffffffffffffffffff1916148061338657507f5b5e139f000000000000000000000000000000000000000000000000000000007bffffffffffffffffffffffffffffffffffffffffffffffffffffffff1916827bffffffffffffffffffffffffffffffffffffffffffffffffffffffff1916145b80613396575061339582614012565b5b9050919050565b6000806133a98361407c565b9050600073ffffffffffffffffffffffffffffffffffffffff168173ffffffffffffffffffffffffffffffffffffffff160361341c57826040517f7e2732890000000000000000000000000000000000000000000000000000000081526004016134139190614b73565b60405180910390fd5b80915050919050565b60006004600083815260200190815260200160002060009054906101000a900473ffffffffffffffffffffffffffffffffffffffff169050919050565b600033905090565b61347783838360016140b9565b505050565b6000806134888461407c565b9050600073ffffffffffffffffffffffffffffffffffffffff168373ffffffffffffffffffffffffffffffffffffffff16146134ca576134c981848661427e565b5b600073ffffffffffffffffffffffffffffffffffffffff168173ffffffffffffffffffffffffffffffffffffffff161461355b5761350c6000856000806140b9565b6001600360008373ffffffffffffffffffffffffffffffffffffffff1673ffffffffffffffffffffffffffffffffffffffff168152602001908152602001600020600082825403925050819055505b600073ffffffffffffffffffffffffffffffffffffffff168573ffffffffffffffffffffffffffffffffffffffff16146135de576001600360008773ffffffffffffffffffffffffffffffffffffffff1673ffffffffffffffffffffffffffffffffffffffff168152602001908152602001600020600082825401925050819055505b846002600086815260200190815260200160002060006101000a81548173ffffffffffffffffffffffffffffffffffffffff021916908373ffffffffffffffffffffffffffffffffffffffff160217905550838573ffffffffffffffffffffffffffffffffffffffff168273ffffffffffffffffffffffffffffffffffffffff167fddf252ad1be2c89b69c2b068fc378daa952ba7f163c4a11628f55a4df523b3ef60405160405180910390a4809150509392505050565b600073ffffffffffffffffffffffffffffffffffffffff168273ffffffffffffffffffffffffffffffffffffffff16036137085760006040517f64a0ae920000000000000000000000000000000000000000000000000000000081526004016136ff91906148eb565b60405180910390fd5b60006137168383600061347c565b9050600073ffffffffffffffffffffffffffffffffffffffff168173ffffffffffffffffffffffffffffffffffffffff160361378957816040517f7e2732890000000000000000000000000000000000000000000000000000000081526004016137809190614b73565b60405180910390fd5b8373ffffffffffffffffffffffffffffffffffffffff168173ffffffffffffffffffffffffffffffffffffffff16146137fd578382826040517f64283d7b0000000000000000000000000000000000000000000000000000000081526004016137f49392919061513c565b60405180910390fd5b50505050565b600073ffffffffffffffffffffffffffffffffffffffff168273ffffffffffffffffffffffffffffffffffffffff16036138755760006040517f64a0ae9200000000000000000000000000000000000000000000000000000000815260040161386c91906148eb565b60405180910390fd5b60006138838383600061347c565b9050600073ffffffffffffffffffffffffffffffffffffffff168173ffffffffffffffffffffffffffffffffffffffff16146138f75760006040517f73c6ac6e0000000000000000000000000000000000000000000000000000000081526004016138ee91906148eb565b60405180910390fd5b505050565b8060066000848152602001908152602001600020908161391c91906159c2565b507ff8e1a15aba9398e019f0b49df1a4fde98ee17ae345cb5f6b5e2c27f5033e8ce78260405161394c9190614b73565b60405180910390a15050565b6000811161399b576040517f08c379a000000000000000000000000000000000000000000000000000000000815260040161399290615ae0565b60405180910390fd5b600a5434146139df576040517f08c379a00000000000000000000000000000000000000000000000000000000081526004016139d6906157f6565b60405180910390fd5b6040518061016001604052808381526020013373ffffffffffffffffffffffffffffffffffffffff1681526020013073ffffffffffffffffffffffffffffffffffffffff168152602001828152602001600015158152602001600115158152602001428152602001428152602001600073ffffffffffffffffffffffffffffffffffffffff16815260200182815260200160001515815250600c60008481526020019081526020016000206000820151816000015560208201518160010160006101000a81548173ffffffffffffffffffffffffffffffffffffffff021916908373ffffffffffffffffffffffffffffffffffffffff16021790555060408201518160020160006101000a81548173ffffffffffffffffffffffffffffffffffffffff021916908373ffffffffffffffffffffffffffffffffffffffff1602179055506060820151816003015560808201518160040160006101000a81548160ff02191690831515021790555060a08201518160040160016101000a81548160ff02191690831515021790555060c0820151816005015560e082015181600601556101008201518160070160006101000a81548173ffffffffffffffffffffffffffffffffffffffff021916908373ffffffffffffffffffffffffffffffffffffffff16021790555061012082015181600801556101408201518160090160006101000a81548160ff02191690831515021790555090505060086000815480929190613c0a906150f4565b9190505550613c1a333084613696565b817ff28de24d294b42637634a7516b7c0a2384ab5c6f40d27c2c835bb0602083381c33308460006001424260008a6000604051613c609a99989796959493929190615b00565b60405180910390a25050565b600073ffffffffffffffffffffffffffffffffffffffff168273ffffffffffffffffffffffffffffffffffffffff1603613cdd57816040517f5b08ba18000000000000000000000000000000000000000000000000000000008152600401613cd491906148eb565b60405180910390fd5b80600560008573ffffffffffffffffffffffffffffffffffffffff1673ffffffffffffffffffffffffffffffffffffffff16815260200190815260200160002060008473ffffffffffffffffffffffffffffffffffffffff1673ffffffffffffffffffffffffffffffffffffffff16815260200190815260200160002060006101000a81548160ff0219169083151502179055508173ffffffffffffffffffffffffffffffffffffffff168373ffffffffffffffffffffffffffffffffffffffff167f17307eab39ab6107e8899845ad3d59bd9653f200f220920489ca2b5937696c3183604051613dce919061477a565b60405180910390a3505050565b60008373ffffffffffffffffffffffffffffffffffffffff163b1115613f8c578273ffffffffffffffffffffffffffffffffffffffff1663150b7a02613e1f613462565b8685856040518563ffffffff1660e01b8152600401613e419493929190615bf1565b6020604051808303816000875af1925050508015613e7d57506040513d601f19601f82011682018060405250810190613e7a9190615c52565b60015b613f01573d8060008114613ead576040519150601f19603f3d011682016040523d82523d6000602084013e613eb2565b606091505b506000815103613ef957836040517f64a0ae92000000000000000000000000000000000000000000000000000000008152600401613ef091906148eb565b60405180910390fd5b805181602001fd5b63150b7a0260e01b7bffffffffffffffffffffffffffffffffffffffffffffffffffffffff1916817bffffffffffffffffffffffffffffffffffffffffffffffffffffffff191614613f8a57836040517f64a0ae92000000000000000000000000000000000000000000000000000000008152600401613f8191906148eb565b60405180910390fd5b505b50505050565b606060405180602001604052806000815250905090565b6060613fb48261339d565b506000613fbf613f92565b90506000815111613fdf576040518060200160405280600081525061400a565b80613fe984614342565b604051602001613ffa92919061563c565b6040516020818303038152906040525b915050919050565b60007f01ffc9a7000000000000000000000000000000000000000000000000000000007bffffffffffffffffffffffffffffffffffffffffffffffffffffffff1916827bffffffffffffffffffffffffffffffffffffffffffffffffffffffff1916149050919050565b60006002600083815260200190815260200160002060009054906101000a900473ffffffffffffffffffffffffffffffffffffffff169050919050565b80806140f25750600073ffffffffffffffffffffffffffffffffffffffff168273ffffffffffffffffffffffffffffffffffffffff1614155b156142265760006141028461339d565b9050600073ffffffffffffffffffffffffffffffffffffffff168373ffffffffffffffffffffffffffffffffffffffff161415801561416d57508273ffffffffffffffffffffffffffffffffffffffff168173ffffffffffffffffffffffffffffffffffffffff1614155b8015614180575061417e8184613227565b155b156141c257826040517fa9fbf51f0000000000000000000000000000000000000000000000000000000081526004016141b991906148eb565b60405180910390fd5b811561422457838573ffffffffffffffffffffffffffffffffffffffff168273ffffffffffffffffffffffffffffffffffffffff167f8c5be1e5ebec7d5bd14f71427d1e84f3dd0314c0f7b2291e5b200ac8c7c3b92560405160405180910390a45b505b836004600085815260200190815260200160002060006101000a81548173ffffffffffffffffffffffffffffffffffffffff021916908373ffffffffffffffffffffffffffffffffffffffff16021790555050505050565b614289838383614410565b61433d57600073ffffffffffffffffffffffffffffffffffffffff168373ffffffffffffffffffffffffffffffffffffffff16036142fe57806040517f7e2732890000000000000000000000000000000000000000000000000000000081526004016142f59190614b73565b60405180910390fd5b81816040517f177e802f000000000000000000000000000000000000000000000000000000008152600401614334929190615c7f565b60405180910390fd5b505050565b606060006001614351846144d1565b01905060008167ffffffffffffffff8111156143705761436f614c18565b5b6040519080825280601f01601f1916602001820160405280156143a25781602001600182028036833780820191505090505b509050600082602001820190505b600115614405578080600190039150507f3031323334353637383961626364656600000000000000000000000000000000600a86061a8153600a85816143f9576143f8615ca8565b5b049450600085036143b0575b819350505050919050565b60008073ffffffffffffffffffffffffffffffffffffffff168373ffffffffffffffffffffffffffffffffffffffff16141580156144c857508273ffffffffffffffffffffffffffffffffffffffff168473ffffffffffffffffffffffffffffffffffffffff16148061448957506144888484613227565b5b806144c757508273ffffffffffffffffffffffffffffffffffffffff166144af83613425565b73ffffffffffffffffffffffffffffffffffffffff16145b5b90509392505050565b600080600090507a184f03e93ff9f4daa797ed6e38ed64bf6a1f010000000000000000831061452f577a184f03e93ff9f4daa797ed6e38ed64bf6a1f010000000000000000838161452557614524615ca8565b5b0492506040810190505b6d04ee2d6d415b85acef8100000000831061456c576d04ee2d6d415b85acef8100000000838161456257614561615ca8565b5b0492506020810190505b662386f26fc10000831061459b57662386f26fc10000838161459157614590615ca8565b5b0492506010810190505b6305f5e10083106145c4576305f5e10083816145ba576145b9615ca8565b5b0492506008810190505b61271083106145e95761271083816145df576145de615ca8565b5b0492506004810190505b6064831061460c576064838161460257614601615ca8565b5b0492506002810190505b600a831061461b576001810190505b80915050919050565b60405180610160016040528060008152602001600073ffffffffffffffffffffffffffffffffffffffff168152602001600073ffffffffffffffffffffffffffffffffffffffff168152602001600081526020016000151581526020016000151581526020016000815260200160008152602001600073ffffffffffffffffffffffffffffffffffffffff168152602001600081526020016000151581525090565b6000604051905090565b600080fd5b600080fd5b60007fffffffff0000000000000000000000000000000000000000000000000000000082169050919050565b61470f816146da565b811461471a57600080fd5b50565b60008135905061472c81614706565b92915050565b600060208284031215614748576147476146d0565b5b60006147568482850161471d565b91505092915050565b60008115159050919050565b6147748161475f565b82525050565b600060208201905061478f600083018461476b565b92915050565b600081519050919050565b600082825260208201905092915050565b60005b838110156147cf5780820151818401526020810190506147b4565b60008484015250505050565b6000601f19601f8301169050919050565b60006147f782614795565b61480181856147a0565b93506148118185602086016147b1565b61481a816147db565b840191505092915050565b6000602082019050818103600083015261483f81846147ec565b905092915050565b6000819050919050565b61485a81614847565b811461486557600080fd5b50565b60008135905061487781614851565b92915050565b600060208284031215614893576148926146d0565b5b60006148a184828501614868565b91505092915050565b600073ffffffffffffffffffffffffffffffffffffffff82169050919050565b60006148d5826148aa565b9050919050565b6148e5816148ca565b82525050565b600060208201905061490060008301846148dc565b92915050565b61490f816148ca565b811461491a57600080fd5b50565b60008135905061492c81614906565b92915050565b60008060408385031215614949576149486146d0565b5b60006149578582860161491d565b925050602061496885828601614868565b9150509250929050565b600081519050919050565b600082825260208201905092915050565b6000819050602082019050919050565b6149a781614847565b82525050565b60006149b8826148aa565b9050919050565b6149c8816149ad565b82525050565b6149d78161475f565b82525050565b610160820160008201516149f4600085018261499e565b506020820151614a0760208501826149bf565b506040820151614a1a60408501826149bf565b506060820151614a2d606085018261499e565b506080820151614a4060808501826149ce565b5060a0820151614a5360a08501826149ce565b5060c0820151614a6660c085018261499e565b5060e0820151614a7960e085018261499e565b50610100820151614a8e6101008501826149bf565b50610120820151614aa361012085018261499e565b50610140820151614ab86101408501826149ce565b50505050565b6000614aca83836149dd565b6101608301905092915050565b6000602082019050919050565b6000614aef82614972565b614af9818561497d565b9350614b048361498e565b8060005b83811015614b35578151614b1c8882614abe565b9750614b2783614ad7565b925050600181019050614b08565b5085935050505092915050565b60006020820190508181036000830152614b5c8184614ae4565b905092915050565b614b6d81614847565b82525050565b6000602082019050614b886000830184614b64565b92915050565b600080600060608486031215614ba757614ba66146d0565b5b6000614bb58682870161491d565b9350506020614bc68682870161491d565b9250506040614bd786828701614868565b9150509250925092565b600060208284031215614bf757614bf66146d0565b5b6000614c058482850161491d565b91505092915050565b600080fd5b600080fd5b7f4e487b7100000000000000000000000000000000000000000000000000000000600052604160045260246000fd5b614c50826147db565b810181811067ffffffffffffffff82111715614c6f57614c6e614c18565b5b80604052505050565b6000614c826146c6565b9050614c8e8282614c47565b919050565b600067ffffffffffffffff821115614cae57614cad614c18565b5b614cb7826147db565b9050602081019050919050565b82818337600083830152505050565b6000614ce6614ce184614c93565b614c78565b905082815260208101848484011115614d0257614d01614c13565b5b614d0d848285614cc4565b509392505050565b600082601f830112614d2a57614d29614c0e565b5b8135614d3a848260208601614cd3565b91505092915050565b60008060408385031215614d5a57614d596146d0565b5b600083013567ffffffffffffffff811115614d7857614d776146d5565b5b614d8485828601614d15565b9250506020614d9585828601614868565b9150509250929050565b600080600060608486031215614db857614db76146d0565b5b6000614dc686828701614868565b9350506020614dd786828701614868565b9250506040614de886828701614868565b9150509250925092565b614dfb8161475f565b8114614e0657600080fd5b50565b600081359050614e1881614df2565b92915050565b60008060408385031215614e3557614e346146d0565b5b6000614e438582860161491d565b9250506020614e5485828601614e09565b9150509250929050565b600067ffffffffffffffff821115614e7957614e78614c18565b5b614e82826147db565b9050602081019050919050565b6000614ea2614e9d84614e5e565b614c78565b905082815260208101848484011115614ebe57614ebd614c13565b5b614ec9848285614cc4565b509392505050565b600082601f830112614ee657614ee5614c0e565b5b8135614ef6848260208601614e8f565b91505092915050565b60008060008060808587031215614f1957614f186146d0565b5b6000614f278782880161491d565b9450506020614f388782880161491d565b9350506040614f4987828801614868565b925050606085013567ffffffffffffffff811115614f6a57614f696146d5565b5b614f7687828801614ed1565b91505092959194509250565b60008060408385031215614f9957614f986146d0565b5b6000614fa785828601614868565b9250506020614fb885828601614868565b9150509250929050565b60008060408385031215614fd957614fd86146d0565b5b6000614fe78582860161491d565b9250506020614ff88582860161491d565b9150509250929050565b7f4e487b7100000000000000000000000000000000000000000000000000000000600052602260045260246000fd5b6000600282049050600182168061504957607f821691505b60208210810361505c5761505b615002565b5b50919050565b7f4e487b7100000000000000000000000000000000000000000000000000000000600052601160045260246000fd5b600061509c82614847565b91506150a783614847565b92508282019050808211156150bf576150be615062565b5b92915050565b7f4e487b7100000000000000000000000000000000000000000000000000000000600052603260045260246000fd5b60006150ff82614847565b91507fffffffffffffffffffffffffffffffffffffffffffffffffffffffffffffffff820361513157615130615062565b5b600182019050919050565b600060608201905061515160008301866148dc565b61515e6020830185614b64565b61516b60408301846148dc565b949350505050565b7f4f6e6c79206f776e65722063616e2063616e63656c2073656c6c696e67000000600082015250565b60006151a9601d836147a0565b91506151b482615173565b602082019050919050565b600060208201905081810360008301526151d88161519c565b9050919050565b60006151ea82614847565b9150600082036151fd576151fc615062565b5b600182039050919050565b7f4f6e6c79206974656d206f776e65722063616e20706572666f726d207468697360008201527f206f7065726174696f6e00000000000000000000000000000000000000000000602082015250565b6000615264602a836147a0565b915061526f82615208565b604082019050919050565b6000602082019050818103600083015261529381615257565b9050919050565b7f4f6e6c79206f776e65722063616e2063616e63656c2061756374696f6e000000600082015250565b60006152d0601d836147a0565b91506152db8261529a565b602082019050919050565b600060208201905081810360008301526152ff816152c3565b9050919050565b7f426964206d7573742062652067726561746572207468616e206869676865737460008201527f2062696400000000000000000000000000000000000000000000000000000000602082015250565b60006153626024836147a0565b915061536d82615306565b604082019050919050565b6000602082019050818103600083015261539181615355565b9050919050565b7f41756374696f6e206e6f74207965742073746172746564000000000000000000600082015250565b60006153ce6017836147a0565b91506153d982615398565b602082019050919050565b600060208201905081810360008301526153fd816153c1565b9050919050565b7f41756374696f6e20616c726561647920636f6d706c6574656400000000000000600082015250565b600061543a6019836147a0565b915061544582615404565b602082019050919050565b600060208201905081810360008301526154698161542d565b9050919050565b7f43616e6e6f742062696420747769636520696e206120726f7700000000000000600082015250565b60006154a66019836147a0565b91506154b182615470565b602082019050919050565b600060208201905081810360008301526154d581615499565b9050919050565b7f4f6e6c79206d61726b6574706c616365206f776e65722063616e20757064617460008201527f65206c697374696e672070726963652e00000000000000000000000000000000602082015250565b60006155386030836147a0565b9150615543826154dc565b604082019050919050565b600060208201905081810360008301526155678161552b565b9050919050565b7f506c65617365207375626d6974207468652061736b696e67207072696365206960008201527f6e206f7264657220746f20636f6d706c65746520746865207075726368617365602082015250565b60006155ca6040836147a0565b91506155d58261556e565b604082019050919050565b600060208201905081810360008301526155f9816155bd565b9050919050565b600081905092915050565b600061561682614795565b6156208185615600565b93506156308185602086016147b1565b80840191505092915050565b6000615648828561560b565b9150615654828461560b565b91508190509392505050565b7f4f6e6c792074686520746f6b656e206f776e65722063616e20656e642074686560008201527f2061756374696f6e000000000000000000000000000000000000000000000000602082015250565b60006156bc6028836147a0565b91506156c782615660565b604082019050919050565b600060208201905081810360008301526156eb816156af565b9050919050565b7f41756374696f6e206d7573742068617665206174206c65617374206f6e65206260008201527f6964000000000000000000000000000000000000000000000000000000000000602082015250565b600061574e6022836147a0565b9150615759826156f2565b604082019050919050565b6000602082019050818103600083015261577d81615741565b9050919050565b7f5072696365206d75737420626520657175616c20746f206c697374696e67207060008201527f7269636500000000000000000000000000000000000000000000000000000000602082015250565b60006157e06024836147a0565b91506157eb82615784565b604082019050919050565b6000602082019050818103600083015261580f816157d3565b9050919050565b60008190508160005260206000209050919050565b60006020601f8301049050919050565b600082821b905092915050565b6000600883026158787fffffffffffffffffffffffffffffffffffffffffffffffffffffffffffffffff8261583b565b615882868361583b565b95508019841693508086168417925050509392505050565b6000819050919050565b60006158bf6158ba6158b584614847565b61589a565b614847565b9050919050565b6000819050919050565b6158d9836158a4565b6158ed6158e5826158c6565b848454615848565b825550505050565b600090565b6159026158f5565b61590d8184846158d0565b505050565b5b81811015615931576159266000826158fa565b600181019050615913565b5050565b601f8211156159765761594781615816565b6159508461582b565b8101602085101561595f578190505b61597361596b8561582b565b830182615912565b50505b505050565b600082821c905092915050565b60006159996000198460080261597b565b1980831691505092915050565b60006159b28383615988565b9150826002028217905092915050565b6159cb82614795565b67ffffffffffffffff8111156159e4576159e3614c18565b5b6159ee8254615031565b6159f9828285615935565b600060209050601f831160018114615a2c5760008415615a1a578287015190505b615a2485826159a6565b865550615a8c565b601f198416615a3a86615816565b60005b82811015615a6257848901518255600182019150602085019450602081019050615a3d565b86831015615a7f5784890151615a7b601f891682615988565b8355505b6001600288020188555050505b505050505050565b7f5072696365206d757374206265206174206c6561737420312077656900000000600082015250565b6000615aca601c836147a0565b9150615ad582615a94565b602082019050919050565b60006020820190508181036000830152615af981615abd565b9050919050565b600061014082019050615b16600083018d6148dc565b615b23602083018c6148dc565b615b30604083018b614b64565b615b3d606083018a61476b565b615b4a608083018961476b565b615b5760a0830188614b64565b615b6460c0830187614b64565b615b7160e08301866148dc565b615b7f610100830185614b64565b615b8d61012083018461476b565b9b9a5050505050505050505050565b600081519050919050565b600082825260208201905092915050565b6000615bc382615b9c565b615bcd8185615ba7565b9350615bdd8185602086016147b1565b615be6816147db565b840191505092915050565b6000608082019050615c0660008301876148dc565b615c1360208301866148dc565b615c206040830185614b64565b8181036060830152615c328184615bb8565b905095945050505050565b600081519050615c4c81614706565b92915050565b600060208284031215615c6857615c676146d0565b5b6000615c7684828501615c3d565b91505092915050565b6000604082019050615c9460008301856148dc565b615ca16020830184614b64565b9392505050565b7f4e487b7100000000000000000000000000000000000000000000000000000000600052601260045260246000fdfea26469706673582212205cf07315bd6898dfecab1b669e0f50220f7367a736cdac50de281eb50148dc5164736f6c63430008140033",
  "linkReferences": {},
  "deployedLinkReferences": {}
}