{
  "_format": "hh-sol-artifact-1",
  "contractName": "NFTMarketplace",
  "sourceName": "contracts/NFTMarketplace.sol",
  "abi": [
    {
      "inputs": [],
      "stateMutability": "nonpayable",
      "type": "constructor"
    },
    {
      "inputs": [
        {
          "internalType": "address",
          "name": "sender",
          "type": "address"
        },
        {
          "internalType": "uint256",
          "name": "tokenId",
          "type": "uint256"
        },
        {
          "internalType": "address",
          "name": "owner",
          "type": "address"
        }
      ],
      "name": "ERC721IncorrectOwner",
      "type": "error"
    },
    {
      "inputs": [
        {
          "internalType": "address",
          "name": "operator",
          "type": "address"
        },
        {
          "internalType": "uint256",
          "name": "tokenId",
          "type": "uint256"
        }
      ],
      "name": "ERC721InsufficientApproval",
      "type": "error"
    },
    {
      "inputs": [
        {
          "internalType": "address",
          "name": "approver",
          "type": "address"
        }
      ],
      "name": "ERC721InvalidApprover",
      "type": "error"
    },
    {
      "inputs": [
        {
          "internalType": "address",
          "name": "operator",
          "type": "address"
        }
      ],
      "name": "ERC721InvalidOperator",
      "type": "error"
    },
    {
      "inputs": [
        {
          "internalType": "address",
          "name": "owner",
          "type": "address"
        }
      ],
      "name": "ERC721InvalidOwner",
      "type": "error"
    },
    {
      "inputs": [
        {
          "internalType": "address",
          "name": "receiver",
          "type": "address"
        }
      ],
      "name": "ERC721InvalidReceiver",
      "type": "error"
    },
    {
      "inputs": [
        {
          "internalType": "address",
          "name": "sender",
          "type": "address"
        }
      ],
      "name": "ERC721InvalidSender",
      "type": "error"
    },
    {
      "inputs": [
        {
          "internalType": "uint256",
          "name": "tokenId",
          "type": "uint256"
        }
      ],
      "name": "ERC721NonexistentToken",
      "type": "error"
    },
    {
      "anonymous": false,
      "inputs": [
        {
          "indexed": true,
          "internalType": "address",
          "name": "owner",
          "type": "address"
        },
        {
          "indexed": true,
          "internalType": "address",
          "name": "approved",
          "type": "address"
        },
        {
          "indexed": true,
          "internalType": "uint256",
          "name": "tokenId",
          "type": "uint256"
        }
      ],
      "name": "Approval",
      "type": "event"
    },
    {
      "anonymous": false,
      "inputs": [
        {
          "indexed": true,
          "internalType": "address",
          "name": "owner",
          "type": "address"
        },
        {
          "indexed": true,
          "internalType": "address",
          "name": "operator",
          "type": "address"
        },
        {
          "indexed": false,
          "internalType": "bool",
          "name": "approved",
          "type": "bool"
        }
      ],
      "name": "ApprovalForAll",
      "type": "event"
    },
    {
      "anonymous": false,
      "inputs": [
        {
          "indexed": false,
          "internalType": "uint256",
          "name": "_fromTokenId",
          "type": "uint256"
        },
        {
          "indexed": false,
          "internalType": "uint256",
          "name": "_toTokenId",
          "type": "uint256"
        }
      ],
      "name": "BatchMetadataUpdate",
      "type": "event"
    },
    {
      "anonymous": false,
      "inputs": [
        {
          "indexed": true,
          "internalType": "uint256",
          "name": "tokenId",
          "type": "uint256"
        },
        {
          "indexed": false,
          "internalType": "address",
          "name": "seller",
          "type": "address"
        },
        {
          "indexed": false,
          "internalType": "address",
          "name": "owner",
          "type": "address"
        },
        {
          "indexed": false,
          "internalType": "uint256",
          "name": "price",
          "type": "uint256"
        },
        {
          "indexed": false,
          "internalType": "bool",
          "name": "sold",
          "type": "bool"
        },
        {
          "indexed": false,
          "internalType": "bool",
          "name": "directSold",
          "type": "bool"
        },
        {
          "indexed": false,
          "internalType": "uint256",
          "name": "startTime",
          "type": "uint256"
        },
        {
          "indexed": false,
          "internalType": "uint256",
          "name": "endTime",
          "type": "uint256"
        },
        {
          "indexed": false,
          "internalType": "address",
          "name": "highestBidder",
          "type": "address"
        },
        {
          "indexed": false,
          "internalType": "uint256",
          "name": "highestBid",
          "type": "uint256"
        },
        {
          "indexed": false,
          "internalType": "bool",
          "name": "auctionCompleted",
          "type": "bool"
        }
      ],
      "name": "MarketItemCreated",
      "type": "event"
    },
    {
      "anonymous": false,
      "inputs": [
        {
          "indexed": false,
          "internalType": "uint256",
          "name": "_tokenId",
          "type": "uint256"
        }
      ],
      "name": "MetadataUpdate",
      "type": "event"
    },
    {
      "anonymous": false,
      "inputs": [
        {
          "indexed": true,
          "internalType": "address",
          "name": "from",
          "type": "address"
        },
        {
          "indexed": true,
          "internalType": "address",
          "name": "to",
          "type": "address"
        },
        {
          "indexed": true,
          "internalType": "uint256",
          "name": "tokenId",
          "type": "uint256"
        }
      ],
      "name": "Transfer",
      "type": "event"
    },
    {
      "inputs": [
        {
          "internalType": "address",
          "name": "to",
          "type": "address"
        },
        {
          "internalType": "uint256",
          "name": "tokenId",
          "type": "uint256"
        }
      ],
      "name": "approve",
      "outputs": [],
      "stateMutability": "nonpayable",
      "type": "function"
    },
    {
      "inputs": [
        {
          "internalType": "address",
          "name": "owner",
          "type": "address"
        }
      ],
      "name": "balanceOf",
      "outputs": [
        {
          "internalType": "uint256",
          "name": "",
          "type": "uint256"
        }
      ],
      "stateMutability": "view",
      "type": "function"
    },
    {
      "inputs": [
        {
          "internalType": "uint256",
          "name": "tokenId",
          "type": "uint256"
        }
      ],
      "name": "createMarketSale",
      "outputs": [],
      "stateMutability": "payable",
      "type": "function"
    },
    {
      "inputs": [
        {
          "internalType": "string",
          "name": "tokenURI",
          "type": "string"
        },
        {
          "internalType": "uint256",
          "name": "price",
          "type": "uint256"
        }
      ],
      "name": "createToken",
      "outputs": [
        {
          "internalType": "uint256",
          "name": "",
          "type": "uint256"
        }
      ],
      "stateMutability": "payable",
      "type": "function"
    },
    {
      "inputs": [
        {
          "internalType": "uint256",
          "name": "tokenId",
          "type": "uint256"
        }
      ],
      "name": "endAuction",
      "outputs": [],
      "stateMutability": "nonpayable",
      "type": "function"
    },
    {
      "inputs": [],
      "name": "fetchAuctionItems",
      "outputs": [
        {
          "components": [
            {
              "internalType": "uint256",
              "name": "tokenId",
              "type": "uint256"
            },
            {
              "internalType": "address payable",
              "name": "seller",
              "type": "address"
            },
            {
              "internalType": "address payable",
              "name": "owner",
              "type": "address"
            },
            {
              "internalType": "uint256",
              "name": "price",
              "type": "uint256"
            },
            {
              "internalType": "bool",
              "name": "sold",
              "type": "bool"
            },
            {
              "internalType": "bool",
              "name": "directSold",
              "type": "bool"
            },
            {
              "internalType": "uint256",
              "name": "startTime",
              "type": "uint256"
            },
            {
              "internalType": "uint256",
              "name": "endTime",
              "type": "uint256"
            },
            {
              "internalType": "address payable",
              "name": "highestBidder",
              "type": "address"
            },
            {
              "internalType": "uint256",
              "name": "highestBid",
              "type": "uint256"
            },
            {
              "internalType": "bool",
              "name": "auctionCompleted",
              "type": "bool"
            }
          ],
          "internalType": "struct NFTMarketplace.MarketItem[]",
          "name": "",
          "type": "tuple[]"
        }
      ],
      "stateMutability": "view",
      "type": "function"
    },
    {
      "inputs": [],
      "name": "fetchItemsListed",
      "outputs": [
        {
          "components": [
            {
              "internalType": "uint256",
              "name": "tokenId",
              "type": "uint256"
            },
            {
              "internalType": "address payable",
              "name": "seller",
              "type": "address"
            },
            {
              "internalType": "address payable",
              "name": "owner",
              "type": "address"
            },
            {
              "internalType": "uint256",
              "name": "price",
              "type": "uint256"
            },
            {
              "internalType": "bool",
              "name": "sold",
              "type": "bool"
            },
            {
              "internalType": "bool",
              "name": "directSold",
              "type": "bool"
            },
            {
              "internalType": "uint256",
              "name": "startTime",
              "type": "uint256"
            },
            {
              "internalType": "uint256",
              "name": "endTime",
              "type": "uint256"
            },
            {
              "internalType": "address payable",
              "name": "highestBidder",
              "type": "address"
            },
            {
              "internalType": "uint256",
              "name": "highestBid",
              "type": "uint256"
            },
            {
              "internalType": "bool",
              "name": "auctionCompleted",
              "type": "bool"
            }
          ],
          "internalType": "struct NFTMarketplace.MarketItem[]",
          "name": "",
          "type": "tuple[]"
        }
      ],
      "stateMutability": "view",
      "type": "function"
    },
    {
      "inputs": [],
      "name": "fetchMarketItems",
      "outputs": [
        {
          "components": [
            {
              "internalType": "uint256",
              "name": "tokenId",
              "type": "uint256"
            },
            {
              "internalType": "address payable",
              "name": "seller",
              "type": "address"
            },
            {
              "internalType": "address payable",
              "name": "owner",
              "type": "address"
            },
            {
              "internalType": "uint256",
              "name": "price",
              "type": "uint256"
            },
            {
              "internalType": "bool",
              "name": "sold",
              "type": "bool"
            },
            {
              "internalType": "bool",
              "name": "directSold",
              "type": "bool"
            },
            {
              "internalType": "uint256",
              "name": "startTime",
              "type": "uint256"
            },
            {
              "internalType": "uint256",
              "name": "endTime",
              "type": "uint256"
            },
            {
              "internalType": "address payable",
              "name": "highestBidder",
              "type": "address"
            },
            {
              "internalType": "uint256",
              "name": "highestBid",
              "type": "uint256"
            },
            {
              "internalType": "bool",
              "name": "auctionCompleted",
              "type": "bool"
            }
          ],
          "internalType": "struct NFTMarketplace.MarketItem[]",
          "name": "",
          "type": "tuple[]"
        }
      ],
      "stateMutability": "view",
      "type": "function"
    },
    {
      "inputs": [],
      "name": "fetchMyNFTs",
      "outputs": [
        {
          "components": [
            {
              "internalType": "uint256",
              "name": "tokenId",
              "type": "uint256"
            },
            {
              "internalType": "address payable",
              "name": "seller",
              "type": "address"
            },
            {
              "internalType": "address payable",
              "name": "owner",
              "type": "address"
            },
            {
              "internalType": "uint256",
              "name": "price",
              "type": "uint256"
            },
            {
              "internalType": "bool",
              "name": "sold",
              "type": "bool"
            },
            {
              "internalType": "bool",
              "name": "directSold",
              "type": "bool"
            },
            {
              "internalType": "uint256",
              "name": "startTime",
              "type": "uint256"
            },
            {
              "internalType": "uint256",
              "name": "endTime",
              "type": "uint256"
            },
            {
              "internalType": "address payable",
              "name": "highestBidder",
              "type": "address"
            },
            {
              "internalType": "uint256",
              "name": "highestBid",
              "type": "uint256"
            },
            {
              "internalType": "bool",
              "name": "auctionCompleted",
              "type": "bool"
            }
          ],
          "internalType": "struct NFTMarketplace.MarketItem[]",
          "name": "",
          "type": "tuple[]"
        }
      ],
      "stateMutability": "view",
      "type": "function"
    },
    {
      "inputs": [
        {
          "internalType": "uint256",
          "name": "tokenId",
          "type": "uint256"
        }
      ],
      "name": "getApproved",
      "outputs": [
        {
          "internalType": "address",
          "name": "",
          "type": "address"
        }
      ],
      "stateMutability": "view",
      "type": "function"
    },
    {
      "inputs": [],
      "name": "getListingPrice",
      "outputs": [
        {
          "internalType": "uint256",
          "name": "",
          "type": "uint256"
        }
      ],
      "stateMutability": "view",
      "type": "function"
    },
    {
      "inputs": [
        {
          "internalType": "address",
          "name": "owner",
          "type": "address"
        },
        {
          "internalType": "address",
          "name": "operator",
          "type": "address"
        }
      ],
      "name": "isApprovedForAll",
      "outputs": [
        {
          "internalType": "bool",
          "name": "",
          "type": "bool"
        }
      ],
      "stateMutability": "view",
      "type": "function"
    },
    {
      "inputs": [],
      "name": "name",
      "outputs": [
        {
          "internalType": "string",
          "name": "",
          "type": "string"
        }
      ],
      "stateMutability": "view",
      "type": "function"
    },
    {
      "inputs": [
        {
          "internalType": "uint256",
          "name": "tokenId",
          "type": "uint256"
        }
      ],
      "name": "ownerOf",
      "outputs": [
        {
          "internalType": "address",
          "name": "",
          "type": "address"
        }
      ],
      "stateMutability": "view",
      "type": "function"
    },
    {
      "inputs": [
        {
          "internalType": "uint256",
          "name": "tokenId",
          "type": "uint256"
        }
      ],
      "name": "placeBid",
      "outputs": [],
      "stateMutability": "payable",
      "type": "function"
    },
    {
      "inputs": [
        {
          "internalType": "uint256",
          "name": "tokenId",
          "type": "uint256"
        },
        {
          "internalType": "uint256",
          "name": "price",
          "type": "uint256"
        }
      ],
      "name": "resellToken",
      "outputs": [],
      "stateMutability": "payable",
      "type": "function"
    },
    {
      "inputs": [
        {
          "internalType": "address",
          "name": "from",
          "type": "address"
        },
        {
          "internalType": "address",
          "name": "to",
          "type": "address"
        },
        {
          "internalType": "uint256",
          "name": "tokenId",
          "type": "uint256"
        }
      ],
      "name": "safeTransferFrom",
      "outputs": [],
      "stateMutability": "nonpayable",
      "type": "function"
    },
    {
      "inputs": [
        {
          "internalType": "address",
          "name": "from",
          "type": "address"
        },
        {
          "internalType": "address",
          "name": "to",
          "type": "address"
        },
        {
          "internalType": "uint256",
          "name": "tokenId",
          "type": "uint256"
        },
        {
          "internalType": "bytes",
          "name": "data",
          "type": "bytes"
        }
      ],
      "name": "safeTransferFrom",
      "outputs": [],
      "stateMutability": "nonpayable",
      "type": "function"
    },
    {
      "inputs": [
        {
          "internalType": "address",
          "name": "operator",
          "type": "address"
        },
        {
          "internalType": "bool",
          "name": "approved",
          "type": "bool"
        }
      ],
      "name": "setApprovalForAll",
      "outputs": [],
      "stateMutability": "nonpayable",
      "type": "function"
    },
    {
      "inputs": [
        {
          "internalType": "uint256",
          "name": "tokenId",
          "type": "uint256"
        },
        {
          "internalType": "uint256",
          "name": "price",
          "type": "uint256"
        },
        {
          "internalType": "uint256",
          "name": "durations",
          "type": "uint256"
        }
      ],
      "name": "startAuction",
      "outputs": [],
      "stateMutability": "payable",
      "type": "function"
    },
    {
      "inputs": [
        {
          "internalType": "bytes4",
          "name": "interfaceId",
          "type": "bytes4"
        }
      ],
      "name": "supportsInterface",
      "outputs": [
        {
          "internalType": "bool",
          "name": "",
          "type": "bool"
        }
      ],
      "stateMutability": "view",
      "type": "function"
    },
    {
      "inputs": [],
      "name": "symbol",
      "outputs": [
        {
          "internalType": "string",
          "name": "",
          "type": "string"
        }
      ],
      "stateMutability": "view",
      "type": "function"
    },
    {
      "inputs": [
        {
          "internalType": "uint256",
          "name": "tokenId",
          "type": "uint256"
        }
      ],
      "name": "tokenURI",
      "outputs": [
        {
          "internalType": "string",
          "name": "",
          "type": "string"
        }
      ],
      "stateMutability": "view",
      "type": "function"
    },
    {
      "inputs": [
        {
          "internalType": "address",
          "name": "from",
          "type": "address"
        },
        {
          "internalType": "address",
          "name": "to",
          "type": "address"
        },
        {
          "internalType": "uint256",
          "name": "tokenId",
          "type": "uint256"
        }
      ],
      "name": "transferFrom",
      "outputs": [],
      "stateMutability": "nonpayable",
      "type": "function"
    },
    {
      "inputs": [
        {
          "internalType": "uint256",
          "name": "_listingPrice",
          "type": "uint256"
        }
      ],
      "name": "updateListingPrice",
      "outputs": [],
      "stateMutability": "payable",
      "type": "function"
    }
  ],
  "bytecode": "0x60806040526658d15e17628000600a553480156200001c57600080fd5b506040518060400160405280601081526020017f4d657461766572736520546f6b656e73000000000000000000000000000000008152506040518060400160405280600481526020017f4d4554540000000000000000000000000000000000000000000000000000000081525081600090816200009a919062000388565b508060019081620000ac919062000388565b50505033600b60006101000a81548173ffffffffffffffffffffffffffffffffffffffff021916908373ffffffffffffffffffffffffffffffffffffffff1602179055506000600781905550600060098190555060006008819055506200046f565b600081519050919050565b7f4e487b7100000000000000000000000000000000000000000000000000000000600052604160045260246000fd5b7f4e487b7100000000000000000000000000000000000000000000000000000000600052602260045260246000fd5b600060028204905060018216806200019057607f821691505b602082108103620001a657620001a562000148565b5b50919050565b60008190508160005260206000209050919050565b60006020601f8301049050919050565b600082821b905092915050565b600060088302620002107fffffffffffffffffffffffffffffffffffffffffffffffffffffffffffffffff82620001d1565b6200021c8683620001d1565b95508019841693508086168417925050509392505050565b6000819050919050565b6000819050919050565b600062000269620002636200025d8462000234565b6200023e565b62000234565b9050919050565b6000819050919050565b620002858362000248565b6200029d620002948262000270565b848454620001de565b825550505050565b600090565b620002b4620002a5565b620002c18184846200027a565b505050565b5b81811015620002e957620002dd600082620002aa565b600181019050620002c7565b5050565b601f82111562000338576200030281620001ac565b6200030d84620001c1565b810160208510156200031d578190505b620003356200032c85620001c1565b830182620002c6565b50505b505050565b600082821c905092915050565b60006200035d600019846008026200033d565b1980831691505092915050565b60006200037883836200034a565b9150826002028217905092915050565b62000393826200010e565b67ffffffffffffffff811115620003af57620003ae62000119565b5b620003bb825462000177565b620003c8828285620002ed565b600060209050601f831160018114620004005760008415620003eb578287015190505b620003f785826200036a565b86555062000467565b601f1984166200041086620001ac565b60005b828110156200043a5784890151825560018201915060208501945060208101905062000413565b868310156200045a578489015162000456601f8916826200034a565b8355505b6001600288020188555050505b505050505050565b615004806200047f6000396000f3fe6080604052600436106101665760003560e01c806370a08231116100d1578063ae677aa31161008a578063be9af53611610064578063be9af53614610506578063c87b56dd14610522578063e219fc751461055f578063e985e9c51461057b57610166565b8063ae677aa314610498578063b88d4fde146104b4578063b9a2de3a146104dd57610166565b806370a082311461039f57806372b3b620146103dc57806391e078bb1461040c57806395d89b41146104285780639979ef4514610453578063a22cb4651461046f57610166565b8063202e374011610123578063202e37401461028f57806323b872dd146102ba57806342842e0e146102e357806345f8fa801461030c57806354d54e0a146103375780636352211e1461036257610166565b806301ffc9a71461016b57806306fdde03146101a8578063081812fc146101d3578063095ea7b3146102105780630f08efe01461023957806312e8558514610264575b600080fd5b34801561017757600080fd5b50610192600480360381019061018d9190613b6d565b6105b8565b60405161019f9190613bb5565b60405180910390f35b3480156101b457600080fd5b506101bd610619565b6040516101ca9190613c60565b60405180910390f35b3480156101df57600080fd5b506101fa60048036038101906101f59190613cb8565b6106ab565b6040516102079190613d26565b60405180910390f35b34801561021c57600080fd5b5061023760048036038101906102329190613d6d565b6106c7565b005b34801561024557600080fd5b5061024e6106dd565b60405161025b9190613f7d565b60405180910390f35b34801561027057600080fd5b50610279610a4d565b6040516102869190613fae565b60405180910390f35b34801561029b57600080fd5b506102a4610a57565b6040516102b19190613f7d565b60405180910390f35b3480156102c657600080fd5b506102e160048036038101906102dc9190613fc9565b610de7565b005b3480156102ef57600080fd5b5061030a60048036038101906103059190613fc9565b610ee9565b005b34801561031857600080fd5b50610321610f09565b60405161032e9190613f7d565b60405180910390f35b34801561034357600080fd5b5061034c611299565b6040516103599190613f7d565b60405180910390f35b34801561036e57600080fd5b5061038960048036038101906103849190613cb8565b611609565b6040516103969190613d26565b60405180910390f35b3480156103ab57600080fd5b506103c660048036038101906103c1919061401c565b61161b565b6040516103d39190613fae565b60405180910390f35b6103f660048036038101906103f1919061417e565b6116d5565b6040516104039190613fae565b60405180910390f35b610426600480360381019061042191906141da565b61171e565b005b34801561043457600080fd5b5061043d6119d2565b60405161044a9190613c60565b60405180910390f35b61046d60048036038101906104689190613cb8565b611a64565b005b34801561047b57600080fd5b5061049660048036038101906104919190614259565b611e7d565b005b6104b260048036038101906104ad9190613cb8565b611e93565b005b3480156104c057600080fd5b506104db60048036038101906104d6919061433a565b611f2d565b005b3480156104e957600080fd5b5061050460048036038101906104ff9190613cb8565b611f4a565b005b610520600480360381019061051b9190613cb8565b6120d7565b005b34801561052e57600080fd5b5061054960048036038101906105449190613cb8565b61231d565b6040516105569190613c60565b60405180910390f35b610579600480360381019061057491906143bd565b612430565b005b34801561058757600080fd5b506105a2600480360381019061059d91906143fd565b612662565b6040516105af9190613bb5565b60405180910390f35b6000634906490660e01b7bffffffffffffffffffffffffffffffffffffffffffffffffffffffff1916827bffffffffffffffffffffffffffffffffffffffffffffffffffffffff191614806106125750610611826126f6565b5b9050919050565b6060600080546106289061446c565b80601f01602080910402602001604051908101604052809291908181526020018280546106549061446c565b80156106a15780601f10610676576101008083540402835291602001916106a1565b820191906000526020600020905b81548152906001019060200180831161068457829003601f168201915b5050505050905090565b60006106b6826127d8565b506106c082612860565b9050919050565b6106d982826106d461289d565b6128a5565b5050565b606060006007549050600060085490506000808267ffffffffffffffff81111561070a57610709614053565b5b60405190808252806020026020018201604052801561074357816020015b610730613a5f565b8152602001906001900390816107285790505b50905060005b84811015610a42573073ffffffffffffffffffffffffffffffffffffffff16600c600060018461077991906144cc565b815260200190815260200160002060020160009054906101000a900473ffffffffffffffffffffffffffffffffffffffff1673ffffffffffffffffffffffffffffffffffffffff16148015610801575060011515600c60006001846107de91906144cc565b815260200190815260200160002060040160019054906101000a900460ff161515145b8015610840575060001515600c600060018461081d91906144cc565b815260200190815260200160002060040160009054906101000a900460ff161515145b15610a2f57600060018261085491906144cc565b90506000600c600083815260200190815260200160002090508060405180610160016040529081600082015481526020016001820160009054906101000a900473ffffffffffffffffffffffffffffffffffffffff1673ffffffffffffffffffffffffffffffffffffffff1673ffffffffffffffffffffffffffffffffffffffff1681526020016002820160009054906101000a900473ffffffffffffffffffffffffffffffffffffffff1673ffffffffffffffffffffffffffffffffffffffff1673ffffffffffffffffffffffffffffffffffffffff168152602001600382015481526020016004820160009054906101000a900460ff161515151581526020016004820160019054906101000a900460ff1615151515815260200160058201548152602001600682015481526020016007820160009054906101000a900473ffffffffffffffffffffffffffffffffffffffff1673ffffffffffffffffffffffffffffffffffffffff1673ffffffffffffffffffffffffffffffffffffffff168152602001600882015481526020016009820160009054906101000a900460ff161515151581525050848681518110610a1257610a11614500565b5b6020026020010181905250600185610a2a91906144cc565b945050505b8080610a3a9061452f565b915050610749565b508094505050505090565b6000600a54905090565b60606000600754905060008060005b83811015610b06573373ffffffffffffffffffffffffffffffffffffffff16600c6000600184610a9691906144cc565b815260200190815260200160002060020160009054906101000a900473ffffffffffffffffffffffffffffffffffffffff1673ffffffffffffffffffffffffffffffffffffffff1603610af357600183610af091906144cc565b92505b8080610afe9061452f565b915050610a66565b5060008267ffffffffffffffff811115610b2357610b22614053565b5b604051908082528060200260200182016040528015610b5c57816020015b610b49613a5f565b815260200190600190039081610b415790505b50905060005b84811015610ddc573373ffffffffffffffffffffffffffffffffffffffff16600c6000600184610b9291906144cc565b815260200190815260200160002060020160009054906101000a900473ffffffffffffffffffffffffffffffffffffffff1673ffffffffffffffffffffffffffffffffffffffff1603610dc9576000600182610bee91906144cc565b90506000600c600083815260200190815260200160002090508060405180610160016040529081600082015481526020016001820160009054906101000a900473ffffffffffffffffffffffffffffffffffffffff1673ffffffffffffffffffffffffffffffffffffffff1673ffffffffffffffffffffffffffffffffffffffff1681526020016002820160009054906101000a900473ffffffffffffffffffffffffffffffffffffffff1673ffffffffffffffffffffffffffffffffffffffff1673ffffffffffffffffffffffffffffffffffffffff168152602001600382015481526020016004820160009054906101000a900460ff161515151581526020016004820160019054906101000a900460ff1615151515815260200160058201548152602001600682015481526020016007820160009054906101000a900473ffffffffffffffffffffffffffffffffffffffff1673ffffffffffffffffffffffffffffffffffffffff1673ffffffffffffffffffffffffffffffffffffffff168152602001600882015481526020016009820160009054906101000a900460ff161515151581525050848681518110610dac57610dab614500565b5b6020026020010181905250600185610dc491906144cc565b945050505b8080610dd49061452f565b915050610b62565b508094505050505090565b600073ffffffffffffffffffffffffffffffffffffffff168273ffffffffffffffffffffffffffffffffffffffff1603610e595760006040517f64a0ae92000000000000000000000000000000000000000000000000000000008152600401610e509190613d26565b60405180910390fd5b6000610e6d8383610e6861289d565b6128b7565b90508373ffffffffffffffffffffffffffffffffffffffff168173ffffffffffffffffffffffffffffffffffffffff1614610ee3578382826040517f64283d7b000000000000000000000000000000000000000000000000000000008152600401610eda93929190614577565b60405180910390fd5b50505050565b610f0483838360405180602001604052806000815250611f2d565b505050565b60606000600754905060008060005b83811015610fb8573373ffffffffffffffffffffffffffffffffffffffff16600c6000600184610f4891906144cc565b815260200190815260200160002060010160009054906101000a900473ffffffffffffffffffffffffffffffffffffffff1673ffffffffffffffffffffffffffffffffffffffff1603610fa557600183610fa291906144cc565b92505b8080610fb09061452f565b915050610f18565b5060008267ffffffffffffffff811115610fd557610fd4614053565b5b60405190808252806020026020018201604052801561100e57816020015b610ffb613a5f565b815260200190600190039081610ff35790505b50905060005b8481101561128e573373ffffffffffffffffffffffffffffffffffffffff16600c600060018461104491906144cc565b815260200190815260200160002060010160009054906101000a900473ffffffffffffffffffffffffffffffffffffffff1673ffffffffffffffffffffffffffffffffffffffff160361127b5760006001826110a091906144cc565b90506000600c600083815260200190815260200160002090508060405180610160016040529081600082015481526020016001820160009054906101000a900473ffffffffffffffffffffffffffffffffffffffff1673ffffffffffffffffffffffffffffffffffffffff1673ffffffffffffffffffffffffffffffffffffffff1681526020016002820160009054906101000a900473ffffffffffffffffffffffffffffffffffffffff1673ffffffffffffffffffffffffffffffffffffffff1673ffffffffffffffffffffffffffffffffffffffff168152602001600382015481526020016004820160009054906101000a900460ff161515151581526020016004820160019054906101000a900460ff1615151515815260200160058201548152602001600682015481526020016007820160009054906101000a900473ffffffffffffffffffffffffffffffffffffffff1673ffffffffffffffffffffffffffffffffffffffff1673ffffffffffffffffffffffffffffffffffffffff168152602001600882015481526020016009820160009054906101000a900460ff16151515158152505084868151811061125e5761125d614500565b5b602002602001018190525060018561127691906144cc565b945050505b80806112869061452f565b915050611014565b508094505050505090565b606060006007549050600060095490506000808267ffffffffffffffff8111156112c6576112c5614053565b5b6040519080825280602002602001820160405280156112ff57816020015b6112ec613a5f565b8152602001906001900390816112e45790505b50905060005b848110156115fe573073ffffffffffffffffffffffffffffffffffffffff16600c600060018461133591906144cc565b815260200190815260200160002060020160009054906101000a900473ffffffffffffffffffffffffffffffffffffffff1673ffffffffffffffffffffffffffffffffffffffff161480156113bd575060001515600c600060018461139a91906144cc565b815260200190815260200160002060040160019054906101000a900460ff161515145b80156113fc575060001515600c60006001846113d991906144cc565b815260200190815260200160002060040160009054906101000a900460ff161515145b156115eb57600060018261141091906144cc565b90506000600c600083815260200190815260200160002090508060405180610160016040529081600082015481526020016001820160009054906101000a900473ffffffffffffffffffffffffffffffffffffffff1673ffffffffffffffffffffffffffffffffffffffff1673ffffffffffffffffffffffffffffffffffffffff1681526020016002820160009054906101000a900473ffffffffffffffffffffffffffffffffffffffff1673ffffffffffffffffffffffffffffffffffffffff1673ffffffffffffffffffffffffffffffffffffffff168152602001600382015481526020016004820160009054906101000a900460ff161515151581526020016004820160019054906101000a900460ff1615151515815260200160058201548152602001600682015481526020016007820160009054906101000a900473ffffffffffffffffffffffffffffffffffffffff1673ffffffffffffffffffffffffffffffffffffffff1673ffffffffffffffffffffffffffffffffffffffff168152602001600882015481526020016009820160009054906101000a900460ff1615151515815250508486815181106115ce576115cd614500565b5b60200260200101819052506001856115e691906144cc565b945050505b80806115f69061452f565b915050611305565b508094505050505090565b6000611614826127d8565b9050919050565b60008073ffffffffffffffffffffffffffffffffffffffff168273ffffffffffffffffffffffffffffffffffffffff160361168e5760006040517f89c62b640000000000000000000000000000000000000000000000000000000081526004016116859190613d26565b60405180910390fd5b600360008373ffffffffffffffffffffffffffffffffffffffff1673ffffffffffffffffffffffffffffffffffffffff168152602001908152602001600020549050919050565b6000600760008154809291906116ea9061452f565b9190505550600060075490506117003382612ad1565b61170a8185612bca565b6117148184612c26565b8091505092915050565b3373ffffffffffffffffffffffffffffffffffffffff16600c600085815260200190815260200160002060020160009054906101000a900473ffffffffffffffffffffffffffffffffffffffff1673ffffffffffffffffffffffffffffffffffffffff16146117c2576040517f08c379a00000000000000000000000000000000000000000000000000000000081526004016117b990614620565b60405180910390fd5b6000600c600085815260200190815260200160002060040160016101000a81548160ff0219169083151502179055506000600c600085815260200190815260200160002060090160006101000a81548160ff02191690831515021790555033600c600085815260200190815260200160002060070160006101000a81548173ffffffffffffffffffffffffffffffffffffffff021916908373ffffffffffffffffffffffffffffffffffffffff16021790555081600c60008581526020019081526020016000206008018190555033600c600085815260200190815260200160002060010160006101000a81548173ffffffffffffffffffffffffffffffffffffffff021916908373ffffffffffffffffffffffffffffffffffffffff16021790555030600c600085815260200190815260200160002060020160006101000a81548173ffffffffffffffffffffffffffffffffffffffff021916908373ffffffffffffffffffffffffffffffffffffffff16021790555042600c600085815260200190815260200160002060050181905550804261196191906144cc565b600c6000858152602001908152602001600020600601819055506000600c600085815260200190815260200160002060040160006101000a81548160ff021916908315150217905550600960008154809291906119bd9061452f565b91905055506119cd333085612f3a565b505050565b6060600180546119e19061446c565b80601f0160208091040260200160405190810160405280929190818152602001828054611a0d9061446c565b8015611a5a5780601f10611a2f57610100808354040283529160200191611a5a565b820191906000526020600020905b815481529060010190602001808311611a3d57829003601f168201915b5050505050905090565b6000600c6000838152602001908152602001600020905080600801543411611ac1576040517f08c379a0000000000000000000000000000000000000000000000000000000008152600401611ab8906146b2565b60405180910390fd5b8060050154421015611b08576040517f08c379a0000000000000000000000000000000000000000000000000000000008152600401611aff9061471e565b60405180910390fd5b8060090160009054906101000a900460ff1615611b5a576040517f08c379a0000000000000000000000000000000000000000000000000000000008152600401611b519061478a565b60405180910390fd5b600073ffffffffffffffffffffffffffffffffffffffff168160070160009054906101000a900473ffffffffffffffffffffffffffffffffffffffff1673ffffffffffffffffffffffffffffffffffffffff1614611c285760008160070160009054906101000a900473ffffffffffffffffffffffffffffffffffffffff1690508073ffffffffffffffffffffffffffffffffffffffff166108fc83600801549081150290604051600060405180830381858888f19350505050158015611c25573d6000803e3d6000fd5b50505b348160080181905550338160070160006101000a81548173ffffffffffffffffffffffffffffffffffffffff021916908373ffffffffffffffffffffffffffffffffffffffff16021790555080600c6000848152602001908152602001600020600082015481600001556001820160009054906101000a900473ffffffffffffffffffffffffffffffffffffffff168160010160006101000a81548173ffffffffffffffffffffffffffffffffffffffff021916908373ffffffffffffffffffffffffffffffffffffffff1602179055506002820160009054906101000a900473ffffffffffffffffffffffffffffffffffffffff168160020160006101000a81548173ffffffffffffffffffffffffffffffffffffffff021916908373ffffffffffffffffffffffffffffffffffffffff160217905550600382015481600301556004820160009054906101000a900460ff168160040160006101000a81548160ff0219169083151502179055506004820160019054906101000a900460ff168160040160016101000a81548160ff02191690831515021790555060058201548160050155600682015481600601556007820160009054906101000a900473ffffffffffffffffffffffffffffffffffffffff168160070160006101000a81548173ffffffffffffffffffffffffffffffffffffffff021916908373ffffffffffffffffffffffffffffffffffffffff160217905550600882015481600801556009820160009054906101000a900460ff168160090160006101000a81548160ff0219169083151502179055509050505050565b611e8f611e8861289d565b83836130a7565b5050565b3373ffffffffffffffffffffffffffffffffffffffff16600b60009054906101000a900473ffffffffffffffffffffffffffffffffffffffff1673ffffffffffffffffffffffffffffffffffffffff1614611f23576040517f08c379a0000000000000000000000000000000000000000000000000000000008152600401611f1a9061481c565b60405180910390fd5b80600a8190555050565b611f38848484610de7565b611f4484848484613216565b50505050565b600c600082815260200190815260200160002060010160009054906101000a900473ffffffffffffffffffffffffffffffffffffffff1673ffffffffffffffffffffffffffffffffffffffff163373ffffffffffffffffffffffffffffffffffffffff1614611fee576040517f08c379a0000000000000000000000000000000000000000000000000000000008152600401611fe5906148ae565b60405180910390fd5b600073ffffffffffffffffffffffffffffffffffffffff16600c600083815260200190815260200160002060070160009054906101000a900473ffffffffffffffffffffffffffffffffffffffff1673ffffffffffffffffffffffffffffffffffffffff1603612093576040517f08c379a000000000000000000000000000000000000000000000000000000000815260040161208a90614940565b60405180910390fd5b6120d430600c600084815260200190815260200160002060070160009054906101000a900473ffffffffffffffffffffffffffffffffffffffff1683612f3a565b50565b6000600c6000838152602001908152602001600020600301549050803414612134576040517f08c379a000000000000000000000000000000000000000000000000000000000815260040161212b906149d2565b60405180910390fd5b33600c600084815260200190815260200160002060020160006101000a81548173ffffffffffffffffffffffffffffffffffffffff021916908373ffffffffffffffffffffffffffffffffffffffff1602179055506001600c600084815260200190815260200160002060040160006101000a81548160ff021916908315150217905550600860008154809291906121cb906149f2565b91905055506121db303384612f3a565b600b60009054906101000a900473ffffffffffffffffffffffffffffffffffffffff1673ffffffffffffffffffffffffffffffffffffffff166108fc600a549081150290604051600060405180830381858888f19350505050158015612245573d6000803e3d6000fd5b50600c600083815260200190815260200160002060010160009054906101000a900473ffffffffffffffffffffffffffffffffffffffff1673ffffffffffffffffffffffffffffffffffffffff166108fc349081150290604051600060405180830381858888f193505050501580156122c2573d6000803e3d6000fd5b506000600c600084815260200190815260200160002060010160006101000a81548173ffffffffffffffffffffffffffffffffffffffff021916908373ffffffffffffffffffffffffffffffffffffffff1602179055505050565b6060612328826127d8565b5060006006600084815260200190815260200160002080546123499061446c565b80601f01602080910402602001604051908101604052809291908181526020018280546123759061446c565b80156123c25780601f10612397576101008083540402835291602001916123c2565b820191906000526020600020905b8154815290600101906020018083116123a557829003601f168201915b5050505050905060006123d36133cd565b905060008151036123e857819250505061242b565b60008251111561241d578082604051602001612405929190614a57565b6040516020818303038152906040529250505061242b565b612426846133e4565b925050505b919050565b3373ffffffffffffffffffffffffffffffffffffffff16600c600084815260200190815260200160002060020160009054906101000a900473ffffffffffffffffffffffffffffffffffffffff1673ffffffffffffffffffffffffffffffffffffffff16146124d4576040517f08c379a00000000000000000000000000000000000000000000000000000000081526004016124cb90614620565b60405180910390fd5b600a543414612518576040517f08c379a000000000000000000000000000000000000000000000000000000000815260040161250f90614aed565b60405180910390fd5b6000600c600084815260200190815260200160002060040160006101000a81548160ff02191690831515021790555080600c60008481526020019081526020016000206003018190555033600c600084815260200190815260200160002060010160006101000a81548173ffffffffffffffffffffffffffffffffffffffff021916908373ffffffffffffffffffffffffffffffffffffffff16021790555030600c600084815260200190815260200160002060020160006101000a81548173ffffffffffffffffffffffffffffffffffffffff021916908373ffffffffffffffffffffffffffffffffffffffff1602179055506001600c600084815260200190815260200160002060040160016101000a81548160ff0219169083151502179055506008600081548092919061264e9061452f565b919050555061265e333084612f3a565b5050565b6000600560008473ffffffffffffffffffffffffffffffffffffffff1673ffffffffffffffffffffffffffffffffffffffff16815260200190815260200160002060008373ffffffffffffffffffffffffffffffffffffffff1673ffffffffffffffffffffffffffffffffffffffff16815260200190815260200160002060009054906101000a900460ff16905092915050565b60007f80ac58cd000000000000000000000000000000000000000000000000000000007bffffffffffffffffffffffffffffffffffffffffffffffffffffffff1916827bffffffffffffffffffffffffffffffffffffffffffffffffffffffff191614806127c157507f5b5e139f000000000000000000000000000000000000000000000000000000007bffffffffffffffffffffffffffffffffffffffffffffffffffffffff1916827bffffffffffffffffffffffffffffffffffffffffffffffffffffffff1916145b806127d157506127d08261344d565b5b9050919050565b6000806127e4836134b7565b9050600073ffffffffffffffffffffffffffffffffffffffff168173ffffffffffffffffffffffffffffffffffffffff160361285757826040517f7e27328900000000000000000000000000000000000000000000000000000000815260040161284e9190613fae565b60405180910390fd5b80915050919050565b60006004600083815260200190815260200160002060009054906101000a900473ffffffffffffffffffffffffffffffffffffffff169050919050565b600033905090565b6128b283838360016134f4565b505050565b6000806128c3846134b7565b9050600073ffffffffffffffffffffffffffffffffffffffff168373ffffffffffffffffffffffffffffffffffffffff1614612905576129048184866136b9565b5b600073ffffffffffffffffffffffffffffffffffffffff168173ffffffffffffffffffffffffffffffffffffffff1614612996576129476000856000806134f4565b6001600360008373ffffffffffffffffffffffffffffffffffffffff1673ffffffffffffffffffffffffffffffffffffffff168152602001908152602001600020600082825403925050819055505b600073ffffffffffffffffffffffffffffffffffffffff168573ffffffffffffffffffffffffffffffffffffffff1614612a19576001600360008773ffffffffffffffffffffffffffffffffffffffff1673ffffffffffffffffffffffffffffffffffffffff168152602001908152602001600020600082825401925050819055505b846002600086815260200190815260200160002060006101000a81548173ffffffffffffffffffffffffffffffffffffffff021916908373ffffffffffffffffffffffffffffffffffffffff160217905550838573ffffffffffffffffffffffffffffffffffffffff168273ffffffffffffffffffffffffffffffffffffffff167fddf252ad1be2c89b69c2b068fc378daa952ba7f163c4a11628f55a4df523b3ef60405160405180910390a4809150509392505050565b600073ffffffffffffffffffffffffffffffffffffffff168273ffffffffffffffffffffffffffffffffffffffff1603612b435760006040517f64a0ae92000000000000000000000000000000000000000000000000000000008152600401612b3a9190613d26565b60405180910390fd5b6000612b51838360006128b7565b9050600073ffffffffffffffffffffffffffffffffffffffff168173ffffffffffffffffffffffffffffffffffffffff1614612bc55760006040517f73c6ac6e000000000000000000000000000000000000000000000000000000008152600401612bbc9190613d26565b60405180910390fd5b505050565b80600660008481526020019081526020016000209081612bea9190614cb9565b507ff8e1a15aba9398e019f0b49df1a4fde98ee17ae345cb5f6b5e2c27f5033e8ce782604051612c1a9190613fae565b60405180910390a15050565b60008111612c69576040517f08c379a0000000000000000000000000000000000000000000000000000000008152600401612c6090614dd7565b60405180910390fd5b600a543414612cad576040517f08c379a0000000000000000000000000000000000000000000000000000000008152600401612ca490614aed565b60405180910390fd5b6040518061016001604052808381526020013373ffffffffffffffffffffffffffffffffffffffff1681526020013073ffffffffffffffffffffffffffffffffffffffff168152602001828152602001600015158152602001600115158152602001428152602001428152602001600073ffffffffffffffffffffffffffffffffffffffff16815260200182815260200160001515815250600c60008481526020019081526020016000206000820151816000015560208201518160010160006101000a81548173ffffffffffffffffffffffffffffffffffffffff021916908373ffffffffffffffffffffffffffffffffffffffff16021790555060408201518160020160006101000a81548173ffffffffffffffffffffffffffffffffffffffff021916908373ffffffffffffffffffffffffffffffffffffffff1602179055506060820151816003015560808201518160040160006101000a81548160ff02191690831515021790555060a08201518160040160016101000a81548160ff02191690831515021790555060c0820151816005015560e082015181600601556101008201518160070160006101000a81548173ffffffffffffffffffffffffffffffffffffffff021916908373ffffffffffffffffffffffffffffffffffffffff16021790555061012082015181600801556101408201518160090160006101000a81548160ff02191690831515021790555090505060086000815480929190612ed89061452f565b9190505550612ee8333084612f3a565b817ff28de24d294b42637634a7516b7c0a2384ab5c6f40d27c2c835bb0602083381c33308460006001424260008a6000604051612f2e9a99989796959493929190614df7565b60405180910390a25050565b600073ffffffffffffffffffffffffffffffffffffffff168273ffffffffffffffffffffffffffffffffffffffff1603612fac5760006040517f64a0ae92000000000000000000000000000000000000000000000000000000008152600401612fa39190613d26565b60405180910390fd5b6000612fba838360006128b7565b9050600073ffffffffffffffffffffffffffffffffffffffff168173ffffffffffffffffffffffffffffffffffffffff160361302d57816040517f7e2732890000000000000000000000000000000000000000000000000000000081526004016130249190613fae565b60405180910390fd5b8373ffffffffffffffffffffffffffffffffffffffff168173ffffffffffffffffffffffffffffffffffffffff16146130a1578382826040517f64283d7b00000000000000000000000000000000000000000000000000000000815260040161309893929190614577565b60405180910390fd5b50505050565b600073ffffffffffffffffffffffffffffffffffffffff168273ffffffffffffffffffffffffffffffffffffffff160361311857816040517f5b08ba1800000000000000000000000000000000000000000000000000000000815260040161310f9190613d26565b60405180910390fd5b80600560008573ffffffffffffffffffffffffffffffffffffffff1673ffffffffffffffffffffffffffffffffffffffff16815260200190815260200160002060008473ffffffffffffffffffffffffffffffffffffffff1673ffffffffffffffffffffffffffffffffffffffff16815260200190815260200160002060006101000a81548160ff0219169083151502179055508173ffffffffffffffffffffffffffffffffffffffff168373ffffffffffffffffffffffffffffffffffffffff167f17307eab39ab6107e8899845ad3d59bd9653f200f220920489ca2b5937696c31836040516132099190613bb5565b60405180910390a3505050565b60008373ffffffffffffffffffffffffffffffffffffffff163b11156133c7578273ffffffffffffffffffffffffffffffffffffffff1663150b7a0261325a61289d565b8685856040518563ffffffff1660e01b815260040161327c9493929190614ee8565b6020604051808303816000875af19250505080156132b857506040513d601f19601f820116820180604052508101906132b59190614f49565b60015b61333c573d80600081146132e8576040519150601f19603f3d011682016040523d82523d6000602084013e6132ed565b606091505b50600081510361333457836040517f64a0ae9200000000000000000000000000000000000000000000000000000000815260040161332b9190613d26565b60405180910390fd5b805181602001fd5b63150b7a0260e01b7bffffffffffffffffffffffffffffffffffffffffffffffffffffffff1916817bffffffffffffffffffffffffffffffffffffffffffffffffffffffff1916146133c557836040517f64a0ae920000000000000000000000000000000000000000000000000000000081526004016133bc9190613d26565b60405180910390fd5b505b50505050565b606060405180602001604052806000815250905090565b60606133ef826127d8565b5060006133fa6133cd565b9050600081511161341a5760405180602001604052806000815250613445565b806134248461377d565b604051602001613435929190614a57565b6040516020818303038152906040525b915050919050565b60007f01ffc9a7000000000000000000000000000000000000000000000000000000007bffffffffffffffffffffffffffffffffffffffffffffffffffffffff1916827bffffffffffffffffffffffffffffffffffffffffffffffffffffffff1916149050919050565b60006002600083815260200190815260200160002060009054906101000a900473ffffffffffffffffffffffffffffffffffffffff169050919050565b808061352d5750600073ffffffffffffffffffffffffffffffffffffffff168273ffffffffffffffffffffffffffffffffffffffff1614155b1561366157600061353d846127d8565b9050600073ffffffffffffffffffffffffffffffffffffffff168373ffffffffffffffffffffffffffffffffffffffff16141580156135a857508273ffffffffffffffffffffffffffffffffffffffff168173ffffffffffffffffffffffffffffffffffffffff1614155b80156135bb57506135b98184612662565b155b156135fd57826040517fa9fbf51f0000000000000000000000000000000000000000000000000000000081526004016135f49190613d26565b60405180910390fd5b811561365f57838573ffffffffffffffffffffffffffffffffffffffff168273ffffffffffffffffffffffffffffffffffffffff167f8c5be1e5ebec7d5bd14f71427d1e84f3dd0314c0f7b2291e5b200ac8c7c3b92560405160405180910390a45b505b836004600085815260200190815260200160002060006101000a81548173ffffffffffffffffffffffffffffffffffffffff021916908373ffffffffffffffffffffffffffffffffffffffff16021790555050505050565b6136c483838361384b565b61377857600073ffffffffffffffffffffffffffffffffffffffff168373ffffffffffffffffffffffffffffffffffffffff160361373957806040517f7e2732890000000000000000000000000000000000000000000000000000000081526004016137309190613fae565b60405180910390fd5b81816040517f177e802f00000000000000000000000000000000000000000000000000000000815260040161376f929190614f76565b60405180910390fd5b505050565b60606000600161378c8461390c565b01905060008167ffffffffffffffff8111156137ab576137aa614053565b5b6040519080825280601f01601f1916602001820160405280156137dd5781602001600182028036833780820191505090505b509050600082602001820190505b600115613840578080600190039150507f3031323334353637383961626364656600000000000000000000000000000000600a86061a8153600a858161383457613833614f9f565b5b049450600085036137eb575b819350505050919050565b60008073ffffffffffffffffffffffffffffffffffffffff168373ffffffffffffffffffffffffffffffffffffffff161415801561390357508273ffffffffffffffffffffffffffffffffffffffff168473ffffffffffffffffffffffffffffffffffffffff1614806138c457506138c38484612662565b5b8061390257508273ffffffffffffffffffffffffffffffffffffffff166138ea83612860565b73ffffffffffffffffffffffffffffffffffffffff16145b5b90509392505050565b600080600090507a184f03e93ff9f4daa797ed6e38ed64bf6a1f010000000000000000831061396a577a184f03e93ff9f4daa797ed6e38ed64bf6a1f01000000000000000083816139605761395f614f9f565b5b0492506040810190505b6d04ee2d6d415b85acef810000000083106139a7576d04ee2d6d415b85acef8100000000838161399d5761399c614f9f565b5b0492506020810190505b662386f26fc1000083106139d657662386f26fc1000083816139cc576139cb614f9f565b5b0492506010810190505b6305f5e10083106139ff576305f5e10083816139f5576139f4614f9f565b5b0492506008810190505b6127108310613a24576127108381613a1a57613a19614f9f565b5b0492506004810190505b60648310613a475760648381613a3d57613a3c614f9f565b5b0492506002810190505b600a8310613a56576001810190505b80915050919050565b60405180610160016040528060008152602001600073ffffffffffffffffffffffffffffffffffffffff168152602001600073ffffffffffffffffffffffffffffffffffffffff168152602001600081526020016000151581526020016000151581526020016000815260200160008152602001600073ffffffffffffffffffffffffffffffffffffffff168152602001600081526020016000151581525090565b6000604051905090565b600080fd5b600080fd5b60007fffffffff0000000000000000000000000000000000000000000000000000000082169050919050565b613b4a81613b15565b8114613b5557600080fd5b50565b600081359050613b6781613b41565b92915050565b600060208284031215613b8357613b82613b0b565b5b6000613b9184828501613b58565b91505092915050565b60008115159050919050565b613baf81613b9a565b82525050565b6000602082019050613bca6000830184613ba6565b92915050565b600081519050919050565b600082825260208201905092915050565b60005b83811015613c0a578082015181840152602081019050613bef565b60008484015250505050565b6000601f19601f8301169050919050565b6000613c3282613bd0565b613c3c8185613bdb565b9350613c4c818560208601613bec565b613c5581613c16565b840191505092915050565b60006020820190508181036000830152613c7a8184613c27565b905092915050565b6000819050919050565b613c9581613c82565b8114613ca057600080fd5b50565b600081359050613cb281613c8c565b92915050565b600060208284031215613cce57613ccd613b0b565b5b6000613cdc84828501613ca3565b91505092915050565b600073ffffffffffffffffffffffffffffffffffffffff82169050919050565b6000613d1082613ce5565b9050919050565b613d2081613d05565b82525050565b6000602082019050613d3b6000830184613d17565b92915050565b613d4a81613d05565b8114613d5557600080fd5b50565b600081359050613d6781613d41565b92915050565b60008060408385031215613d8457613d83613b0b565b5b6000613d9285828601613d58565b9250506020613da385828601613ca3565b9150509250929050565b600081519050919050565b600082825260208201905092915050565b6000819050602082019050919050565b613de281613c82565b82525050565b6000613df382613ce5565b9050919050565b613e0381613de8565b82525050565b613e1281613b9a565b82525050565b61016082016000820151613e2f6000850182613dd9565b506020820151613e426020850182613dfa565b506040820151613e556040850182613dfa565b506060820151613e686060850182613dd9565b506080820151613e7b6080850182613e09565b5060a0820151613e8e60a0850182613e09565b5060c0820151613ea160c0850182613dd9565b5060e0820151613eb460e0850182613dd9565b50610100820151613ec9610100850182613dfa565b50610120820151613ede610120850182613dd9565b50610140820151613ef3610140850182613e09565b50505050565b6000613f058383613e18565b6101608301905092915050565b6000602082019050919050565b6000613f2a82613dad565b613f348185613db8565b9350613f3f83613dc9565b8060005b83811015613f70578151613f578882613ef9565b9750613f6283613f12565b925050600181019050613f43565b5085935050505092915050565b60006020820190508181036000830152613f978184613f1f565b905092915050565b613fa881613c82565b82525050565b6000602082019050613fc36000830184613f9f565b92915050565b600080600060608486031215613fe257613fe1613b0b565b5b6000613ff086828701613d58565b935050602061400186828701613d58565b925050604061401286828701613ca3565b9150509250925092565b60006020828403121561403257614031613b0b565b5b600061404084828501613d58565b91505092915050565b600080fd5b600080fd5b7f4e487b7100000000000000000000000000000000000000000000000000000000600052604160045260246000fd5b61408b82613c16565b810181811067ffffffffffffffff821117156140aa576140a9614053565b5b80604052505050565b60006140bd613b01565b90506140c98282614082565b919050565b600067ffffffffffffffff8211156140e9576140e8614053565b5b6140f282613c16565b9050602081019050919050565b82818337600083830152505050565b600061412161411c846140ce565b6140b3565b90508281526020810184848401111561413d5761413c61404e565b5b6141488482856140ff565b509392505050565b600082601f83011261416557614164614049565b5b813561417584826020860161410e565b91505092915050565b6000806040838503121561419557614194613b0b565b5b600083013567ffffffffffffffff8111156141b3576141b2613b10565b5b6141bf85828601614150565b92505060206141d085828601613ca3565b9150509250929050565b6000806000606084860312156141f3576141f2613b0b565b5b600061420186828701613ca3565b935050602061421286828701613ca3565b925050604061422386828701613ca3565b9150509250925092565b61423681613b9a565b811461424157600080fd5b50565b6000813590506142538161422d565b92915050565b600080604083850312156142705761426f613b0b565b5b600061427e85828601613d58565b925050602061428f85828601614244565b9150509250929050565b600067ffffffffffffffff8211156142b4576142b3614053565b5b6142bd82613c16565b9050602081019050919050565b60006142dd6142d884614299565b6140b3565b9050828152602081018484840111156142f9576142f861404e565b5b6143048482856140ff565b509392505050565b600082601f83011261432157614320614049565b5b81356143318482602086016142ca565b91505092915050565b6000806000806080858703121561435457614353613b0b565b5b600061436287828801613d58565b945050602061437387828801613d58565b935050604061438487828801613ca3565b925050606085013567ffffffffffffffff8111156143a5576143a4613b10565b5b6143b18782880161430c565b91505092959194509250565b600080604083850312156143d4576143d3613b0b565b5b60006143e285828601613ca3565b92505060206143f385828601613ca3565b9150509250929050565b6000806040838503121561441457614413613b0b565b5b600061442285828601613d58565b925050602061443385828601613d58565b9150509250929050565b7f4e487b7100000000000000000000000000000000000000000000000000000000600052602260045260246000fd5b6000600282049050600182168061448457607f821691505b6020821081036144975761449661443d565b5b50919050565b7f4e487b7100000000000000000000000000000000000000000000000000000000600052601160045260246000fd5b60006144d782613c82565b91506144e283613c82565b92508282019050808211156144fa576144f961449d565b5b92915050565b7f4e487b7100000000000000000000000000000000000000000000000000000000600052603260045260246000fd5b600061453a82613c82565b91507fffffffffffffffffffffffffffffffffffffffffffffffffffffffffffffffff820361456c5761456b61449d565b5b600182019050919050565b600060608201905061458c6000830186613d17565b6145996020830185613f9f565b6145a66040830184613d17565b949350505050565b7f4f6e6c79206974656d206f776e65722063616e20706572666f726d207468697360008201527f206f7065726174696f6e00000000000000000000000000000000000000000000602082015250565b600061460a602a83613bdb565b9150614615826145ae565b604082019050919050565b60006020820190508181036000830152614639816145fd565b9050919050565b7f426964206d7573742062652067726561746572207468616e206869676865737460008201527f2062696400000000000000000000000000000000000000000000000000000000602082015250565b600061469c602483613bdb565b91506146a782614640565b604082019050919050565b600060208201905081810360008301526146cb8161468f565b9050919050565b7f41756374696f6e206e6f74207965742073746172746564000000000000000000600082015250565b6000614708601783613bdb565b9150614713826146d2565b602082019050919050565b60006020820190508181036000830152614737816146fb565b9050919050565b7f41756374696f6e20616c726561647920636f6d706c6574656400000000000000600082015250565b6000614774601983613bdb565b915061477f8261473e565b602082019050919050565b600060208201905081810360008301526147a381614767565b9050919050565b7f4f6e6c79206d61726b6574706c616365206f776e65722063616e20757064617460008201527f65206c697374696e672070726963652e00000000000000000000000000000000602082015250565b6000614806603083613bdb565b9150614811826147aa565b604082019050919050565b60006020820190508181036000830152614835816147f9565b9050919050565b7f4f6e6c792074686520746f6b656e206f776e65722063616e20656e642074686560008201527f2061756374696f6e000000000000000000000000000000000000000000000000602082015250565b6000614898602883613bdb565b91506148a38261483c565b604082019050919050565b600060208201905081810360008301526148c78161488b565b9050919050565b7f41756374696f6e206d7573742068617665206174206c65617374206f6e65206260008201527f6964000000000000000000000000000000000000000000000000000000000000602082015250565b600061492a602283613bdb565b9150614935826148ce565b604082019050919050565b600060208201905081810360008301526149598161491d565b9050919050565b7f506c65617365207375626d6974207468652061736b696e67207072696365206960008201527f6e206f7264657220746f20636f6d706c65746520746865207075726368617365602082015250565b60006149bc604083613bdb565b91506149c782614960565b604082019050919050565b600060208201905081810360008301526149eb816149af565b9050919050565b60006149fd82613c82565b915060008203614a1057614a0f61449d565b5b600182039050919050565b600081905092915050565b6000614a3182613bd0565b614a3b8185614a1b565b9350614a4b818560208601613bec565b80840191505092915050565b6000614a638285614a26565b9150614a6f8284614a26565b91508190509392505050565b7f5072696365206d75737420626520657175616c20746f206c697374696e67207060008201527f7269636500000000000000000000000000000000000000000000000000000000602082015250565b6000614ad7602483613bdb565b9150614ae282614a7b565b604082019050919050565b60006020820190508181036000830152614b0681614aca565b9050919050565b60008190508160005260206000209050919050565b60006020601f8301049050919050565b600082821b905092915050565b600060088302614b6f7fffffffffffffffffffffffffffffffffffffffffffffffffffffffffffffffff82614b32565b614b798683614b32565b95508019841693508086168417925050509392505050565b6000819050919050565b6000614bb6614bb1614bac84613c82565b614b91565b613c82565b9050919050565b6000819050919050565b614bd083614b9b565b614be4614bdc82614bbd565b848454614b3f565b825550505050565b600090565b614bf9614bec565b614c04818484614bc7565b505050565b5b81811015614c2857614c1d600082614bf1565b600181019050614c0a565b5050565b601f821115614c6d57614c3e81614b0d565b614c4784614b22565b81016020851015614c56578190505b614c6a614c6285614b22565b830182614c09565b50505b505050565b600082821c905092915050565b6000614c9060001984600802614c72565b1980831691505092915050565b6000614ca98383614c7f565b9150826002028217905092915050565b614cc282613bd0565b67ffffffffffffffff811115614cdb57614cda614053565b5b614ce5825461446c565b614cf0828285614c2c565b600060209050601f831160018114614d235760008415614d11578287015190505b614d1b8582614c9d565b865550614d83565b601f198416614d3186614b0d565b60005b82811015614d5957848901518255600182019150602085019450602081019050614d34565b86831015614d765784890151614d72601f891682614c7f565b8355505b6001600288020188555050505b505050505050565b7f5072696365206d757374206265206174206c6561737420312077656900000000600082015250565b6000614dc1601c83613bdb565b9150614dcc82614d8b565b602082019050919050565b60006020820190508181036000830152614df081614db4565b9050919050565b600061014082019050614e0d600083018d613d17565b614e1a602083018c613d17565b614e27604083018b613f9f565b614e34606083018a613ba6565b614e416080830189613ba6565b614e4e60a0830188613f9f565b614e5b60c0830187613f9f565b614e6860e0830186613d17565b614e76610100830185613f9f565b614e84610120830184613ba6565b9b9a5050505050505050505050565b600081519050919050565b600082825260208201905092915050565b6000614eba82614e93565b614ec48185614e9e565b9350614ed4818560208601613bec565b614edd81613c16565b840191505092915050565b6000608082019050614efd6000830187613d17565b614f0a6020830186613d17565b614f176040830185613f9f565b8181036060830152614f298184614eaf565b905095945050505050565b600081519050614f4381613b41565b92915050565b600060208284031215614f5f57614f5e613b0b565b5b6000614f6d84828501614f34565b91505092915050565b6000604082019050614f8b6000830185613d17565b614f986020830184613f9f565b9392505050565b7f4e487b7100000000000000000000000000000000000000000000000000000000600052601260045260246000fdfea2646970667358221220209191a570a17d4bb14b95ca4f8941a53f10335fc486f1c22a63516f7932200764736f6c63430008140033",
  "linkReferences": {},
  "deployedLinkReferences": {}
}