{
  "_format": "hh-sol-artifact-1",
  "contractName": "NFTMarketplace",
  "sourceName": "contracts/NFTMarketplace.sol",
  "abi": [
    {
      "inputs": [],
      "stateMutability": "nonpayable",
      "type": "constructor"
    },
    {
      "inputs": [
        {
          "internalType": "address",
          "name": "sender",
          "type": "address"
        },
        {
          "internalType": "uint256",
          "name": "tokenId",
          "type": "uint256"
        },
        {
          "internalType": "address",
          "name": "owner",
          "type": "address"
        }
      ],
      "name": "ERC721IncorrectOwner",
      "type": "error"
    },
    {
      "inputs": [
        {
          "internalType": "address",
          "name": "operator",
          "type": "address"
        },
        {
          "internalType": "uint256",
          "name": "tokenId",
          "type": "uint256"
        }
      ],
      "name": "ERC721InsufficientApproval",
      "type": "error"
    },
    {
      "inputs": [
        {
          "internalType": "address",
          "name": "approver",
          "type": "address"
        }
      ],
      "name": "ERC721InvalidApprover",
      "type": "error"
    },
    {
      "inputs": [
        {
          "internalType": "address",
          "name": "operator",
          "type": "address"
        }
      ],
      "name": "ERC721InvalidOperator",
      "type": "error"
    },
    {
      "inputs": [
        {
          "internalType": "address",
          "name": "owner",
          "type": "address"
        }
      ],
      "name": "ERC721InvalidOwner",
      "type": "error"
    },
    {
      "inputs": [
        {
          "internalType": "address",
          "name": "receiver",
          "type": "address"
        }
      ],
      "name": "ERC721InvalidReceiver",
      "type": "error"
    },
    {
      "inputs": [
        {
          "internalType": "address",
          "name": "sender",
          "type": "address"
        }
      ],
      "name": "ERC721InvalidSender",
      "type": "error"
    },
    {
      "inputs": [
        {
          "internalType": "uint256",
          "name": "tokenId",
          "type": "uint256"
        }
      ],
      "name": "ERC721NonexistentToken",
      "type": "error"
    },
    {
      "anonymous": false,
      "inputs": [
        {
          "indexed": true,
          "internalType": "address",
          "name": "owner",
          "type": "address"
        },
        {
          "indexed": true,
          "internalType": "address",
          "name": "approved",
          "type": "address"
        },
        {
          "indexed": true,
          "internalType": "uint256",
          "name": "tokenId",
          "type": "uint256"
        }
      ],
      "name": "Approval",
      "type": "event"
    },
    {
      "anonymous": false,
      "inputs": [
        {
          "indexed": true,
          "internalType": "address",
          "name": "owner",
          "type": "address"
        },
        {
          "indexed": true,
          "internalType": "address",
          "name": "operator",
          "type": "address"
        },
        {
          "indexed": false,
          "internalType": "bool",
          "name": "approved",
          "type": "bool"
        }
      ],
      "name": "ApprovalForAll",
      "type": "event"
    },
    {
      "anonymous": false,
      "inputs": [
        {
          "indexed": false,
          "internalType": "uint256",
          "name": "_fromTokenId",
          "type": "uint256"
        },
        {
          "indexed": false,
          "internalType": "uint256",
          "name": "_toTokenId",
          "type": "uint256"
        }
      ],
      "name": "BatchMetadataUpdate",
      "type": "event"
    },
    {
      "anonymous": false,
      "inputs": [
        {
          "indexed": true,
          "internalType": "uint256",
          "name": "tokenId",
          "type": "uint256"
        },
        {
          "indexed": false,
          "internalType": "address",
          "name": "seller",
          "type": "address"
        },
        {
          "indexed": false,
          "internalType": "address",
          "name": "owner",
          "type": "address"
        },
        {
          "indexed": false,
          "internalType": "uint256",
          "name": "price",
          "type": "uint256"
        },
        {
          "indexed": false,
          "internalType": "bool",
          "name": "sold",
          "type": "bool"
        },
        {
          "indexed": false,
          "internalType": "bool",
          "name": "directSold",
          "type": "bool"
        },
        {
          "indexed": false,
          "internalType": "uint256",
          "name": "startTime",
          "type": "uint256"
        },
        {
          "indexed": false,
          "internalType": "uint256",
          "name": "endTime",
          "type": "uint256"
        },
        {
          "indexed": false,
          "internalType": "address",
          "name": "highestBidder",
          "type": "address"
        },
        {
          "indexed": false,
          "internalType": "uint256",
          "name": "highestBid",
          "type": "uint256"
        },
        {
          "indexed": false,
          "internalType": "bool",
          "name": "auctionCompleted",
          "type": "bool"
        }
      ],
      "name": "MarketItemCreated",
      "type": "event"
    },
    {
      "anonymous": false,
      "inputs": [
        {
          "indexed": false,
          "internalType": "uint256",
          "name": "_tokenId",
          "type": "uint256"
        }
      ],
      "name": "MetadataUpdate",
      "type": "event"
    },
    {
      "anonymous": false,
      "inputs": [
        {
          "indexed": true,
          "internalType": "address",
          "name": "from",
          "type": "address"
        },
        {
          "indexed": true,
          "internalType": "address",
          "name": "to",
          "type": "address"
        },
        {
          "indexed": true,
          "internalType": "uint256",
          "name": "tokenId",
          "type": "uint256"
        }
      ],
      "name": "Transfer",
      "type": "event"
    },
    {
      "inputs": [
        {
          "internalType": "address",
          "name": "to",
          "type": "address"
        },
        {
          "internalType": "uint256",
          "name": "tokenId",
          "type": "uint256"
        }
      ],
      "name": "approve",
      "outputs": [],
      "stateMutability": "nonpayable",
      "type": "function"
    },
    {
      "inputs": [
        {
          "internalType": "address",
          "name": "owner",
          "type": "address"
        }
      ],
      "name": "balanceOf",
      "outputs": [
        {
          "internalType": "uint256",
          "name": "",
          "type": "uint256"
        }
      ],
      "stateMutability": "view",
      "type": "function"
    },
    {
      "inputs": [
        {
          "internalType": "uint256",
          "name": "tokenId",
          "type": "uint256"
        }
      ],
      "name": "createMarketSale",
      "outputs": [],
      "stateMutability": "payable",
      "type": "function"
    },
    {
      "inputs": [
        {
          "internalType": "string",
          "name": "tokenURI",
          "type": "string"
        },
        {
          "internalType": "uint256",
          "name": "price",
          "type": "uint256"
        }
      ],
      "name": "createToken",
      "outputs": [
        {
          "internalType": "uint256",
          "name": "",
          "type": "uint256"
        }
      ],
      "stateMutability": "payable",
      "type": "function"
    },
    {
      "inputs": [],
      "name": "fetchAuctionItems",
      "outputs": [
        {
          "components": [
            {
              "internalType": "uint256",
              "name": "tokenId",
              "type": "uint256"
            },
            {
              "internalType": "address payable",
              "name": "seller",
              "type": "address"
            },
            {
              "internalType": "address payable",
              "name": "owner",
              "type": "address"
            },
            {
              "internalType": "uint256",
              "name": "price",
              "type": "uint256"
            },
            {
              "internalType": "bool",
              "name": "sold",
              "type": "bool"
            },
            {
              "internalType": "bool",
              "name": "directSold",
              "type": "bool"
            },
            {
              "internalType": "uint256",
              "name": "startTime",
              "type": "uint256"
            },
            {
              "internalType": "uint256",
              "name": "endTime",
              "type": "uint256"
            },
            {
              "internalType": "address payable",
              "name": "highestBidder",
              "type": "address"
            },
            {
              "internalType": "uint256",
              "name": "highestBid",
              "type": "uint256"
            },
            {
              "internalType": "bool",
              "name": "auctionCompleted",
              "type": "bool"
            }
          ],
          "internalType": "struct NFTMarketplace.MarketItem[]",
          "name": "",
          "type": "tuple[]"
        }
      ],
      "stateMutability": "view",
      "type": "function"
    },
    {
      "inputs": [],
      "name": "fetchItemsListed",
      "outputs": [
        {
          "components": [
            {
              "internalType": "uint256",
              "name": "tokenId",
              "type": "uint256"
            },
            {
              "internalType": "address payable",
              "name": "seller",
              "type": "address"
            },
            {
              "internalType": "address payable",
              "name": "owner",
              "type": "address"
            },
            {
              "internalType": "uint256",
              "name": "price",
              "type": "uint256"
            },
            {
              "internalType": "bool",
              "name": "sold",
              "type": "bool"
            },
            {
              "internalType": "bool",
              "name": "directSold",
              "type": "bool"
            },
            {
              "internalType": "uint256",
              "name": "startTime",
              "type": "uint256"
            },
            {
              "internalType": "uint256",
              "name": "endTime",
              "type": "uint256"
            },
            {
              "internalType": "address payable",
              "name": "highestBidder",
              "type": "address"
            },
            {
              "internalType": "uint256",
              "name": "highestBid",
              "type": "uint256"
            },
            {
              "internalType": "bool",
              "name": "auctionCompleted",
              "type": "bool"
            }
          ],
          "internalType": "struct NFTMarketplace.MarketItem[]",
          "name": "",
          "type": "tuple[]"
        }
      ],
      "stateMutability": "view",
      "type": "function"
    },
    {
      "inputs": [],
      "name": "fetchMarketItems",
      "outputs": [
        {
          "components": [
            {
              "internalType": "uint256",
              "name": "tokenId",
              "type": "uint256"
            },
            {
              "internalType": "address payable",
              "name": "seller",
              "type": "address"
            },
            {
              "internalType": "address payable",
              "name": "owner",
              "type": "address"
            },
            {
              "internalType": "uint256",
              "name": "price",
              "type": "uint256"
            },
            {
              "internalType": "bool",
              "name": "sold",
              "type": "bool"
            },
            {
              "internalType": "bool",
              "name": "directSold",
              "type": "bool"
            },
            {
              "internalType": "uint256",
              "name": "startTime",
              "type": "uint256"
            },
            {
              "internalType": "uint256",
              "name": "endTime",
              "type": "uint256"
            },
            {
              "internalType": "address payable",
              "name": "highestBidder",
              "type": "address"
            },
            {
              "internalType": "uint256",
              "name": "highestBid",
              "type": "uint256"
            },
            {
              "internalType": "bool",
              "name": "auctionCompleted",
              "type": "bool"
            }
          ],
          "internalType": "struct NFTMarketplace.MarketItem[]",
          "name": "",
          "type": "tuple[]"
        }
      ],
      "stateMutability": "view",
      "type": "function"
    },
    {
      "inputs": [],
      "name": "fetchMyNFTs",
      "outputs": [
        {
          "components": [
            {
              "internalType": "uint256",
              "name": "tokenId",
              "type": "uint256"
            },
            {
              "internalType": "address payable",
              "name": "seller",
              "type": "address"
            },
            {
              "internalType": "address payable",
              "name": "owner",
              "type": "address"
            },
            {
              "internalType": "uint256",
              "name": "price",
              "type": "uint256"
            },
            {
              "internalType": "bool",
              "name": "sold",
              "type": "bool"
            },
            {
              "internalType": "bool",
              "name": "directSold",
              "type": "bool"
            },
            {
              "internalType": "uint256",
              "name": "startTime",
              "type": "uint256"
            },
            {
              "internalType": "uint256",
              "name": "endTime",
              "type": "uint256"
            },
            {
              "internalType": "address payable",
              "name": "highestBidder",
              "type": "address"
            },
            {
              "internalType": "uint256",
              "name": "highestBid",
              "type": "uint256"
            },
            {
              "internalType": "bool",
              "name": "auctionCompleted",
              "type": "bool"
            }
          ],
          "internalType": "struct NFTMarketplace.MarketItem[]",
          "name": "",
          "type": "tuple[]"
        }
      ],
      "stateMutability": "view",
      "type": "function"
    },
    {
      "inputs": [
        {
          "internalType": "uint256",
          "name": "tokenId",
          "type": "uint256"
        }
      ],
      "name": "getApproved",
      "outputs": [
        {
          "internalType": "address",
          "name": "",
          "type": "address"
        }
      ],
      "stateMutability": "view",
      "type": "function"
    },
    {
      "inputs": [],
      "name": "getListingPrice",
      "outputs": [
        {
          "internalType": "uint256",
          "name": "",
          "type": "uint256"
        }
      ],
      "stateMutability": "view",
      "type": "function"
    },
    {
      "inputs": [
        {
          "internalType": "address",
          "name": "owner",
          "type": "address"
        },
        {
          "internalType": "address",
          "name": "operator",
          "type": "address"
        }
      ],
      "name": "isApprovedForAll",
      "outputs": [
        {
          "internalType": "bool",
          "name": "",
          "type": "bool"
        }
      ],
      "stateMutability": "view",
      "type": "function"
    },
    {
      "inputs": [],
      "name": "name",
      "outputs": [
        {
          "internalType": "string",
          "name": "",
          "type": "string"
        }
      ],
      "stateMutability": "view",
      "type": "function"
    },
    {
      "inputs": [
        {
          "internalType": "uint256",
          "name": "tokenId",
          "type": "uint256"
        }
      ],
      "name": "ownerOf",
      "outputs": [
        {
          "internalType": "address",
          "name": "",
          "type": "address"
        }
      ],
      "stateMutability": "view",
      "type": "function"
    },
    {
      "inputs": [
        {
          "internalType": "uint256",
          "name": "tokenId",
          "type": "uint256"
        }
      ],
      "name": "placeBid",
      "outputs": [],
      "stateMutability": "payable",
      "type": "function"
    },
    {
      "inputs": [
        {
          "internalType": "uint256",
          "name": "tokenId",
          "type": "uint256"
        },
        {
          "internalType": "uint256",
          "name": "price",
          "type": "uint256"
        }
      ],
      "name": "resellToken",
      "outputs": [],
      "stateMutability": "payable",
      "type": "function"
    },
    {
      "inputs": [
        {
          "internalType": "address",
          "name": "from",
          "type": "address"
        },
        {
          "internalType": "address",
          "name": "to",
          "type": "address"
        },
        {
          "internalType": "uint256",
          "name": "tokenId",
          "type": "uint256"
        }
      ],
      "name": "safeTransferFrom",
      "outputs": [],
      "stateMutability": "nonpayable",
      "type": "function"
    },
    {
      "inputs": [
        {
          "internalType": "address",
          "name": "from",
          "type": "address"
        },
        {
          "internalType": "address",
          "name": "to",
          "type": "address"
        },
        {
          "internalType": "uint256",
          "name": "tokenId",
          "type": "uint256"
        },
        {
          "internalType": "bytes",
          "name": "data",
          "type": "bytes"
        }
      ],
      "name": "safeTransferFrom",
      "outputs": [],
      "stateMutability": "nonpayable",
      "type": "function"
    },
    {
      "inputs": [
        {
          "internalType": "address",
          "name": "operator",
          "type": "address"
        },
        {
          "internalType": "bool",
          "name": "approved",
          "type": "bool"
        }
      ],
      "name": "setApprovalForAll",
      "outputs": [],
      "stateMutability": "nonpayable",
      "type": "function"
    },
    {
      "inputs": [
        {
          "internalType": "uint256",
          "name": "tokenId",
          "type": "uint256"
        },
        {
          "internalType": "uint256",
          "name": "price",
          "type": "uint256"
        },
        {
          "internalType": "uint256",
          "name": "durations",
          "type": "uint256"
        }
      ],
      "name": "startAuction",
      "outputs": [],
      "stateMutability": "payable",
      "type": "function"
    },
    {
      "inputs": [
        {
          "internalType": "bytes4",
          "name": "interfaceId",
          "type": "bytes4"
        }
      ],
      "name": "supportsInterface",
      "outputs": [
        {
          "internalType": "bool",
          "name": "",
          "type": "bool"
        }
      ],
      "stateMutability": "view",
      "type": "function"
    },
    {
      "inputs": [],
      "name": "symbol",
      "outputs": [
        {
          "internalType": "string",
          "name": "",
          "type": "string"
        }
      ],
      "stateMutability": "view",
      "type": "function"
    },
    {
      "inputs": [
        {
          "internalType": "uint256",
          "name": "tokenId",
          "type": "uint256"
        }
      ],
      "name": "tokenURI",
      "outputs": [
        {
          "internalType": "string",
          "name": "",
          "type": "string"
        }
      ],
      "stateMutability": "view",
      "type": "function"
    },
    {
      "inputs": [
        {
          "internalType": "address",
          "name": "from",
          "type": "address"
        },
        {
          "internalType": "address",
          "name": "to",
          "type": "address"
        },
        {
          "internalType": "uint256",
          "name": "tokenId",
          "type": "uint256"
        }
      ],
      "name": "transferFrom",
      "outputs": [],
      "stateMutability": "nonpayable",
      "type": "function"
    },
    {
      "inputs": [
        {
          "internalType": "uint256",
          "name": "_listingPrice",
          "type": "uint256"
        }
      ],
      "name": "updateListingPrice",
      "outputs": [],
      "stateMutability": "payable",
      "type": "function"
    }
  ],
  "bytecode": "0x60806040526658d15e17628000600a553480156200001c57600080fd5b506040518060400160405280601081526020017f4d657461766572736520546f6b656e73000000000000000000000000000000008152506040518060400160405280600481526020017f4d4554540000000000000000000000000000000000000000000000000000000081525081600090816200009a919062000388565b508060019081620000ac919062000388565b50505033600b60006101000a81548173ffffffffffffffffffffffffffffffffffffffff021916908373ffffffffffffffffffffffffffffffffffffffff1602179055506000600781905550600060098190555060006008819055506200046f565b600081519050919050565b7f4e487b7100000000000000000000000000000000000000000000000000000000600052604160045260246000fd5b7f4e487b7100000000000000000000000000000000000000000000000000000000600052602260045260246000fd5b600060028204905060018216806200019057607f821691505b602082108103620001a657620001a562000148565b5b50919050565b60008190508160005260206000209050919050565b60006020601f8301049050919050565b600082821b905092915050565b600060088302620002107fffffffffffffffffffffffffffffffffffffffffffffffffffffffffffffffff82620001d1565b6200021c8683620001d1565b95508019841693508086168417925050509392505050565b6000819050919050565b6000819050919050565b600062000269620002636200025d8462000234565b6200023e565b62000234565b9050919050565b6000819050919050565b620002858362000248565b6200029d620002948262000270565b848454620001de565b825550505050565b600090565b620002b4620002a5565b620002c18184846200027a565b505050565b5b81811015620002e957620002dd600082620002aa565b600181019050620002c7565b5050565b601f82111562000338576200030281620001ac565b6200030d84620001c1565b810160208510156200031d578190505b620003356200032c85620001c1565b830182620002c6565b50505b505050565b600082821c905092915050565b60006200035d600019846008026200033d565b1980831691505092915050565b60006200037883836200034a565b9150826002028217905092915050565b62000393826200010e565b67ffffffffffffffff811115620003af57620003ae62000119565b5b620003bb825462000177565b620003c8828285620002ed565b600060209050601f831160018114620004005760008415620003eb578287015190505b620003f785826200036a565b86555062000467565b601f1984166200041086620001ac565b60005b828110156200043a5784890151825560018201915060208501945060208101905062000413565b868310156200045a578489015162000456601f8916826200034a565b8355505b6001600288020188555050505b505050505050565b614caa806200047f6000396000f3fe60806040526004361061014b5760003560e01c806370a08231116100b6578063ae677aa31161006f578063ae677aa31461047d578063b88d4fde14610499578063be9af536146104c2578063c87b56dd146104de578063e219fc751461051b578063e985e9c5146105375761014b565b806370a082311461038457806372b3b620146103c157806391e078bb146103f157806395d89b411461040d5780639979ef4514610438578063a22cb465146104545761014b565b8063202e374011610108578063202e37401461027457806323b872dd1461029f57806342842e0e146102c857806345f8fa80146102f157806354d54e0a1461031c5780636352211e146103475761014b565b806301ffc9a71461015057806306fdde031461018d578063081812fc146101b8578063095ea7b3146101f55780630f08efe01461021e57806312e8558514610249575b600080fd5b34801561015c57600080fd5b5061017760048036038101906101729190613937565b610574565b604051610184919061397f565b60405180910390f35b34801561019957600080fd5b506101a26105d5565b6040516101af9190613a2a565b60405180910390f35b3480156101c457600080fd5b506101df60048036038101906101da9190613a82565b610667565b6040516101ec9190613af0565b60405180910390f35b34801561020157600080fd5b5061021c60048036038101906102179190613b37565b610683565b005b34801561022a57600080fd5b50610233610699565b6040516102409190613d47565b60405180910390f35b34801561025557600080fd5b5061025e610a09565b60405161026b9190613d78565b60405180910390f35b34801561028057600080fd5b50610289610a13565b6040516102969190613d47565b60405180910390f35b3480156102ab57600080fd5b506102c660048036038101906102c19190613d93565b610da3565b005b3480156102d457600080fd5b506102ef60048036038101906102ea9190613d93565b610ea5565b005b3480156102fd57600080fd5b50610306610ec5565b6040516103139190613d47565b60405180910390f35b34801561032857600080fd5b50610331611255565b60405161033e9190613d47565b60405180910390f35b34801561035357600080fd5b5061036e60048036038101906103699190613a82565b6115c5565b60405161037b9190613af0565b60405180910390f35b34801561039057600080fd5b506103ab60048036038101906103a69190613de6565b6115d7565b6040516103b89190613d78565b60405180910390f35b6103db60048036038101906103d69190613f48565b611691565b6040516103e89190613d78565b60405180910390f35b61040b60048036038101906104069190613fa4565b6116da565b005b34801561041957600080fd5b5061042261198e565b60405161042f9190613a2a565b60405180910390f35b610452600480360381019061044d9190613a82565b611a20565b005b34801561046057600080fd5b5061047b60048036038101906104769190614023565b611dd4565b005b61049760048036038101906104929190613a82565b611dea565b005b3480156104a557600080fd5b506104c060048036038101906104bb9190614104565b611e84565b005b6104dc60048036038101906104d79190613a82565b611ea1565b005b3480156104ea57600080fd5b5061050560048036038101906105009190613a82565b6120e7565b6040516105129190613a2a565b60405180910390f35b61053560048036038101906105309190614187565b6121fa565b005b34801561054357600080fd5b5061055e600480360381019061055991906141c7565b61242c565b60405161056b919061397f565b60405180910390f35b6000634906490660e01b7bffffffffffffffffffffffffffffffffffffffffffffffffffffffff1916827bffffffffffffffffffffffffffffffffffffffffffffffffffffffff191614806105ce57506105cd826124c0565b5b9050919050565b6060600080546105e490614236565b80601f016020809104026020016040519081016040528092919081815260200182805461061090614236565b801561065d5780601f106106325761010080835404028352916020019161065d565b820191906000526020600020905b81548152906001019060200180831161064057829003601f168201915b5050505050905090565b6000610672826125a2565b5061067c8261262a565b9050919050565b6106958282610690612667565b61266f565b5050565b606060006007549050600060085490506000808267ffffffffffffffff8111156106c6576106c5613e1d565b5b6040519080825280602002602001820160405280156106ff57816020015b6106ec613829565b8152602001906001900390816106e45790505b50905060005b848110156109fe573073ffffffffffffffffffffffffffffffffffffffff16600c60006001846107359190614296565b815260200190815260200160002060020160009054906101000a900473ffffffffffffffffffffffffffffffffffffffff1673ffffffffffffffffffffffffffffffffffffffff161480156107bd575060011515600c600060018461079a9190614296565b815260200190815260200160002060040160019054906101000a900460ff161515145b80156107fc575060001515600c60006001846107d99190614296565b815260200190815260200160002060040160009054906101000a900460ff161515145b156109eb5760006001826108109190614296565b90506000600c600083815260200190815260200160002090508060405180610160016040529081600082015481526020016001820160009054906101000a900473ffffffffffffffffffffffffffffffffffffffff1673ffffffffffffffffffffffffffffffffffffffff1673ffffffffffffffffffffffffffffffffffffffff1681526020016002820160009054906101000a900473ffffffffffffffffffffffffffffffffffffffff1673ffffffffffffffffffffffffffffffffffffffff1673ffffffffffffffffffffffffffffffffffffffff168152602001600382015481526020016004820160009054906101000a900460ff161515151581526020016004820160019054906101000a900460ff1615151515815260200160058201548152602001600682015481526020016007820160009054906101000a900473ffffffffffffffffffffffffffffffffffffffff1673ffffffffffffffffffffffffffffffffffffffff1673ffffffffffffffffffffffffffffffffffffffff168152602001600882015481526020016009820160009054906101000a900460ff1615151515815250508486815181106109ce576109cd6142ca565b5b60200260200101819052506001856109e69190614296565b945050505b80806109f6906142f9565b915050610705565b508094505050505090565b6000600a54905090565b60606000600754905060008060005b83811015610ac2573373ffffffffffffffffffffffffffffffffffffffff16600c6000600184610a529190614296565b815260200190815260200160002060020160009054906101000a900473ffffffffffffffffffffffffffffffffffffffff1673ffffffffffffffffffffffffffffffffffffffff1603610aaf57600183610aac9190614296565b92505b8080610aba906142f9565b915050610a22565b5060008267ffffffffffffffff811115610adf57610ade613e1d565b5b604051908082528060200260200182016040528015610b1857816020015b610b05613829565b815260200190600190039081610afd5790505b50905060005b84811015610d98573373ffffffffffffffffffffffffffffffffffffffff16600c6000600184610b4e9190614296565b815260200190815260200160002060020160009054906101000a900473ffffffffffffffffffffffffffffffffffffffff1673ffffffffffffffffffffffffffffffffffffffff1603610d85576000600182610baa9190614296565b90506000600c600083815260200190815260200160002090508060405180610160016040529081600082015481526020016001820160009054906101000a900473ffffffffffffffffffffffffffffffffffffffff1673ffffffffffffffffffffffffffffffffffffffff1673ffffffffffffffffffffffffffffffffffffffff1681526020016002820160009054906101000a900473ffffffffffffffffffffffffffffffffffffffff1673ffffffffffffffffffffffffffffffffffffffff1673ffffffffffffffffffffffffffffffffffffffff168152602001600382015481526020016004820160009054906101000a900460ff161515151581526020016004820160019054906101000a900460ff1615151515815260200160058201548152602001600682015481526020016007820160009054906101000a900473ffffffffffffffffffffffffffffffffffffffff1673ffffffffffffffffffffffffffffffffffffffff1673ffffffffffffffffffffffffffffffffffffffff168152602001600882015481526020016009820160009054906101000a900460ff161515151581525050848681518110610d6857610d676142ca565b5b6020026020010181905250600185610d809190614296565b945050505b8080610d90906142f9565b915050610b1e565b508094505050505090565b600073ffffffffffffffffffffffffffffffffffffffff168273ffffffffffffffffffffffffffffffffffffffff1603610e155760006040517f64a0ae92000000000000000000000000000000000000000000000000000000008152600401610e0c9190613af0565b60405180910390fd5b6000610e298383610e24612667565b612681565b90508373ffffffffffffffffffffffffffffffffffffffff168173ffffffffffffffffffffffffffffffffffffffff1614610e9f578382826040517f64283d7b000000000000000000000000000000000000000000000000000000008152600401610e9693929190614341565b60405180910390fd5b50505050565b610ec083838360405180602001604052806000815250611e84565b505050565b60606000600754905060008060005b83811015610f74573373ffffffffffffffffffffffffffffffffffffffff16600c6000600184610f049190614296565b815260200190815260200160002060010160009054906101000a900473ffffffffffffffffffffffffffffffffffffffff1673ffffffffffffffffffffffffffffffffffffffff1603610f6157600183610f5e9190614296565b92505b8080610f6c906142f9565b915050610ed4565b5060008267ffffffffffffffff811115610f9157610f90613e1d565b5b604051908082528060200260200182016040528015610fca57816020015b610fb7613829565b815260200190600190039081610faf5790505b50905060005b8481101561124a573373ffffffffffffffffffffffffffffffffffffffff16600c60006001846110009190614296565b815260200190815260200160002060010160009054906101000a900473ffffffffffffffffffffffffffffffffffffffff1673ffffffffffffffffffffffffffffffffffffffff160361123757600060018261105c9190614296565b90506000600c600083815260200190815260200160002090508060405180610160016040529081600082015481526020016001820160009054906101000a900473ffffffffffffffffffffffffffffffffffffffff1673ffffffffffffffffffffffffffffffffffffffff1673ffffffffffffffffffffffffffffffffffffffff1681526020016002820160009054906101000a900473ffffffffffffffffffffffffffffffffffffffff1673ffffffffffffffffffffffffffffffffffffffff1673ffffffffffffffffffffffffffffffffffffffff168152602001600382015481526020016004820160009054906101000a900460ff161515151581526020016004820160019054906101000a900460ff1615151515815260200160058201548152602001600682015481526020016007820160009054906101000a900473ffffffffffffffffffffffffffffffffffffffff1673ffffffffffffffffffffffffffffffffffffffff1673ffffffffffffffffffffffffffffffffffffffff168152602001600882015481526020016009820160009054906101000a900460ff16151515158152505084868151811061121a576112196142ca565b5b60200260200101819052506001856112329190614296565b945050505b8080611242906142f9565b915050610fd0565b508094505050505090565b606060006007549050600060095490506000808267ffffffffffffffff81111561128257611281613e1d565b5b6040519080825280602002602001820160405280156112bb57816020015b6112a8613829565b8152602001906001900390816112a05790505b50905060005b848110156115ba573073ffffffffffffffffffffffffffffffffffffffff16600c60006001846112f19190614296565b815260200190815260200160002060020160009054906101000a900473ffffffffffffffffffffffffffffffffffffffff1673ffffffffffffffffffffffffffffffffffffffff16148015611379575060001515600c60006001846113569190614296565b815260200190815260200160002060040160019054906101000a900460ff161515145b80156113b8575060001515600c60006001846113959190614296565b815260200190815260200160002060040160009054906101000a900460ff161515145b156115a75760006001826113cc9190614296565b90506000600c600083815260200190815260200160002090508060405180610160016040529081600082015481526020016001820160009054906101000a900473ffffffffffffffffffffffffffffffffffffffff1673ffffffffffffffffffffffffffffffffffffffff1673ffffffffffffffffffffffffffffffffffffffff1681526020016002820160009054906101000a900473ffffffffffffffffffffffffffffffffffffffff1673ffffffffffffffffffffffffffffffffffffffff1673ffffffffffffffffffffffffffffffffffffffff168152602001600382015481526020016004820160009054906101000a900460ff161515151581526020016004820160019054906101000a900460ff1615151515815260200160058201548152602001600682015481526020016007820160009054906101000a900473ffffffffffffffffffffffffffffffffffffffff1673ffffffffffffffffffffffffffffffffffffffff1673ffffffffffffffffffffffffffffffffffffffff168152602001600882015481526020016009820160009054906101000a900460ff16151515158152505084868151811061158a576115896142ca565b5b60200260200101819052506001856115a29190614296565b945050505b80806115b2906142f9565b9150506112c1565b508094505050505090565b60006115d0826125a2565b9050919050565b60008073ffffffffffffffffffffffffffffffffffffffff168273ffffffffffffffffffffffffffffffffffffffff160361164a5760006040517f89c62b640000000000000000000000000000000000000000000000000000000081526004016116419190613af0565b60405180910390fd5b600360008373ffffffffffffffffffffffffffffffffffffffff1673ffffffffffffffffffffffffffffffffffffffff168152602001908152602001600020549050919050565b6000600760008154809291906116a6906142f9565b9190505550600060075490506116bc338261289b565b6116c68185612994565b6116d081846129f0565b8091505092915050565b3373ffffffffffffffffffffffffffffffffffffffff16600c600085815260200190815260200160002060020160009054906101000a900473ffffffffffffffffffffffffffffffffffffffff1673ffffffffffffffffffffffffffffffffffffffff161461177e576040517f08c379a0000000000000000000000000000000000000000000000000000000008152600401611775906143ea565b60405180910390fd5b6000600c600085815260200190815260200160002060040160016101000a81548160ff0219169083151502179055506000600c600085815260200190815260200160002060090160006101000a81548160ff02191690831515021790555033600c600085815260200190815260200160002060070160006101000a81548173ffffffffffffffffffffffffffffffffffffffff021916908373ffffffffffffffffffffffffffffffffffffffff16021790555081600c60008581526020019081526020016000206008018190555033600c600085815260200190815260200160002060010160006101000a81548173ffffffffffffffffffffffffffffffffffffffff021916908373ffffffffffffffffffffffffffffffffffffffff16021790555030600c600085815260200190815260200160002060020160006101000a81548173ffffffffffffffffffffffffffffffffffffffff021916908373ffffffffffffffffffffffffffffffffffffffff16021790555042600c600085815260200190815260200160002060050181905550804261191d9190614296565b600c6000858152602001908152602001600020600601819055506000600c600085815260200190815260200160002060040160006101000a81548160ff02191690831515021790555060096000815480929190611979906142f9565b9190505550611989333085612d04565b505050565b60606001805461199d90614236565b80601f01602080910402602001604051908101604052809291908181526020018280546119c990614236565b8015611a165780601f106119eb57610100808354040283529160200191611a16565b820191906000526020600020905b8154815290600101906020018083116119f957829003601f168201915b5050505050905090565b6000600c6000838152602001908152602001600020905080600801543411611a7d576040517f08c379a0000000000000000000000000000000000000000000000000000000008152600401611a749061447c565b60405180910390fd5b8060050154421015611ac4576040517f08c379a0000000000000000000000000000000000000000000000000000000008152600401611abb906144e8565b60405180910390fd5b8060090160009054906101000a900460ff1615611b16576040517f08c379a0000000000000000000000000000000000000000000000000000000008152600401611b0d90614554565b60405180910390fd5b348160080181905550338160070160006101000a81548173ffffffffffffffffffffffffffffffffffffffff021916908373ffffffffffffffffffffffffffffffffffffffff16021790555080600c6000848152602001908152602001600020600082015481600001556001820160009054906101000a900473ffffffffffffffffffffffffffffffffffffffff168160010160006101000a81548173ffffffffffffffffffffffffffffffffffffffff021916908373ffffffffffffffffffffffffffffffffffffffff1602179055506002820160009054906101000a900473ffffffffffffffffffffffffffffffffffffffff168160020160006101000a81548173ffffffffffffffffffffffffffffffffffffffff021916908373ffffffffffffffffffffffffffffffffffffffff160217905550600382015481600301556004820160009054906101000a900460ff168160040160006101000a81548160ff0219169083151502179055506004820160019054906101000a900460ff168160040160016101000a81548160ff02191690831515021790555060058201548160050155600682015481600601556007820160009054906101000a900473ffffffffffffffffffffffffffffffffffffffff168160070160006101000a81548173ffffffffffffffffffffffffffffffffffffffff021916908373ffffffffffffffffffffffffffffffffffffffff160217905550600882015481600801556009820160009054906101000a900460ff168160090160006101000a81548160ff021916908315150217905550905050600b60009054906101000a900473ffffffffffffffffffffffffffffffffffffffff1673ffffffffffffffffffffffffffffffffffffffff166108fc349081150290604051600060405180830381858888f19350505050158015611dcf573d6000803e3d6000fd5b505050565b611de6611ddf612667565b8383612e71565b5050565b3373ffffffffffffffffffffffffffffffffffffffff16600b60009054906101000a900473ffffffffffffffffffffffffffffffffffffffff1673ffffffffffffffffffffffffffffffffffffffff1614611e7a576040517f08c379a0000000000000000000000000000000000000000000000000000000008152600401611e71906145e6565b60405180910390fd5b80600a8190555050565b611e8f848484610da3565b611e9b84848484612fe0565b50505050565b6000600c6000838152602001908152602001600020600301549050803414611efe576040517f08c379a0000000000000000000000000000000000000000000000000000000008152600401611ef590614678565b60405180910390fd5b33600c600084815260200190815260200160002060020160006101000a81548173ffffffffffffffffffffffffffffffffffffffff021916908373ffffffffffffffffffffffffffffffffffffffff1602179055506001600c600084815260200190815260200160002060040160006101000a81548160ff02191690831515021790555060086000815480929190611f9590614698565b9190505550611fa5303384612d04565b600b60009054906101000a900473ffffffffffffffffffffffffffffffffffffffff1673ffffffffffffffffffffffffffffffffffffffff166108fc600a549081150290604051600060405180830381858888f1935050505015801561200f573d6000803e3d6000fd5b50600c600083815260200190815260200160002060010160009054906101000a900473ffffffffffffffffffffffffffffffffffffffff1673ffffffffffffffffffffffffffffffffffffffff166108fc349081150290604051600060405180830381858888f1935050505015801561208c573d6000803e3d6000fd5b506000600c600084815260200190815260200160002060010160006101000a81548173ffffffffffffffffffffffffffffffffffffffff021916908373ffffffffffffffffffffffffffffffffffffffff1602179055505050565b60606120f2826125a2565b50600060066000848152602001908152602001600020805461211390614236565b80601f016020809104026020016040519081016040528092919081815260200182805461213f90614236565b801561218c5780601f106121615761010080835404028352916020019161218c565b820191906000526020600020905b81548152906001019060200180831161216f57829003601f168201915b50505050509050600061219d613197565b905060008151036121b25781925050506121f5565b6000825111156121e75780826040516020016121cf9291906146fd565b604051602081830303815290604052925050506121f5565b6121f0846131ae565b925050505b919050565b3373ffffffffffffffffffffffffffffffffffffffff16600c600084815260200190815260200160002060020160009054906101000a900473ffffffffffffffffffffffffffffffffffffffff1673ffffffffffffffffffffffffffffffffffffffff161461229e576040517f08c379a0000000000000000000000000000000000000000000000000000000008152600401612295906143ea565b60405180910390fd5b600a5434146122e2576040517f08c379a00000000000000000000000000000000000000000000000000000000081526004016122d990614793565b60405180910390fd5b6000600c600084815260200190815260200160002060040160006101000a81548160ff02191690831515021790555080600c60008481526020019081526020016000206003018190555033600c600084815260200190815260200160002060010160006101000a81548173ffffffffffffffffffffffffffffffffffffffff021916908373ffffffffffffffffffffffffffffffffffffffff16021790555030600c600084815260200190815260200160002060020160006101000a81548173ffffffffffffffffffffffffffffffffffffffff021916908373ffffffffffffffffffffffffffffffffffffffff1602179055506001600c600084815260200190815260200160002060040160016101000a81548160ff02191690831515021790555060086000815480929190612418906142f9565b9190505550612428333084612d04565b5050565b6000600560008473ffffffffffffffffffffffffffffffffffffffff1673ffffffffffffffffffffffffffffffffffffffff16815260200190815260200160002060008373ffffffffffffffffffffffffffffffffffffffff1673ffffffffffffffffffffffffffffffffffffffff16815260200190815260200160002060009054906101000a900460ff16905092915050565b60007f80ac58cd000000000000000000000000000000000000000000000000000000007bffffffffffffffffffffffffffffffffffffffffffffffffffffffff1916827bffffffffffffffffffffffffffffffffffffffffffffffffffffffff1916148061258b57507f5b5e139f000000000000000000000000000000000000000000000000000000007bffffffffffffffffffffffffffffffffffffffffffffffffffffffff1916827bffffffffffffffffffffffffffffffffffffffffffffffffffffffff1916145b8061259b575061259a82613217565b5b9050919050565b6000806125ae83613281565b9050600073ffffffffffffffffffffffffffffffffffffffff168173ffffffffffffffffffffffffffffffffffffffff160361262157826040517f7e2732890000000000000000000000000000000000000000000000000000000081526004016126189190613d78565b60405180910390fd5b80915050919050565b60006004600083815260200190815260200160002060009054906101000a900473ffffffffffffffffffffffffffffffffffffffff169050919050565b600033905090565b61267c83838360016132be565b505050565b60008061268d84613281565b9050600073ffffffffffffffffffffffffffffffffffffffff168373ffffffffffffffffffffffffffffffffffffffff16146126cf576126ce818486613483565b5b600073ffffffffffffffffffffffffffffffffffffffff168173ffffffffffffffffffffffffffffffffffffffff1614612760576127116000856000806132be565b6001600360008373ffffffffffffffffffffffffffffffffffffffff1673ffffffffffffffffffffffffffffffffffffffff168152602001908152602001600020600082825403925050819055505b600073ffffffffffffffffffffffffffffffffffffffff168573ffffffffffffffffffffffffffffffffffffffff16146127e3576001600360008773ffffffffffffffffffffffffffffffffffffffff1673ffffffffffffffffffffffffffffffffffffffff168152602001908152602001600020600082825401925050819055505b846002600086815260200190815260200160002060006101000a81548173ffffffffffffffffffffffffffffffffffffffff021916908373ffffffffffffffffffffffffffffffffffffffff160217905550838573ffffffffffffffffffffffffffffffffffffffff168273ffffffffffffffffffffffffffffffffffffffff167fddf252ad1be2c89b69c2b068fc378daa952ba7f163c4a11628f55a4df523b3ef60405160405180910390a4809150509392505050565b600073ffffffffffffffffffffffffffffffffffffffff168273ffffffffffffffffffffffffffffffffffffffff160361290d5760006040517f64a0ae920000000000000000000000000000000000000000000000000000000081526004016129049190613af0565b60405180910390fd5b600061291b83836000612681565b9050600073ffffffffffffffffffffffffffffffffffffffff168173ffffffffffffffffffffffffffffffffffffffff161461298f5760006040517f73c6ac6e0000000000000000000000000000000000000000000000000000000081526004016129869190613af0565b60405180910390fd5b505050565b806006600084815260200190815260200160002090816129b4919061495f565b507ff8e1a15aba9398e019f0b49df1a4fde98ee17ae345cb5f6b5e2c27f5033e8ce7826040516129e49190613d78565b60405180910390a15050565b60008111612a33576040517f08c379a0000000000000000000000000000000000000000000000000000000008152600401612a2a90614a7d565b60405180910390fd5b600a543414612a77576040517f08c379a0000000000000000000000000000000000000000000000000000000008152600401612a6e90614793565b60405180910390fd5b6040518061016001604052808381526020013373ffffffffffffffffffffffffffffffffffffffff1681526020013073ffffffffffffffffffffffffffffffffffffffff168152602001828152602001600015158152602001600115158152602001428152602001428152602001600073ffffffffffffffffffffffffffffffffffffffff16815260200182815260200160001515815250600c60008481526020019081526020016000206000820151816000015560208201518160010160006101000a81548173ffffffffffffffffffffffffffffffffffffffff021916908373ffffffffffffffffffffffffffffffffffffffff16021790555060408201518160020160006101000a81548173ffffffffffffffffffffffffffffffffffffffff021916908373ffffffffffffffffffffffffffffffffffffffff1602179055506060820151816003015560808201518160040160006101000a81548160ff02191690831515021790555060a08201518160040160016101000a81548160ff02191690831515021790555060c0820151816005015560e082015181600601556101008201518160070160006101000a81548173ffffffffffffffffffffffffffffffffffffffff021916908373ffffffffffffffffffffffffffffffffffffffff16021790555061012082015181600801556101408201518160090160006101000a81548160ff02191690831515021790555090505060086000815480929190612ca2906142f9565b9190505550612cb2333084612d04565b817ff28de24d294b42637634a7516b7c0a2384ab5c6f40d27c2c835bb0602083381c33308460006001424260008a6000604051612cf89a99989796959493929190614a9d565b60405180910390a25050565b600073ffffffffffffffffffffffffffffffffffffffff168273ffffffffffffffffffffffffffffffffffffffff1603612d765760006040517f64a0ae92000000000000000000000000000000000000000000000000000000008152600401612d6d9190613af0565b60405180910390fd5b6000612d8483836000612681565b9050600073ffffffffffffffffffffffffffffffffffffffff168173ffffffffffffffffffffffffffffffffffffffff1603612df757816040517f7e273289000000000000000000000000000000000000000000000000000000008152600401612dee9190613d78565b60405180910390fd5b8373ffffffffffffffffffffffffffffffffffffffff168173ffffffffffffffffffffffffffffffffffffffff1614612e6b578382826040517f64283d7b000000000000000000000000000000000000000000000000000000008152600401612e6293929190614341565b60405180910390fd5b50505050565b600073ffffffffffffffffffffffffffffffffffffffff168273ffffffffffffffffffffffffffffffffffffffff1603612ee257816040517f5b08ba18000000000000000000000000000000000000000000000000000000008152600401612ed99190613af0565b60405180910390fd5b80600560008573ffffffffffffffffffffffffffffffffffffffff1673ffffffffffffffffffffffffffffffffffffffff16815260200190815260200160002060008473ffffffffffffffffffffffffffffffffffffffff1673ffffffffffffffffffffffffffffffffffffffff16815260200190815260200160002060006101000a81548160ff0219169083151502179055508173ffffffffffffffffffffffffffffffffffffffff168373ffffffffffffffffffffffffffffffffffffffff167f17307eab39ab6107e8899845ad3d59bd9653f200f220920489ca2b5937696c3183604051612fd3919061397f565b60405180910390a3505050565b60008373ffffffffffffffffffffffffffffffffffffffff163b1115613191578273ffffffffffffffffffffffffffffffffffffffff1663150b7a02613024612667565b8685856040518563ffffffff1660e01b81526004016130469493929190614b8e565b6020604051808303816000875af192505050801561308257506040513d601f19601f8201168201806040525081019061307f9190614bef565b60015b613106573d80600081146130b2576040519150601f19603f3d011682016040523d82523d6000602084013e6130b7565b606091505b5060008151036130fe57836040517f64a0ae920000000000000000000000000000000000000000000000000000000081526004016130f59190613af0565b60405180910390fd5b805181602001fd5b63150b7a0260e01b7bffffffffffffffffffffffffffffffffffffffffffffffffffffffff1916817bffffffffffffffffffffffffffffffffffffffffffffffffffffffff19161461318f57836040517f64a0ae920000000000000000000000000000000000000000000000000000000081526004016131869190613af0565b60405180910390fd5b505b50505050565b606060405180602001604052806000815250905090565b60606131b9826125a2565b5060006131c4613197565b905060008151116131e4576040518060200160405280600081525061320f565b806131ee84613547565b6040516020016131ff9291906146fd565b6040516020818303038152906040525b915050919050565b60007f01ffc9a7000000000000000000000000000000000000000000000000000000007bffffffffffffffffffffffffffffffffffffffffffffffffffffffff1916827bffffffffffffffffffffffffffffffffffffffffffffffffffffffff1916149050919050565b60006002600083815260200190815260200160002060009054906101000a900473ffffffffffffffffffffffffffffffffffffffff169050919050565b80806132f75750600073ffffffffffffffffffffffffffffffffffffffff168273ffffffffffffffffffffffffffffffffffffffff1614155b1561342b576000613307846125a2565b9050600073ffffffffffffffffffffffffffffffffffffffff168373ffffffffffffffffffffffffffffffffffffffff161415801561337257508273ffffffffffffffffffffffffffffffffffffffff168173ffffffffffffffffffffffffffffffffffffffff1614155b80156133855750613383818461242c565b155b156133c757826040517fa9fbf51f0000000000000000000000000000000000000000000000000000000081526004016133be9190613af0565b60405180910390fd5b811561342957838573ffffffffffffffffffffffffffffffffffffffff168273ffffffffffffffffffffffffffffffffffffffff167f8c5be1e5ebec7d5bd14f71427d1e84f3dd0314c0f7b2291e5b200ac8c7c3b92560405160405180910390a45b505b836004600085815260200190815260200160002060006101000a81548173ffffffffffffffffffffffffffffffffffffffff021916908373ffffffffffffffffffffffffffffffffffffffff16021790555050505050565b61348e838383613615565b61354257600073ffffffffffffffffffffffffffffffffffffffff168373ffffffffffffffffffffffffffffffffffffffff160361350357806040517f7e2732890000000000000000000000000000000000000000000000000000000081526004016134fa9190613d78565b60405180910390fd5b81816040517f177e802f000000000000000000000000000000000000000000000000000000008152600401613539929190614c1c565b60405180910390fd5b505050565b606060006001613556846136d6565b01905060008167ffffffffffffffff81111561357557613574613e1d565b5b6040519080825280601f01601f1916602001820160405280156135a75781602001600182028036833780820191505090505b509050600082602001820190505b60011561360a578080600190039150507f3031323334353637383961626364656600000000000000000000000000000000600a86061a8153600a85816135fe576135fd614c45565b5b049450600085036135b5575b819350505050919050565b60008073ffffffffffffffffffffffffffffffffffffffff168373ffffffffffffffffffffffffffffffffffffffff16141580156136cd57508273ffffffffffffffffffffffffffffffffffffffff168473ffffffffffffffffffffffffffffffffffffffff16148061368e575061368d848461242c565b5b806136cc57508273ffffffffffffffffffffffffffffffffffffffff166136b48361262a565b73ffffffffffffffffffffffffffffffffffffffff16145b5b90509392505050565b600080600090507a184f03e93ff9f4daa797ed6e38ed64bf6a1f0100000000000000008310613734577a184f03e93ff9f4daa797ed6e38ed64bf6a1f010000000000000000838161372a57613729614c45565b5b0492506040810190505b6d04ee2d6d415b85acef81000000008310613771576d04ee2d6d415b85acef8100000000838161376757613766614c45565b5b0492506020810190505b662386f26fc1000083106137a057662386f26fc10000838161379657613795614c45565b5b0492506010810190505b6305f5e10083106137c9576305f5e10083816137bf576137be614c45565b5b0492506008810190505b61271083106137ee5761271083816137e4576137e3614c45565b5b0492506004810190505b60648310613811576064838161380757613806614c45565b5b0492506002810190505b600a8310613820576001810190505b80915050919050565b60405180610160016040528060008152602001600073ffffffffffffffffffffffffffffffffffffffff168152602001600073ffffffffffffffffffffffffffffffffffffffff168152602001600081526020016000151581526020016000151581526020016000815260200160008152602001600073ffffffffffffffffffffffffffffffffffffffff168152602001600081526020016000151581525090565b6000604051905090565b600080fd5b600080fd5b60007fffffffff0000000000000000000000000000000000000000000000000000000082169050919050565b613914816138df565b811461391f57600080fd5b50565b6000813590506139318161390b565b92915050565b60006020828403121561394d5761394c6138d5565b5b600061395b84828501613922565b91505092915050565b60008115159050919050565b61397981613964565b82525050565b60006020820190506139946000830184613970565b92915050565b600081519050919050565b600082825260208201905092915050565b60005b838110156139d45780820151818401526020810190506139b9565b60008484015250505050565b6000601f19601f8301169050919050565b60006139fc8261399a565b613a0681856139a5565b9350613a168185602086016139b6565b613a1f816139e0565b840191505092915050565b60006020820190508181036000830152613a4481846139f1565b905092915050565b6000819050919050565b613a5f81613a4c565b8114613a6a57600080fd5b50565b600081359050613a7c81613a56565b92915050565b600060208284031215613a9857613a976138d5565b5b6000613aa684828501613a6d565b91505092915050565b600073ffffffffffffffffffffffffffffffffffffffff82169050919050565b6000613ada82613aaf565b9050919050565b613aea81613acf565b82525050565b6000602082019050613b056000830184613ae1565b92915050565b613b1481613acf565b8114613b1f57600080fd5b50565b600081359050613b3181613b0b565b92915050565b60008060408385031215613b4e57613b4d6138d5565b5b6000613b5c85828601613b22565b9250506020613b6d85828601613a6d565b9150509250929050565b600081519050919050565b600082825260208201905092915050565b6000819050602082019050919050565b613bac81613a4c565b82525050565b6000613bbd82613aaf565b9050919050565b613bcd81613bb2565b82525050565b613bdc81613964565b82525050565b61016082016000820151613bf96000850182613ba3565b506020820151613c0c6020850182613bc4565b506040820151613c1f6040850182613bc4565b506060820151613c326060850182613ba3565b506080820151613c456080850182613bd3565b5060a0820151613c5860a0850182613bd3565b5060c0820151613c6b60c0850182613ba3565b5060e0820151613c7e60e0850182613ba3565b50610100820151613c93610100850182613bc4565b50610120820151613ca8610120850182613ba3565b50610140820151613cbd610140850182613bd3565b50505050565b6000613ccf8383613be2565b6101608301905092915050565b6000602082019050919050565b6000613cf482613b77565b613cfe8185613b82565b9350613d0983613b93565b8060005b83811015613d3a578151613d218882613cc3565b9750613d2c83613cdc565b925050600181019050613d0d565b5085935050505092915050565b60006020820190508181036000830152613d618184613ce9565b905092915050565b613d7281613a4c565b82525050565b6000602082019050613d8d6000830184613d69565b92915050565b600080600060608486031215613dac57613dab6138d5565b5b6000613dba86828701613b22565b9350506020613dcb86828701613b22565b9250506040613ddc86828701613a6d565b9150509250925092565b600060208284031215613dfc57613dfb6138d5565b5b6000613e0a84828501613b22565b91505092915050565b600080fd5b600080fd5b7f4e487b7100000000000000000000000000000000000000000000000000000000600052604160045260246000fd5b613e55826139e0565b810181811067ffffffffffffffff82111715613e7457613e73613e1d565b5b80604052505050565b6000613e876138cb565b9050613e938282613e4c565b919050565b600067ffffffffffffffff821115613eb357613eb2613e1d565b5b613ebc826139e0565b9050602081019050919050565b82818337600083830152505050565b6000613eeb613ee684613e98565b613e7d565b905082815260208101848484011115613f0757613f06613e18565b5b613f12848285613ec9565b509392505050565b600082601f830112613f2f57613f2e613e13565b5b8135613f3f848260208601613ed8565b91505092915050565b60008060408385031215613f5f57613f5e6138d5565b5b600083013567ffffffffffffffff811115613f7d57613f7c6138da565b5b613f8985828601613f1a565b9250506020613f9a85828601613a6d565b9150509250929050565b600080600060608486031215613fbd57613fbc6138d5565b5b6000613fcb86828701613a6d565b9350506020613fdc86828701613a6d565b9250506040613fed86828701613a6d565b9150509250925092565b61400081613964565b811461400b57600080fd5b50565b60008135905061401d81613ff7565b92915050565b6000806040838503121561403a576140396138d5565b5b600061404885828601613b22565b92505060206140598582860161400e565b9150509250929050565b600067ffffffffffffffff82111561407e5761407d613e1d565b5b614087826139e0565b9050602081019050919050565b60006140a76140a284614063565b613e7d565b9050828152602081018484840111156140c3576140c2613e18565b5b6140ce848285613ec9565b509392505050565b600082601f8301126140eb576140ea613e13565b5b81356140fb848260208601614094565b91505092915050565b6000806000806080858703121561411e5761411d6138d5565b5b600061412c87828801613b22565b945050602061413d87828801613b22565b935050604061414e87828801613a6d565b925050606085013567ffffffffffffffff81111561416f5761416e6138da565b5b61417b878288016140d6565b91505092959194509250565b6000806040838503121561419e5761419d6138d5565b5b60006141ac85828601613a6d565b92505060206141bd85828601613a6d565b9150509250929050565b600080604083850312156141de576141dd6138d5565b5b60006141ec85828601613b22565b92505060206141fd85828601613b22565b9150509250929050565b7f4e487b7100000000000000000000000000000000000000000000000000000000600052602260045260246000fd5b6000600282049050600182168061424e57607f821691505b60208210810361426157614260614207565b5b50919050565b7f4e487b7100000000000000000000000000000000000000000000000000000000600052601160045260246000fd5b60006142a182613a4c565b91506142ac83613a4c565b92508282019050808211156142c4576142c3614267565b5b92915050565b7f4e487b7100000000000000000000000000000000000000000000000000000000600052603260045260246000fd5b600061430482613a4c565b91507fffffffffffffffffffffffffffffffffffffffffffffffffffffffffffffffff820361433657614335614267565b5b600182019050919050565b60006060820190506143566000830186613ae1565b6143636020830185613d69565b6143706040830184613ae1565b949350505050565b7f4f6e6c79206974656d206f776e65722063616e20706572666f726d207468697360008201527f206f7065726174696f6e00000000000000000000000000000000000000000000602082015250565b60006143d4602a836139a5565b91506143df82614378565b604082019050919050565b60006020820190508181036000830152614403816143c7565b9050919050565b7f426964206d7573742062652067726561746572207468616e206869676865737460008201527f2062696400000000000000000000000000000000000000000000000000000000602082015250565b60006144666024836139a5565b91506144718261440a565b604082019050919050565b6000602082019050818103600083015261449581614459565b9050919050565b7f41756374696f6e206e6f74207965742073746172746564000000000000000000600082015250565b60006144d26017836139a5565b91506144dd8261449c565b602082019050919050565b60006020820190508181036000830152614501816144c5565b9050919050565b7f41756374696f6e20616c726561647920636f6d706c6574656400000000000000600082015250565b600061453e6019836139a5565b915061454982614508565b602082019050919050565b6000602082019050818103600083015261456d81614531565b9050919050565b7f4f6e6c79206d61726b6574706c616365206f776e65722063616e20757064617460008201527f65206c697374696e672070726963652e00000000000000000000000000000000602082015250565b60006145d06030836139a5565b91506145db82614574565b604082019050919050565b600060208201905081810360008301526145ff816145c3565b9050919050565b7f506c65617365207375626d6974207468652061736b696e67207072696365206960008201527f6e206f7264657220746f20636f6d706c65746520746865207075726368617365602082015250565b60006146626040836139a5565b915061466d82614606565b604082019050919050565b6000602082019050818103600083015261469181614655565b9050919050565b60006146a382613a4c565b9150600082036146b6576146b5614267565b5b600182039050919050565b600081905092915050565b60006146d78261399a565b6146e181856146c1565b93506146f18185602086016139b6565b80840191505092915050565b600061470982856146cc565b915061471582846146cc565b91508190509392505050565b7f5072696365206d75737420626520657175616c20746f206c697374696e67207060008201527f7269636500000000000000000000000000000000000000000000000000000000602082015250565b600061477d6024836139a5565b915061478882614721565b604082019050919050565b600060208201905081810360008301526147ac81614770565b9050919050565b60008190508160005260206000209050919050565b60006020601f8301049050919050565b600082821b905092915050565b6000600883026148157fffffffffffffffffffffffffffffffffffffffffffffffffffffffffffffffff826147d8565b61481f86836147d8565b95508019841693508086168417925050509392505050565b6000819050919050565b600061485c61485761485284613a4c565b614837565b613a4c565b9050919050565b6000819050919050565b61487683614841565b61488a61488282614863565b8484546147e5565b825550505050565b600090565b61489f614892565b6148aa81848461486d565b505050565b5b818110156148ce576148c3600082614897565b6001810190506148b0565b5050565b601f821115614913576148e4816147b3565b6148ed846147c8565b810160208510156148fc578190505b614910614908856147c8565b8301826148af565b50505b505050565b600082821c905092915050565b600061493660001984600802614918565b1980831691505092915050565b600061494f8383614925565b9150826002028217905092915050565b6149688261399a565b67ffffffffffffffff81111561498157614980613e1d565b5b61498b8254614236565b6149968282856148d2565b600060209050601f8311600181146149c957600084156149b7578287015190505b6149c18582614943565b865550614a29565b601f1984166149d7866147b3565b60005b828110156149ff578489015182556001820191506020850194506020810190506149da565b86831015614a1c5784890151614a18601f891682614925565b8355505b6001600288020188555050505b505050505050565b7f5072696365206d757374206265206174206c6561737420312077656900000000600082015250565b6000614a67601c836139a5565b9150614a7282614a31565b602082019050919050565b60006020820190508181036000830152614a9681614a5a565b9050919050565b600061014082019050614ab3600083018d613ae1565b614ac0602083018c613ae1565b614acd604083018b613d69565b614ada606083018a613970565b614ae76080830189613970565b614af460a0830188613d69565b614b0160c0830187613d69565b614b0e60e0830186613ae1565b614b1c610100830185613d69565b614b2a610120830184613970565b9b9a5050505050505050505050565b600081519050919050565b600082825260208201905092915050565b6000614b6082614b39565b614b6a8185614b44565b9350614b7a8185602086016139b6565b614b83816139e0565b840191505092915050565b6000608082019050614ba36000830187613ae1565b614bb06020830186613ae1565b614bbd6040830185613d69565b8181036060830152614bcf8184614b55565b905095945050505050565b600081519050614be98161390b565b92915050565b600060208284031215614c0557614c046138d5565b5b6000614c1384828501614bda565b91505092915050565b6000604082019050614c316000830185613ae1565b614c3e6020830184613d69565b9392505050565b7f4e487b7100000000000000000000000000000000000000000000000000000000600052601260045260246000fdfea264697066735822122051df26444852f2dfb026e20d61acf5ba07fb75f8d93714a74f21eae5eda11bfa64736f6c63430008140033",
  "linkReferences": {},
  "deployedLinkReferences": {}
}