{
  "_format": "hh-sol-artifact-1",
  "contractName": "NFTMarketplace",
  "sourceName": "contracts/NFTMarketplace.sol",
  "abi": [
    {
      "inputs": [],
      "stateMutability": "nonpayable",
      "type": "constructor"
    },
    {
      "inputs": [
        {
          "internalType": "address",
          "name": "sender",
          "type": "address"
        },
        {
          "internalType": "uint256",
          "name": "tokenId",
          "type": "uint256"
        },
        {
          "internalType": "address",
          "name": "owner",
          "type": "address"
        }
      ],
      "name": "ERC721IncorrectOwner",
      "type": "error"
    },
    {
      "inputs": [
        {
          "internalType": "address",
          "name": "operator",
          "type": "address"
        },
        {
          "internalType": "uint256",
          "name": "tokenId",
          "type": "uint256"
        }
      ],
      "name": "ERC721InsufficientApproval",
      "type": "error"
    },
    {
      "inputs": [
        {
          "internalType": "address",
          "name": "approver",
          "type": "address"
        }
      ],
      "name": "ERC721InvalidApprover",
      "type": "error"
    },
    {
      "inputs": [
        {
          "internalType": "address",
          "name": "operator",
          "type": "address"
        }
      ],
      "name": "ERC721InvalidOperator",
      "type": "error"
    },
    {
      "inputs": [
        {
          "internalType": "address",
          "name": "owner",
          "type": "address"
        }
      ],
      "name": "ERC721InvalidOwner",
      "type": "error"
    },
    {
      "inputs": [
        {
          "internalType": "address",
          "name": "receiver",
          "type": "address"
        }
      ],
      "name": "ERC721InvalidReceiver",
      "type": "error"
    },
    {
      "inputs": [
        {
          "internalType": "address",
          "name": "sender",
          "type": "address"
        }
      ],
      "name": "ERC721InvalidSender",
      "type": "error"
    },
    {
      "inputs": [
        {
          "internalType": "uint256",
          "name": "tokenId",
          "type": "uint256"
        }
      ],
      "name": "ERC721NonexistentToken",
      "type": "error"
    },
    {
      "anonymous": false,
      "inputs": [
        {
          "indexed": true,
          "internalType": "address",
          "name": "owner",
          "type": "address"
        },
        {
          "indexed": true,
          "internalType": "address",
          "name": "approved",
          "type": "address"
        },
        {
          "indexed": true,
          "internalType": "uint256",
          "name": "tokenId",
          "type": "uint256"
        }
      ],
      "name": "Approval",
      "type": "event"
    },
    {
      "anonymous": false,
      "inputs": [
        {
          "indexed": true,
          "internalType": "address",
          "name": "owner",
          "type": "address"
        },
        {
          "indexed": true,
          "internalType": "address",
          "name": "operator",
          "type": "address"
        },
        {
          "indexed": false,
          "internalType": "bool",
          "name": "approved",
          "type": "bool"
        }
      ],
      "name": "ApprovalForAll",
      "type": "event"
    },
    {
      "anonymous": false,
      "inputs": [
        {
          "indexed": false,
          "internalType": "uint256",
          "name": "_fromTokenId",
          "type": "uint256"
        },
        {
          "indexed": false,
          "internalType": "uint256",
          "name": "_toTokenId",
          "type": "uint256"
        }
      ],
      "name": "BatchMetadataUpdate",
      "type": "event"
    },
    {
      "anonymous": false,
      "inputs": [
        {
          "indexed": true,
          "internalType": "uint256",
          "name": "tokenId",
          "type": "uint256"
        },
        {
          "indexed": false,
          "internalType": "address",
          "name": "seller",
          "type": "address"
        },
        {
          "indexed": false,
          "internalType": "address",
          "name": "owner",
          "type": "address"
        },
        {
          "indexed": false,
          "internalType": "uint256",
          "name": "price",
          "type": "uint256"
        },
        {
          "indexed": false,
          "internalType": "bool",
          "name": "sold",
          "type": "bool"
        },
        {
          "indexed": false,
          "internalType": "bool",
          "name": "directSold",
          "type": "bool"
        },
        {
          "indexed": false,
          "internalType": "uint256",
          "name": "startTime",
          "type": "uint256"
        },
        {
          "indexed": false,
          "internalType": "uint256",
          "name": "endTime",
          "type": "uint256"
        },
        {
          "indexed": false,
          "internalType": "address",
          "name": "highestBidder",
          "type": "address"
        },
        {
          "indexed": false,
          "internalType": "uint256",
          "name": "highestBid",
          "type": "uint256"
        },
        {
          "indexed": false,
          "internalType": "bool",
          "name": "auctionCompleted",
          "type": "bool"
        }
      ],
      "name": "MarketItemCreated",
      "type": "event"
    },
    {
      "anonymous": false,
      "inputs": [
        {
          "indexed": false,
          "internalType": "uint256",
          "name": "_tokenId",
          "type": "uint256"
        }
      ],
      "name": "MetadataUpdate",
      "type": "event"
    },
    {
      "anonymous": false,
      "inputs": [
        {
          "indexed": true,
          "internalType": "address",
          "name": "from",
          "type": "address"
        },
        {
          "indexed": true,
          "internalType": "address",
          "name": "to",
          "type": "address"
        },
        {
          "indexed": true,
          "internalType": "uint256",
          "name": "tokenId",
          "type": "uint256"
        }
      ],
      "name": "Transfer",
      "type": "event"
    },
    {
      "inputs": [
        {
          "internalType": "address",
          "name": "to",
          "type": "address"
        },
        {
          "internalType": "uint256",
          "name": "tokenId",
          "type": "uint256"
        }
      ],
      "name": "approve",
      "outputs": [],
      "stateMutability": "nonpayable",
      "type": "function"
    },
    {
      "inputs": [
        {
          "internalType": "address",
          "name": "owner",
          "type": "address"
        }
      ],
      "name": "balanceOf",
      "outputs": [
        {
          "internalType": "uint256",
          "name": "",
          "type": "uint256"
        }
      ],
      "stateMutability": "view",
      "type": "function"
    },
    {
      "inputs": [
        {
          "internalType": "uint256",
          "name": "tokenId",
          "type": "uint256"
        }
      ],
      "name": "cancelAuction",
      "outputs": [],
      "stateMutability": "payable",
      "type": "function"
    },
    {
      "inputs": [
        {
          "internalType": "uint256",
          "name": "tokenId",
          "type": "uint256"
        }
      ],
      "name": "cancelSelling",
      "outputs": [],
      "stateMutability": "payable",
      "type": "function"
    },
    {
      "inputs": [
        {
          "internalType": "uint256",
          "name": "tokenId",
          "type": "uint256"
        },
        {
          "internalType": "uint256",
          "name": "price",
          "type": "uint256"
        }
      ],
      "name": "createMarketItem",
      "outputs": [],
      "stateMutability": "payable",
      "type": "function"
    },
    {
      "inputs": [
        {
          "internalType": "uint256",
          "name": "tokenId",
          "type": "uint256"
        }
      ],
      "name": "createMarketSale",
      "outputs": [],
      "stateMutability": "payable",
      "type": "function"
    },
    {
      "inputs": [
        {
          "internalType": "string",
          "name": "tokenURI",
          "type": "string"
        }
      ],
      "name": "createToken",
      "outputs": [
        {
          "internalType": "uint256",
          "name": "",
          "type": "uint256"
        }
      ],
      "stateMutability": "payable",
      "type": "function"
    },
    {
      "inputs": [],
      "name": "fetchAuctionItems",
      "outputs": [
        {
          "components": [
            {
              "internalType": "uint256",
              "name": "tokenId",
              "type": "uint256"
            },
            {
              "internalType": "address payable",
              "name": "seller",
              "type": "address"
            },
            {
              "internalType": "address payable",
              "name": "owner",
              "type": "address"
            },
            {
              "internalType": "uint256",
              "name": "price",
              "type": "uint256"
            },
            {
              "internalType": "bool",
              "name": "sold",
              "type": "bool"
            },
            {
              "internalType": "bool",
              "name": "directSold",
              "type": "bool"
            },
            {
              "internalType": "uint256",
              "name": "startTime",
              "type": "uint256"
            },
            {
              "internalType": "uint256",
              "name": "endTime",
              "type": "uint256"
            },
            {
              "internalType": "address payable",
              "name": "highestBidder",
              "type": "address"
            },
            {
              "internalType": "uint256",
              "name": "highestBid",
              "type": "uint256"
            },
            {
              "internalType": "bool",
              "name": "auctionCompleted",
              "type": "bool"
            }
          ],
          "internalType": "struct NFTMarketplace.MarketItem[]",
          "name": "",
          "type": "tuple[]"
        }
      ],
      "stateMutability": "view",
      "type": "function"
    },
    {
      "inputs": [],
      "name": "fetchItemsListed",
      "outputs": [
        {
          "components": [
            {
              "internalType": "uint256",
              "name": "tokenId",
              "type": "uint256"
            },
            {
              "internalType": "address payable",
              "name": "seller",
              "type": "address"
            },
            {
              "internalType": "address payable",
              "name": "owner",
              "type": "address"
            },
            {
              "internalType": "uint256",
              "name": "price",
              "type": "uint256"
            },
            {
              "internalType": "bool",
              "name": "sold",
              "type": "bool"
            },
            {
              "internalType": "bool",
              "name": "directSold",
              "type": "bool"
            },
            {
              "internalType": "uint256",
              "name": "startTime",
              "type": "uint256"
            },
            {
              "internalType": "uint256",
              "name": "endTime",
              "type": "uint256"
            },
            {
              "internalType": "address payable",
              "name": "highestBidder",
              "type": "address"
            },
            {
              "internalType": "uint256",
              "name": "highestBid",
              "type": "uint256"
            },
            {
              "internalType": "bool",
              "name": "auctionCompleted",
              "type": "bool"
            }
          ],
          "internalType": "struct NFTMarketplace.MarketItem[]",
          "name": "",
          "type": "tuple[]"
        }
      ],
      "stateMutability": "view",
      "type": "function"
    },
    {
      "inputs": [],
      "name": "fetchMarketItems",
      "outputs": [
        {
          "components": [
            {
              "internalType": "uint256",
              "name": "tokenId",
              "type": "uint256"
            },
            {
              "internalType": "address payable",
              "name": "seller",
              "type": "address"
            },
            {
              "internalType": "address payable",
              "name": "owner",
              "type": "address"
            },
            {
              "internalType": "uint256",
              "name": "price",
              "type": "uint256"
            },
            {
              "internalType": "bool",
              "name": "sold",
              "type": "bool"
            },
            {
              "internalType": "bool",
              "name": "directSold",
              "type": "bool"
            },
            {
              "internalType": "uint256",
              "name": "startTime",
              "type": "uint256"
            },
            {
              "internalType": "uint256",
              "name": "endTime",
              "type": "uint256"
            },
            {
              "internalType": "address payable",
              "name": "highestBidder",
              "type": "address"
            },
            {
              "internalType": "uint256",
              "name": "highestBid",
              "type": "uint256"
            },
            {
              "internalType": "bool",
              "name": "auctionCompleted",
              "type": "bool"
            }
          ],
          "internalType": "struct NFTMarketplace.MarketItem[]",
          "name": "",
          "type": "tuple[]"
        }
      ],
      "stateMutability": "view",
      "type": "function"
    },
    {
      "inputs": [],
      "name": "fetchMyNFTs",
      "outputs": [
        {
          "components": [
            {
              "internalType": "uint256",
              "name": "tokenId",
              "type": "uint256"
            },
            {
              "internalType": "address payable",
              "name": "seller",
              "type": "address"
            },
            {
              "internalType": "address payable",
              "name": "owner",
              "type": "address"
            },
            {
              "internalType": "uint256",
              "name": "price",
              "type": "uint256"
            },
            {
              "internalType": "bool",
              "name": "sold",
              "type": "bool"
            },
            {
              "internalType": "bool",
              "name": "directSold",
              "type": "bool"
            },
            {
              "internalType": "uint256",
              "name": "startTime",
              "type": "uint256"
            },
            {
              "internalType": "uint256",
              "name": "endTime",
              "type": "uint256"
            },
            {
              "internalType": "address payable",
              "name": "highestBidder",
              "type": "address"
            },
            {
              "internalType": "uint256",
              "name": "highestBid",
              "type": "uint256"
            },
            {
              "internalType": "bool",
              "name": "auctionCompleted",
              "type": "bool"
            }
          ],
          "internalType": "struct NFTMarketplace.MarketItem[]",
          "name": "",
          "type": "tuple[]"
        }
      ],
      "stateMutability": "view",
      "type": "function"
    },
    {
      "inputs": [
        {
          "internalType": "uint256",
          "name": "tokenId",
          "type": "uint256"
        }
      ],
      "name": "finishAuction",
      "outputs": [],
      "stateMutability": "payable",
      "type": "function"
    },
    {
      "inputs": [
        {
          "internalType": "uint256",
          "name": "tokenId",
          "type": "uint256"
        }
      ],
      "name": "getApproved",
      "outputs": [
        {
          "internalType": "address",
          "name": "",
          "type": "address"
        }
      ],
      "stateMutability": "view",
      "type": "function"
    },
    {
      "inputs": [],
      "name": "getListingPrice",
      "outputs": [
        {
          "internalType": "uint256",
          "name": "",
          "type": "uint256"
        }
      ],
      "stateMutability": "view",
      "type": "function"
    },
    {
      "inputs": [
        {
          "internalType": "uint256",
          "name": "tokenId",
          "type": "uint256"
        }
      ],
      "name": "getTimeEndOfAuction",
      "outputs": [
        {
          "internalType": "uint256",
          "name": "",
          "type": "uint256"
        }
      ],
      "stateMutability": "view",
      "type": "function"
    },
    {
      "inputs": [
        {
          "internalType": "address",
          "name": "owner",
          "type": "address"
        },
        {
          "internalType": "address",
          "name": "operator",
          "type": "address"
        }
      ],
      "name": "isApprovedForAll",
      "outputs": [
        {
          "internalType": "bool",
          "name": "",
          "type": "bool"
        }
      ],
      "stateMutability": "view",
      "type": "function"
    },
    {
      "inputs": [],
      "name": "name",
      "outputs": [
        {
          "internalType": "string",
          "name": "",
          "type": "string"
        }
      ],
      "stateMutability": "view",
      "type": "function"
    },
    {
      "inputs": [
        {
          "internalType": "uint256",
          "name": "tokenId",
          "type": "uint256"
        }
      ],
      "name": "ownerOf",
      "outputs": [
        {
          "internalType": "address",
          "name": "",
          "type": "address"
        }
      ],
      "stateMutability": "view",
      "type": "function"
    },
    {
      "inputs": [
        {
          "internalType": "uint256",
          "name": "tokenId",
          "type": "uint256"
        }
      ],
      "name": "placeBid",
      "outputs": [],
      "stateMutability": "payable",
      "type": "function"
    },
    {
      "inputs": [
        {
          "internalType": "address",
          "name": "from",
          "type": "address"
        },
        {
          "internalType": "address",
          "name": "to",
          "type": "address"
        },
        {
          "internalType": "uint256",
          "name": "tokenId",
          "type": "uint256"
        }
      ],
      "name": "safeTransferFrom",
      "outputs": [],
      "stateMutability": "nonpayable",
      "type": "function"
    },
    {
      "inputs": [
        {
          "internalType": "address",
          "name": "from",
          "type": "address"
        },
        {
          "internalType": "address",
          "name": "to",
          "type": "address"
        },
        {
          "internalType": "uint256",
          "name": "tokenId",
          "type": "uint256"
        },
        {
          "internalType": "bytes",
          "name": "data",
          "type": "bytes"
        }
      ],
      "name": "safeTransferFrom",
      "outputs": [],
      "stateMutability": "nonpayable",
      "type": "function"
    },
    {
      "inputs": [
        {
          "internalType": "address",
          "name": "operator",
          "type": "address"
        },
        {
          "internalType": "bool",
          "name": "approved",
          "type": "bool"
        }
      ],
      "name": "setApprovalForAll",
      "outputs": [],
      "stateMutability": "nonpayable",
      "type": "function"
    },
    {
      "inputs": [
        {
          "internalType": "uint256",
          "name": "tokenId",
          "type": "uint256"
        },
        {
          "internalType": "uint256",
          "name": "price",
          "type": "uint256"
        },
        {
          "internalType": "uint256",
          "name": "durations",
          "type": "uint256"
        }
      ],
      "name": "startAuction",
      "outputs": [],
      "stateMutability": "payable",
      "type": "function"
    },
    {
      "inputs": [
        {
          "internalType": "bytes4",
          "name": "interfaceId",
          "type": "bytes4"
        }
      ],
      "name": "supportsInterface",
      "outputs": [
        {
          "internalType": "bool",
          "name": "",
          "type": "bool"
        }
      ],
      "stateMutability": "view",
      "type": "function"
    },
    {
      "inputs": [],
      "name": "symbol",
      "outputs": [
        {
          "internalType": "string",
          "name": "",
          "type": "string"
        }
      ],
      "stateMutability": "view",
      "type": "function"
    },
    {
      "inputs": [
        {
          "internalType": "uint256",
          "name": "tokenId",
          "type": "uint256"
        }
      ],
      "name": "tokenURI",
      "outputs": [
        {
          "internalType": "string",
          "name": "",
          "type": "string"
        }
      ],
      "stateMutability": "view",
      "type": "function"
    },
    {
      "inputs": [
        {
          "internalType": "address",
          "name": "from",
          "type": "address"
        },
        {
          "internalType": "address",
          "name": "to",
          "type": "address"
        },
        {
          "internalType": "uint256",
          "name": "tokenId",
          "type": "uint256"
        }
      ],
      "name": "transferFrom",
      "outputs": [],
      "stateMutability": "nonpayable",
      "type": "function"
    },
    {
      "inputs": [
        {
          "internalType": "uint256",
          "name": "_listingPrice",
          "type": "uint256"
        }
      ],
      "name": "updateListingPrice",
      "outputs": [],
      "stateMutability": "payable",
      "type": "function"
    }
  ],
  "bytecode": "0x60806040526658d15e17628000600a553480156200001c57600080fd5b506040518060400160405280601081526020017f4d657461766572736520546f6b656e73000000000000000000000000000000008152506040518060400160405280600481526020017f4d4554540000000000000000000000000000000000000000000000000000000081525081600090816200009a919062000388565b508060019081620000ac919062000388565b50505033600b60006101000a81548173ffffffffffffffffffffffffffffffffffffffff021916908373ffffffffffffffffffffffffffffffffffffffff1602179055506000600781905550600060098190555060006008819055506200046f565b600081519050919050565b7f4e487b7100000000000000000000000000000000000000000000000000000000600052604160045260246000fd5b7f4e487b7100000000000000000000000000000000000000000000000000000000600052602260045260246000fd5b600060028204905060018216806200019057607f821691505b602082108103620001a657620001a562000148565b5b50919050565b60008190508160005260206000209050919050565b60006020601f8301049050919050565b600082821b905092915050565b600060088302620002107fffffffffffffffffffffffffffffffffffffffffffffffffffffffffffffffff82620001d1565b6200021c8683620001d1565b95508019841693508086168417925050509392505050565b6000819050919050565b6000819050919050565b600062000269620002636200025d8462000234565b6200023e565b62000234565b9050919050565b6000819050919050565b620002858362000248565b6200029d620002948262000270565b848454620001de565b825550505050565b600090565b620002b4620002a5565b620002c18184846200027a565b505050565b5b81811015620002e957620002dd600082620002aa565b600181019050620002c7565b5050565b601f82111562000338576200030281620001ac565b6200030d84620001c1565b810160208510156200031d578190505b620003356200032c85620001c1565b830182620002c6565b50505b505050565b600082821c905092915050565b60006200035d600019846008026200033d565b1980831691505092915050565b60006200037883836200034a565b9150826002028217905092915050565b62000393826200010e565b67ffffffffffffffff811115620003af57620003ae62000119565b5b620003bb825462000177565b620003c8828285620002ed565b600060209050601f831160018114620004005760008415620003eb578287015190505b620003f785826200036a565b86555062000467565b601f1984166200041086620001ac565b60005b828110156200043a5784890151825560018201915060208501945060208101905062000413565b868310156200045a578489015162000456601f8916826200034a565b8355505b6001600288020188555050505b505050505050565b615d94806200047f6000396000f3fe6080604052600436106101b75760003560e01c80636352211e116100ec578063ae677aa31161008a578063c87b56dd11610064578063c87b56dd1461059e578063cf266ed0146105db578063d12812c6146105f7578063e985e9c514610634576101b7565b8063ae677aa31461053d578063b88d4fde14610559578063be9af53614610582576101b7565b806395d89b41116100c657806395d89b41146104b157806396b5a755146104dc5780639979ef45146104f8578063a22cb46514610514576101b7565b80636352211e1461041b57806370a082311461045857806391e078bb14610495576101b7565b806323b872dd1161015957806342842e0e1161013357806342842e0e1461036c57806345576f941461039557806345f8fa80146103c557806354d54e0a146103f0576101b7565b806323b872dd1461030b5780632f33df6014610334578063361c199514610350576101b7565b8063095ea7b311610195578063095ea7b3146102615780630f08efe01461028a57806312e85585146102b5578063202e3740146102e0576101b7565b806301ffc9a7146101bc57806306fdde03146101f9578063081812fc14610224575b600080fd5b3480156101c857600080fd5b506101e360048036038101906101de91906147cc565b610671565b6040516101f09190614814565b60405180910390f35b34801561020557600080fd5b5061020e6106d2565b60405161021b91906148bf565b60405180910390f35b34801561023057600080fd5b5061024b60048036038101906102469190614917565b610764565b6040516102589190614985565b60405180910390f35b34801561026d57600080fd5b50610288600480360381019061028391906149cc565b610780565b005b34801561029657600080fd5b5061029f610796565b6040516102ac9190614bdc565b60405180910390f35b3480156102c157600080fd5b506102ca610b06565b6040516102d79190614c0d565b60405180910390f35b3480156102ec57600080fd5b506102f5610b10565b6040516103029190614bdc565b60405180910390f35b34801561031757600080fd5b50610332600480360381019061032d9190614c28565b610ea0565b005b61034e60048036038101906103499190614917565b610fa2565b005b61036a60048036038101906103659190614c7b565b611117565b005b34801561037857600080fd5b50610393600480360381019061038e9190614c28565b6114cf565b005b6103af60048036038101906103aa9190614df0565b6114ef565b6040516103bc9190614c0d565b60405180910390f35b3480156103d157600080fd5b506103da611748565b6040516103e79190614bdc565b60405180910390f35b3480156103fc57600080fd5b50610405611b58565b6040516104129190614bdc565b60405180910390f35b34801561042757600080fd5b50610442600480360381019061043d9190614917565b611ec8565b60405161044f9190614985565b60405180910390f35b34801561046457600080fd5b5061047f600480360381019061047a9190614e39565b611eda565b60405161048c9190614c0d565b60405180910390f35b6104af60048036038101906104aa9190614e66565b611f94565b005b3480156104bd57600080fd5b506104c66123c3565b6040516104d391906148bf565b60405180910390f35b6104f660048036038101906104f19190614917565b612455565b005b610512600480360381019061050d9190614917565b612879565b005b34801561052057600080fd5b5061053b60048036038101906105369190614ee5565b612d24565b005b61055760048036038101906105529190614917565b612d3a565b005b34801561056557600080fd5b50610580600480360381019061057b9190614fc6565b612dd4565b005b61059c60048036038101906105979190614917565b612df1565b005b3480156105aa57600080fd5b506105c560048036038101906105c09190614917565b613037565b6040516105d291906148bf565b60405180910390f35b6105f560048036038101906105f09190614917565b61314a565b005b34801561060357600080fd5b5061061e60048036038101906106199190614917565b6135b0565b60405161062b9190614c0d565b60405180910390f35b34801561064057600080fd5b5061065b60048036038101906106569190615049565b6135d5565b6040516106689190614814565b60405180910390f35b6000634906490660e01b7bffffffffffffffffffffffffffffffffffffffffffffffffffffffff1916827bffffffffffffffffffffffffffffffffffffffffffffffffffffffff191614806106cb57506106ca82613669565b5b9050919050565b6060600080546106e1906150b8565b80601f016020809104026020016040519081016040528092919081815260200182805461070d906150b8565b801561075a5780601f1061072f5761010080835404028352916020019161075a565b820191906000526020600020905b81548152906001019060200180831161073d57829003601f168201915b5050505050905090565b600061076f8261374b565b50610779826137d3565b9050919050565b610792828261078d613810565b613818565b5050565b606060006007549050600060085490506000808267ffffffffffffffff8111156107c3576107c2614cc5565b5b6040519080825280602002602001820160405280156107fc57816020015b6107e96146be565b8152602001906001900390816107e15790505b50905060005b84811015610afb573073ffffffffffffffffffffffffffffffffffffffff16600c60006001846108329190615118565b815260200190815260200160002060020160009054906101000a900473ffffffffffffffffffffffffffffffffffffffff1673ffffffffffffffffffffffffffffffffffffffff161480156108ba575060011515600c60006001846108979190615118565b815260200190815260200160002060040160019054906101000a900460ff161515145b80156108f9575060001515600c60006001846108d69190615118565b815260200190815260200160002060040160009054906101000a900460ff161515145b15610ae857600060018261090d9190615118565b90506000600c600083815260200190815260200160002090508060405180610160016040529081600082015481526020016001820160009054906101000a900473ffffffffffffffffffffffffffffffffffffffff1673ffffffffffffffffffffffffffffffffffffffff1673ffffffffffffffffffffffffffffffffffffffff1681526020016002820160009054906101000a900473ffffffffffffffffffffffffffffffffffffffff1673ffffffffffffffffffffffffffffffffffffffff1673ffffffffffffffffffffffffffffffffffffffff168152602001600382015481526020016004820160009054906101000a900460ff161515151581526020016004820160019054906101000a900460ff1615151515815260200160058201548152602001600682015481526020016007820160009054906101000a900473ffffffffffffffffffffffffffffffffffffffff1673ffffffffffffffffffffffffffffffffffffffff1673ffffffffffffffffffffffffffffffffffffffff168152602001600882015481526020016009820160009054906101000a900460ff161515151581525050848681518110610acb57610aca61514c565b5b6020026020010181905250600185610ae39190615118565b945050505b8080610af39061517b565b915050610802565b508094505050505090565b6000600a54905090565b60606000600754905060008060005b83811015610bbf573373ffffffffffffffffffffffffffffffffffffffff16600c6000600184610b4f9190615118565b815260200190815260200160002060020160009054906101000a900473ffffffffffffffffffffffffffffffffffffffff1673ffffffffffffffffffffffffffffffffffffffff1603610bac57600183610ba99190615118565b92505b8080610bb79061517b565b915050610b1f565b5060008267ffffffffffffffff811115610bdc57610bdb614cc5565b5b604051908082528060200260200182016040528015610c1557816020015b610c026146be565b815260200190600190039081610bfa5790505b50905060005b84811015610e95573373ffffffffffffffffffffffffffffffffffffffff16600c6000600184610c4b9190615118565b815260200190815260200160002060020160009054906101000a900473ffffffffffffffffffffffffffffffffffffffff1673ffffffffffffffffffffffffffffffffffffffff1603610e82576000600182610ca79190615118565b90506000600c600083815260200190815260200160002090508060405180610160016040529081600082015481526020016001820160009054906101000a900473ffffffffffffffffffffffffffffffffffffffff1673ffffffffffffffffffffffffffffffffffffffff1673ffffffffffffffffffffffffffffffffffffffff1681526020016002820160009054906101000a900473ffffffffffffffffffffffffffffffffffffffff1673ffffffffffffffffffffffffffffffffffffffff1673ffffffffffffffffffffffffffffffffffffffff168152602001600382015481526020016004820160009054906101000a900460ff161515151581526020016004820160019054906101000a900460ff1615151515815260200160058201548152602001600682015481526020016007820160009054906101000a900473ffffffffffffffffffffffffffffffffffffffff1673ffffffffffffffffffffffffffffffffffffffff1673ffffffffffffffffffffffffffffffffffffffff168152602001600882015481526020016009820160009054906101000a900460ff161515151581525050848681518110610e6557610e6461514c565b5b6020026020010181905250600185610e7d9190615118565b945050505b8080610e8d9061517b565b915050610c1b565b508094505050505090565b600073ffffffffffffffffffffffffffffffffffffffff168273ffffffffffffffffffffffffffffffffffffffff1603610f125760006040517f64a0ae92000000000000000000000000000000000000000000000000000000008152600401610f099190614985565b60405180910390fd5b6000610f268383610f21613810565b61382a565b90508373ffffffffffffffffffffffffffffffffffffffff168173ffffffffffffffffffffffffffffffffffffffff1614610f9c578382826040517f64283d7b000000000000000000000000000000000000000000000000000000008152600401610f93939291906151c3565b60405180910390fd5b50505050565b600c600082815260200190815260200160002060010160009054906101000a900473ffffffffffffffffffffffffffffffffffffffff1673ffffffffffffffffffffffffffffffffffffffff163373ffffffffffffffffffffffffffffffffffffffff1614611046576040517f08c379a000000000000000000000000000000000000000000000000000000000815260040161103d90615246565b60405180910390fd5b6008600081548092919061105990615266565b9190505550611069303383613a44565b33600c600083815260200190815260200160002060020160006101000a81548173ffffffffffffffffffffffffffffffffffffffff021916908373ffffffffffffffffffffffffffffffffffffffff1602179055506000600c600083815260200190815260200160002060010160006101000a81548173ffffffffffffffffffffffffffffffffffffffff021916908373ffffffffffffffffffffffffffffffffffffffff16021790555050565b6000811161115a576040517f08c379a0000000000000000000000000000000000000000000000000000000008152600401611151906152db565b60405180910390fd5b600a54341461119e576040517f08c379a00000000000000000000000000000000000000000000000000000000081526004016111959061536d565b60405180910390fd5b3373ffffffffffffffffffffffffffffffffffffffff16600c600084815260200190815260200160002060020160009054906101000a900473ffffffffffffffffffffffffffffffffffffffff1673ffffffffffffffffffffffffffffffffffffffff1614611242576040517f08c379a0000000000000000000000000000000000000000000000000000000008152600401611239906153ff565b60405180910390fd5b6040518061016001604052808381526020013373ffffffffffffffffffffffffffffffffffffffff1681526020013073ffffffffffffffffffffffffffffffffffffffff168152602001828152602001600015158152602001600115158152602001428152602001428152602001600073ffffffffffffffffffffffffffffffffffffffff16815260200182815260200160001515815250600c60008481526020019081526020016000206000820151816000015560208201518160010160006101000a81548173ffffffffffffffffffffffffffffffffffffffff021916908373ffffffffffffffffffffffffffffffffffffffff16021790555060408201518160020160006101000a81548173ffffffffffffffffffffffffffffffffffffffff021916908373ffffffffffffffffffffffffffffffffffffffff1602179055506060820151816003015560808201518160040160006101000a81548160ff02191690831515021790555060a08201518160040160016101000a81548160ff02191690831515021790555060c0820151816005015560e082015181600601556101008201518160070160006101000a81548173ffffffffffffffffffffffffffffffffffffffff021916908373ffffffffffffffffffffffffffffffffffffffff16021790555061012082015181600801556101408201518160090160006101000a81548160ff0219169083151502179055509050506008600081548092919061146d9061517b565b919050555061147d333084613a44565b817ff28de24d294b42637634a7516b7c0a2384ab5c6f40d27c2c835bb0602083381c33308460006001424260008a60006040516114c39a9998979695949392919061541f565b60405180910390a25050565b6114ea83838360405180602001604052806000815250612dd4565b505050565b6000600760008154809291906115049061517b565b91905055506000600754905061151a3382613bb1565b6115248184613caa565b604051806101600160405280828152602001600073ffffffffffffffffffffffffffffffffffffffff1681526020013373ffffffffffffffffffffffffffffffffffffffff16815260200160008152602001600115158152602001600115158152602001428152602001428152602001600073ffffffffffffffffffffffffffffffffffffffff1681526020016000815260200160001515815250600c60008381526020019081526020016000206000820151816000015560208201518160010160006101000a81548173ffffffffffffffffffffffffffffffffffffffff021916908373ffffffffffffffffffffffffffffffffffffffff16021790555060408201518160020160006101000a81548173ffffffffffffffffffffffffffffffffffffffff021916908373ffffffffffffffffffffffffffffffffffffffff1602179055506060820151816003015560808201518160040160006101000a81548160ff02191690831515021790555060a08201518160040160016101000a81548160ff02191690831515021790555060c0820151816005015560e082015181600601556101008201518160070160006101000a81548173ffffffffffffffffffffffffffffffffffffffff021916908373ffffffffffffffffffffffffffffffffffffffff16021790555061012082015181600801556101408201518160090160006101000a81548160ff02191690831515021790555090505080915050919050565b60606000600754905060008060005b83811015611837573373ffffffffffffffffffffffffffffffffffffffff16600c60006001846117879190615118565b815260200190815260200160002060010160009054906101000a900473ffffffffffffffffffffffffffffffffffffffff1673ffffffffffffffffffffffffffffffffffffffff1614801561180f575060011515600c60006001846117ec9190615118565b815260200190815260200160002060040160019054906101000a900460ff161515145b15611824576001836118219190615118565b92505b808061182f9061517b565b915050611757565b5060008267ffffffffffffffff81111561185457611853614cc5565b5b60405190808252806020026020018201604052801561188d57816020015b61187a6146be565b8152602001906001900390816118725790505b50905060005b84811015611b4d573373ffffffffffffffffffffffffffffffffffffffff16600c60006001846118c39190615118565b815260200190815260200160002060010160009054906101000a900473ffffffffffffffffffffffffffffffffffffffff1673ffffffffffffffffffffffffffffffffffffffff1614801561194b575060011515600c60006001846119289190615118565b815260200190815260200160002060040160019054906101000a900460ff161515145b15611b3a57600060018261195f9190615118565b90506000600c600083815260200190815260200160002090508060405180610160016040529081600082015481526020016001820160009054906101000a900473ffffffffffffffffffffffffffffffffffffffff1673ffffffffffffffffffffffffffffffffffffffff1673ffffffffffffffffffffffffffffffffffffffff1681526020016002820160009054906101000a900473ffffffffffffffffffffffffffffffffffffffff1673ffffffffffffffffffffffffffffffffffffffff1673ffffffffffffffffffffffffffffffffffffffff168152602001600382015481526020016004820160009054906101000a900460ff161515151581526020016004820160019054906101000a900460ff1615151515815260200160058201548152602001600682015481526020016007820160009054906101000a900473ffffffffffffffffffffffffffffffffffffffff1673ffffffffffffffffffffffffffffffffffffffff1673ffffffffffffffffffffffffffffffffffffffff168152602001600882015481526020016009820160009054906101000a900460ff161515151581525050848681518110611b1d57611b1c61514c565b5b6020026020010181905250600185611b359190615118565b945050505b8080611b459061517b565b915050611893565b508094505050505090565b606060006007549050600060095490506000808267ffffffffffffffff811115611b8557611b84614cc5565b5b604051908082528060200260200182016040528015611bbe57816020015b611bab6146be565b815260200190600190039081611ba35790505b50905060005b84811015611ebd573073ffffffffffffffffffffffffffffffffffffffff16600c6000600184611bf49190615118565b815260200190815260200160002060020160009054906101000a900473ffffffffffffffffffffffffffffffffffffffff1673ffffffffffffffffffffffffffffffffffffffff16148015611c7c575060001515600c6000600184611c599190615118565b815260200190815260200160002060040160019054906101000a900460ff161515145b8015611cbb575060001515600c6000600184611c989190615118565b815260200190815260200160002060040160009054906101000a900460ff161515145b15611eaa576000600182611ccf9190615118565b90506000600c600083815260200190815260200160002090508060405180610160016040529081600082015481526020016001820160009054906101000a900473ffffffffffffffffffffffffffffffffffffffff1673ffffffffffffffffffffffffffffffffffffffff1673ffffffffffffffffffffffffffffffffffffffff1681526020016002820160009054906101000a900473ffffffffffffffffffffffffffffffffffffffff1673ffffffffffffffffffffffffffffffffffffffff1673ffffffffffffffffffffffffffffffffffffffff168152602001600382015481526020016004820160009054906101000a900460ff161515151581526020016004820160019054906101000a900460ff1615151515815260200160058201548152602001600682015481526020016007820160009054906101000a900473ffffffffffffffffffffffffffffffffffffffff1673ffffffffffffffffffffffffffffffffffffffff1673ffffffffffffffffffffffffffffffffffffffff168152602001600882015481526020016009820160009054906101000a900460ff161515151581525050848681518110611e8d57611e8c61514c565b5b6020026020010181905250600185611ea59190615118565b945050505b8080611eb59061517b565b915050611bc4565b508094505050505090565b6000611ed38261374b565b9050919050565b60008073ffffffffffffffffffffffffffffffffffffffff168273ffffffffffffffffffffffffffffffffffffffff1603611f4d5760006040517f89c62b64000000000000000000000000000000000000000000000000000000008152600401611f449190614985565b60405180910390fd5b600360008373ffffffffffffffffffffffffffffffffffffffff1673ffffffffffffffffffffffffffffffffffffffff168152602001908152602001600020549050919050565b6000600c600085815260200190815260200160002090503373ffffffffffffffffffffffffffffffffffffffff16600c600086815260200190815260200160002060020160009054906101000a900473ffffffffffffffffffffffffffffffffffffffff1673ffffffffffffffffffffffffffffffffffffffff161461204f576040517f08c379a0000000000000000000000000000000000000000000000000000000008152600401612046906153ff565b60405180910390fd5b60008160040160016101000a81548160ff02191690831515021790555060008160090160006101000a81548160ff021916908315150217905550338160070160006101000a81548173ffffffffffffffffffffffffffffffffffffffff021916908373ffffffffffffffffffffffffffffffffffffffff160217905550828160080181905550338160010160006101000a81548173ffffffffffffffffffffffffffffffffffffffff021916908373ffffffffffffffffffffffffffffffffffffffff160217905550308160020160006101000a81548173ffffffffffffffffffffffffffffffffffffffff021916908373ffffffffffffffffffffffffffffffffffffffff16021790555042816005018190555081426121709190615118565b816006018190555060008160040160006101000a81548160ff021916908315150217905550600960008154809291906121a89061517b565b919050555080600c6000868152602001908152602001600020600082015481600001556001820160009054906101000a900473ffffffffffffffffffffffffffffffffffffffff168160010160006101000a81548173ffffffffffffffffffffffffffffffffffffffff021916908373ffffffffffffffffffffffffffffffffffffffff1602179055506002820160009054906101000a900473ffffffffffffffffffffffffffffffffffffffff168160020160006101000a81548173ffffffffffffffffffffffffffffffffffffffff021916908373ffffffffffffffffffffffffffffffffffffffff160217905550600382015481600301556004820160009054906101000a900460ff168160040160006101000a81548160ff0219169083151502179055506004820160019054906101000a900460ff168160040160016101000a81548160ff02191690831515021790555060058201548160050155600682015481600601556007820160009054906101000a900473ffffffffffffffffffffffffffffffffffffffff168160070160006101000a81548173ffffffffffffffffffffffffffffffffffffffff021916908373ffffffffffffffffffffffffffffffffffffffff160217905550600882015481600801556009820160009054906101000a900460ff168160090160006101000a81548160ff0219169083151502179055509050506123bd333086613a44565b50505050565b6060600180546123d2906150b8565b80601f01602080910402602001604051908101604052809291908181526020018280546123fe906150b8565b801561244b5780601f106124205761010080835404028352916020019161244b565b820191906000526020600020905b81548152906001019060200180831161242e57829003601f168201915b5050505050905090565b6000600c600083815260200190815260200160002090508060010160009054906101000a900473ffffffffffffffffffffffffffffffffffffffff1673ffffffffffffffffffffffffffffffffffffffff163373ffffffffffffffffffffffffffffffffffffffff16146124fe576040517f08c379a00000000000000000000000000000000000000000000000000000000081526004016124f590615507565b60405180910390fd5b6009600081548092919061251190615266565b9190505550600073ffffffffffffffffffffffffffffffffffffffff168160070160009054906101000a900473ffffffffffffffffffffffffffffffffffffffff1673ffffffffffffffffffffffffffffffffffffffff16146125de578060070160009054906101000a900473ffffffffffffffffffffffffffffffffffffffff1673ffffffffffffffffffffffffffffffffffffffff166108fc82600801549081150290604051600060405180830381858888f193505050501580156125dc573d6000803e3d6000fd5b505b338160020160006101000a81548173ffffffffffffffffffffffffffffffffffffffff021916908373ffffffffffffffffffffffffffffffffffffffff16021790555060008160010160006101000a81548173ffffffffffffffffffffffffffffffffffffffff021916908373ffffffffffffffffffffffffffffffffffffffff160217905550612670303384613a44565b80600c6000848152602001908152602001600020600082015481600001556001820160009054906101000a900473ffffffffffffffffffffffffffffffffffffffff168160010160006101000a81548173ffffffffffffffffffffffffffffffffffffffff021916908373ffffffffffffffffffffffffffffffffffffffff1602179055506002820160009054906101000a900473ffffffffffffffffffffffffffffffffffffffff168160020160006101000a81548173ffffffffffffffffffffffffffffffffffffffff021916908373ffffffffffffffffffffffffffffffffffffffff160217905550600382015481600301556004820160009054906101000a900460ff168160040160006101000a81548160ff0219169083151502179055506004820160019054906101000a900460ff168160040160016101000a81548160ff02191690831515021790555060058201548160050155600682015481600601556007820160009054906101000a900473ffffffffffffffffffffffffffffffffffffffff168160070160006101000a81548173ffffffffffffffffffffffffffffffffffffffff021916908373ffffffffffffffffffffffffffffffffffffffff160217905550600882015481600801556009820160009054906101000a900460ff168160090160006101000a81548160ff0219169083151502179055509050505050565b6000600c60008381526020019081526020016000209050806008015434116128d6576040517f08c379a00000000000000000000000000000000000000000000000000000000081526004016128cd90615599565b60405180910390fd5b806005015442101561291d576040517f08c379a000000000000000000000000000000000000000000000000000000000815260040161291490615605565b60405180910390fd5b8060090160009054906101000a900460ff161561296f576040517f08c379a000000000000000000000000000000000000000000000000000000000815260040161296690615671565b60405180910390fd5b3373ffffffffffffffffffffffffffffffffffffffff168160070160009054906101000a900473ffffffffffffffffffffffffffffffffffffffff1673ffffffffffffffffffffffffffffffffffffffff1603612a01576040517f08c379a00000000000000000000000000000000000000000000000000000000081526004016129f8906156dd565b60405180910390fd5b600073ffffffffffffffffffffffffffffffffffffffff168160070160009054906101000a900473ffffffffffffffffffffffffffffffffffffffff1673ffffffffffffffffffffffffffffffffffffffff1614612acf5760008160070160009054906101000a900473ffffffffffffffffffffffffffffffffffffffff1690508073ffffffffffffffffffffffffffffffffffffffff166108fc83600801549081150290604051600060405180830381858888f19350505050158015612acc573d6000803e3d6000fd5b50505b348160080181905550338160070160006101000a81548173ffffffffffffffffffffffffffffffffffffffff021916908373ffffffffffffffffffffffffffffffffffffffff16021790555080600c6000848152602001908152602001600020600082015481600001556001820160009054906101000a900473ffffffffffffffffffffffffffffffffffffffff168160010160006101000a81548173ffffffffffffffffffffffffffffffffffffffff021916908373ffffffffffffffffffffffffffffffffffffffff1602179055506002820160009054906101000a900473ffffffffffffffffffffffffffffffffffffffff168160020160006101000a81548173ffffffffffffffffffffffffffffffffffffffff021916908373ffffffffffffffffffffffffffffffffffffffff160217905550600382015481600301556004820160009054906101000a900460ff168160040160006101000a81548160ff0219169083151502179055506004820160019054906101000a900460ff168160040160016101000a81548160ff02191690831515021790555060058201548160050155600682015481600601556007820160009054906101000a900473ffffffffffffffffffffffffffffffffffffffff168160070160006101000a81548173ffffffffffffffffffffffffffffffffffffffff021916908373ffffffffffffffffffffffffffffffffffffffff160217905550600882015481600801556009820160009054906101000a900460ff168160090160006101000a81548160ff0219169083151502179055509050505050565b612d36612d2f613810565b8383613d06565b5050565b3373ffffffffffffffffffffffffffffffffffffffff16600b60009054906101000a900473ffffffffffffffffffffffffffffffffffffffff1673ffffffffffffffffffffffffffffffffffffffff1614612dca576040517f08c379a0000000000000000000000000000000000000000000000000000000008152600401612dc19061576f565b60405180910390fd5b80600a8190555050565b612ddf848484610ea0565b612deb84848484613e75565b50505050565b6000600c6000838152602001908152602001600020600301549050803414612e4e576040517f08c379a0000000000000000000000000000000000000000000000000000000008152600401612e4590615801565b60405180910390fd5b33600c600084815260200190815260200160002060020160006101000a81548173ffffffffffffffffffffffffffffffffffffffff021916908373ffffffffffffffffffffffffffffffffffffffff1602179055506001600c600084815260200190815260200160002060040160006101000a81548160ff02191690831515021790555060086000815480929190612ee590615266565b9190505550612ef5303384613a44565b600b60009054906101000a900473ffffffffffffffffffffffffffffffffffffffff1673ffffffffffffffffffffffffffffffffffffffff166108fc600a549081150290604051600060405180830381858888f19350505050158015612f5f573d6000803e3d6000fd5b50600c600083815260200190815260200160002060010160009054906101000a900473ffffffffffffffffffffffffffffffffffffffff1673ffffffffffffffffffffffffffffffffffffffff166108fc349081150290604051600060405180830381858888f19350505050158015612fdc573d6000803e3d6000fd5b506000600c600084815260200190815260200160002060010160006101000a81548173ffffffffffffffffffffffffffffffffffffffff021916908373ffffffffffffffffffffffffffffffffffffffff1602179055505050565b60606130428261374b565b506000600660008481526020019081526020016000208054613063906150b8565b80601f016020809104026020016040519081016040528092919081815260200182805461308f906150b8565b80156130dc5780601f106130b1576101008083540402835291602001916130dc565b820191906000526020600020905b8154815290600101906020018083116130bf57829003601f168201915b5050505050905060006130ed61402c565b90506000815103613102578192505050613145565b60008251111561313757808260405160200161311f92919061585d565b60405160208183030381529060405292505050613145565b61314084614043565b925050505b919050565b6000600c600083815260200190815260200160002090508060010160009054906101000a900473ffffffffffffffffffffffffffffffffffffffff1673ffffffffffffffffffffffffffffffffffffffff163373ffffffffffffffffffffffffffffffffffffffff16146131f3576040517f08c379a00000000000000000000000000000000000000000000000000000000081526004016131ea906158f3565b60405180910390fd5b600073ffffffffffffffffffffffffffffffffffffffff168160070160009054906101000a900473ffffffffffffffffffffffffffffffffffffffff1673ffffffffffffffffffffffffffffffffffffffff1603613286576040517f08c379a000000000000000000000000000000000000000000000000000000000815260040161327d90615985565b60405180910390fd5b6009600081548092919061329990615266565b91905055506132df30600c600085815260200190815260200160002060070160009054906101000a900473ffffffffffffffffffffffffffffffffffffffff1684613a44565b60018160090160006101000a81548160ff0219169083151502179055508060070160009054906101000a900473ffffffffffffffffffffffffffffffffffffffff168160020160006101000a81548173ffffffffffffffffffffffffffffffffffffffff021916908373ffffffffffffffffffffffffffffffffffffffff16021790555060008160010160006101000a81548173ffffffffffffffffffffffffffffffffffffffff021916908373ffffffffffffffffffffffffffffffffffffffff16021790555080600c6000848152602001908152602001600020600082015481600001556001820160009054906101000a900473ffffffffffffffffffffffffffffffffffffffff168160010160006101000a81548173ffffffffffffffffffffffffffffffffffffffff021916908373ffffffffffffffffffffffffffffffffffffffff1602179055506002820160009054906101000a900473ffffffffffffffffffffffffffffffffffffffff168160020160006101000a81548173ffffffffffffffffffffffffffffffffffffffff021916908373ffffffffffffffffffffffffffffffffffffffff160217905550600382015481600301556004820160009054906101000a900460ff168160040160006101000a81548160ff0219169083151502179055506004820160019054906101000a900460ff168160040160016101000a81548160ff02191690831515021790555060058201548160050155600682015481600601556007820160009054906101000a900473ffffffffffffffffffffffffffffffffffffffff168160070160006101000a81548173ffffffffffffffffffffffffffffffffffffffff021916908373ffffffffffffffffffffffffffffffffffffffff160217905550600882015481600801556009820160009054906101000a900460ff168160090160006101000a81548160ff0219169083151502179055509050505050565b600080600c600084815260200190815260200160002090508060060154915050919050565b6000600560008473ffffffffffffffffffffffffffffffffffffffff1673ffffffffffffffffffffffffffffffffffffffff16815260200190815260200160002060008373ffffffffffffffffffffffffffffffffffffffff1673ffffffffffffffffffffffffffffffffffffffff16815260200190815260200160002060009054906101000a900460ff16905092915050565b60007f80ac58cd000000000000000000000000000000000000000000000000000000007bffffffffffffffffffffffffffffffffffffffffffffffffffffffff1916827bffffffffffffffffffffffffffffffffffffffffffffffffffffffff1916148061373457507f5b5e139f000000000000000000000000000000000000000000000000000000007bffffffffffffffffffffffffffffffffffffffffffffffffffffffff1916827bffffffffffffffffffffffffffffffffffffffffffffffffffffffff1916145b806137445750613743826140ac565b5b9050919050565b60008061375783614116565b9050600073ffffffffffffffffffffffffffffffffffffffff168173ffffffffffffffffffffffffffffffffffffffff16036137ca57826040517f7e2732890000000000000000000000000000000000000000000000000000000081526004016137c19190614c0d565b60405180910390fd5b80915050919050565b60006004600083815260200190815260200160002060009054906101000a900473ffffffffffffffffffffffffffffffffffffffff169050919050565b600033905090565b6138258383836001614153565b505050565b60008061383684614116565b9050600073ffffffffffffffffffffffffffffffffffffffff168373ffffffffffffffffffffffffffffffffffffffff161461387857613877818486614318565b5b600073ffffffffffffffffffffffffffffffffffffffff168173ffffffffffffffffffffffffffffffffffffffff1614613909576138ba600085600080614153565b6001600360008373ffffffffffffffffffffffffffffffffffffffff1673ffffffffffffffffffffffffffffffffffffffff168152602001908152602001600020600082825403925050819055505b600073ffffffffffffffffffffffffffffffffffffffff168573ffffffffffffffffffffffffffffffffffffffff161461398c576001600360008773ffffffffffffffffffffffffffffffffffffffff1673ffffffffffffffffffffffffffffffffffffffff168152602001908152602001600020600082825401925050819055505b846002600086815260200190815260200160002060006101000a81548173ffffffffffffffffffffffffffffffffffffffff021916908373ffffffffffffffffffffffffffffffffffffffff160217905550838573ffffffffffffffffffffffffffffffffffffffff168273ffffffffffffffffffffffffffffffffffffffff167fddf252ad1be2c89b69c2b068fc378daa952ba7f163c4a11628f55a4df523b3ef60405160405180910390a4809150509392505050565b600073ffffffffffffffffffffffffffffffffffffffff168273ffffffffffffffffffffffffffffffffffffffff1603613ab65760006040517f64a0ae92000000000000000000000000000000000000000000000000000000008152600401613aad9190614985565b60405180910390fd5b6000613ac48383600061382a565b9050600073ffffffffffffffffffffffffffffffffffffffff168173ffffffffffffffffffffffffffffffffffffffff1603613b3757816040517f7e273289000000000000000000000000000000000000000000000000000000008152600401613b2e9190614c0d565b60405180910390fd5b8373ffffffffffffffffffffffffffffffffffffffff168173ffffffffffffffffffffffffffffffffffffffff1614613bab578382826040517f64283d7b000000000000000000000000000000000000000000000000000000008152600401613ba2939291906151c3565b60405180910390fd5b50505050565b600073ffffffffffffffffffffffffffffffffffffffff168273ffffffffffffffffffffffffffffffffffffffff1603613c235760006040517f64a0ae92000000000000000000000000000000000000000000000000000000008152600401613c1a9190614985565b60405180910390fd5b6000613c318383600061382a565b9050600073ffffffffffffffffffffffffffffffffffffffff168173ffffffffffffffffffffffffffffffffffffffff1614613ca55760006040517f73c6ac6e000000000000000000000000000000000000000000000000000000008152600401613c9c9190614985565b60405180910390fd5b505050565b80600660008481526020019081526020016000209081613cca9190615b51565b507ff8e1a15aba9398e019f0b49df1a4fde98ee17ae345cb5f6b5e2c27f5033e8ce782604051613cfa9190614c0d565b60405180910390a15050565b600073ffffffffffffffffffffffffffffffffffffffff168273ffffffffffffffffffffffffffffffffffffffff1603613d7757816040517f5b08ba18000000000000000000000000000000000000000000000000000000008152600401613d6e9190614985565b60405180910390fd5b80600560008573ffffffffffffffffffffffffffffffffffffffff1673ffffffffffffffffffffffffffffffffffffffff16815260200190815260200160002060008473ffffffffffffffffffffffffffffffffffffffff1673ffffffffffffffffffffffffffffffffffffffff16815260200190815260200160002060006101000a81548160ff0219169083151502179055508173ffffffffffffffffffffffffffffffffffffffff168373ffffffffffffffffffffffffffffffffffffffff167f17307eab39ab6107e8899845ad3d59bd9653f200f220920489ca2b5937696c3183604051613e689190614814565b60405180910390a3505050565b60008373ffffffffffffffffffffffffffffffffffffffff163b1115614026578273ffffffffffffffffffffffffffffffffffffffff1663150b7a02613eb9613810565b8685856040518563ffffffff1660e01b8152600401613edb9493929190615c78565b6020604051808303816000875af1925050508015613f1757506040513d601f19601f82011682018060405250810190613f149190615cd9565b60015b613f9b573d8060008114613f47576040519150601f19603f3d011682016040523d82523d6000602084013e613f4c565b606091505b506000815103613f9357836040517f64a0ae92000000000000000000000000000000000000000000000000000000008152600401613f8a9190614985565b60405180910390fd5b805181602001fd5b63150b7a0260e01b7bffffffffffffffffffffffffffffffffffffffffffffffffffffffff1916817bffffffffffffffffffffffffffffffffffffffffffffffffffffffff19161461402457836040517f64a0ae9200000000000000000000000000000000000000000000000000000000815260040161401b9190614985565b60405180910390fd5b505b50505050565b606060405180602001604052806000815250905090565b606061404e8261374b565b50600061405961402c565b9050600081511161407957604051806020016040528060008152506140a4565b80614083846143dc565b60405160200161409492919061585d565b6040516020818303038152906040525b915050919050565b60007f01ffc9a7000000000000000000000000000000000000000000000000000000007bffffffffffffffffffffffffffffffffffffffffffffffffffffffff1916827bffffffffffffffffffffffffffffffffffffffffffffffffffffffff1916149050919050565b60006002600083815260200190815260200160002060009054906101000a900473ffffffffffffffffffffffffffffffffffffffff169050919050565b808061418c5750600073ffffffffffffffffffffffffffffffffffffffff168273ffffffffffffffffffffffffffffffffffffffff1614155b156142c057600061419c8461374b565b9050600073ffffffffffffffffffffffffffffffffffffffff168373ffffffffffffffffffffffffffffffffffffffff161415801561420757508273ffffffffffffffffffffffffffffffffffffffff168173ffffffffffffffffffffffffffffffffffffffff1614155b801561421a575061421881846135d5565b155b1561425c57826040517fa9fbf51f0000000000000000000000000000000000000000000000000000000081526004016142539190614985565b60405180910390fd5b81156142be57838573ffffffffffffffffffffffffffffffffffffffff168273ffffffffffffffffffffffffffffffffffffffff167f8c5be1e5ebec7d5bd14f71427d1e84f3dd0314c0f7b2291e5b200ac8c7c3b92560405160405180910390a45b505b836004600085815260200190815260200160002060006101000a81548173ffffffffffffffffffffffffffffffffffffffff021916908373ffffffffffffffffffffffffffffffffffffffff16021790555050505050565b6143238383836144aa565b6143d757600073ffffffffffffffffffffffffffffffffffffffff168373ffffffffffffffffffffffffffffffffffffffff160361439857806040517f7e27328900000000000000000000000000000000000000000000000000000000815260040161438f9190614c0d565b60405180910390fd5b81816040517f177e802f0000000000000000000000000000000000000000000000000000000081526004016143ce929190615d06565b60405180910390fd5b505050565b6060600060016143eb8461456b565b01905060008167ffffffffffffffff81111561440a57614409614cc5565b5b6040519080825280601f01601f19166020018201604052801561443c5781602001600182028036833780820191505090505b509050600082602001820190505b60011561449f578080600190039150507f3031323334353637383961626364656600000000000000000000000000000000600a86061a8153600a858161449357614492615d2f565b5b0494506000850361444a575b819350505050919050565b60008073ffffffffffffffffffffffffffffffffffffffff168373ffffffffffffffffffffffffffffffffffffffff161415801561456257508273ffffffffffffffffffffffffffffffffffffffff168473ffffffffffffffffffffffffffffffffffffffff161480614523575061452284846135d5565b5b8061456157508273ffffffffffffffffffffffffffffffffffffffff16614549836137d3565b73ffffffffffffffffffffffffffffffffffffffff16145b5b90509392505050565b600080600090507a184f03e93ff9f4daa797ed6e38ed64bf6a1f01000000000000000083106145c9577a184f03e93ff9f4daa797ed6e38ed64bf6a1f01000000000000000083816145bf576145be615d2f565b5b0492506040810190505b6d04ee2d6d415b85acef81000000008310614606576d04ee2d6d415b85acef810000000083816145fc576145fb615d2f565b5b0492506020810190505b662386f26fc10000831061463557662386f26fc10000838161462b5761462a615d2f565b5b0492506010810190505b6305f5e100831061465e576305f5e100838161465457614653615d2f565b5b0492506008810190505b612710831061468357612710838161467957614678615d2f565b5b0492506004810190505b606483106146a6576064838161469c5761469b615d2f565b5b0492506002810190505b600a83106146b5576001810190505b80915050919050565b60405180610160016040528060008152602001600073ffffffffffffffffffffffffffffffffffffffff168152602001600073ffffffffffffffffffffffffffffffffffffffff168152602001600081526020016000151581526020016000151581526020016000815260200160008152602001600073ffffffffffffffffffffffffffffffffffffffff168152602001600081526020016000151581525090565b6000604051905090565b600080fd5b600080fd5b60007fffffffff0000000000000000000000000000000000000000000000000000000082169050919050565b6147a981614774565b81146147b457600080fd5b50565b6000813590506147c6816147a0565b92915050565b6000602082840312156147e2576147e161476a565b5b60006147f0848285016147b7565b91505092915050565b60008115159050919050565b61480e816147f9565b82525050565b60006020820190506148296000830184614805565b92915050565b600081519050919050565b600082825260208201905092915050565b60005b8381101561486957808201518184015260208101905061484e565b60008484015250505050565b6000601f19601f8301169050919050565b60006148918261482f565b61489b818561483a565b93506148ab81856020860161484b565b6148b481614875565b840191505092915050565b600060208201905081810360008301526148d98184614886565b905092915050565b6000819050919050565b6148f4816148e1565b81146148ff57600080fd5b50565b600081359050614911816148eb565b92915050565b60006020828403121561492d5761492c61476a565b5b600061493b84828501614902565b91505092915050565b600073ffffffffffffffffffffffffffffffffffffffff82169050919050565b600061496f82614944565b9050919050565b61497f81614964565b82525050565b600060208201905061499a6000830184614976565b92915050565b6149a981614964565b81146149b457600080fd5b50565b6000813590506149c6816149a0565b92915050565b600080604083850312156149e3576149e261476a565b5b60006149f1858286016149b7565b9250506020614a0285828601614902565b9150509250929050565b600081519050919050565b600082825260208201905092915050565b6000819050602082019050919050565b614a41816148e1565b82525050565b6000614a5282614944565b9050919050565b614a6281614a47565b82525050565b614a71816147f9565b82525050565b61016082016000820151614a8e6000850182614a38565b506020820151614aa16020850182614a59565b506040820151614ab46040850182614a59565b506060820151614ac76060850182614a38565b506080820151614ada6080850182614a68565b5060a0820151614aed60a0850182614a68565b5060c0820151614b0060c0850182614a38565b5060e0820151614b1360e0850182614a38565b50610100820151614b28610100850182614a59565b50610120820151614b3d610120850182614a38565b50610140820151614b52610140850182614a68565b50505050565b6000614b648383614a77565b6101608301905092915050565b6000602082019050919050565b6000614b8982614a0c565b614b938185614a17565b9350614b9e83614a28565b8060005b83811015614bcf578151614bb68882614b58565b9750614bc183614b71565b925050600181019050614ba2565b5085935050505092915050565b60006020820190508181036000830152614bf68184614b7e565b905092915050565b614c07816148e1565b82525050565b6000602082019050614c226000830184614bfe565b92915050565b600080600060608486031215614c4157614c4061476a565b5b6000614c4f868287016149b7565b9350506020614c60868287016149b7565b9250506040614c7186828701614902565b9150509250925092565b60008060408385031215614c9257614c9161476a565b5b6000614ca085828601614902565b9250506020614cb185828601614902565b9150509250929050565b600080fd5b600080fd5b7f4e487b7100000000000000000000000000000000000000000000000000000000600052604160045260246000fd5b614cfd82614875565b810181811067ffffffffffffffff82111715614d1c57614d1b614cc5565b5b80604052505050565b6000614d2f614760565b9050614d3b8282614cf4565b919050565b600067ffffffffffffffff821115614d5b57614d5a614cc5565b5b614d6482614875565b9050602081019050919050565b82818337600083830152505050565b6000614d93614d8e84614d40565b614d25565b905082815260208101848484011115614daf57614dae614cc0565b5b614dba848285614d71565b509392505050565b600082601f830112614dd757614dd6614cbb565b5b8135614de7848260208601614d80565b91505092915050565b600060208284031215614e0657614e0561476a565b5b600082013567ffffffffffffffff811115614e2457614e2361476f565b5b614e3084828501614dc2565b91505092915050565b600060208284031215614e4f57614e4e61476a565b5b6000614e5d848285016149b7565b91505092915050565b600080600060608486031215614e7f57614e7e61476a565b5b6000614e8d86828701614902565b9350506020614e9e86828701614902565b9250506040614eaf86828701614902565b9150509250925092565b614ec2816147f9565b8114614ecd57600080fd5b50565b600081359050614edf81614eb9565b92915050565b60008060408385031215614efc57614efb61476a565b5b6000614f0a858286016149b7565b9250506020614f1b85828601614ed0565b9150509250929050565b600067ffffffffffffffff821115614f4057614f3f614cc5565b5b614f4982614875565b9050602081019050919050565b6000614f69614f6484614f25565b614d25565b905082815260208101848484011115614f8557614f84614cc0565b5b614f90848285614d71565b509392505050565b600082601f830112614fad57614fac614cbb565b5b8135614fbd848260208601614f56565b91505092915050565b60008060008060808587031215614fe057614fdf61476a565b5b6000614fee878288016149b7565b9450506020614fff878288016149b7565b935050604061501087828801614902565b925050606085013567ffffffffffffffff8111156150315761503061476f565b5b61503d87828801614f98565b91505092959194509250565b600080604083850312156150605761505f61476a565b5b600061506e858286016149b7565b925050602061507f858286016149b7565b9150509250929050565b7f4e487b7100000000000000000000000000000000000000000000000000000000600052602260045260246000fd5b600060028204905060018216806150d057607f821691505b6020821081036150e3576150e2615089565b5b50919050565b7f4e487b7100000000000000000000000000000000000000000000000000000000600052601160045260246000fd5b6000615123826148e1565b915061512e836148e1565b9250828201905080821115615146576151456150e9565b5b92915050565b7f4e487b7100000000000000000000000000000000000000000000000000000000600052603260045260246000fd5b6000615186826148e1565b91507fffffffffffffffffffffffffffffffffffffffffffffffffffffffffffffffff82036151b8576151b76150e9565b5b600182019050919050565b60006060820190506151d86000830186614976565b6151e56020830185614bfe565b6151f26040830184614976565b949350505050565b7f4f6e6c79206f776e65722063616e2063616e63656c2073656c6c696e67000000600082015250565b6000615230601d8361483a565b915061523b826151fa565b602082019050919050565b6000602082019050818103600083015261525f81615223565b9050919050565b6000615271826148e1565b915060008203615284576152836150e9565b5b600182039050919050565b7f5072696365206d757374206265206174206c6561737420312077656900000000600082015250565b60006152c5601c8361483a565b91506152d08261528f565b602082019050919050565b600060208201905081810360008301526152f4816152b8565b9050919050565b7f5072696365206d75737420626520657175616c20746f206c697374696e67207060008201527f7269636500000000000000000000000000000000000000000000000000000000602082015250565b600061535760248361483a565b9150615362826152fb565b604082019050919050565b600060208201905081810360008301526153868161534a565b9050919050565b7f4f6e6c79206974656d206f776e65722063616e20706572666f726d207468697360008201527f206f7065726174696f6e00000000000000000000000000000000000000000000602082015250565b60006153e9602a8361483a565b91506153f48261538d565b604082019050919050565b60006020820190508181036000830152615418816153dc565b9050919050565b600061014082019050615435600083018d614976565b615442602083018c614976565b61544f604083018b614bfe565b61545c606083018a614805565b6154696080830189614805565b61547660a0830188614bfe565b61548360c0830187614bfe565b61549060e0830186614976565b61549e610100830185614bfe565b6154ac610120830184614805565b9b9a5050505050505050505050565b7f4f6e6c79206f776e65722063616e2063616e63656c2061756374696f6e000000600082015250565b60006154f1601d8361483a565b91506154fc826154bb565b602082019050919050565b60006020820190508181036000830152615520816154e4565b9050919050565b7f426964206d7573742062652067726561746572207468616e206869676865737460008201527f2062696400000000000000000000000000000000000000000000000000000000602082015250565b600061558360248361483a565b915061558e82615527565b604082019050919050565b600060208201905081810360008301526155b281615576565b9050919050565b7f41756374696f6e206e6f74207965742073746172746564000000000000000000600082015250565b60006155ef60178361483a565b91506155fa826155b9565b602082019050919050565b6000602082019050818103600083015261561e816155e2565b9050919050565b7f41756374696f6e20616c726561647920636f6d706c6574656400000000000000600082015250565b600061565b60198361483a565b915061566682615625565b602082019050919050565b6000602082019050818103600083015261568a8161564e565b9050919050565b7f43616e6e6f742062696420747769636520696e206120726f7700000000000000600082015250565b60006156c760198361483a565b91506156d282615691565b602082019050919050565b600060208201905081810360008301526156f6816156ba565b9050919050565b7f4f6e6c79206d61726b6574706c616365206f776e65722063616e20757064617460008201527f65206c697374696e672070726963652e00000000000000000000000000000000602082015250565b600061575960308361483a565b9150615764826156fd565b604082019050919050565b600060208201905081810360008301526157888161574c565b9050919050565b7f506c65617365207375626d6974207468652061736b696e67207072696365206960008201527f6e206f7264657220746f20636f6d706c65746520746865207075726368617365602082015250565b60006157eb60408361483a565b91506157f68261578f565b604082019050919050565b6000602082019050818103600083015261581a816157de565b9050919050565b600081905092915050565b60006158378261482f565b6158418185615821565b935061585181856020860161484b565b80840191505092915050565b6000615869828561582c565b9150615875828461582c565b91508190509392505050565b7f4f6e6c792074686520746f6b656e206f776e65722063616e20656e642074686560008201527f2061756374696f6e000000000000000000000000000000000000000000000000602082015250565b60006158dd60288361483a565b91506158e882615881565b604082019050919050565b6000602082019050818103600083015261590c816158d0565b9050919050565b7f41756374696f6e206d7573742068617665206174206c65617374206f6e65206260008201527f6964000000000000000000000000000000000000000000000000000000000000602082015250565b600061596f60228361483a565b915061597a82615913565b604082019050919050565b6000602082019050818103600083015261599e81615962565b9050919050565b60008190508160005260206000209050919050565b60006020601f8301049050919050565b600082821b905092915050565b600060088302615a077fffffffffffffffffffffffffffffffffffffffffffffffffffffffffffffffff826159ca565b615a1186836159ca565b95508019841693508086168417925050509392505050565b6000819050919050565b6000615a4e615a49615a44846148e1565b615a29565b6148e1565b9050919050565b6000819050919050565b615a6883615a33565b615a7c615a7482615a55565b8484546159d7565b825550505050565b600090565b615a91615a84565b615a9c818484615a5f565b505050565b5b81811015615ac057615ab5600082615a89565b600181019050615aa2565b5050565b601f821115615b0557615ad6816159a5565b615adf846159ba565b81016020851015615aee578190505b615b02615afa856159ba565b830182615aa1565b50505b505050565b600082821c905092915050565b6000615b2860001984600802615b0a565b1980831691505092915050565b6000615b418383615b17565b9150826002028217905092915050565b615b5a8261482f565b67ffffffffffffffff811115615b7357615b72614cc5565b5b615b7d82546150b8565b615b88828285615ac4565b600060209050601f831160018114615bbb5760008415615ba9578287015190505b615bb38582615b35565b865550615c1b565b601f198416615bc9866159a5565b60005b82811015615bf157848901518255600182019150602085019450602081019050615bcc565b86831015615c0e5784890151615c0a601f891682615b17565b8355505b6001600288020188555050505b505050505050565b600081519050919050565b600082825260208201905092915050565b6000615c4a82615c23565b615c548185615c2e565b9350615c6481856020860161484b565b615c6d81614875565b840191505092915050565b6000608082019050615c8d6000830187614976565b615c9a6020830186614976565b615ca76040830185614bfe565b8181036060830152615cb98184615c3f565b905095945050505050565b600081519050615cd3816147a0565b92915050565b600060208284031215615cef57615cee61476a565b5b6000615cfd84828501615cc4565b91505092915050565b6000604082019050615d1b6000830185614976565b615d286020830184614bfe565b9392505050565b7f4e487b7100000000000000000000000000000000000000000000000000000000600052601260045260246000fdfea2646970667358221220e476315377b37a14ffabac3fb26f20adbd60bb7de246427855ceefa42dcdc65164736f6c63430008140033",
  "linkReferences": {},
  "deployedLinkReferences": {}
}