{
  "_format": "hh-sol-artifact-1",
  "contractName": "NFTMarketplace",
  "sourceName": "contracts/NFTMarketplace.sol",
  "abi": [
    {
      "inputs": [],
      "stateMutability": "nonpayable",
      "type": "constructor"
    },
    {
      "inputs": [
        {
          "internalType": "address",
          "name": "sender",
          "type": "address"
        },
        {
          "internalType": "uint256",
          "name": "tokenId",
          "type": "uint256"
        },
        {
          "internalType": "address",
          "name": "owner",
          "type": "address"
        }
      ],
      "name": "ERC721IncorrectOwner",
      "type": "error"
    },
    {
      "inputs": [
        {
          "internalType": "address",
          "name": "operator",
          "type": "address"
        },
        {
          "internalType": "uint256",
          "name": "tokenId",
          "type": "uint256"
        }
      ],
      "name": "ERC721InsufficientApproval",
      "type": "error"
    },
    {
      "inputs": [
        {
          "internalType": "address",
          "name": "approver",
          "type": "address"
        }
      ],
      "name": "ERC721InvalidApprover",
      "type": "error"
    },
    {
      "inputs": [
        {
          "internalType": "address",
          "name": "operator",
          "type": "address"
        }
      ],
      "name": "ERC721InvalidOperator",
      "type": "error"
    },
    {
      "inputs": [
        {
          "internalType": "address",
          "name": "owner",
          "type": "address"
        }
      ],
      "name": "ERC721InvalidOwner",
      "type": "error"
    },
    {
      "inputs": [
        {
          "internalType": "address",
          "name": "receiver",
          "type": "address"
        }
      ],
      "name": "ERC721InvalidReceiver",
      "type": "error"
    },
    {
      "inputs": [
        {
          "internalType": "address",
          "name": "sender",
          "type": "address"
        }
      ],
      "name": "ERC721InvalidSender",
      "type": "error"
    },
    {
      "inputs": [
        {
          "internalType": "uint256",
          "name": "tokenId",
          "type": "uint256"
        }
      ],
      "name": "ERC721NonexistentToken",
      "type": "error"
    },
    {
      "anonymous": false,
      "inputs": [
        {
          "indexed": true,
          "internalType": "address",
          "name": "owner",
          "type": "address"
        },
        {
          "indexed": true,
          "internalType": "address",
          "name": "approved",
          "type": "address"
        },
        {
          "indexed": true,
          "internalType": "uint256",
          "name": "tokenId",
          "type": "uint256"
        }
      ],
      "name": "Approval",
      "type": "event"
    },
    {
      "anonymous": false,
      "inputs": [
        {
          "indexed": true,
          "internalType": "address",
          "name": "owner",
          "type": "address"
        },
        {
          "indexed": true,
          "internalType": "address",
          "name": "operator",
          "type": "address"
        },
        {
          "indexed": false,
          "internalType": "bool",
          "name": "approved",
          "type": "bool"
        }
      ],
      "name": "ApprovalForAll",
      "type": "event"
    },
    {
      "anonymous": false,
      "inputs": [
        {
          "indexed": false,
          "internalType": "uint256",
          "name": "_fromTokenId",
          "type": "uint256"
        },
        {
          "indexed": false,
          "internalType": "uint256",
          "name": "_toTokenId",
          "type": "uint256"
        }
      ],
      "name": "BatchMetadataUpdate",
      "type": "event"
    },
    {
      "anonymous": false,
      "inputs": [
        {
          "indexed": true,
          "internalType": "uint256",
          "name": "tokenId",
          "type": "uint256"
        },
        {
          "indexed": false,
          "internalType": "address",
          "name": "seller",
          "type": "address"
        },
        {
          "indexed": false,
          "internalType": "address",
          "name": "owner",
          "type": "address"
        },
        {
          "indexed": false,
          "internalType": "uint256",
          "name": "price",
          "type": "uint256"
        },
        {
          "indexed": false,
          "internalType": "bool",
          "name": "sold",
          "type": "bool"
        },
        {
          "indexed": false,
          "internalType": "bool",
          "name": "directSold",
          "type": "bool"
        },
        {
          "indexed": false,
          "internalType": "uint256",
          "name": "startTime",
          "type": "uint256"
        },
        {
          "indexed": false,
          "internalType": "uint256",
          "name": "endTime",
          "type": "uint256"
        },
        {
          "indexed": false,
          "internalType": "address",
          "name": "highestBidder",
          "type": "address"
        },
        {
          "indexed": false,
          "internalType": "uint256",
          "name": "highestBid",
          "type": "uint256"
        },
        {
          "indexed": false,
          "internalType": "bool",
          "name": "auctionCompleted",
          "type": "bool"
        }
      ],
      "name": "MarketItemCreated",
      "type": "event"
    },
    {
      "anonymous": false,
      "inputs": [
        {
          "indexed": false,
          "internalType": "uint256",
          "name": "_tokenId",
          "type": "uint256"
        }
      ],
      "name": "MetadataUpdate",
      "type": "event"
    },
    {
      "anonymous": false,
      "inputs": [
        {
          "indexed": true,
          "internalType": "address",
          "name": "from",
          "type": "address"
        },
        {
          "indexed": true,
          "internalType": "address",
          "name": "to",
          "type": "address"
        },
        {
          "indexed": true,
          "internalType": "uint256",
          "name": "tokenId",
          "type": "uint256"
        }
      ],
      "name": "Transfer",
      "type": "event"
    },
    {
      "inputs": [
        {
          "internalType": "address",
          "name": "to",
          "type": "address"
        },
        {
          "internalType": "uint256",
          "name": "tokenId",
          "type": "uint256"
        }
      ],
      "name": "approve",
      "outputs": [],
      "stateMutability": "nonpayable",
      "type": "function"
    },
    {
      "inputs": [
        {
          "internalType": "address",
          "name": "owner",
          "type": "address"
        }
      ],
      "name": "balanceOf",
      "outputs": [
        {
          "internalType": "uint256",
          "name": "",
          "type": "uint256"
        }
      ],
      "stateMutability": "view",
      "type": "function"
    },
    {
      "inputs": [
        {
          "internalType": "uint256",
          "name": "tokenId",
          "type": "uint256"
        }
      ],
      "name": "cancelAuction",
      "outputs": [],
      "stateMutability": "payable",
      "type": "function"
    },
    {
      "inputs": [
        {
          "internalType": "uint256",
          "name": "tokenId",
          "type": "uint256"
        }
      ],
      "name": "cancelSelling",
      "outputs": [],
      "stateMutability": "payable",
      "type": "function"
    },
    {
      "inputs": [
        {
          "internalType": "uint256",
          "name": "tokenId",
          "type": "uint256"
        }
      ],
      "name": "createMarketSale",
      "outputs": [],
      "stateMutability": "payable",
      "type": "function"
    },
    {
      "inputs": [
        {
          "internalType": "string",
          "name": "tokenURI",
          "type": "string"
        },
        {
          "internalType": "uint256",
          "name": "price",
          "type": "uint256"
        }
      ],
      "name": "createToken",
      "outputs": [
        {
          "internalType": "uint256",
          "name": "",
          "type": "uint256"
        }
      ],
      "stateMutability": "payable",
      "type": "function"
    },
    {
      "inputs": [],
      "name": "fetchAuctionItems",
      "outputs": [
        {
          "components": [
            {
              "internalType": "uint256",
              "name": "tokenId",
              "type": "uint256"
            },
            {
              "internalType": "address payable",
              "name": "seller",
              "type": "address"
            },
            {
              "internalType": "address payable",
              "name": "owner",
              "type": "address"
            },
            {
              "internalType": "uint256",
              "name": "price",
              "type": "uint256"
            },
            {
              "internalType": "bool",
              "name": "sold",
              "type": "bool"
            },
            {
              "internalType": "bool",
              "name": "directSold",
              "type": "bool"
            },
            {
              "internalType": "uint256",
              "name": "startTime",
              "type": "uint256"
            },
            {
              "internalType": "uint256",
              "name": "endTime",
              "type": "uint256"
            },
            {
              "internalType": "address payable",
              "name": "highestBidder",
              "type": "address"
            },
            {
              "internalType": "uint256",
              "name": "highestBid",
              "type": "uint256"
            },
            {
              "internalType": "bool",
              "name": "auctionCompleted",
              "type": "bool"
            }
          ],
          "internalType": "struct NFTMarketplace.MarketItem[]",
          "name": "",
          "type": "tuple[]"
        }
      ],
      "stateMutability": "view",
      "type": "function"
    },
    {
      "inputs": [],
      "name": "fetchItemsListed",
      "outputs": [
        {
          "components": [
            {
              "internalType": "uint256",
              "name": "tokenId",
              "type": "uint256"
            },
            {
              "internalType": "address payable",
              "name": "seller",
              "type": "address"
            },
            {
              "internalType": "address payable",
              "name": "owner",
              "type": "address"
            },
            {
              "internalType": "uint256",
              "name": "price",
              "type": "uint256"
            },
            {
              "internalType": "bool",
              "name": "sold",
              "type": "bool"
            },
            {
              "internalType": "bool",
              "name": "directSold",
              "type": "bool"
            },
            {
              "internalType": "uint256",
              "name": "startTime",
              "type": "uint256"
            },
            {
              "internalType": "uint256",
              "name": "endTime",
              "type": "uint256"
            },
            {
              "internalType": "address payable",
              "name": "highestBidder",
              "type": "address"
            },
            {
              "internalType": "uint256",
              "name": "highestBid",
              "type": "uint256"
            },
            {
              "internalType": "bool",
              "name": "auctionCompleted",
              "type": "bool"
            }
          ],
          "internalType": "struct NFTMarketplace.MarketItem[]",
          "name": "",
          "type": "tuple[]"
        }
      ],
      "stateMutability": "view",
      "type": "function"
    },
    {
      "inputs": [],
      "name": "fetchMarketItems",
      "outputs": [
        {
          "components": [
            {
              "internalType": "uint256",
              "name": "tokenId",
              "type": "uint256"
            },
            {
              "internalType": "address payable",
              "name": "seller",
              "type": "address"
            },
            {
              "internalType": "address payable",
              "name": "owner",
              "type": "address"
            },
            {
              "internalType": "uint256",
              "name": "price",
              "type": "uint256"
            },
            {
              "internalType": "bool",
              "name": "sold",
              "type": "bool"
            },
            {
              "internalType": "bool",
              "name": "directSold",
              "type": "bool"
            },
            {
              "internalType": "uint256",
              "name": "startTime",
              "type": "uint256"
            },
            {
              "internalType": "uint256",
              "name": "endTime",
              "type": "uint256"
            },
            {
              "internalType": "address payable",
              "name": "highestBidder",
              "type": "address"
            },
            {
              "internalType": "uint256",
              "name": "highestBid",
              "type": "uint256"
            },
            {
              "internalType": "bool",
              "name": "auctionCompleted",
              "type": "bool"
            }
          ],
          "internalType": "struct NFTMarketplace.MarketItem[]",
          "name": "",
          "type": "tuple[]"
        }
      ],
      "stateMutability": "view",
      "type": "function"
    },
    {
      "inputs": [],
      "name": "fetchMyNFTs",
      "outputs": [
        {
          "components": [
            {
              "internalType": "uint256",
              "name": "tokenId",
              "type": "uint256"
            },
            {
              "internalType": "address payable",
              "name": "seller",
              "type": "address"
            },
            {
              "internalType": "address payable",
              "name": "owner",
              "type": "address"
            },
            {
              "internalType": "uint256",
              "name": "price",
              "type": "uint256"
            },
            {
              "internalType": "bool",
              "name": "sold",
              "type": "bool"
            },
            {
              "internalType": "bool",
              "name": "directSold",
              "type": "bool"
            },
            {
              "internalType": "uint256",
              "name": "startTime",
              "type": "uint256"
            },
            {
              "internalType": "uint256",
              "name": "endTime",
              "type": "uint256"
            },
            {
              "internalType": "address payable",
              "name": "highestBidder",
              "type": "address"
            },
            {
              "internalType": "uint256",
              "name": "highestBid",
              "type": "uint256"
            },
            {
              "internalType": "bool",
              "name": "auctionCompleted",
              "type": "bool"
            }
          ],
          "internalType": "struct NFTMarketplace.MarketItem[]",
          "name": "",
          "type": "tuple[]"
        }
      ],
      "stateMutability": "view",
      "type": "function"
    },
    {
      "inputs": [
        {
          "internalType": "uint256",
          "name": "tokenId",
          "type": "uint256"
        }
      ],
      "name": "finishAuction",
      "outputs": [],
      "stateMutability": "payable",
      "type": "function"
    },
    {
      "inputs": [
        {
          "internalType": "uint256",
          "name": "tokenId",
          "type": "uint256"
        }
      ],
      "name": "getApproved",
      "outputs": [
        {
          "internalType": "address",
          "name": "",
          "type": "address"
        }
      ],
      "stateMutability": "view",
      "type": "function"
    },
    {
      "inputs": [],
      "name": "getListingPrice",
      "outputs": [
        {
          "internalType": "uint256",
          "name": "",
          "type": "uint256"
        }
      ],
      "stateMutability": "view",
      "type": "function"
    },
    {
      "inputs": [
        {
          "internalType": "address",
          "name": "owner",
          "type": "address"
        },
        {
          "internalType": "address",
          "name": "operator",
          "type": "address"
        }
      ],
      "name": "isApprovedForAll",
      "outputs": [
        {
          "internalType": "bool",
          "name": "",
          "type": "bool"
        }
      ],
      "stateMutability": "view",
      "type": "function"
    },
    {
      "inputs": [],
      "name": "name",
      "outputs": [
        {
          "internalType": "string",
          "name": "",
          "type": "string"
        }
      ],
      "stateMutability": "view",
      "type": "function"
    },
    {
      "inputs": [
        {
          "internalType": "uint256",
          "name": "tokenId",
          "type": "uint256"
        }
      ],
      "name": "ownerOf",
      "outputs": [
        {
          "internalType": "address",
          "name": "",
          "type": "address"
        }
      ],
      "stateMutability": "view",
      "type": "function"
    },
    {
      "inputs": [
        {
          "internalType": "uint256",
          "name": "tokenId",
          "type": "uint256"
        }
      ],
      "name": "placeBid",
      "outputs": [],
      "stateMutability": "payable",
      "type": "function"
    },
    {
      "inputs": [
        {
          "internalType": "uint256",
          "name": "tokenId",
          "type": "uint256"
        },
        {
          "internalType": "uint256",
          "name": "price",
          "type": "uint256"
        }
      ],
      "name": "resellToken",
      "outputs": [],
      "stateMutability": "payable",
      "type": "function"
    },
    {
      "inputs": [
        {
          "internalType": "address",
          "name": "from",
          "type": "address"
        },
        {
          "internalType": "address",
          "name": "to",
          "type": "address"
        },
        {
          "internalType": "uint256",
          "name": "tokenId",
          "type": "uint256"
        }
      ],
      "name": "safeTransferFrom",
      "outputs": [],
      "stateMutability": "nonpayable",
      "type": "function"
    },
    {
      "inputs": [
        {
          "internalType": "address",
          "name": "from",
          "type": "address"
        },
        {
          "internalType": "address",
          "name": "to",
          "type": "address"
        },
        {
          "internalType": "uint256",
          "name": "tokenId",
          "type": "uint256"
        },
        {
          "internalType": "bytes",
          "name": "data",
          "type": "bytes"
        }
      ],
      "name": "safeTransferFrom",
      "outputs": [],
      "stateMutability": "nonpayable",
      "type": "function"
    },
    {
      "inputs": [
        {
          "internalType": "address",
          "name": "operator",
          "type": "address"
        },
        {
          "internalType": "bool",
          "name": "approved",
          "type": "bool"
        }
      ],
      "name": "setApprovalForAll",
      "outputs": [],
      "stateMutability": "nonpayable",
      "type": "function"
    },
    {
      "inputs": [
        {
          "internalType": "uint256",
          "name": "tokenId",
          "type": "uint256"
        },
        {
          "internalType": "uint256",
          "name": "price",
          "type": "uint256"
        },
        {
          "internalType": "uint256",
          "name": "durations",
          "type": "uint256"
        }
      ],
      "name": "startAuction",
      "outputs": [],
      "stateMutability": "payable",
      "type": "function"
    },
    {
      "inputs": [
        {
          "internalType": "bytes4",
          "name": "interfaceId",
          "type": "bytes4"
        }
      ],
      "name": "supportsInterface",
      "outputs": [
        {
          "internalType": "bool",
          "name": "",
          "type": "bool"
        }
      ],
      "stateMutability": "view",
      "type": "function"
    },
    {
      "inputs": [],
      "name": "symbol",
      "outputs": [
        {
          "internalType": "string",
          "name": "",
          "type": "string"
        }
      ],
      "stateMutability": "view",
      "type": "function"
    },
    {
      "inputs": [
        {
          "internalType": "uint256",
          "name": "tokenId",
          "type": "uint256"
        }
      ],
      "name": "tokenURI",
      "outputs": [
        {
          "internalType": "string",
          "name": "",
          "type": "string"
        }
      ],
      "stateMutability": "view",
      "type": "function"
    },
    {
      "inputs": [
        {
          "internalType": "address",
          "name": "from",
          "type": "address"
        },
        {
          "internalType": "address",
          "name": "to",
          "type": "address"
        },
        {
          "internalType": "uint256",
          "name": "tokenId",
          "type": "uint256"
        }
      ],
      "name": "transferFrom",
      "outputs": [],
      "stateMutability": "nonpayable",
      "type": "function"
    },
    {
      "inputs": [
        {
          "internalType": "uint256",
          "name": "_listingPrice",
          "type": "uint256"
        }
      ],
      "name": "updateListingPrice",
      "outputs": [],
      "stateMutability": "payable",
      "type": "function"
    }
  ],
  "bytecode": "0x60806040526658d15e17628000600a553480156200001c57600080fd5b506040518060400160405280601081526020017f4d657461766572736520546f6b656e73000000000000000000000000000000008152506040518060400160405280600481526020017f4d4554540000000000000000000000000000000000000000000000000000000081525081600090816200009a919062000388565b508060019081620000ac919062000388565b50505033600b60006101000a81548173ffffffffffffffffffffffffffffffffffffffff021916908373ffffffffffffffffffffffffffffffffffffffff1602179055506000600781905550600060098190555060006008819055506200046f565b600081519050919050565b7f4e487b7100000000000000000000000000000000000000000000000000000000600052604160045260246000fd5b7f4e487b7100000000000000000000000000000000000000000000000000000000600052602260045260246000fd5b600060028204905060018216806200019057607f821691505b602082108103620001a657620001a562000148565b5b50919050565b60008190508160005260206000209050919050565b60006020601f8301049050919050565b600082821b905092915050565b600060088302620002107fffffffffffffffffffffffffffffffffffffffffffffffffffffffffffffffff82620001d1565b6200021c8683620001d1565b95508019841693508086168417925050509392505050565b6000819050919050565b6000819050919050565b600062000269620002636200025d8462000234565b6200023e565b62000234565b9050919050565b6000819050919050565b620002858362000248565b6200029d620002948262000270565b848454620001de565b825550505050565b600090565b620002b4620002a5565b620002c18184846200027a565b505050565b5b81811015620002e957620002dd600082620002aa565b600181019050620002c7565b5050565b601f82111562000338576200030281620001ac565b6200030d84620001c1565b810160208510156200031d578190505b620003356200032c85620001c1565b830182620002c6565b50505b505050565b600082821c905092915050565b60006200035d600019846008026200033d565b1980831691505092915050565b60006200037883836200034a565b9150826002028217905092915050565b62000393826200010e565b67ffffffffffffffff811115620003af57620003ae62000119565b5b620003bb825462000177565b620003c8828285620002ed565b600060209050601f831160018114620004005760008415620003eb578287015190505b620003f785826200036a565b86555062000467565b601f1984166200041086620001ac565b60005b828110156200043a5784890151825560018201915060208501945060208101905062000413565b868310156200045a578489015162000456601f8916826200034a565b8355505b6001600288020188555050505b505050505050565b615bcd806200047f6000396000f3fe60806040526004361061019c5760003560e01c806370a08231116100ec578063ae677aa31161008a578063c87b56dd11610064578063c87b56dd14610567578063cf266ed0146105a4578063e219fc75146105c0578063e985e9c5146105dc5761019c565b8063ae677aa314610506578063b88d4fde14610522578063be9af5361461054b5761019c565b806395d89b41116100c657806395d89b411461047a57806396b5a755146104a55780639979ef45146104c1578063a22cb465146104dd5761019c565b806370a08231146103f157806372b3b6201461042e57806391e078bb1461045e5761019c565b8063202e37401161015957806342842e0e1161013357806342842e0e1461033557806345f8fa801461035e57806354d54e0a146103895780636352211e146103b45761019c565b8063202e3740146102c557806323b872dd146102f05780632f33df60146103195761019c565b806301ffc9a7146101a157806306fdde03146101de578063081812fc14610209578063095ea7b3146102465780630f08efe01461026f57806312e855851461029a575b600080fd5b3480156101ad57600080fd5b506101c860048036038101906101c391906145f2565b610619565b6040516101d5919061463a565b60405180910390f35b3480156101ea57600080fd5b506101f361067a565b60405161020091906146e5565b60405180910390f35b34801561021557600080fd5b50610230600480360381019061022b919061473d565b61070c565b60405161023d91906147ab565b60405180910390f35b34801561025257600080fd5b5061026d600480360381019061026891906147f2565b610728565b005b34801561027b57600080fd5b5061028461073e565b6040516102919190614a02565b60405180910390f35b3480156102a657600080fd5b506102af610aae565b6040516102bc9190614a33565b60405180910390f35b3480156102d157600080fd5b506102da610ab8565b6040516102e79190614a02565b60405180910390f35b3480156102fc57600080fd5b5061031760048036038101906103129190614a4e565b610e48565b005b610333600480360381019061032e919061473d565b610f4a565b005b34801561034157600080fd5b5061035c60048036038101906103579190614a4e565b6110bf565b005b34801561036a57600080fd5b506103736110df565b6040516103809190614a02565b60405180910390f35b34801561039557600080fd5b5061039e61146f565b6040516103ab9190614a02565b60405180910390f35b3480156103c057600080fd5b506103db60048036038101906103d6919061473d565b6117df565b6040516103e891906147ab565b60405180910390f35b3480156103fd57600080fd5b5061041860048036038101906104139190614aa1565b6117f1565b6040516104259190614a33565b60405180910390f35b61044860048036038101906104439190614c03565b6118ab565b6040516104559190614a33565b60405180910390f35b61047860048036038101906104739190614c5f565b6118f4565b005b34801561048657600080fd5b5061048f611d23565b60405161049c91906146e5565b60405180910390f35b6104bf60048036038101906104ba919061473d565b611db5565b005b6104db60048036038101906104d6919061473d565b612196565b005b3480156104e957600080fd5b5061050460048036038101906104ff9190614cde565b612641565b005b610520600480360381019061051b919061473d565b612657565b005b34801561052e57600080fd5b5061054960048036038101906105449190614dbf565b6126f1565b005b6105656004803603810190610560919061473d565b61270e565b005b34801561057357600080fd5b5061058e6004803603810190610589919061473d565b612954565b60405161059b91906146e5565b60405180910390f35b6105be60048036038101906105b9919061473d565b612a67565b005b6105da60048036038101906105d59190614e42565b612eb5565b005b3480156105e857600080fd5b5061060360048036038101906105fe9190614e82565b6130e7565b604051610610919061463a565b60405180910390f35b6000634906490660e01b7bffffffffffffffffffffffffffffffffffffffffffffffffffffffff1916827bffffffffffffffffffffffffffffffffffffffffffffffffffffffff1916148061067357506106728261317b565b5b9050919050565b60606000805461068990614ef1565b80601f01602080910402602001604051908101604052809291908181526020018280546106b590614ef1565b80156107025780601f106106d757610100808354040283529160200191610702565b820191906000526020600020905b8154815290600101906020018083116106e557829003601f168201915b5050505050905090565b60006107178261325d565b50610721826132e5565b9050919050565b61073a8282610735613322565b61332a565b5050565b606060006007549050600060085490506000808267ffffffffffffffff81111561076b5761076a614ad8565b5b6040519080825280602002602001820160405280156107a457816020015b6107916144e4565b8152602001906001900390816107895790505b50905060005b84811015610aa3573073ffffffffffffffffffffffffffffffffffffffff16600c60006001846107da9190614f51565b815260200190815260200160002060020160009054906101000a900473ffffffffffffffffffffffffffffffffffffffff1673ffffffffffffffffffffffffffffffffffffffff16148015610862575060011515600c600060018461083f9190614f51565b815260200190815260200160002060040160019054906101000a900460ff161515145b80156108a1575060001515600c600060018461087e9190614f51565b815260200190815260200160002060040160009054906101000a900460ff161515145b15610a905760006001826108b59190614f51565b90506000600c600083815260200190815260200160002090508060405180610160016040529081600082015481526020016001820160009054906101000a900473ffffffffffffffffffffffffffffffffffffffff1673ffffffffffffffffffffffffffffffffffffffff1673ffffffffffffffffffffffffffffffffffffffff1681526020016002820160009054906101000a900473ffffffffffffffffffffffffffffffffffffffff1673ffffffffffffffffffffffffffffffffffffffff1673ffffffffffffffffffffffffffffffffffffffff168152602001600382015481526020016004820160009054906101000a900460ff161515151581526020016004820160019054906101000a900460ff1615151515815260200160058201548152602001600682015481526020016007820160009054906101000a900473ffffffffffffffffffffffffffffffffffffffff1673ffffffffffffffffffffffffffffffffffffffff1673ffffffffffffffffffffffffffffffffffffffff168152602001600882015481526020016009820160009054906101000a900460ff161515151581525050848681518110610a7357610a72614f85565b5b6020026020010181905250600185610a8b9190614f51565b945050505b8080610a9b90614fb4565b9150506107aa565b508094505050505090565b6000600a54905090565b60606000600754905060008060005b83811015610b67573373ffffffffffffffffffffffffffffffffffffffff16600c6000600184610af79190614f51565b815260200190815260200160002060020160009054906101000a900473ffffffffffffffffffffffffffffffffffffffff1673ffffffffffffffffffffffffffffffffffffffff1603610b5457600183610b519190614f51565b92505b8080610b5f90614fb4565b915050610ac7565b5060008267ffffffffffffffff811115610b8457610b83614ad8565b5b604051908082528060200260200182016040528015610bbd57816020015b610baa6144e4565b815260200190600190039081610ba25790505b50905060005b84811015610e3d573373ffffffffffffffffffffffffffffffffffffffff16600c6000600184610bf39190614f51565b815260200190815260200160002060020160009054906101000a900473ffffffffffffffffffffffffffffffffffffffff1673ffffffffffffffffffffffffffffffffffffffff1603610e2a576000600182610c4f9190614f51565b90506000600c600083815260200190815260200160002090508060405180610160016040529081600082015481526020016001820160009054906101000a900473ffffffffffffffffffffffffffffffffffffffff1673ffffffffffffffffffffffffffffffffffffffff1673ffffffffffffffffffffffffffffffffffffffff1681526020016002820160009054906101000a900473ffffffffffffffffffffffffffffffffffffffff1673ffffffffffffffffffffffffffffffffffffffff1673ffffffffffffffffffffffffffffffffffffffff168152602001600382015481526020016004820160009054906101000a900460ff161515151581526020016004820160019054906101000a900460ff1615151515815260200160058201548152602001600682015481526020016007820160009054906101000a900473ffffffffffffffffffffffffffffffffffffffff1673ffffffffffffffffffffffffffffffffffffffff1673ffffffffffffffffffffffffffffffffffffffff168152602001600882015481526020016009820160009054906101000a900460ff161515151581525050848681518110610e0d57610e0c614f85565b5b6020026020010181905250600185610e259190614f51565b945050505b8080610e3590614fb4565b915050610bc3565b508094505050505090565b600073ffffffffffffffffffffffffffffffffffffffff168273ffffffffffffffffffffffffffffffffffffffff1603610eba5760006040517f64a0ae92000000000000000000000000000000000000000000000000000000008152600401610eb191906147ab565b60405180910390fd5b6000610ece8383610ec9613322565b61333c565b90508373ffffffffffffffffffffffffffffffffffffffff168173ffffffffffffffffffffffffffffffffffffffff1614610f44578382826040517f64283d7b000000000000000000000000000000000000000000000000000000008152600401610f3b93929190614ffc565b60405180910390fd5b50505050565b600c600082815260200190815260200160002060010160009054906101000a900473ffffffffffffffffffffffffffffffffffffffff1673ffffffffffffffffffffffffffffffffffffffff163373ffffffffffffffffffffffffffffffffffffffff1614610fee576040517f08c379a0000000000000000000000000000000000000000000000000000000008152600401610fe59061507f565b60405180910390fd5b600860008154809291906110019061509f565b9190505550611011303383613556565b33600c600083815260200190815260200160002060020160006101000a81548173ffffffffffffffffffffffffffffffffffffffff021916908373ffffffffffffffffffffffffffffffffffffffff1602179055506000600c600083815260200190815260200160002060010160006101000a81548173ffffffffffffffffffffffffffffffffffffffff021916908373ffffffffffffffffffffffffffffffffffffffff16021790555050565b6110da838383604051806020016040528060008152506126f1565b505050565b60606000600754905060008060005b8381101561118e573373ffffffffffffffffffffffffffffffffffffffff16600c600060018461111e9190614f51565b815260200190815260200160002060010160009054906101000a900473ffffffffffffffffffffffffffffffffffffffff1673ffffffffffffffffffffffffffffffffffffffff160361117b576001836111789190614f51565b92505b808061118690614fb4565b9150506110ee565b5060008267ffffffffffffffff8111156111ab576111aa614ad8565b5b6040519080825280602002602001820160405280156111e457816020015b6111d16144e4565b8152602001906001900390816111c95790505b50905060005b84811015611464573373ffffffffffffffffffffffffffffffffffffffff16600c600060018461121a9190614f51565b815260200190815260200160002060010160009054906101000a900473ffffffffffffffffffffffffffffffffffffffff1673ffffffffffffffffffffffffffffffffffffffff16036114515760006001826112769190614f51565b90506000600c600083815260200190815260200160002090508060405180610160016040529081600082015481526020016001820160009054906101000a900473ffffffffffffffffffffffffffffffffffffffff1673ffffffffffffffffffffffffffffffffffffffff1673ffffffffffffffffffffffffffffffffffffffff1681526020016002820160009054906101000a900473ffffffffffffffffffffffffffffffffffffffff1673ffffffffffffffffffffffffffffffffffffffff1673ffffffffffffffffffffffffffffffffffffffff168152602001600382015481526020016004820160009054906101000a900460ff161515151581526020016004820160019054906101000a900460ff1615151515815260200160058201548152602001600682015481526020016007820160009054906101000a900473ffffffffffffffffffffffffffffffffffffffff1673ffffffffffffffffffffffffffffffffffffffff1673ffffffffffffffffffffffffffffffffffffffff168152602001600882015481526020016009820160009054906101000a900460ff16151515158152505084868151811061143457611433614f85565b5b602002602001018190525060018561144c9190614f51565b945050505b808061145c90614fb4565b9150506111ea565b508094505050505090565b606060006007549050600060095490506000808267ffffffffffffffff81111561149c5761149b614ad8565b5b6040519080825280602002602001820160405280156114d557816020015b6114c26144e4565b8152602001906001900390816114ba5790505b50905060005b848110156117d4573073ffffffffffffffffffffffffffffffffffffffff16600c600060018461150b9190614f51565b815260200190815260200160002060020160009054906101000a900473ffffffffffffffffffffffffffffffffffffffff1673ffffffffffffffffffffffffffffffffffffffff16148015611593575060001515600c60006001846115709190614f51565b815260200190815260200160002060040160019054906101000a900460ff161515145b80156115d2575060001515600c60006001846115af9190614f51565b815260200190815260200160002060040160009054906101000a900460ff161515145b156117c15760006001826115e69190614f51565b90506000600c600083815260200190815260200160002090508060405180610160016040529081600082015481526020016001820160009054906101000a900473ffffffffffffffffffffffffffffffffffffffff1673ffffffffffffffffffffffffffffffffffffffff1673ffffffffffffffffffffffffffffffffffffffff1681526020016002820160009054906101000a900473ffffffffffffffffffffffffffffffffffffffff1673ffffffffffffffffffffffffffffffffffffffff1673ffffffffffffffffffffffffffffffffffffffff168152602001600382015481526020016004820160009054906101000a900460ff161515151581526020016004820160019054906101000a900460ff1615151515815260200160058201548152602001600682015481526020016007820160009054906101000a900473ffffffffffffffffffffffffffffffffffffffff1673ffffffffffffffffffffffffffffffffffffffff1673ffffffffffffffffffffffffffffffffffffffff168152602001600882015481526020016009820160009054906101000a900460ff1615151515815250508486815181106117a4576117a3614f85565b5b60200260200101819052506001856117bc9190614f51565b945050505b80806117cc90614fb4565b9150506114db565b508094505050505090565b60006117ea8261325d565b9050919050565b60008073ffffffffffffffffffffffffffffffffffffffff168273ffffffffffffffffffffffffffffffffffffffff16036118645760006040517f89c62b6400000000000000000000000000000000000000000000000000000000815260040161185b91906147ab565b60405180910390fd5b600360008373ffffffffffffffffffffffffffffffffffffffff1673ffffffffffffffffffffffffffffffffffffffff168152602001908152602001600020549050919050565b6000600760008154809291906118c090614fb4565b9190505550600060075490506118d633826136c3565b6118e081856137bc565b6118ea8184613818565b8091505092915050565b6000600c600085815260200190815260200160002090503373ffffffffffffffffffffffffffffffffffffffff16600c600086815260200190815260200160002060020160009054906101000a900473ffffffffffffffffffffffffffffffffffffffff1673ffffffffffffffffffffffffffffffffffffffff16146119af576040517f08c379a00000000000000000000000000000000000000000000000000000000081526004016119a69061513a565b60405180910390fd5b60008160040160016101000a81548160ff02191690831515021790555060008160090160006101000a81548160ff021916908315150217905550338160070160006101000a81548173ffffffffffffffffffffffffffffffffffffffff021916908373ffffffffffffffffffffffffffffffffffffffff160217905550828160080181905550338160010160006101000a81548173ffffffffffffffffffffffffffffffffffffffff021916908373ffffffffffffffffffffffffffffffffffffffff160217905550308160020160006101000a81548173ffffffffffffffffffffffffffffffffffffffff021916908373ffffffffffffffffffffffffffffffffffffffff1602179055504281600501819055508142611ad09190614f51565b816006018190555060008160040160006101000a81548160ff02191690831515021790555060096000815480929190611b0890614fb4565b919050555080600c6000868152602001908152602001600020600082015481600001556001820160009054906101000a900473ffffffffffffffffffffffffffffffffffffffff168160010160006101000a81548173ffffffffffffffffffffffffffffffffffffffff021916908373ffffffffffffffffffffffffffffffffffffffff1602179055506002820160009054906101000a900473ffffffffffffffffffffffffffffffffffffffff168160020160006101000a81548173ffffffffffffffffffffffffffffffffffffffff021916908373ffffffffffffffffffffffffffffffffffffffff160217905550600382015481600301556004820160009054906101000a900460ff168160040160006101000a81548160ff0219169083151502179055506004820160019054906101000a900460ff168160040160016101000a81548160ff02191690831515021790555060058201548160050155600682015481600601556007820160009054906101000a900473ffffffffffffffffffffffffffffffffffffffff168160070160006101000a81548173ffffffffffffffffffffffffffffffffffffffff021916908373ffffffffffffffffffffffffffffffffffffffff160217905550600882015481600801556009820160009054906101000a900460ff168160090160006101000a81548160ff021916908315150217905550905050611d1d333086613556565b50505050565b606060018054611d3290614ef1565b80601f0160208091040260200160405190810160405280929190818152602001828054611d5e90614ef1565b8015611dab5780601f10611d8057610100808354040283529160200191611dab565b820191906000526020600020905b815481529060010190602001808311611d8e57829003601f168201915b5050505050905090565b6000600c600083815260200190815260200160002090508060020160009054906101000a900473ffffffffffffffffffffffffffffffffffffffff1673ffffffffffffffffffffffffffffffffffffffff163373ffffffffffffffffffffffffffffffffffffffff1614611e5e576040517f08c379a0000000000000000000000000000000000000000000000000000000008152600401611e55906151a6565b60405180910390fd5b60096000815480929190611e719061509f565b9190505550600073ffffffffffffffffffffffffffffffffffffffff168160070160009054906101000a900473ffffffffffffffffffffffffffffffffffffffff1673ffffffffffffffffffffffffffffffffffffffff1614611f3e578060070160009054906101000a900473ffffffffffffffffffffffffffffffffffffffff1673ffffffffffffffffffffffffffffffffffffffff166108fc82600801549081150290604051600060405180830381858888f19350505050158015611f3c573d6000803e3d6000fd5b505b60008160010160006101000a81548173ffffffffffffffffffffffffffffffffffffffff021916908373ffffffffffffffffffffffffffffffffffffffff160217905550611f8d303384613556565b80600c6000848152602001908152602001600020600082015481600001556001820160009054906101000a900473ffffffffffffffffffffffffffffffffffffffff168160010160006101000a81548173ffffffffffffffffffffffffffffffffffffffff021916908373ffffffffffffffffffffffffffffffffffffffff1602179055506002820160009054906101000a900473ffffffffffffffffffffffffffffffffffffffff168160020160006101000a81548173ffffffffffffffffffffffffffffffffffffffff021916908373ffffffffffffffffffffffffffffffffffffffff160217905550600382015481600301556004820160009054906101000a900460ff168160040160006101000a81548160ff0219169083151502179055506004820160019054906101000a900460ff168160040160016101000a81548160ff02191690831515021790555060058201548160050155600682015481600601556007820160009054906101000a900473ffffffffffffffffffffffffffffffffffffffff168160070160006101000a81548173ffffffffffffffffffffffffffffffffffffffff021916908373ffffffffffffffffffffffffffffffffffffffff160217905550600882015481600801556009820160009054906101000a900460ff168160090160006101000a81548160ff0219169083151502179055509050505050565b6000600c60008381526020019081526020016000209050806008015434116121f3576040517f08c379a00000000000000000000000000000000000000000000000000000000081526004016121ea90615238565b60405180910390fd5b806005015442101561223a576040517f08c379a0000000000000000000000000000000000000000000000000000000008152600401612231906152a4565b60405180910390fd5b8060090160009054906101000a900460ff161561228c576040517f08c379a000000000000000000000000000000000000000000000000000000000815260040161228390615310565b60405180910390fd5b3373ffffffffffffffffffffffffffffffffffffffff168160070160009054906101000a900473ffffffffffffffffffffffffffffffffffffffff1673ffffffffffffffffffffffffffffffffffffffff160361231e576040517f08c379a00000000000000000000000000000000000000000000000000000000081526004016123159061537c565b60405180910390fd5b600073ffffffffffffffffffffffffffffffffffffffff168160070160009054906101000a900473ffffffffffffffffffffffffffffffffffffffff1673ffffffffffffffffffffffffffffffffffffffff16146123ec5760008160070160009054906101000a900473ffffffffffffffffffffffffffffffffffffffff1690508073ffffffffffffffffffffffffffffffffffffffff166108fc83600801549081150290604051600060405180830381858888f193505050501580156123e9573d6000803e3d6000fd5b50505b348160080181905550338160070160006101000a81548173ffffffffffffffffffffffffffffffffffffffff021916908373ffffffffffffffffffffffffffffffffffffffff16021790555080600c6000848152602001908152602001600020600082015481600001556001820160009054906101000a900473ffffffffffffffffffffffffffffffffffffffff168160010160006101000a81548173ffffffffffffffffffffffffffffffffffffffff021916908373ffffffffffffffffffffffffffffffffffffffff1602179055506002820160009054906101000a900473ffffffffffffffffffffffffffffffffffffffff168160020160006101000a81548173ffffffffffffffffffffffffffffffffffffffff021916908373ffffffffffffffffffffffffffffffffffffffff160217905550600382015481600301556004820160009054906101000a900460ff168160040160006101000a81548160ff0219169083151502179055506004820160019054906101000a900460ff168160040160016101000a81548160ff02191690831515021790555060058201548160050155600682015481600601556007820160009054906101000a900473ffffffffffffffffffffffffffffffffffffffff168160070160006101000a81548173ffffffffffffffffffffffffffffffffffffffff021916908373ffffffffffffffffffffffffffffffffffffffff160217905550600882015481600801556009820160009054906101000a900460ff168160090160006101000a81548160ff0219169083151502179055509050505050565b61265361264c613322565b8383613b2c565b5050565b3373ffffffffffffffffffffffffffffffffffffffff16600b60009054906101000a900473ffffffffffffffffffffffffffffffffffffffff1673ffffffffffffffffffffffffffffffffffffffff16146126e7576040517f08c379a00000000000000000000000000000000000000000000000000000000081526004016126de9061540e565b60405180910390fd5b80600a8190555050565b6126fc848484610e48565b61270884848484613c9b565b50505050565b6000600c600083815260200190815260200160002060030154905080341461276b576040517f08c379a0000000000000000000000000000000000000000000000000000000008152600401612762906154a0565b60405180910390fd5b33600c600084815260200190815260200160002060020160006101000a81548173ffffffffffffffffffffffffffffffffffffffff021916908373ffffffffffffffffffffffffffffffffffffffff1602179055506001600c600084815260200190815260200160002060040160006101000a81548160ff021916908315150217905550600860008154809291906128029061509f565b9190505550612812303384613556565b600b60009054906101000a900473ffffffffffffffffffffffffffffffffffffffff1673ffffffffffffffffffffffffffffffffffffffff166108fc600a549081150290604051600060405180830381858888f1935050505015801561287c573d6000803e3d6000fd5b50600c600083815260200190815260200160002060010160009054906101000a900473ffffffffffffffffffffffffffffffffffffffff1673ffffffffffffffffffffffffffffffffffffffff166108fc349081150290604051600060405180830381858888f193505050501580156128f9573d6000803e3d6000fd5b506000600c600084815260200190815260200160002060010160006101000a81548173ffffffffffffffffffffffffffffffffffffffff021916908373ffffffffffffffffffffffffffffffffffffffff1602179055505050565b606061295f8261325d565b50600060066000848152602001908152602001600020805461298090614ef1565b80601f01602080910402602001604051908101604052809291908181526020018280546129ac90614ef1565b80156129f95780601f106129ce576101008083540402835291602001916129f9565b820191906000526020600020905b8154815290600101906020018083116129dc57829003601f168201915b505050505090506000612a0a613e52565b90506000815103612a1f578192505050612a62565b600082511115612a54578082604051602001612a3c9291906154fc565b60405160208183030381529060405292505050612a62565b612a5d84613e69565b925050505b919050565b6000600c600083815260200190815260200160002090508060010160009054906101000a900473ffffffffffffffffffffffffffffffffffffffff1673ffffffffffffffffffffffffffffffffffffffff163373ffffffffffffffffffffffffffffffffffffffff1614612b10576040517f08c379a0000000000000000000000000000000000000000000000000000000008152600401612b0790615592565b60405180910390fd5b600073ffffffffffffffffffffffffffffffffffffffff168160070160009054906101000a900473ffffffffffffffffffffffffffffffffffffffff1673ffffffffffffffffffffffffffffffffffffffff1603612ba3576040517f08c379a0000000000000000000000000000000000000000000000000000000008152600401612b9a90615624565b60405180910390fd5b612be430600c600085815260200190815260200160002060070160009054906101000a900473ffffffffffffffffffffffffffffffffffffffff1684613556565b60018160090160006101000a81548160ff0219169083151502179055508060070160009054906101000a900473ffffffffffffffffffffffffffffffffffffffff168160020160006101000a81548173ffffffffffffffffffffffffffffffffffffffff021916908373ffffffffffffffffffffffffffffffffffffffff16021790555060008160010160006101000a81548173ffffffffffffffffffffffffffffffffffffffff021916908373ffffffffffffffffffffffffffffffffffffffff16021790555080600c6000848152602001908152602001600020600082015481600001556001820160009054906101000a900473ffffffffffffffffffffffffffffffffffffffff168160010160006101000a81548173ffffffffffffffffffffffffffffffffffffffff021916908373ffffffffffffffffffffffffffffffffffffffff1602179055506002820160009054906101000a900473ffffffffffffffffffffffffffffffffffffffff168160020160006101000a81548173ffffffffffffffffffffffffffffffffffffffff021916908373ffffffffffffffffffffffffffffffffffffffff160217905550600382015481600301556004820160009054906101000a900460ff168160040160006101000a81548160ff0219169083151502179055506004820160019054906101000a900460ff168160040160016101000a81548160ff02191690831515021790555060058201548160050155600682015481600601556007820160009054906101000a900473ffffffffffffffffffffffffffffffffffffffff168160070160006101000a81548173ffffffffffffffffffffffffffffffffffffffff021916908373ffffffffffffffffffffffffffffffffffffffff160217905550600882015481600801556009820160009054906101000a900460ff168160090160006101000a81548160ff0219169083151502179055509050505050565b3373ffffffffffffffffffffffffffffffffffffffff16600c600084815260200190815260200160002060020160009054906101000a900473ffffffffffffffffffffffffffffffffffffffff1673ffffffffffffffffffffffffffffffffffffffff1614612f59576040517f08c379a0000000000000000000000000000000000000000000000000000000008152600401612f509061513a565b60405180910390fd5b600a543414612f9d576040517f08c379a0000000000000000000000000000000000000000000000000000000008152600401612f94906156b6565b60405180910390fd5b6000600c600084815260200190815260200160002060040160006101000a81548160ff02191690831515021790555080600c60008481526020019081526020016000206003018190555033600c600084815260200190815260200160002060010160006101000a81548173ffffffffffffffffffffffffffffffffffffffff021916908373ffffffffffffffffffffffffffffffffffffffff16021790555030600c600084815260200190815260200160002060020160006101000a81548173ffffffffffffffffffffffffffffffffffffffff021916908373ffffffffffffffffffffffffffffffffffffffff1602179055506001600c600084815260200190815260200160002060040160016101000a81548160ff021916908315150217905550600860008154809291906130d390614fb4565b91905055506130e3333084613556565b5050565b6000600560008473ffffffffffffffffffffffffffffffffffffffff1673ffffffffffffffffffffffffffffffffffffffff16815260200190815260200160002060008373ffffffffffffffffffffffffffffffffffffffff1673ffffffffffffffffffffffffffffffffffffffff16815260200190815260200160002060009054906101000a900460ff16905092915050565b60007f80ac58cd000000000000000000000000000000000000000000000000000000007bffffffffffffffffffffffffffffffffffffffffffffffffffffffff1916827bffffffffffffffffffffffffffffffffffffffffffffffffffffffff1916148061324657507f5b5e139f000000000000000000000000000000000000000000000000000000007bffffffffffffffffffffffffffffffffffffffffffffffffffffffff1916827bffffffffffffffffffffffffffffffffffffffffffffffffffffffff1916145b80613256575061325582613ed2565b5b9050919050565b60008061326983613f3c565b9050600073ffffffffffffffffffffffffffffffffffffffff168173ffffffffffffffffffffffffffffffffffffffff16036132dc57826040517f7e2732890000000000000000000000000000000000000000000000000000000081526004016132d39190614a33565b60405180910390fd5b80915050919050565b60006004600083815260200190815260200160002060009054906101000a900473ffffffffffffffffffffffffffffffffffffffff169050919050565b600033905090565b6133378383836001613f79565b505050565b60008061334884613f3c565b9050600073ffffffffffffffffffffffffffffffffffffffff168373ffffffffffffffffffffffffffffffffffffffff161461338a5761338981848661413e565b5b600073ffffffffffffffffffffffffffffffffffffffff168173ffffffffffffffffffffffffffffffffffffffff161461341b576133cc600085600080613f79565b6001600360008373ffffffffffffffffffffffffffffffffffffffff1673ffffffffffffffffffffffffffffffffffffffff168152602001908152602001600020600082825403925050819055505b600073ffffffffffffffffffffffffffffffffffffffff168573ffffffffffffffffffffffffffffffffffffffff161461349e576001600360008773ffffffffffffffffffffffffffffffffffffffff1673ffffffffffffffffffffffffffffffffffffffff168152602001908152602001600020600082825401925050819055505b846002600086815260200190815260200160002060006101000a81548173ffffffffffffffffffffffffffffffffffffffff021916908373ffffffffffffffffffffffffffffffffffffffff160217905550838573ffffffffffffffffffffffffffffffffffffffff168273ffffffffffffffffffffffffffffffffffffffff167fddf252ad1be2c89b69c2b068fc378daa952ba7f163c4a11628f55a4df523b3ef60405160405180910390a4809150509392505050565b600073ffffffffffffffffffffffffffffffffffffffff168273ffffffffffffffffffffffffffffffffffffffff16036135c85760006040517f64a0ae920000000000000000000000000000000000000000000000000000000081526004016135bf91906147ab565b60405180910390fd5b60006135d68383600061333c565b9050600073ffffffffffffffffffffffffffffffffffffffff168173ffffffffffffffffffffffffffffffffffffffff160361364957816040517f7e2732890000000000000000000000000000000000000000000000000000000081526004016136409190614a33565b60405180910390fd5b8373ffffffffffffffffffffffffffffffffffffffff168173ffffffffffffffffffffffffffffffffffffffff16146136bd578382826040517f64283d7b0000000000000000000000000000000000000000000000000000000081526004016136b493929190614ffc565b60405180910390fd5b50505050565b600073ffffffffffffffffffffffffffffffffffffffff168273ffffffffffffffffffffffffffffffffffffffff16036137355760006040517f64a0ae9200000000000000000000000000000000000000000000000000000000815260040161372c91906147ab565b60405180910390fd5b60006137438383600061333c565b9050600073ffffffffffffffffffffffffffffffffffffffff168173ffffffffffffffffffffffffffffffffffffffff16146137b75760006040517f73c6ac6e0000000000000000000000000000000000000000000000000000000081526004016137ae91906147ab565b60405180910390fd5b505050565b806006600084815260200190815260200160002090816137dc9190615882565b507ff8e1a15aba9398e019f0b49df1a4fde98ee17ae345cb5f6b5e2c27f5033e8ce78260405161380c9190614a33565b60405180910390a15050565b6000811161385b576040517f08c379a0000000000000000000000000000000000000000000000000000000008152600401613852906159a0565b60405180910390fd5b600a54341461389f576040517f08c379a0000000000000000000000000000000000000000000000000000000008152600401613896906156b6565b60405180910390fd5b6040518061016001604052808381526020013373ffffffffffffffffffffffffffffffffffffffff1681526020013073ffffffffffffffffffffffffffffffffffffffff168152602001828152602001600015158152602001600115158152602001428152602001428152602001600073ffffffffffffffffffffffffffffffffffffffff16815260200182815260200160001515815250600c60008481526020019081526020016000206000820151816000015560208201518160010160006101000a81548173ffffffffffffffffffffffffffffffffffffffff021916908373ffffffffffffffffffffffffffffffffffffffff16021790555060408201518160020160006101000a81548173ffffffffffffffffffffffffffffffffffffffff021916908373ffffffffffffffffffffffffffffffffffffffff1602179055506060820151816003015560808201518160040160006101000a81548160ff02191690831515021790555060a08201518160040160016101000a81548160ff02191690831515021790555060c0820151816005015560e082015181600601556101008201518160070160006101000a81548173ffffffffffffffffffffffffffffffffffffffff021916908373ffffffffffffffffffffffffffffffffffffffff16021790555061012082015181600801556101408201518160090160006101000a81548160ff02191690831515021790555090505060086000815480929190613aca90614fb4565b9190505550613ada333084613556565b817ff28de24d294b42637634a7516b7c0a2384ab5c6f40d27c2c835bb0602083381c33308460006001424260008a6000604051613b209a999897969594939291906159c0565b60405180910390a25050565b600073ffffffffffffffffffffffffffffffffffffffff168273ffffffffffffffffffffffffffffffffffffffff1603613b9d57816040517f5b08ba18000000000000000000000000000000000000000000000000000000008152600401613b9491906147ab565b60405180910390fd5b80600560008573ffffffffffffffffffffffffffffffffffffffff1673ffffffffffffffffffffffffffffffffffffffff16815260200190815260200160002060008473ffffffffffffffffffffffffffffffffffffffff1673ffffffffffffffffffffffffffffffffffffffff16815260200190815260200160002060006101000a81548160ff0219169083151502179055508173ffffffffffffffffffffffffffffffffffffffff168373ffffffffffffffffffffffffffffffffffffffff167f17307eab39ab6107e8899845ad3d59bd9653f200f220920489ca2b5937696c3183604051613c8e919061463a565b60405180910390a3505050565b60008373ffffffffffffffffffffffffffffffffffffffff163b1115613e4c578273ffffffffffffffffffffffffffffffffffffffff1663150b7a02613cdf613322565b8685856040518563ffffffff1660e01b8152600401613d019493929190615ab1565b6020604051808303816000875af1925050508015613d3d57506040513d601f19601f82011682018060405250810190613d3a9190615b12565b60015b613dc1573d8060008114613d6d576040519150601f19603f3d011682016040523d82523d6000602084013e613d72565b606091505b506000815103613db957836040517f64a0ae92000000000000000000000000000000000000000000000000000000008152600401613db091906147ab565b60405180910390fd5b805181602001fd5b63150b7a0260e01b7bffffffffffffffffffffffffffffffffffffffffffffffffffffffff1916817bffffffffffffffffffffffffffffffffffffffffffffffffffffffff191614613e4a57836040517f64a0ae92000000000000000000000000000000000000000000000000000000008152600401613e4191906147ab565b60405180910390fd5b505b50505050565b606060405180602001604052806000815250905090565b6060613e748261325d565b506000613e7f613e52565b90506000815111613e9f5760405180602001604052806000815250613eca565b80613ea984614202565b604051602001613eba9291906154fc565b6040516020818303038152906040525b915050919050565b60007f01ffc9a7000000000000000000000000000000000000000000000000000000007bffffffffffffffffffffffffffffffffffffffffffffffffffffffff1916827bffffffffffffffffffffffffffffffffffffffffffffffffffffffff1916149050919050565b60006002600083815260200190815260200160002060009054906101000a900473ffffffffffffffffffffffffffffffffffffffff169050919050565b8080613fb25750600073ffffffffffffffffffffffffffffffffffffffff168273ffffffffffffffffffffffffffffffffffffffff1614155b156140e6576000613fc28461325d565b9050600073ffffffffffffffffffffffffffffffffffffffff168373ffffffffffffffffffffffffffffffffffffffff161415801561402d57508273ffffffffffffffffffffffffffffffffffffffff168173ffffffffffffffffffffffffffffffffffffffff1614155b8015614040575061403e81846130e7565b155b1561408257826040517fa9fbf51f00000000000000000000000000000000000000000000000000000000815260040161407991906147ab565b60405180910390fd5b81156140e457838573ffffffffffffffffffffffffffffffffffffffff168273ffffffffffffffffffffffffffffffffffffffff167f8c5be1e5ebec7d5bd14f71427d1e84f3dd0314c0f7b2291e5b200ac8c7c3b92560405160405180910390a45b505b836004600085815260200190815260200160002060006101000a81548173ffffffffffffffffffffffffffffffffffffffff021916908373ffffffffffffffffffffffffffffffffffffffff16021790555050505050565b6141498383836142d0565b6141fd57600073ffffffffffffffffffffffffffffffffffffffff168373ffffffffffffffffffffffffffffffffffffffff16036141be57806040517f7e2732890000000000000000000000000000000000000000000000000000000081526004016141b59190614a33565b60405180910390fd5b81816040517f177e802f0000000000000000000000000000000000000000000000000000000081526004016141f4929190615b3f565b60405180910390fd5b505050565b60606000600161421184614391565b01905060008167ffffffffffffffff8111156142305761422f614ad8565b5b6040519080825280601f01601f1916602001820160405280156142625781602001600182028036833780820191505090505b509050600082602001820190505b6001156142c5578080600190039150507f3031323334353637383961626364656600000000000000000000000000000000600a86061a8153600a85816142b9576142b8615b68565b5b04945060008503614270575b819350505050919050565b60008073ffffffffffffffffffffffffffffffffffffffff168373ffffffffffffffffffffffffffffffffffffffff161415801561438857508273ffffffffffffffffffffffffffffffffffffffff168473ffffffffffffffffffffffffffffffffffffffff161480614349575061434884846130e7565b5b8061438757508273ffffffffffffffffffffffffffffffffffffffff1661436f836132e5565b73ffffffffffffffffffffffffffffffffffffffff16145b5b90509392505050565b600080600090507a184f03e93ff9f4daa797ed6e38ed64bf6a1f01000000000000000083106143ef577a184f03e93ff9f4daa797ed6e38ed64bf6a1f01000000000000000083816143e5576143e4615b68565b5b0492506040810190505b6d04ee2d6d415b85acef8100000000831061442c576d04ee2d6d415b85acef8100000000838161442257614421615b68565b5b0492506020810190505b662386f26fc10000831061445b57662386f26fc10000838161445157614450615b68565b5b0492506010810190505b6305f5e1008310614484576305f5e100838161447a57614479615b68565b5b0492506008810190505b61271083106144a957612710838161449f5761449e615b68565b5b0492506004810190505b606483106144cc57606483816144c2576144c1615b68565b5b0492506002810190505b600a83106144db576001810190505b80915050919050565b60405180610160016040528060008152602001600073ffffffffffffffffffffffffffffffffffffffff168152602001600073ffffffffffffffffffffffffffffffffffffffff168152602001600081526020016000151581526020016000151581526020016000815260200160008152602001600073ffffffffffffffffffffffffffffffffffffffff168152602001600081526020016000151581525090565b6000604051905090565b600080fd5b600080fd5b60007fffffffff0000000000000000000000000000000000000000000000000000000082169050919050565b6145cf8161459a565b81146145da57600080fd5b50565b6000813590506145ec816145c6565b92915050565b60006020828403121561460857614607614590565b5b6000614616848285016145dd565b91505092915050565b60008115159050919050565b6146348161461f565b82525050565b600060208201905061464f600083018461462b565b92915050565b600081519050919050565b600082825260208201905092915050565b60005b8381101561468f578082015181840152602081019050614674565b60008484015250505050565b6000601f19601f8301169050919050565b60006146b782614655565b6146c18185614660565b93506146d1818560208601614671565b6146da8161469b565b840191505092915050565b600060208201905081810360008301526146ff81846146ac565b905092915050565b6000819050919050565b61471a81614707565b811461472557600080fd5b50565b60008135905061473781614711565b92915050565b60006020828403121561475357614752614590565b5b600061476184828501614728565b91505092915050565b600073ffffffffffffffffffffffffffffffffffffffff82169050919050565b60006147958261476a565b9050919050565b6147a58161478a565b82525050565b60006020820190506147c0600083018461479c565b92915050565b6147cf8161478a565b81146147da57600080fd5b50565b6000813590506147ec816147c6565b92915050565b6000806040838503121561480957614808614590565b5b6000614817858286016147dd565b925050602061482885828601614728565b9150509250929050565b600081519050919050565b600082825260208201905092915050565b6000819050602082019050919050565b61486781614707565b82525050565b60006148788261476a565b9050919050565b6148888161486d565b82525050565b6148978161461f565b82525050565b610160820160008201516148b4600085018261485e565b5060208201516148c7602085018261487f565b5060408201516148da604085018261487f565b5060608201516148ed606085018261485e565b506080820151614900608085018261488e565b5060a082015161491360a085018261488e565b5060c082015161492660c085018261485e565b5060e082015161493960e085018261485e565b5061010082015161494e61010085018261487f565b5061012082015161496361012085018261485e565b5061014082015161497861014085018261488e565b50505050565b600061498a838361489d565b6101608301905092915050565b6000602082019050919050565b60006149af82614832565b6149b9818561483d565b93506149c48361484e565b8060005b838110156149f55781516149dc888261497e565b97506149e783614997565b9250506001810190506149c8565b5085935050505092915050565b60006020820190508181036000830152614a1c81846149a4565b905092915050565b614a2d81614707565b82525050565b6000602082019050614a486000830184614a24565b92915050565b600080600060608486031215614a6757614a66614590565b5b6000614a75868287016147dd565b9350506020614a86868287016147dd565b9250506040614a9786828701614728565b9150509250925092565b600060208284031215614ab757614ab6614590565b5b6000614ac5848285016147dd565b91505092915050565b600080fd5b600080fd5b7f4e487b7100000000000000000000000000000000000000000000000000000000600052604160045260246000fd5b614b108261469b565b810181811067ffffffffffffffff82111715614b2f57614b2e614ad8565b5b80604052505050565b6000614b42614586565b9050614b4e8282614b07565b919050565b600067ffffffffffffffff821115614b6e57614b6d614ad8565b5b614b778261469b565b9050602081019050919050565b82818337600083830152505050565b6000614ba6614ba184614b53565b614b38565b905082815260208101848484011115614bc257614bc1614ad3565b5b614bcd848285614b84565b509392505050565b600082601f830112614bea57614be9614ace565b5b8135614bfa848260208601614b93565b91505092915050565b60008060408385031215614c1a57614c19614590565b5b600083013567ffffffffffffffff811115614c3857614c37614595565b5b614c4485828601614bd5565b9250506020614c5585828601614728565b9150509250929050565b600080600060608486031215614c7857614c77614590565b5b6000614c8686828701614728565b9350506020614c9786828701614728565b9250506040614ca886828701614728565b9150509250925092565b614cbb8161461f565b8114614cc657600080fd5b50565b600081359050614cd881614cb2565b92915050565b60008060408385031215614cf557614cf4614590565b5b6000614d03858286016147dd565b9250506020614d1485828601614cc9565b9150509250929050565b600067ffffffffffffffff821115614d3957614d38614ad8565b5b614d428261469b565b9050602081019050919050565b6000614d62614d5d84614d1e565b614b38565b905082815260208101848484011115614d7e57614d7d614ad3565b5b614d89848285614b84565b509392505050565b600082601f830112614da657614da5614ace565b5b8135614db6848260208601614d4f565b91505092915050565b60008060008060808587031215614dd957614dd8614590565b5b6000614de7878288016147dd565b9450506020614df8878288016147dd565b9350506040614e0987828801614728565b925050606085013567ffffffffffffffff811115614e2a57614e29614595565b5b614e3687828801614d91565b91505092959194509250565b60008060408385031215614e5957614e58614590565b5b6000614e6785828601614728565b9250506020614e7885828601614728565b9150509250929050565b60008060408385031215614e9957614e98614590565b5b6000614ea7858286016147dd565b9250506020614eb8858286016147dd565b9150509250929050565b7f4e487b7100000000000000000000000000000000000000000000000000000000600052602260045260246000fd5b60006002820490506001821680614f0957607f821691505b602082108103614f1c57614f1b614ec2565b5b50919050565b7f4e487b7100000000000000000000000000000000000000000000000000000000600052601160045260246000fd5b6000614f5c82614707565b9150614f6783614707565b9250828201905080821115614f7f57614f7e614f22565b5b92915050565b7f4e487b7100000000000000000000000000000000000000000000000000000000600052603260045260246000fd5b6000614fbf82614707565b91507fffffffffffffffffffffffffffffffffffffffffffffffffffffffffffffffff8203614ff157614ff0614f22565b5b600182019050919050565b6000606082019050615011600083018661479c565b61501e6020830185614a24565b61502b604083018461479c565b949350505050565b7f4f6e6c79206f776e65722063616e2063616e63656c2073656c6c696e67000000600082015250565b6000615069601d83614660565b915061507482615033565b602082019050919050565b600060208201905081810360008301526150988161505c565b9050919050565b60006150aa82614707565b9150600082036150bd576150bc614f22565b5b600182039050919050565b7f4f6e6c79206974656d206f776e65722063616e20706572666f726d207468697360008201527f206f7065726174696f6e00000000000000000000000000000000000000000000602082015250565b6000615124602a83614660565b915061512f826150c8565b604082019050919050565b6000602082019050818103600083015261515381615117565b9050919050565b7f4f6e6c79206f776e65722063616e2063616e63656c2061756374696f6e000000600082015250565b6000615190601d83614660565b915061519b8261515a565b602082019050919050565b600060208201905081810360008301526151bf81615183565b9050919050565b7f426964206d7573742062652067726561746572207468616e206869676865737460008201527f2062696400000000000000000000000000000000000000000000000000000000602082015250565b6000615222602483614660565b915061522d826151c6565b604082019050919050565b6000602082019050818103600083015261525181615215565b9050919050565b7f41756374696f6e206e6f74207965742073746172746564000000000000000000600082015250565b600061528e601783614660565b915061529982615258565b602082019050919050565b600060208201905081810360008301526152bd81615281565b9050919050565b7f41756374696f6e20616c726561647920636f6d706c6574656400000000000000600082015250565b60006152fa601983614660565b9150615305826152c4565b602082019050919050565b60006020820190508181036000830152615329816152ed565b9050919050565b7f43616e6e6f742062696420747769636520696e206120726f7700000000000000600082015250565b6000615366601983614660565b915061537182615330565b602082019050919050565b6000602082019050818103600083015261539581615359565b9050919050565b7f4f6e6c79206d61726b6574706c616365206f776e65722063616e20757064617460008201527f65206c697374696e672070726963652e00000000000000000000000000000000602082015250565b60006153f8603083614660565b91506154038261539c565b604082019050919050565b60006020820190508181036000830152615427816153eb565b9050919050565b7f506c65617365207375626d6974207468652061736b696e67207072696365206960008201527f6e206f7264657220746f20636f6d706c65746520746865207075726368617365602082015250565b600061548a604083614660565b91506154958261542e565b604082019050919050565b600060208201905081810360008301526154b98161547d565b9050919050565b600081905092915050565b60006154d682614655565b6154e081856154c0565b93506154f0818560208601614671565b80840191505092915050565b600061550882856154cb565b915061551482846154cb565b91508190509392505050565b7f4f6e6c792074686520746f6b656e206f776e65722063616e20656e642074686560008201527f2061756374696f6e000000000000000000000000000000000000000000000000602082015250565b600061557c602883614660565b915061558782615520565b604082019050919050565b600060208201905081810360008301526155ab8161556f565b9050919050565b7f41756374696f6e206d7573742068617665206174206c65617374206f6e65206260008201527f6964000000000000000000000000000000000000000000000000000000000000602082015250565b600061560e602283614660565b9150615619826155b2565b604082019050919050565b6000602082019050818103600083015261563d81615601565b9050919050565b7f5072696365206d75737420626520657175616c20746f206c697374696e67207060008201527f7269636500000000000000000000000000000000000000000000000000000000602082015250565b60006156a0602483614660565b91506156ab82615644565b604082019050919050565b600060208201905081810360008301526156cf81615693565b9050919050565b60008190508160005260206000209050919050565b60006020601f8301049050919050565b600082821b905092915050565b6000600883026157387fffffffffffffffffffffffffffffffffffffffffffffffffffffffffffffffff826156fb565b61574286836156fb565b95508019841693508086168417925050509392505050565b6000819050919050565b600061577f61577a61577584614707565b61575a565b614707565b9050919050565b6000819050919050565b61579983615764565b6157ad6157a582615786565b848454615708565b825550505050565b600090565b6157c26157b5565b6157cd818484615790565b505050565b5b818110156157f1576157e66000826157ba565b6001810190506157d3565b5050565b601f82111561583657615807816156d6565b615810846156eb565b8101602085101561581f578190505b61583361582b856156eb565b8301826157d2565b50505b505050565b600082821c905092915050565b60006158596000198460080261583b565b1980831691505092915050565b60006158728383615848565b9150826002028217905092915050565b61588b82614655565b67ffffffffffffffff8111156158a4576158a3614ad8565b5b6158ae8254614ef1565b6158b98282856157f5565b600060209050601f8311600181146158ec57600084156158da578287015190505b6158e48582615866565b86555061594c565b601f1984166158fa866156d6565b60005b82811015615922578489015182556001820191506020850194506020810190506158fd565b8683101561593f578489015161593b601f891682615848565b8355505b6001600288020188555050505b505050505050565b7f5072696365206d757374206265206174206c6561737420312077656900000000600082015250565b600061598a601c83614660565b915061599582615954565b602082019050919050565b600060208201905081810360008301526159b98161597d565b9050919050565b6000610140820190506159d6600083018d61479c565b6159e3602083018c61479c565b6159f0604083018b614a24565b6159fd606083018a61462b565b615a0a608083018961462b565b615a1760a0830188614a24565b615a2460c0830187614a24565b615a3160e083018661479c565b615a3f610100830185614a24565b615a4d61012083018461462b565b9b9a5050505050505050505050565b600081519050919050565b600082825260208201905092915050565b6000615a8382615a5c565b615a8d8185615a67565b9350615a9d818560208601614671565b615aa68161469b565b840191505092915050565b6000608082019050615ac6600083018761479c565b615ad3602083018661479c565b615ae06040830185614a24565b8181036060830152615af28184615a78565b905095945050505050565b600081519050615b0c816145c6565b92915050565b600060208284031215615b2857615b27614590565b5b6000615b3684828501615afd565b91505092915050565b6000604082019050615b54600083018561479c565b615b616020830184614a24565b9392505050565b7f4e487b7100000000000000000000000000000000000000000000000000000000600052601260045260246000fdfea264697066735822122046db6670e9762c47450736e0d0bd74c5058d261e5de65a5059a67ae5bd1848b864736f6c63430008140033",
  "linkReferences": {},
  "deployedLinkReferences": {}
}