{
  "_format": "hh-sol-artifact-1",
  "contractName": "NFTMarketplace",
  "sourceName": "contracts/NFTMarketplace.sol",
  "abi": [
    {
      "inputs": [],
      "stateMutability": "nonpayable",
      "type": "constructor"
    },
    {
      "inputs": [
        {
          "internalType": "address",
          "name": "sender",
          "type": "address"
        },
        {
          "internalType": "uint256",
          "name": "tokenId",
          "type": "uint256"
        },
        {
          "internalType": "address",
          "name": "owner",
          "type": "address"
        }
      ],
      "name": "ERC721IncorrectOwner",
      "type": "error"
    },
    {
      "inputs": [
        {
          "internalType": "address",
          "name": "operator",
          "type": "address"
        },
        {
          "internalType": "uint256",
          "name": "tokenId",
          "type": "uint256"
        }
      ],
      "name": "ERC721InsufficientApproval",
      "type": "error"
    },
    {
      "inputs": [
        {
          "internalType": "address",
          "name": "approver",
          "type": "address"
        }
      ],
      "name": "ERC721InvalidApprover",
      "type": "error"
    },
    {
      "inputs": [
        {
          "internalType": "address",
          "name": "operator",
          "type": "address"
        }
      ],
      "name": "ERC721InvalidOperator",
      "type": "error"
    },
    {
      "inputs": [
        {
          "internalType": "address",
          "name": "owner",
          "type": "address"
        }
      ],
      "name": "ERC721InvalidOwner",
      "type": "error"
    },
    {
      "inputs": [
        {
          "internalType": "address",
          "name": "receiver",
          "type": "address"
        }
      ],
      "name": "ERC721InvalidReceiver",
      "type": "error"
    },
    {
      "inputs": [
        {
          "internalType": "address",
          "name": "sender",
          "type": "address"
        }
      ],
      "name": "ERC721InvalidSender",
      "type": "error"
    },
    {
      "inputs": [
        {
          "internalType": "uint256",
          "name": "tokenId",
          "type": "uint256"
        }
      ],
      "name": "ERC721NonexistentToken",
      "type": "error"
    },
    {
      "anonymous": false,
      "inputs": [
        {
          "indexed": true,
          "internalType": "address",
          "name": "owner",
          "type": "address"
        },
        {
          "indexed": true,
          "internalType": "address",
          "name": "approved",
          "type": "address"
        },
        {
          "indexed": true,
          "internalType": "uint256",
          "name": "tokenId",
          "type": "uint256"
        }
      ],
      "name": "Approval",
      "type": "event"
    },
    {
      "anonymous": false,
      "inputs": [
        {
          "indexed": true,
          "internalType": "address",
          "name": "owner",
          "type": "address"
        },
        {
          "indexed": true,
          "internalType": "address",
          "name": "operator",
          "type": "address"
        },
        {
          "indexed": false,
          "internalType": "bool",
          "name": "approved",
          "type": "bool"
        }
      ],
      "name": "ApprovalForAll",
      "type": "event"
    },
    {
      "anonymous": false,
      "inputs": [
        {
          "indexed": false,
          "internalType": "uint256",
          "name": "_fromTokenId",
          "type": "uint256"
        },
        {
          "indexed": false,
          "internalType": "uint256",
          "name": "_toTokenId",
          "type": "uint256"
        }
      ],
      "name": "BatchMetadataUpdate",
      "type": "event"
    },
    {
      "anonymous": false,
      "inputs": [
        {
          "indexed": true,
          "internalType": "uint256",
          "name": "tokenId",
          "type": "uint256"
        },
        {
          "indexed": false,
          "internalType": "address",
          "name": "seller",
          "type": "address"
        },
        {
          "indexed": false,
          "internalType": "address",
          "name": "owner",
          "type": "address"
        },
        {
          "indexed": false,
          "internalType": "uint256",
          "name": "price",
          "type": "uint256"
        },
        {
          "indexed": false,
          "internalType": "bool",
          "name": "sold",
          "type": "bool"
        }
      ],
      "name": "MarketItemCreated",
      "type": "event"
    },
    {
      "anonymous": false,
      "inputs": [
        {
          "indexed": false,
          "internalType": "uint256",
          "name": "_tokenId",
          "type": "uint256"
        }
      ],
      "name": "MetadataUpdate",
      "type": "event"
    },
    {
      "anonymous": false,
      "inputs": [
        {
          "indexed": true,
          "internalType": "address",
          "name": "from",
          "type": "address"
        },
        {
          "indexed": true,
          "internalType": "address",
          "name": "to",
          "type": "address"
        },
        {
          "indexed": true,
          "internalType": "uint256",
          "name": "tokenId",
          "type": "uint256"
        }
      ],
      "name": "Transfer",
      "type": "event"
    },
    {
      "inputs": [
        {
          "internalType": "address",
          "name": "to",
          "type": "address"
        },
        {
          "internalType": "uint256",
          "name": "tokenId",
          "type": "uint256"
        }
      ],
      "name": "approve",
      "outputs": [],
      "stateMutability": "nonpayable",
      "type": "function"
    },
    {
      "inputs": [
        {
          "internalType": "address",
          "name": "owner",
          "type": "address"
        }
      ],
      "name": "balanceOf",
      "outputs": [
        {
          "internalType": "uint256",
          "name": "",
          "type": "uint256"
        }
      ],
      "stateMutability": "view",
      "type": "function"
    },
    {
      "inputs": [
        {
          "internalType": "uint256",
          "name": "tokenId",
          "type": "uint256"
        }
      ],
      "name": "createMarketSale",
      "outputs": [],
      "stateMutability": "payable",
      "type": "function"
    },
    {
      "inputs": [
        {
          "internalType": "string",
          "name": "tokenURI",
          "type": "string"
        },
        {
          "internalType": "uint256",
          "name": "price",
          "type": "uint256"
        }
      ],
      "name": "createToken",
      "outputs": [
        {
          "internalType": "uint256",
          "name": "",
          "type": "uint256"
        }
      ],
      "stateMutability": "payable",
      "type": "function"
    },
    {
      "inputs": [],
      "name": "fetchItemsListed",
      "outputs": [
        {
          "components": [
            {
              "internalType": "uint256",
              "name": "tokenId",
              "type": "uint256"
            },
            {
              "internalType": "address payable",
              "name": "seller",
              "type": "address"
            },
            {
              "internalType": "address payable",
              "name": "owner",
              "type": "address"
            },
            {
              "internalType": "uint256",
              "name": "price",
              "type": "uint256"
            },
            {
              "internalType": "bool",
              "name": "sold",
              "type": "bool"
            }
          ],
          "internalType": "struct NFTMarketplace.MarketItem[]",
          "name": "",
          "type": "tuple[]"
        }
      ],
      "stateMutability": "view",
      "type": "function"
    },
    {
      "inputs": [],
      "name": "fetchMarketItems",
      "outputs": [
        {
          "components": [
            {
              "internalType": "uint256",
              "name": "tokenId",
              "type": "uint256"
            },
            {
              "internalType": "address payable",
              "name": "seller",
              "type": "address"
            },
            {
              "internalType": "address payable",
              "name": "owner",
              "type": "address"
            },
            {
              "internalType": "uint256",
              "name": "price",
              "type": "uint256"
            },
            {
              "internalType": "bool",
              "name": "sold",
              "type": "bool"
            }
          ],
          "internalType": "struct NFTMarketplace.MarketItem[]",
          "name": "",
          "type": "tuple[]"
        }
      ],
      "stateMutability": "view",
      "type": "function"
    },
    {
      "inputs": [],
      "name": "fetchMyNFTs",
      "outputs": [
        {
          "components": [
            {
              "internalType": "uint256",
              "name": "tokenId",
              "type": "uint256"
            },
            {
              "internalType": "address payable",
              "name": "seller",
              "type": "address"
            },
            {
              "internalType": "address payable",
              "name": "owner",
              "type": "address"
            },
            {
              "internalType": "uint256",
              "name": "price",
              "type": "uint256"
            },
            {
              "internalType": "bool",
              "name": "sold",
              "type": "bool"
            }
          ],
          "internalType": "struct NFTMarketplace.MarketItem[]",
          "name": "",
          "type": "tuple[]"
        }
      ],
      "stateMutability": "view",
      "type": "function"
    },
    {
      "inputs": [
        {
          "internalType": "uint256",
          "name": "tokenId",
          "type": "uint256"
        }
      ],
      "name": "getApproved",
      "outputs": [
        {
          "internalType": "address",
          "name": "",
          "type": "address"
        }
      ],
      "stateMutability": "view",
      "type": "function"
    },
    {
      "inputs": [],
      "name": "getListingPrice",
      "outputs": [
        {
          "internalType": "uint256",
          "name": "",
          "type": "uint256"
        }
      ],
      "stateMutability": "view",
      "type": "function"
    },
    {
      "inputs": [
        {
          "internalType": "address",
          "name": "owner",
          "type": "address"
        },
        {
          "internalType": "address",
          "name": "operator",
          "type": "address"
        }
      ],
      "name": "isApprovedForAll",
      "outputs": [
        {
          "internalType": "bool",
          "name": "",
          "type": "bool"
        }
      ],
      "stateMutability": "view",
      "type": "function"
    },
    {
      "inputs": [],
      "name": "name",
      "outputs": [
        {
          "internalType": "string",
          "name": "",
          "type": "string"
        }
      ],
      "stateMutability": "view",
      "type": "function"
    },
    {
      "inputs": [
        {
          "internalType": "uint256",
          "name": "tokenId",
          "type": "uint256"
        }
      ],
      "name": "ownerOf",
      "outputs": [
        {
          "internalType": "address",
          "name": "",
          "type": "address"
        }
      ],
      "stateMutability": "view",
      "type": "function"
    },
    {
      "inputs": [
        {
          "internalType": "uint256",
          "name": "tokenId",
          "type": "uint256"
        },
        {
          "internalType": "uint256",
          "name": "price",
          "type": "uint256"
        }
      ],
      "name": "resellToken",
      "outputs": [],
      "stateMutability": "payable",
      "type": "function"
    },
    {
      "inputs": [
        {
          "internalType": "address",
          "name": "from",
          "type": "address"
        },
        {
          "internalType": "address",
          "name": "to",
          "type": "address"
        },
        {
          "internalType": "uint256",
          "name": "tokenId",
          "type": "uint256"
        }
      ],
      "name": "safeTransferFrom",
      "outputs": [],
      "stateMutability": "nonpayable",
      "type": "function"
    },
    {
      "inputs": [
        {
          "internalType": "address",
          "name": "from",
          "type": "address"
        },
        {
          "internalType": "address",
          "name": "to",
          "type": "address"
        },
        {
          "internalType": "uint256",
          "name": "tokenId",
          "type": "uint256"
        },
        {
          "internalType": "bytes",
          "name": "data",
          "type": "bytes"
        }
      ],
      "name": "safeTransferFrom",
      "outputs": [],
      "stateMutability": "nonpayable",
      "type": "function"
    },
    {
      "inputs": [
        {
          "internalType": "address",
          "name": "operator",
          "type": "address"
        },
        {
          "internalType": "bool",
          "name": "approved",
          "type": "bool"
        }
      ],
      "name": "setApprovalForAll",
      "outputs": [],
      "stateMutability": "nonpayable",
      "type": "function"
    },
    {
      "inputs": [
        {
          "internalType": "uint256",
          "name": "tokenId",
          "type": "uint256"
        },
        {
          "internalType": "uint256",
          "name": "price",
          "type": "uint256"
        },
        {
          "internalType": "uint256",
          "name": "durations",
          "type": "uint256"
        }
      ],
      "name": "startAuction",
      "outputs": [],
      "stateMutability": "payable",
      "type": "function"
    },
    {
      "inputs": [
        {
          "internalType": "bytes4",
          "name": "interfaceId",
          "type": "bytes4"
        }
      ],
      "name": "supportsInterface",
      "outputs": [
        {
          "internalType": "bool",
          "name": "",
          "type": "bool"
        }
      ],
      "stateMutability": "view",
      "type": "function"
    },
    {
      "inputs": [],
      "name": "symbol",
      "outputs": [
        {
          "internalType": "string",
          "name": "",
          "type": "string"
        }
      ],
      "stateMutability": "view",
      "type": "function"
    },
    {
      "inputs": [
        {
          "internalType": "uint256",
          "name": "tokenId",
          "type": "uint256"
        }
      ],
      "name": "tokenURI",
      "outputs": [
        {
          "internalType": "string",
          "name": "",
          "type": "string"
        }
      ],
      "stateMutability": "view",
      "type": "function"
    },
    {
      "inputs": [
        {
          "internalType": "address",
          "name": "from",
          "type": "address"
        },
        {
          "internalType": "address",
          "name": "to",
          "type": "address"
        },
        {
          "internalType": "uint256",
          "name": "tokenId",
          "type": "uint256"
        }
      ],
      "name": "transferFrom",
      "outputs": [],
      "stateMutability": "nonpayable",
      "type": "function"
    },
    {
      "inputs": [
        {
          "internalType": "uint256",
          "name": "_listingPrice",
          "type": "uint256"
        }
      ],
      "name": "updateListingPrice",
      "outputs": [],
      "stateMutability": "payable",
      "type": "function"
    }
  ],
  "bytecode": "0x60806040526658d15e176280006009553480156200001c57600080fd5b506040518060400160405280601081526020017f4d657461766572736520546f6b656e73000000000000000000000000000000008152506040518060400160405280600481526020017f4d4554540000000000000000000000000000000000000000000000000000000081525081600090816200009a919062000378565b508060019081620000ac919062000378565b50505033600a60006101000a81548173ffffffffffffffffffffffffffffffffffffffff021916908373ffffffffffffffffffffffffffffffffffffffff16021790555060006007819055506200045f565b600081519050919050565b7f4e487b7100000000000000000000000000000000000000000000000000000000600052604160045260246000fd5b7f4e487b7100000000000000000000000000000000000000000000000000000000600052602260045260246000fd5b600060028204905060018216806200018057607f821691505b60208210810362000196576200019562000138565b5b50919050565b60008190508160005260206000209050919050565b60006020601f8301049050919050565b600082821b905092915050565b600060088302620002007fffffffffffffffffffffffffffffffffffffffffffffffffffffffffffffffff82620001c1565b6200020c8683620001c1565b95508019841693508086168417925050509392505050565b6000819050919050565b6000819050919050565b600062000259620002536200024d8462000224565b6200022e565b62000224565b9050919050565b6000819050919050565b620002758362000238565b6200028d620002848262000260565b848454620001ce565b825550505050565b600090565b620002a462000295565b620002b18184846200026a565b505050565b5b81811015620002d957620002cd6000826200029a565b600181019050620002b7565b5050565b601f8211156200032857620002f2816200019c565b620002fd84620001b1565b810160208510156200030d578190505b620003256200031c85620001b1565b830182620002b6565b50505b505050565b600082821c905092915050565b60006200034d600019846008026200032d565b1980831691505092915050565b60006200036883836200033a565b9150826002028217905092915050565b6200038382620000fe565b67ffffffffffffffff8111156200039f576200039e62000109565b5b620003ab825462000167565b620003b8828285620002dd565b600060209050601f831160018114620003f05760008415620003db578287015190505b620003e785826200035a565b86555062000457565b601f19841662000400866200019c565b60005b828110156200042a5784890151825560018201915060208501945060208101905062000403565b868310156200044a578489015162000446601f8916826200033a565b8355505b6001600288020188555050505b505050505050565b613ff0806200046f6000396000f3fe6080604052600436106101355760003560e01c806370a08231116100ab578063ae677aa31161006f578063ae677aa314610420578063b88d4fde1461043c578063be9af53614610465578063c87b56dd14610481578063e219fc75146104be578063e985e9c5146104da57610135565b806370a082311461034357806372b3b6201461038057806391e078bb146103b057806395d89b41146103cc578063a22cb465146103f757610135565b806312e85585116100fd57806312e8558514610233578063202e37401461025e57806323b872dd1461028957806342842e0e146102b257806345f8fa80146102db5780636352211e1461030657610135565b806301ffc9a71461013a57806306fdde0314610177578063081812fc146101a2578063095ea7b3146101df5780630f08efe014610208575b600080fd5b34801561014657600080fd5b50610161600480360381019061015c9190612e84565b610517565b60405161016e9190612ecc565b60405180910390f35b34801561018357600080fd5b5061018c610578565b6040516101999190612f77565b60405180910390f35b3480156101ae57600080fd5b506101c960048036038101906101c49190612fcf565b61060a565b6040516101d6919061303d565b60405180910390f35b3480156101eb57600080fd5b5061020660048036038101906102019190613084565b610626565b005b34801561021457600080fd5b5061021d61063c565b60405161022a919061321a565b60405180910390f35b34801561023f57600080fd5b5061024861088f565b604051610255919061324b565b60405180910390f35b34801561026a57600080fd5b50610273610899565b604051610280919061321a565b60405180910390f35b34801561029557600080fd5b506102b060048036038101906102ab9190613266565b610b7e565b005b3480156102be57600080fd5b506102d960048036038101906102d49190613266565b610c80565b005b3480156102e757600080fd5b506102f0610ca0565b6040516102fd919061321a565b60405180910390f35b34801561031257600080fd5b5061032d60048036038101906103289190612fcf565b610f85565b60405161033a919061303d565b60405180910390f35b34801561034f57600080fd5b5061036a600480360381019061036591906132b9565b610f97565b604051610377919061324b565b60405180910390f35b61039a6004803603810190610395919061341b565b611051565b6040516103a7919061324b565b60405180910390f35b6103ca60048036038101906103c59190613477565b61109a565b005b3480156103d857600080fd5b506103e1611414565b6040516103ee9190612f77565b60405180910390f35b34801561040357600080fd5b5061041e600480360381019061041991906134f6565b6114a6565b005b61043a60048036038101906104359190612fcf565b6114bc565b005b34801561044857600080fd5b50610463600480360381019061045e91906135d7565b611556565b005b61047f600480360381019061047a9190612fcf565b611573565b005b34801561048d57600080fd5b506104a860048036038101906104a39190612fcf565b6117b9565b6040516104b59190612f77565b60405180910390f35b6104d860048036038101906104d3919061365a565b6118cc565b005b3480156104e657600080fd5b5061050160048036038101906104fc919061369a565b611acf565b60405161050e9190612ecc565b60405180910390f35b6000634906490660e01b7bffffffffffffffffffffffffffffffffffffffffffffffffffffffff1916827bffffffffffffffffffffffffffffffffffffffffffffffffffffffff19161480610571575061057082611b63565b5b9050919050565b60606000805461058790613709565b80601f01602080910402602001604051908101604052809291908181526020018280546105b390613709565b80156106005780601f106105d557610100808354040283529160200191610600565b820191906000526020600020905b8154815290600101906020018083116105e357829003601f168201915b5050505050905090565b600061061582611c45565b5061061f82611ccd565b9050919050565b6106388282610633611d0a565b611d12565b5050565b60606000600754905060006008546007546106579190613769565b90506000808267ffffffffffffffff811115610676576106756132f0565b5b6040519080825280602002602001820160405280156106af57816020015b61069c612dbb565b8152602001906001900390816106945790505b50905060005b84811015610884573073ffffffffffffffffffffffffffffffffffffffff16600b60006001846106e5919061379d565b815260200190815260200160002060020160009054906101000a900473ffffffffffffffffffffffffffffffffffffffff1673ffffffffffffffffffffffffffffffffffffffff1603610871576000600182610741919061379d565b90506000600b60008381526020019081526020016000209050806040518060a0016040529081600082015481526020016001820160009054906101000a900473ffffffffffffffffffffffffffffffffffffffff1673ffffffffffffffffffffffffffffffffffffffff1673ffffffffffffffffffffffffffffffffffffffff1681526020016002820160009054906101000a900473ffffffffffffffffffffffffffffffffffffffff1673ffffffffffffffffffffffffffffffffffffffff1673ffffffffffffffffffffffffffffffffffffffff168152602001600382015481526020016004820160009054906101000a900460ff161515151581525050848681518110610854576108536137d1565b5b602002602001018190525060018561086c919061379d565b945050505b808061087c90613800565b9150506106b5565b508094505050505090565b6000600954905090565b60606000600754905060008060005b83811015610948573373ffffffffffffffffffffffffffffffffffffffff16600b60006001846108d8919061379d565b815260200190815260200160002060020160009054906101000a900473ffffffffffffffffffffffffffffffffffffffff1673ffffffffffffffffffffffffffffffffffffffff160361093557600183610932919061379d565b92505b808061094090613800565b9150506108a8565b5060008267ffffffffffffffff811115610965576109646132f0565b5b60405190808252806020026020018201604052801561099e57816020015b61098b612dbb565b8152602001906001900390816109835790505b50905060005b84811015610b73573373ffffffffffffffffffffffffffffffffffffffff16600b60006001846109d4919061379d565b815260200190815260200160002060020160009054906101000a900473ffffffffffffffffffffffffffffffffffffffff1673ffffffffffffffffffffffffffffffffffffffff1603610b60576000600182610a30919061379d565b90506000600b60008381526020019081526020016000209050806040518060a0016040529081600082015481526020016001820160009054906101000a900473ffffffffffffffffffffffffffffffffffffffff1673ffffffffffffffffffffffffffffffffffffffff1673ffffffffffffffffffffffffffffffffffffffff1681526020016002820160009054906101000a900473ffffffffffffffffffffffffffffffffffffffff1673ffffffffffffffffffffffffffffffffffffffff1673ffffffffffffffffffffffffffffffffffffffff168152602001600382015481526020016004820160009054906101000a900460ff161515151581525050848681518110610b4357610b426137d1565b5b6020026020010181905250600185610b5b919061379d565b945050505b8080610b6b90613800565b9150506109a4565b508094505050505090565b600073ffffffffffffffffffffffffffffffffffffffff168273ffffffffffffffffffffffffffffffffffffffff1603610bf05760006040517f64a0ae92000000000000000000000000000000000000000000000000000000008152600401610be7919061303d565b60405180910390fd5b6000610c048383610bff611d0a565b611d24565b90508373ffffffffffffffffffffffffffffffffffffffff168173ffffffffffffffffffffffffffffffffffffffff1614610c7a578382826040517f64283d7b000000000000000000000000000000000000000000000000000000008152600401610c7193929190613848565b60405180910390fd5b50505050565b610c9b83838360405180602001604052806000815250611556565b505050565b60606000600754905060008060005b83811015610d4f573373ffffffffffffffffffffffffffffffffffffffff16600b6000600184610cdf919061379d565b815260200190815260200160002060010160009054906101000a900473ffffffffffffffffffffffffffffffffffffffff1673ffffffffffffffffffffffffffffffffffffffff1603610d3c57600183610d39919061379d565b92505b8080610d4790613800565b915050610caf565b5060008267ffffffffffffffff811115610d6c57610d6b6132f0565b5b604051908082528060200260200182016040528015610da557816020015b610d92612dbb565b815260200190600190039081610d8a5790505b50905060005b84811015610f7a573373ffffffffffffffffffffffffffffffffffffffff16600b6000600184610ddb919061379d565b815260200190815260200160002060010160009054906101000a900473ffffffffffffffffffffffffffffffffffffffff1673ffffffffffffffffffffffffffffffffffffffff1603610f67576000600182610e37919061379d565b90506000600b60008381526020019081526020016000209050806040518060a0016040529081600082015481526020016001820160009054906101000a900473ffffffffffffffffffffffffffffffffffffffff1673ffffffffffffffffffffffffffffffffffffffff1673ffffffffffffffffffffffffffffffffffffffff1681526020016002820160009054906101000a900473ffffffffffffffffffffffffffffffffffffffff1673ffffffffffffffffffffffffffffffffffffffff1673ffffffffffffffffffffffffffffffffffffffff168152602001600382015481526020016004820160009054906101000a900460ff161515151581525050848681518110610f4a57610f496137d1565b5b6020026020010181905250600185610f62919061379d565b945050505b8080610f7290613800565b915050610dab565b508094505050505090565b6000610f9082611c45565b9050919050565b60008073ffffffffffffffffffffffffffffffffffffffff168273ffffffffffffffffffffffffffffffffffffffff160361100a5760006040517f89c62b64000000000000000000000000000000000000000000000000000000008152600401611001919061303d565b60405180910390fd5b600360008373ffffffffffffffffffffffffffffffffffffffff1673ffffffffffffffffffffffffffffffffffffffff168152602001908152602001600020549050919050565b60006007600081548092919061106690613800565b91905055506000600754905061107c3382611f3e565b6110868185612037565b6110908184612093565b8091505092915050565b3373ffffffffffffffffffffffffffffffffffffffff16600b600085815260200190815260200160002060020160009054906101000a900473ffffffffffffffffffffffffffffffffffffffff1673ffffffffffffffffffffffffffffffffffffffff161461113e576040517f08c379a0000000000000000000000000000000000000000000000000000000008152600401611135906138f1565b60405180910390fd5b6001600c600085815260200190815260200160002060080160016101000a81548160ff0219169083151502179055506000600c600085815260200190815260200160002060080160006101000a81548160ff0219169083151502179055506000600c600085815260200190815260200160002060060160006101000a81548173ffffffffffffffffffffffffffffffffffffffff021916908373ffffffffffffffffffffffffffffffffffffffff16021790555081600c60008581526020019081526020016000206007018190555033600c600085815260200190815260200160002060010160006101000a81548173ffffffffffffffffffffffffffffffffffffffff021916908373ffffffffffffffffffffffffffffffffffffffff16021790555030600c600085815260200190815260200160002060020160006101000a81548173ffffffffffffffffffffffffffffffffffffffff021916908373ffffffffffffffffffffffffffffffffffffffff16021790555042600c60008581526020019081526020016000206004018190555080426112de919061379d565b600c6000858152602001908152602001600020600501819055506008600081548092919061130b90613911565b91905055506000600b600085815260200190815260200160002060040160006101000a81548160ff02191690831515021790555081600b60008581526020019081526020016000206003018190555033600b600085815260200190815260200160002060010160006101000a81548173ffffffffffffffffffffffffffffffffffffffff021916908373ffffffffffffffffffffffffffffffffffffffff16021790555030600b600085815260200190815260200160002060020160006101000a81548173ffffffffffffffffffffffffffffffffffffffff021916908373ffffffffffffffffffffffffffffffffffffffff16021790555061140f333085612296565b505050565b60606001805461142390613709565b80601f016020809104026020016040519081016040528092919081815260200182805461144f90613709565b801561149c5780601f106114715761010080835404028352916020019161149c565b820191906000526020600020905b81548152906001019060200180831161147f57829003601f168201915b5050505050905090565b6114b86114b1611d0a565b8383612403565b5050565b3373ffffffffffffffffffffffffffffffffffffffff16600a60009054906101000a900473ffffffffffffffffffffffffffffffffffffffff1673ffffffffffffffffffffffffffffffffffffffff161461154c576040517f08c379a0000000000000000000000000000000000000000000000000000000008152600401611543906139ac565b60405180910390fd5b8060098190555050565b611561848484610b7e565b61156d84848484612572565b50505050565b6000600b60008381526020019081526020016000206003015490508034146115d0576040517f08c379a00000000000000000000000000000000000000000000000000000000081526004016115c790613a3e565b60405180910390fd5b33600b600084815260200190815260200160002060020160006101000a81548173ffffffffffffffffffffffffffffffffffffffff021916908373ffffffffffffffffffffffffffffffffffffffff1602179055506001600b600084815260200190815260200160002060040160006101000a81548160ff0219169083151502179055506000600b600084815260200190815260200160002060010160006101000a81548173ffffffffffffffffffffffffffffffffffffffff021916908373ffffffffffffffffffffffffffffffffffffffff160217905550600860008154809291906116bd90613800565b91905055506116cd303384612296565b600a60009054906101000a900473ffffffffffffffffffffffffffffffffffffffff1673ffffffffffffffffffffffffffffffffffffffff166108fc6009549081150290604051600060405180830381858888f19350505050158015611737573d6000803e3d6000fd5b50600b600083815260200190815260200160002060010160009054906101000a900473ffffffffffffffffffffffffffffffffffffffff1673ffffffffffffffffffffffffffffffffffffffff166108fc349081150290604051600060405180830381858888f193505050501580156117b4573d6000803e3d6000fd5b505050565b60606117c482611c45565b5060006006600084815260200190815260200160002080546117e590613709565b80601f016020809104026020016040519081016040528092919081815260200182805461181190613709565b801561185e5780601f106118335761010080835404028352916020019161185e565b820191906000526020600020905b81548152906001019060200180831161184157829003601f168201915b50505050509050600061186f612729565b905060008151036118845781925050506118c7565b6000825111156118b95780826040516020016118a1929190613a9a565b604051602081830303815290604052925050506118c7565b6118c284612740565b925050505b919050565b3373ffffffffffffffffffffffffffffffffffffffff16600b600084815260200190815260200160002060020160009054906101000a900473ffffffffffffffffffffffffffffffffffffffff1673ffffffffffffffffffffffffffffffffffffffff1614611970576040517f08c379a0000000000000000000000000000000000000000000000000000000008152600401611967906138f1565b60405180910390fd5b60095434146119b4576040517f08c379a00000000000000000000000000000000000000000000000000000000081526004016119ab90613b30565b60405180910390fd5b6000600b600084815260200190815260200160002060040160006101000a81548160ff02191690831515021790555080600b60008481526020019081526020016000206003018190555033600b600084815260200190815260200160002060010160006101000a81548173ffffffffffffffffffffffffffffffffffffffff021916908373ffffffffffffffffffffffffffffffffffffffff16021790555030600b600084815260200190815260200160002060020160006101000a81548173ffffffffffffffffffffffffffffffffffffffff021916908373ffffffffffffffffffffffffffffffffffffffff16021790555060086000815480929190611abb90613911565b9190505550611acb333084612296565b5050565b6000600560008473ffffffffffffffffffffffffffffffffffffffff1673ffffffffffffffffffffffffffffffffffffffff16815260200190815260200160002060008373ffffffffffffffffffffffffffffffffffffffff1673ffffffffffffffffffffffffffffffffffffffff16815260200190815260200160002060009054906101000a900460ff16905092915050565b60007f80ac58cd000000000000000000000000000000000000000000000000000000007bffffffffffffffffffffffffffffffffffffffffffffffffffffffff1916827bffffffffffffffffffffffffffffffffffffffffffffffffffffffff19161480611c2e57507f5b5e139f000000000000000000000000000000000000000000000000000000007bffffffffffffffffffffffffffffffffffffffffffffffffffffffff1916827bffffffffffffffffffffffffffffffffffffffffffffffffffffffff1916145b80611c3e5750611c3d826127a9565b5b9050919050565b600080611c5183612813565b9050600073ffffffffffffffffffffffffffffffffffffffff168173ffffffffffffffffffffffffffffffffffffffff1603611cc457826040517f7e273289000000000000000000000000000000000000000000000000000000008152600401611cbb919061324b565b60405180910390fd5b80915050919050565b60006004600083815260200190815260200160002060009054906101000a900473ffffffffffffffffffffffffffffffffffffffff169050919050565b600033905090565b611d1f8383836001612850565b505050565b600080611d3084612813565b9050600073ffffffffffffffffffffffffffffffffffffffff168373ffffffffffffffffffffffffffffffffffffffff1614611d7257611d71818486612a15565b5b600073ffffffffffffffffffffffffffffffffffffffff168173ffffffffffffffffffffffffffffffffffffffff1614611e0357611db4600085600080612850565b6001600360008373ffffffffffffffffffffffffffffffffffffffff1673ffffffffffffffffffffffffffffffffffffffff168152602001908152602001600020600082825403925050819055505b600073ffffffffffffffffffffffffffffffffffffffff168573ffffffffffffffffffffffffffffffffffffffff1614611e86576001600360008773ffffffffffffffffffffffffffffffffffffffff1673ffffffffffffffffffffffffffffffffffffffff168152602001908152602001600020600082825401925050819055505b846002600086815260200190815260200160002060006101000a81548173ffffffffffffffffffffffffffffffffffffffff021916908373ffffffffffffffffffffffffffffffffffffffff160217905550838573ffffffffffffffffffffffffffffffffffffffff168273ffffffffffffffffffffffffffffffffffffffff167fddf252ad1be2c89b69c2b068fc378daa952ba7f163c4a11628f55a4df523b3ef60405160405180910390a4809150509392505050565b600073ffffffffffffffffffffffffffffffffffffffff168273ffffffffffffffffffffffffffffffffffffffff1603611fb05760006040517f64a0ae92000000000000000000000000000000000000000000000000000000008152600401611fa7919061303d565b60405180910390fd5b6000611fbe83836000611d24565b9050600073ffffffffffffffffffffffffffffffffffffffff168173ffffffffffffffffffffffffffffffffffffffff16146120325760006040517f73c6ac6e000000000000000000000000000000000000000000000000000000008152600401612029919061303d565b60405180910390fd5b505050565b806006600084815260200190815260200160002090816120579190613cfc565b507ff8e1a15aba9398e019f0b49df1a4fde98ee17ae345cb5f6b5e2c27f5033e8ce782604051612087919061324b565b60405180910390a15050565b600081116120d6576040517f08c379a00000000000000000000000000000000000000000000000000000000081526004016120cd90613e1a565b60405180910390fd5b600954341461211a576040517f08c379a000000000000000000000000000000000000000000000000000000000815260040161211190613b30565b60405180910390fd5b6040518060a001604052808381526020013373ffffffffffffffffffffffffffffffffffffffff1681526020013073ffffffffffffffffffffffffffffffffffffffff16815260200182815260200160001515815250600b60008481526020019081526020016000206000820151816000015560208201518160010160006101000a81548173ffffffffffffffffffffffffffffffffffffffff021916908373ffffffffffffffffffffffffffffffffffffffff16021790555060408201518160020160006101000a81548173ffffffffffffffffffffffffffffffffffffffff021916908373ffffffffffffffffffffffffffffffffffffffff1602179055506060820151816003015560808201518160040160006101000a81548160ff021916908315150217905550905050612253333084612296565b817fb640004f1d14576d0c209e240cad0410e0d8c0c33a09375861fbadae2588a98d333084600060405161228a9493929190613e3a565b60405180910390a25050565b600073ffffffffffffffffffffffffffffffffffffffff168273ffffffffffffffffffffffffffffffffffffffff16036123085760006040517f64a0ae920000000000000000000000000000000000000000000000000000000081526004016122ff919061303d565b60405180910390fd5b600061231683836000611d24565b9050600073ffffffffffffffffffffffffffffffffffffffff168173ffffffffffffffffffffffffffffffffffffffff160361238957816040517f7e273289000000000000000000000000000000000000000000000000000000008152600401612380919061324b565b60405180910390fd5b8373ffffffffffffffffffffffffffffffffffffffff168173ffffffffffffffffffffffffffffffffffffffff16146123fd578382826040517f64283d7b0000000000000000000000000000000000000000000000000000000081526004016123f493929190613848565b60405180910390fd5b50505050565b600073ffffffffffffffffffffffffffffffffffffffff168273ffffffffffffffffffffffffffffffffffffffff160361247457816040517f5b08ba1800000000000000000000000000000000000000000000000000000000815260040161246b919061303d565b60405180910390fd5b80600560008573ffffffffffffffffffffffffffffffffffffffff1673ffffffffffffffffffffffffffffffffffffffff16815260200190815260200160002060008473ffffffffffffffffffffffffffffffffffffffff1673ffffffffffffffffffffffffffffffffffffffff16815260200190815260200160002060006101000a81548160ff0219169083151502179055508173ffffffffffffffffffffffffffffffffffffffff168373ffffffffffffffffffffffffffffffffffffffff167f17307eab39ab6107e8899845ad3d59bd9653f200f220920489ca2b5937696c31836040516125659190612ecc565b60405180910390a3505050565b60008373ffffffffffffffffffffffffffffffffffffffff163b1115612723578273ffffffffffffffffffffffffffffffffffffffff1663150b7a026125b6611d0a565b8685856040518563ffffffff1660e01b81526004016125d89493929190613ed4565b6020604051808303816000875af192505050801561261457506040513d601f19601f820116820180604052508101906126119190613f35565b60015b612698573d8060008114612644576040519150601f19603f3d011682016040523d82523d6000602084013e612649565b606091505b50600081510361269057836040517f64a0ae92000000000000000000000000000000000000000000000000000000008152600401612687919061303d565b60405180910390fd5b805181602001fd5b63150b7a0260e01b7bffffffffffffffffffffffffffffffffffffffffffffffffffffffff1916817bffffffffffffffffffffffffffffffffffffffffffffffffffffffff19161461272157836040517f64a0ae92000000000000000000000000000000000000000000000000000000008152600401612718919061303d565b60405180910390fd5b505b50505050565b606060405180602001604052806000815250905090565b606061274b82611c45565b506000612756612729565b9050600081511161277657604051806020016040528060008152506127a1565b8061278084612ad9565b604051602001612791929190613a9a565b6040516020818303038152906040525b915050919050565b60007f01ffc9a7000000000000000000000000000000000000000000000000000000007bffffffffffffffffffffffffffffffffffffffffffffffffffffffff1916827bffffffffffffffffffffffffffffffffffffffffffffffffffffffff1916149050919050565b60006002600083815260200190815260200160002060009054906101000a900473ffffffffffffffffffffffffffffffffffffffff169050919050565b80806128895750600073ffffffffffffffffffffffffffffffffffffffff168273ffffffffffffffffffffffffffffffffffffffff1614155b156129bd57600061289984611c45565b9050600073ffffffffffffffffffffffffffffffffffffffff168373ffffffffffffffffffffffffffffffffffffffff161415801561290457508273ffffffffffffffffffffffffffffffffffffffff168173ffffffffffffffffffffffffffffffffffffffff1614155b801561291757506129158184611acf565b155b1561295957826040517fa9fbf51f000000000000000000000000000000000000000000000000000000008152600401612950919061303d565b60405180910390fd5b81156129bb57838573ffffffffffffffffffffffffffffffffffffffff168273ffffffffffffffffffffffffffffffffffffffff167f8c5be1e5ebec7d5bd14f71427d1e84f3dd0314c0f7b2291e5b200ac8c7c3b92560405160405180910390a45b505b836004600085815260200190815260200160002060006101000a81548173ffffffffffffffffffffffffffffffffffffffff021916908373ffffffffffffffffffffffffffffffffffffffff16021790555050505050565b612a20838383612ba7565b612ad457600073ffffffffffffffffffffffffffffffffffffffff168373ffffffffffffffffffffffffffffffffffffffff1603612a9557806040517f7e273289000000000000000000000000000000000000000000000000000000008152600401612a8c919061324b565b60405180910390fd5b81816040517f177e802f000000000000000000000000000000000000000000000000000000008152600401612acb929190613f62565b60405180910390fd5b505050565b606060006001612ae884612c68565b01905060008167ffffffffffffffff811115612b0757612b066132f0565b5b6040519080825280601f01601f191660200182016040528015612b395781602001600182028036833780820191505090505b509050600082602001820190505b600115612b9c578080600190039150507f3031323334353637383961626364656600000000000000000000000000000000600a86061a8153600a8581612b9057612b8f613f8b565b5b04945060008503612b47575b819350505050919050565b60008073ffffffffffffffffffffffffffffffffffffffff168373ffffffffffffffffffffffffffffffffffffffff1614158015612c5f57508273ffffffffffffffffffffffffffffffffffffffff168473ffffffffffffffffffffffffffffffffffffffff161480612c205750612c1f8484611acf565b5b80612c5e57508273ffffffffffffffffffffffffffffffffffffffff16612c4683611ccd565b73ffffffffffffffffffffffffffffffffffffffff16145b5b90509392505050565b600080600090507a184f03e93ff9f4daa797ed6e38ed64bf6a1f0100000000000000008310612cc6577a184f03e93ff9f4daa797ed6e38ed64bf6a1f0100000000000000008381612cbc57612cbb613f8b565b5b0492506040810190505b6d04ee2d6d415b85acef81000000008310612d03576d04ee2d6d415b85acef81000000008381612cf957612cf8613f8b565b5b0492506020810190505b662386f26fc100008310612d3257662386f26fc100008381612d2857612d27613f8b565b5b0492506010810190505b6305f5e1008310612d5b576305f5e1008381612d5157612d50613f8b565b5b0492506008810190505b6127108310612d80576127108381612d7657612d75613f8b565b5b0492506004810190505b60648310612da35760648381612d9957612d98613f8b565b5b0492506002810190505b600a8310612db2576001810190505b80915050919050565b6040518060a0016040528060008152602001600073ffffffffffffffffffffffffffffffffffffffff168152602001600073ffffffffffffffffffffffffffffffffffffffff168152602001600081526020016000151581525090565b6000604051905090565b600080fd5b600080fd5b60007fffffffff0000000000000000000000000000000000000000000000000000000082169050919050565b612e6181612e2c565b8114612e6c57600080fd5b50565b600081359050612e7e81612e58565b92915050565b600060208284031215612e9a57612e99612e22565b5b6000612ea884828501612e6f565b91505092915050565b60008115159050919050565b612ec681612eb1565b82525050565b6000602082019050612ee16000830184612ebd565b92915050565b600081519050919050565b600082825260208201905092915050565b60005b83811015612f21578082015181840152602081019050612f06565b60008484015250505050565b6000601f19601f8301169050919050565b6000612f4982612ee7565b612f538185612ef2565b9350612f63818560208601612f03565b612f6c81612f2d565b840191505092915050565b60006020820190508181036000830152612f918184612f3e565b905092915050565b6000819050919050565b612fac81612f99565b8114612fb757600080fd5b50565b600081359050612fc981612fa3565b92915050565b600060208284031215612fe557612fe4612e22565b5b6000612ff384828501612fba565b91505092915050565b600073ffffffffffffffffffffffffffffffffffffffff82169050919050565b600061302782612ffc565b9050919050565b6130378161301c565b82525050565b6000602082019050613052600083018461302e565b92915050565b6130618161301c565b811461306c57600080fd5b50565b60008135905061307e81613058565b92915050565b6000806040838503121561309b5761309a612e22565b5b60006130a98582860161306f565b92505060206130ba85828601612fba565b9150509250929050565b600081519050919050565b600082825260208201905092915050565b6000819050602082019050919050565b6130f981612f99565b82525050565b600061310a82612ffc565b9050919050565b61311a816130ff565b82525050565b61312981612eb1565b82525050565b60a08201600082015161314560008501826130f0565b5060208201516131586020850182613111565b50604082015161316b6040850182613111565b50606082015161317e60608501826130f0565b5060808201516131916080850182613120565b50505050565b60006131a3838361312f565b60a08301905092915050565b6000602082019050919050565b60006131c7826130c4565b6131d181856130cf565b93506131dc836130e0565b8060005b8381101561320d5781516131f48882613197565b97506131ff836131af565b9250506001810190506131e0565b5085935050505092915050565b6000602082019050818103600083015261323481846131bc565b905092915050565b61324581612f99565b82525050565b6000602082019050613260600083018461323c565b92915050565b60008060006060848603121561327f5761327e612e22565b5b600061328d8682870161306f565b935050602061329e8682870161306f565b92505060406132af86828701612fba565b9150509250925092565b6000602082840312156132cf576132ce612e22565b5b60006132dd8482850161306f565b91505092915050565b600080fd5b600080fd5b7f4e487b7100000000000000000000000000000000000000000000000000000000600052604160045260246000fd5b61332882612f2d565b810181811067ffffffffffffffff82111715613347576133466132f0565b5b80604052505050565b600061335a612e18565b9050613366828261331f565b919050565b600067ffffffffffffffff821115613386576133856132f0565b5b61338f82612f2d565b9050602081019050919050565b82818337600083830152505050565b60006133be6133b98461336b565b613350565b9050828152602081018484840111156133da576133d96132eb565b5b6133e584828561339c565b509392505050565b600082601f830112613402576134016132e6565b5b81356134128482602086016133ab565b91505092915050565b6000806040838503121561343257613431612e22565b5b600083013567ffffffffffffffff8111156134505761344f612e27565b5b61345c858286016133ed565b925050602061346d85828601612fba565b9150509250929050565b6000806000606084860312156134905761348f612e22565b5b600061349e86828701612fba565b93505060206134af86828701612fba565b92505060406134c086828701612fba565b9150509250925092565b6134d381612eb1565b81146134de57600080fd5b50565b6000813590506134f0816134ca565b92915050565b6000806040838503121561350d5761350c612e22565b5b600061351b8582860161306f565b925050602061352c858286016134e1565b9150509250929050565b600067ffffffffffffffff821115613551576135506132f0565b5b61355a82612f2d565b9050602081019050919050565b600061357a61357584613536565b613350565b905082815260208101848484011115613596576135956132eb565b5b6135a184828561339c565b509392505050565b600082601f8301126135be576135bd6132e6565b5b81356135ce848260208601613567565b91505092915050565b600080600080608085870312156135f1576135f0612e22565b5b60006135ff8782880161306f565b94505060206136108782880161306f565b935050604061362187828801612fba565b925050606085013567ffffffffffffffff81111561364257613641612e27565b5b61364e878288016135a9565b91505092959194509250565b6000806040838503121561367157613670612e22565b5b600061367f85828601612fba565b925050602061369085828601612fba565b9150509250929050565b600080604083850312156136b1576136b0612e22565b5b60006136bf8582860161306f565b92505060206136d08582860161306f565b9150509250929050565b7f4e487b7100000000000000000000000000000000000000000000000000000000600052602260045260246000fd5b6000600282049050600182168061372157607f821691505b602082108103613734576137336136da565b5b50919050565b7f4e487b7100000000000000000000000000000000000000000000000000000000600052601160045260246000fd5b600061377482612f99565b915061377f83612f99565b92508282039050818111156137975761379661373a565b5b92915050565b60006137a882612f99565b91506137b383612f99565b92508282019050808211156137cb576137ca61373a565b5b92915050565b7f4e487b7100000000000000000000000000000000000000000000000000000000600052603260045260246000fd5b600061380b82612f99565b91507fffffffffffffffffffffffffffffffffffffffffffffffffffffffffffffffff820361383d5761383c61373a565b5b600182019050919050565b600060608201905061385d600083018661302e565b61386a602083018561323c565b613877604083018461302e565b949350505050565b7f4f6e6c79206974656d206f776e65722063616e20706572666f726d207468697360008201527f206f7065726174696f6e00000000000000000000000000000000000000000000602082015250565b60006138db602a83612ef2565b91506138e68261387f565b604082019050919050565b6000602082019050818103600083015261390a816138ce565b9050919050565b600061391c82612f99565b91506000820361392f5761392e61373a565b5b600182039050919050565b7f4f6e6c79206d61726b6574706c616365206f776e65722063616e20757064617460008201527f65206c697374696e672070726963652e00000000000000000000000000000000602082015250565b6000613996603083612ef2565b91506139a18261393a565b604082019050919050565b600060208201905081810360008301526139c581613989565b9050919050565b7f506c65617365207375626d6974207468652061736b696e67207072696365206960008201527f6e206f7264657220746f20636f6d706c65746520746865207075726368617365602082015250565b6000613a28604083612ef2565b9150613a33826139cc565b604082019050919050565b60006020820190508181036000830152613a5781613a1b565b9050919050565b600081905092915050565b6000613a7482612ee7565b613a7e8185613a5e565b9350613a8e818560208601612f03565b80840191505092915050565b6000613aa68285613a69565b9150613ab28284613a69565b91508190509392505050565b7f5072696365206d75737420626520657175616c20746f206c697374696e67207060008201527f7269636500000000000000000000000000000000000000000000000000000000602082015250565b6000613b1a602483612ef2565b9150613b2582613abe565b604082019050919050565b60006020820190508181036000830152613b4981613b0d565b9050919050565b60008190508160005260206000209050919050565b60006020601f8301049050919050565b600082821b905092915050565b600060088302613bb27fffffffffffffffffffffffffffffffffffffffffffffffffffffffffffffffff82613b75565b613bbc8683613b75565b95508019841693508086168417925050509392505050565b6000819050919050565b6000613bf9613bf4613bef84612f99565b613bd4565b612f99565b9050919050565b6000819050919050565b613c1383613bde565b613c27613c1f82613c00565b848454613b82565b825550505050565b600090565b613c3c613c2f565b613c47818484613c0a565b505050565b5b81811015613c6b57613c60600082613c34565b600181019050613c4d565b5050565b601f821115613cb057613c8181613b50565b613c8a84613b65565b81016020851015613c99578190505b613cad613ca585613b65565b830182613c4c565b50505b505050565b600082821c905092915050565b6000613cd360001984600802613cb5565b1980831691505092915050565b6000613cec8383613cc2565b9150826002028217905092915050565b613d0582612ee7565b67ffffffffffffffff811115613d1e57613d1d6132f0565b5b613d288254613709565b613d33828285613c6f565b600060209050601f831160018114613d665760008415613d54578287015190505b613d5e8582613ce0565b865550613dc6565b601f198416613d7486613b50565b60005b82811015613d9c57848901518255600182019150602085019450602081019050613d77565b86831015613db95784890151613db5601f891682613cc2565b8355505b6001600288020188555050505b505050505050565b7f5072696365206d757374206265206174206c6561737420312077656900000000600082015250565b6000613e04601c83612ef2565b9150613e0f82613dce565b602082019050919050565b60006020820190508181036000830152613e3381613df7565b9050919050565b6000608082019050613e4f600083018761302e565b613e5c602083018661302e565b613e69604083018561323c565b613e766060830184612ebd565b95945050505050565b600081519050919050565b600082825260208201905092915050565b6000613ea682613e7f565b613eb08185613e8a565b9350613ec0818560208601612f03565b613ec981612f2d565b840191505092915050565b6000608082019050613ee9600083018761302e565b613ef6602083018661302e565b613f03604083018561323c565b8181036060830152613f158184613e9b565b905095945050505050565b600081519050613f2f81612e58565b92915050565b600060208284031215613f4b57613f4a612e22565b5b6000613f5984828501613f20565b91505092915050565b6000604082019050613f77600083018561302e565b613f84602083018461323c565b9392505050565b7f4e487b7100000000000000000000000000000000000000000000000000000000600052601260045260246000fdfea26469706673582212201ad8f712f09ba10d6f4fd8728aa7e75d559713f1f05a3bee2476d176bd57dfd164736f6c63430008140033",
  "linkReferences": {},
  "deployedLinkReferences": {}
}